{
  "contractName": "Authorizable",
  "abi": [
    {
      "inputs": [],
      "stateMutability": "nonpayable",
      "type": "constructor"
    },
    {
      "inputs": [
        {
          "internalType": "address",
          "name": "",
          "type": "address"
        }
      ],
      "name": "authorized",
      "outputs": [
        {
          "internalType": "bool",
          "name": "",
          "type": "bool"
        }
      ],
      "stateMutability": "view",
      "type": "function"
    },
    {
      "inputs": [],
      "name": "owner",
      "outputs": [
        {
          "internalType": "address",
          "name": "",
          "type": "address"
        }
      ],
      "stateMutability": "view",
      "type": "function"
    },
    {
      "inputs": [
        {
          "internalType": "address",
          "name": "who",
          "type": "address"
        }
      ],
      "name": "isAuthorized",
      "outputs": [
        {
          "internalType": "bool",
          "name": "",
          "type": "bool"
        }
      ],
      "stateMutability": "view",
      "type": "function"
    },
    {
      "inputs": [
        {
          "internalType": "address",
          "name": "who",
          "type": "address"
        }
      ],
      "name": "authorize",
      "outputs": [],
      "stateMutability": "nonpayable",
      "type": "function"
    },
    {
      "inputs": [
        {
          "internalType": "address",
          "name": "who",
          "type": "address"
        }
      ],
      "name": "deauthorize",
      "outputs": [],
      "stateMutability": "nonpayable",
      "type": "function"
    },
    {
      "inputs": [
        {
          "internalType": "address",
          "name": "who",
          "type": "address"
        }
      ],
      "name": "setOwner",
      "outputs": [],
      "stateMutability": "nonpayable",
      "type": "function"
    }
  ],
  "bytecode": "0x608060405234801561001057600080fd5b50600080546001600160a01b031916331790556102df806100326000396000f3fe608060405234801561001057600080fd5b50600436106100625760003560e01c806313af40351461006757806327c97fa51461007c5780638da5cb5b1461008f578063b6a5d7de146100ad578063b9181611146100c0578063fe9fbb80146100e0575b600080fd5b61007a610075366004610232565b6100f3565b005b61007a61008a366004610232565b610148565b610097610193565b6040516100a49190610260565b60405180910390f35b61007a6100bb366004610232565b6101a2565b6100d36100ce366004610232565b6101d8565b6040516100a49190610274565b6100d36100ee366004610232565b6101ed565b6000546001600160a01b031633146101265760405162461bcd60e51b815260040161011d9061027f565b60405180910390fd5b600080546001600160a01b0319166001600160a01b0392909216919091179055565b6000546001600160a01b031633146101725760405162461bcd60e51b815260040161011d9061027f565b6001600160a01b03166000908152600160205260409020805460ff19169055565b6000546001600160a01b031681565b6000546001600160a01b031633146101cc5760405162461bcd60e51b815260040161011d9061027f565b6101d58161020b565b50565b60016020526000908152604090205460ff1681565b6001600160a01b031660009081526001602052604090205460ff1690565b6001600160a01b03166000908152600160208190526040909120805460ff19169091179055565b600060208284031215610243578081fd5b81356001600160a01b0381168114610259578182fd5b9392505050565b6001600160a01b0391909116815260200190565b901515815260200190565b60208082526010908201526f29b2b73232b9103737ba1037bbb732b960811b60408201526060019056fea2646970667358221220018602e58a70a739bd6c4435d71fb5da6b53da54717fcee0deebecb8ea8af24864736f6c63430008000033",
  "immutableReferences": {},
  "source": "// SPDX-License-Identifier: Apache-2.0\r\npragma solidity >=0.7.0;\r\n\r\ncontract Authorizable {\r\n    // This contract allows a flexible authorization scheme\r\n\r\n    // The owner who can change authorization status\r\n    address public owner;\r\n    // A mapping from an address to its authorization status\r\n    mapping(address => bool) public authorized;\r\n\r\n    /// @dev We set the deployer to the owner\r\n    constructor() {\r\n        owner = msg.sender;\r\n    }\r\n\r\n    /// @dev This modifier checks if the msg.sender is the owner\r\n    modifier onlyOwner() {\r\n        require(msg.sender == owner, \"Sender not owner\");\r\n        _;\r\n    }\r\n\r\n    /// @dev This modifier checks if an address is authorized\r\n    modifier onlyAuthorized() {\r\n        require(isAuthorized(msg.sender), \"Sender not Authorized\");\r\n        _;\r\n    }\r\n\r\n    /// @dev Returns true if an address is authorized\r\n    /// @param who the address to check\r\n    /// @return true if authorized false if not\r\n    function isAuthorized(address who) public view returns (bool) {\r\n        return authorized[who];\r\n    }\r\n\r\n    /// @dev Privileged function authorize an address\r\n    /// @param who the address to authorize\r\n    function authorize(address who) external onlyOwner() {\r\n        _authorize(who);\r\n    }\r\n\r\n    /// @dev Privileged function to de authorize an address\r\n    /// @param who The address to remove authorization from\r\n    function deauthorize(address who) external onlyOwner() {\r\n        authorized[who] = false;\r\n    }\r\n\r\n    /// @dev Function to change owner\r\n    /// @param who The new owner address\r\n    function setOwner(address who) public onlyOwner() {\r\n        owner = who;\r\n    }\r\n\r\n    /// @dev Inheritable function which authorizes someone\r\n    /// @param who the address to authorize\r\n    function _authorize(address who) internal {\r\n        authorized[who] = true;\r\n    }\r\n}\r\n",
  "sourcePath": "/d/Code/Conflux-UMA/element-demo/contracts/libraries/Authorizable.sol",
  "compiler": {
    "name": "solc",
    "version": "0.8.0+commit.c7dfd78e.Emscripten.clang"
  },
  "schemaVersion": "3.3.4",
  "updatedAt": "2021-08-12T10:59:49.796Z",
  "devdoc": {
    "kind": "dev",
    "methods": {
      "authorize(address)": {
        "details": "Privileged function authorize an address",
        "params": {
          "who": "the address to authorize"
        }
      },
      "constructor": {
        "details": "We set the deployer to the owner"
      },
      "deauthorize(address)": {
        "details": "Privileged function to de authorize an address",
        "params": {
          "who": "The address to remove authorization from"
        }
      },
      "isAuthorized(address)": {
        "details": "Returns true if an address is authorized",
        "params": {
          "who": "the address to check"
        },
        "returns": {
          "_0": "true if authorized false if not"
        }
      },
      "setOwner(address)": {
        "details": "Function to change owner",
        "params": {
          "who": "The new owner address"
        }
      }
    },
    "version": 1
  },
  "userdoc": {
    "kind": "user",
    "methods": {},
    "version": 1
  }
}