{
  "contractName": "DateString",
  "abi": [
    {
      "inputs": [],
      "name": "OFFSET19700101",
      "outputs": [
        {
          "internalType": "int256",
          "name": "",
          "type": "int256"
        }
      ],
      "stateMutability": "view",
      "type": "function"
    },
    {
      "inputs": [],
      "name": "SECONDS_PER_DAY",
      "outputs": [
        {
          "internalType": "uint256",
          "name": "",
          "type": "uint256"
        }
      ],
      "stateMutability": "view",
      "type": "function"
    },
    {
      "inputs": [],
      "name": "SECONDS_PER_HOUR",
      "outputs": [
        {
          "internalType": "uint256",
          "name": "",
          "type": "uint256"
        }
      ],
      "stateMutability": "view",
      "type": "function"
    },
    {
      "inputs": [],
      "name": "SECONDS_PER_MINUTE",
      "outputs": [
        {
          "internalType": "uint256",
          "name": "",
          "type": "uint256"
        }
      ],
      "stateMutability": "view",
      "type": "function"
    }
  ],
  "bytecode": "0x610d2861003a600b82828239805160001a60731461002d57634e487b7160e01b600052600060045260246000fd5b30600052607381538281f3fe730000000000000000000000000000000000000000301460806040526004361061006c5760003560e01c80634df861261461007157806374f0314f1461008f578063a3f144ae14610097578063bcb4f29a1461009f578063e9556430146100c1578063f40ce946146100c9575b600080fd5b6100796100e9565b6040516100869190610aa6565b60405180910390f35b6100796100ef565b6100796100f6565b8180156100ab57600080fd5b506100bf6100ba366004610a85565b6100fd565b005b61007961010b565b8180156100d557600080fd5b506100bf6100e43660046109d5565b610110565b610e1081565b6201518081565b62253d8c81565b6101078282610120565b5050565b603c81565b61011b83838361057f565b505050565b806000808061013a6101356201518088610b70565b6106de565b91945092509050600061014e600a83610b70565b90508461015c826030610b1d565b60f81b908080548061016d90610c46565b80601f811461017b57610191565b83600052602060002060ff1984168155603f9350505b506002919091019091558154600116156101ba5790600052602060002090602091828204019190065b909190919091601f036101000a81548160ff02191690600160f81b840402179055506000600a836101eb9190610c9c565b9050856101f9826030610b1d565b60f81b908080548061020a90610c46565b80601f81146102185761022e565b83600052602060002060ff1984168155603f9350505b506002919091019091558154600116156102575790600052602060002090602091828204019190065b909190919091601f036101000a81548160ff02191690600160f81b84040217905550505081600114156102a15761029c84602560f91b604160f81b602760f91b610852565b61042d565b81600214156102c25761029c84602360f91b604560f81b602160f91b610852565b81600314156102e35761029c84604d60f81b604160f81b602960f91b610852565b81600414156103045761029c84604160f81b600560fc1b602960f91b610852565b81600514156103255761029c84604d60f81b604160f81b605960f81b610852565b81600614156103465761029c84602560f91b605560f81b602760f91b610852565b81600714156103675761029c84602560f91b605560f81b601360fa1b610852565b81600814156103885761029c84604160f81b605560f81b604760f81b610852565b81600914156103a95761029c84605360f81b604560f81b600560fc1b610852565b81600a14156103ca5761029c84604f60f81b604360f81b601560fa1b610852565b81600b14156103eb5761029c84602760f91b604f60f81b602b60f91b610852565b81600c141561040c5761029c84601160fa1b604560f81b604360f81b610852565b60405162461bcd60e51b815260040161042490610aaf565b60405180910390fd5b600061043a606485610c9c565b90506000610449600a83610b70565b905085610457826030610b1d565b60f81b908080548061046890610c46565b80601f81146104765761048c565b83600052602060002060ff1984168155603f9350505b506002919091019091558154600116156104b55790600052602060002090602091828204019190065b909190919091601f036101000a81548160ff02191690600160f81b840402179055506000600a836104e69190610c9c565b9050866104f4826030610b1d565b60f81b908080548061050590610c46565b80601f811461051357610529565b83600052602060002060ff1984168155603f9350505b506002919091019091558154600116156105525790600052602060002090602091828204019190065b909190919091601f036101000a81548160ff02191690600160f81b84040217905550505050505050505050565b828160005b825181101561064957818382815181106105ae57634e487b7160e01b600052603260045260246000fd5b602001015160f81c60f81b90808054806105c790610c46565b80601f81146105d5576105eb565b83600052602060002060ff1984168155603f9350505b506002919091019091558154600116156106145790600052602060002090602091828204019190065b909190919091601f036101000a81548160ff02191690600160f81b84040217905550808061064190610c81565b915050610584565b5080602d60f81b908080548061065e90610c46565b80601f811461066c57610682565b83600052602060002060ff1984168155603f9350505b506002919091019091558154600116156106ab5790600052602060002090602091828204019190065b909190919091601f036101000a81548160ff02191690600160f81b840402179055506106d784846100fd565b5050505050565b60008080838162253d8c6106f58362010bd9610adc565b6106ff9190610adc565b9050600062023ab1610712836004610b84565b61071c9190610b42565b9050600461072d8262023ab1610b84565b610738906003610adc565b6107429190610b42565b61074c9083610c07565b9150600062164b0961075f846001610adc565b61076b90610fa0610b84565b6107759190610b42565b90506004610785826105b5610b84565b61078f9190610b42565b6107999084610c07565b6107a490601f610adc565b9250600061098f6107b6856050610b84565b6107c09190610b42565b9050600060506107d28361098f610b84565b6107dc9190610b42565b6107e69086610c07565b90506107f3600b83610b42565b945061080085600c610b84565b61080b836002610adc565b6108159190610c07565b91508483610824603187610c07565b61082f906064610b84565b6108399190610adc565b6108439190610adc565b9a919950975095505050505050565b8383908080548061086290610c46565b80601f811461087057610886565b83600052602060002060ff1984168155603f9350505b506002919091019091558154600116156108af5790600052602060002090602091828204019190065b909190919091601f036101000a81548160ff02191690600160f81b84040217905550838290808054806108e190610c46565b80601f81146108ef57610905565b83600052602060002060ff1984168155603f9350505b5060029190910190915581546001161561092e5790600052602060002090602091828204019190065b909190919091601f036101000a81548160ff02191690600160f81b840402179055508381908080548061096090610c46565b80601f811461096e57610984565b83600052602060002060ff1984168155603f9350505b506002919091019091558154600116156109ad5790600052602060002090602091828204019190065b909190919091601f036101000a81548160ff02191690600160f81b8404021790555050505050565b6000806000606084860312156109e9578283fd5b833567ffffffffffffffff80821115610a00578485fd5b818601915086601f830112610a13578485fd5b8135602082821115610a2757610a27610cdc565b604051601f8301601f1916810182018481118282101715610a4a57610a4a610cdc565b60405282815284830182018a1015610a60578788fd5b8282860183830137918201810196909652979486013596505050604090930135925050565b60008060408385031215610a97578182fd5b50508035926020909101359150565b90815260200190565b6020808252601390820152723230ba32903232b1b7b234b7339032b93937b960691b604082015260600190565b600080821280156001600160ff1b0384900385131615610afe57610afe610cb0565b600160ff1b8390038412811615610b1757610b17610cb0565b50500190565b600060ff821660ff84168060ff03821115610b3a57610b3a610cb0565b019392505050565b600082610b5157610b51610cc6565b600160ff1b821460001984141615610b6b57610b6b610cb0565b500590565b600082610b7f57610b7f610cc6565b500490565b60006001600160ff1b0381841382841380821686840486111615610baa57610baa610cb0565b600160ff1b84871282811687830589121615610bc857610bc8610cb0565b858712925087820587128484161615610be357610be3610cb0565b87850587128184161615610bf957610bf9610cb0565b505050929093029392505050565b60008083128015600160ff1b850184121615610c2557610c25610cb0565b6001600160ff1b0384018313811615610c4057610c40610cb0565b50500390565b600281046001821680610c5a57607f821691505b60208210811415610c7b57634e487b7160e01b600052602260045260246000fd5b50919050565b6000600019821415610c9557610c95610cb0565b5060010190565b600082610cab57610cab610cc6565b500690565b634e487b7160e01b600052601160045260246000fd5b634e487b7160e01b600052601260045260246000fd5b634e487b7160e01b600052604160045260246000fdfea264697066735822122063a0868f6a57e0d6630346bb24e8a98ddadedbec37619a43516f4393acf8922b64736f6c63430008000033",
  "immutableReferences": {},
  "source": "// SPDX-License-Identifier: Apache-2.0\r\npragma solidity ^0.8.0;\r\n\r\nlibrary DateString {\r\n    uint256 public constant SECONDS_PER_DAY = 24 * 60 * 60;\r\n    uint256 public constant SECONDS_PER_HOUR = 60 * 60;\r\n    uint256 public constant SECONDS_PER_MINUTE = 60;\r\n    int256 public constant OFFSET19700101 = 2440588;\r\n\r\n    // This function was forked from https://github.com/bokkypoobah/BokkyPooBahsDateTimeLibrary\r\n    // ------------------------------------------------------------------------\r\n    // Calculate year/month/day from the number of days since 1970/01/01 using\r\n    // the date conversion algorithm from\r\n    //   http://aa.usno.navy.mil/faq/docs/JD_Formula.php\r\n    // and adding the offset 2440588 so that 1970/01/01 is day 0\r\n    //\r\n    // int L = days + 68569 + offset\r\n    // int N = 4 * L / 146097\r\n    // L = L - (146097 * N + 3) / 4\r\n    // year = 4000 * (L + 1) / 1461001\r\n    // L = L - 1461 * year / 4 + 31\r\n    // month = 80 * L / 2447\r\n    // dd = L - 2447 * month / 80\r\n    // L = month / 11\r\n    // month = month + 2 - 12 * L\r\n    // year = 100 * (N - 49) + year + L\r\n    // ------------------------------------------------------------------------\r\n    // solhint-disable-next-line private-vars-leading-underscore\r\n    function _daysToDate(uint256 _days)\r\n        internal\r\n        pure\r\n        returns (\r\n            uint256 year,\r\n            uint256 month,\r\n            uint256 day\r\n        )\r\n    {\r\n        int256 __days = int256(_days);\r\n        // solhint-disable-next-line var-name-mixedcase\r\n        int256 L = __days + 68569 + OFFSET19700101;\r\n        // solhint-disable-next-line var-name-mixedcase\r\n        int256 N = (4 * L) / 146097;\r\n        L = L - (146097 * N + 3) / 4;\r\n        int256 _year = (4000 * (L + 1)) / 1461001;\r\n        L = L - (1461 * _year) / 4 + 31;\r\n        int256 _month = (80 * L) / 2447;\r\n        int256 _day = L - (2447 * _month) / 80;\r\n        L = _month / 11;\r\n        _month = _month + 2 - 12 * L;\r\n        _year = 100 * (N - 49) + _year + L;\r\n\r\n        year = uint256(_year);\r\n        month = uint256(_month);\r\n        day = uint256(_day);\r\n    }\r\n\r\n    /// @dev Writes a prefix and an timestamp encoding to an output storage location\r\n    ///      This function is designed to only work with ASCII encoded strings. No emojis please.\r\n    /// @param _prefix The string to write before the timestamp\r\n    /// @param _timestamp the timestamp to encode and store\r\n    /// @param _output the storage location of the output string\r\n    /// NOTE - Current cost ~90k if gas is problem revisit and use assembly to remove the extra\r\n    ///        sstore s.\r\n    function encodeAndWriteTimestamp(\r\n        string memory _prefix,\r\n        uint256 _timestamp,\r\n        string storage _output\r\n    ) external {\r\n        _encodeAndWriteTimestamp(_prefix, _timestamp, _output);\r\n    }\r\n\r\n    /// @dev Sn internal version of the above function 'encodeAndWriteTimestamp'\r\n    // solhint-disable-next-line\r\n    function _encodeAndWriteTimestamp(\r\n        string memory _prefix,\r\n        uint256 _timestamp,\r\n        string storage _output\r\n    ) internal {\r\n        // Cast the prefix string to a byte array\r\n        bytes memory bytePrefix = bytes(_prefix);\r\n        // Cast the output string to a byte array\r\n        bytes storage bytesOutput = bytes(_output);\r\n        // Copy the bytes from the prefix onto the byte array\r\n        // NOTE - IF PREFIX CONTAINS NON-ASCII CHARS THIS WILL CAUSE AN INCORRECT STRING LENGTH\r\n        for (uint256 i = 0; i < bytePrefix.length; i++) {\r\n            bytesOutput.push(bytePrefix[i]);\r\n        }\r\n        // Add a '-' to the string to separate the prefix from the the date\r\n        bytesOutput.push(bytes1(\"-\"));\r\n        // Add the date string\r\n        timestampToDateString(_timestamp, _output);\r\n    }\r\n\r\n    /// @dev Converts a unix second encoded timestamp to a date format (year, month, day)\r\n    ///      then writes the string encoding of that to the output pointer.\r\n    /// @param _timestamp the unix seconds timestamp\r\n    /// @param _outputPointer the storage pointer to change.\r\n    function timestampToDateString(\r\n        uint256 _timestamp,\r\n        string storage _outputPointer\r\n    ) public {\r\n        _timestampToDateString(_timestamp, _outputPointer);\r\n    }\r\n\r\n    /// @dev Sn internal version of the above function 'timestampToDateString'\r\n    // solhint-disable-next-line\r\n    function _timestampToDateString(\r\n        uint256 _timestamp,\r\n        string storage _outputPointer\r\n    ) internal {\r\n        // We pretend the string is a 'bytes' only push UTF8 encodings to it\r\n        bytes storage output = bytes(_outputPointer);\r\n        // First we get the day month and year\r\n        (uint256 year, uint256 month, uint256 day) = _daysToDate(\r\n            _timestamp / SECONDS_PER_DAY\r\n        );\r\n        // First we add encoded day to the string\r\n        {\r\n            // Round out the second digit\r\n            uint256 firstDigit = day / 10;\r\n            // add it to the encoded byte for '0'\r\n            output.push(bytes1(uint8(bytes1(\"0\")) + uint8(firstDigit)));\r\n            // Extract the second digit\r\n            uint256 secondDigit = day % 10;\r\n            // add it to the string\r\n            output.push(bytes1(uint8(bytes1(\"0\")) + uint8(secondDigit)));\r\n        }\r\n        // Next we encode the month string and add it\r\n        if (month == 1) {\r\n            stringPush(output, \"J\", \"A\", \"N\");\r\n        } else if (month == 2) {\r\n            stringPush(output, \"F\", \"E\", \"B\");\r\n        } else if (month == 3) {\r\n            stringPush(output, \"M\", \"A\", \"R\");\r\n        } else if (month == 4) {\r\n            stringPush(output, \"A\", \"P\", \"R\");\r\n        } else if (month == 5) {\r\n            stringPush(output, \"M\", \"A\", \"Y\");\r\n        } else if (month == 6) {\r\n            stringPush(output, \"J\", \"U\", \"N\");\r\n        } else if (month == 7) {\r\n            stringPush(output, \"J\", \"U\", \"L\");\r\n        } else if (month == 8) {\r\n            stringPush(output, \"A\", \"U\", \"G\");\r\n        } else if (month == 9) {\r\n            stringPush(output, \"S\", \"E\", \"P\");\r\n        } else if (month == 10) {\r\n            stringPush(output, \"O\", \"C\", \"T\");\r\n        } else if (month == 11) {\r\n            stringPush(output, \"N\", \"O\", \"V\");\r\n        } else if (month == 12) {\r\n            stringPush(output, \"D\", \"E\", \"C\");\r\n        } else {\r\n            revert(\"date decoding error\");\r\n        }\r\n        // We take the last two digits of the year\r\n        // Hopefully that's enough\r\n        {\r\n            uint256 lastDigits = year % 100;\r\n            // Round out the second digit\r\n            uint256 firstDigit = lastDigits / 10;\r\n            // add it to the encoded byte for '0'\r\n            output.push(bytes1(uint8(bytes1(\"0\")) + uint8(firstDigit)));\r\n            // Extract the second digit\r\n            uint256 secondDigit = lastDigits % 10;\r\n            // add it to the string\r\n            output.push(bytes1(uint8(bytes1(\"0\")) + uint8(secondDigit)));\r\n        }\r\n    }\r\n\r\n    function stringPush(\r\n        bytes storage output,\r\n        bytes1 data1,\r\n        bytes1 data2,\r\n        bytes1 data3\r\n    ) internal {\r\n        output.push(data1);\r\n        output.push(data2);\r\n        output.push(data3);\r\n    }\r\n}\r\n",
  "sourcePath": "/d/Code/Conflux-UMA/element-demo/contracts/libraries/DateString.sol",
  "compiler": {
    "name": "solc",
    "version": "0.8.0+commit.c7dfd78e.Emscripten.clang"
  },
  "schemaVersion": "3.3.4",
  "updatedAt": "2021-08-12T10:59:49.803Z",
  "devdoc": {
    "kind": "dev",
    "methods": {
      "encodeAndWriteTimestamp(string,uint256,string storage)": {
        "details": "Writes a prefix and an timestamp encoding to an output storage location      This function is designed to only work with ASCII encoded strings. No emojis please.",
        "params": {
          "_output": "the storage location of the output string NOTE - Current cost ~90k if gas is problem revisit and use assembly to remove the extra        sstore s.",
          "_prefix": "The string to write before the timestamp",
          "_timestamp": "the timestamp to encode and store"
        }
      },
      "timestampToDateString(uint256,string storage)": {
        "details": "Converts a unix second encoded timestamp to a date format (year, month, day)      then writes the string encoding of that to the output pointer.",
        "params": {
          "_outputPointer": "the storage pointer to change.",
          "_timestamp": "the unix seconds timestamp"
        }
      }
    },
    "version": 1
  },
  "userdoc": {
    "kind": "user",
    "methods": {},
    "version": 1
  }
}