{
  "contractName": "DateString",
  "abi": [
    {
      "inputs": [],
      "name": "OFFSET19700101",
      "outputs": [
        {
          "internalType": "int256",
          "name": "",
          "type": "int256"
        }
      ],
      "stateMutability": "view",
      "type": "function"
    },
    {
      "inputs": [],
      "name": "SECONDS_PER_DAY",
      "outputs": [
        {
          "internalType": "uint256",
          "name": "",
          "type": "uint256"
        }
      ],
      "stateMutability": "view",
      "type": "function"
    },
    {
      "inputs": [],
      "name": "SECONDS_PER_HOUR",
      "outputs": [
        {
          "internalType": "uint256",
          "name": "",
          "type": "uint256"
        }
      ],
      "stateMutability": "view",
      "type": "function"
    },
    {
      "inputs": [],
      "name": "SECONDS_PER_MINUTE",
      "outputs": [
        {
          "internalType": "uint256",
          "name": "",
          "type": "uint256"
        }
      ],
      "stateMutability": "view",
      "type": "function"
    }
  ],
  "bytecode": "0x610d1a61003a600b82828239805160001a60731461002d57634e487b7160e01b600052600060045260246000fd5b30600052607381538281f3fe730000000000000000000000000000000000000000301460806040526004361061006c5760003560e01c80634df861261461007157806374f0314f1461008c578063a3f144ae14610096578063bcb4f29a146100a0578063e9556430146100c2578063f40ce946146100ca575b600080fd5b61007a610e1081565b60405190815260200160405180910390f35b61007a6201518081565b61007a62253d8c81565b8180156100ac57600080fd5b506100c06100bb366004610a94565b6100ea565b005b61007a603c81565b8180156100d657600080fd5b506100c06100e53660046109d0565b6100f8565b6100f48282610108565b5050565b610103838383610588565b505050565b806000808061012261011d6201518088610b4a565b6106d9565b919450925090506000610136600a83610b4a565b905084610144826030610af7565b60f81b908080548061015590610c22565b80601f811461016357610179565b83600052602060002060ff1984168155603f9350505b506002919091019091558154600116156101a25790600052602060002090602091828204019190065b909190919091601f036101000a81548160ff02191690600160f81b840402179055506000600a836101d39190610c78565b9050856101e1826030610af7565b60f81b90808054806101f290610c22565b80601f811461020057610216565b83600052602060002060ff1984168155603f9350505b5060029190910190915581546001161561023f5790600052602060002090602091828204019190065b909190919091601f036101000a81548160ff02191690600160f81b84040217905550505081600114156102895761028484602560f91b604160f81b602760f91b61084d565b610436565b81600214156102aa5761028484602360f91b604560f81b602160f91b61084d565b81600314156102cb5761028484604d60f81b604160f81b602960f91b61084d565b81600414156102ec5761028484604160f81b600560fc1b602960f91b61084d565b816005141561030d5761028484604d60f81b604160f81b605960f81b61084d565b816006141561032e5761028484602560f91b605560f81b602760f91b61084d565b816007141561034f5761028484602560f91b605560f81b601360fa1b61084d565b81600814156103705761028484604160f81b605560f81b604760f81b61084d565b81600914156103915761028484605360f81b604560f81b600560fc1b61084d565b81600a14156103b25761028484604f60f81b604360f81b601560fa1b61084d565b81600b14156103d35761028484602760f91b604f60f81b602b60f91b61084d565b81600c14156103f45761028484601160fa1b604560f81b604360f81b61084d565b60405162461bcd60e51b81526020600482015260136024820152723230ba32903232b1b7b234b7339032b93937b960691b604482015260640160405180910390fd5b6000610443606485610c78565b90506000610452600a83610b4a565b905085610460826030610af7565b60f81b908080548061047190610c22565b80601f811461047f57610495565b83600052602060002060ff1984168155603f9350505b506002919091019091558154600116156104be5790600052602060002090602091828204019190065b909190919091601f036101000a81548160ff02191690600160f81b840402179055506000600a836104ef9190610c78565b9050866104fd826030610af7565b60f81b908080548061050e90610c22565b80601f811461051c57610532565b83600052602060002060ff1984168155603f9350505b5060029190910190915581546001161561055b5790600052602060002090602091828204019190065b909190919091601f036101000a81548160ff02191690600160f81b84040217905550505050505050505050565b828160005b825181101561064457818382815181106105a9576105a9610cb8565b602001015160f81c60f81b90808054806105c290610c22565b80601f81146105d0576105e6565b83600052602060002060ff1984168155603f9350505b5060029190910190915581546001161561060f5790600052602060002090602091828204019190065b909190919091601f036101000a81548160ff02191690600160f81b84040217905550808061063c90610c5d565b91505061058d565b5080602d60f81b908080548061065990610c22565b80601f81146106675761067d565b83600052602060002060ff1984168155603f9350505b506002919091019091558154600116156106a65790600052602060002090602091828204019190065b909190919091601f036101000a81548160ff02191690600160f81b840402179055506106d284846100ea565b5050505050565b60008080838162253d8c6106f08362010bd9610ab6565b6106fa9190610ab6565b9050600062023ab161070d836004610b5e565b6107179190610b1c565b905060046107288262023ab1610b5e565b610733906003610ab6565b61073d9190610b1c565b6107479083610be3565b9150600062164b0961075a846001610ab6565b61076690610fa0610b5e565b6107709190610b1c565b90506004610780826105b5610b5e565b61078a9190610b1c565b6107949084610be3565b61079f90601f610ab6565b9250600061098f6107b1856050610b5e565b6107bb9190610b1c565b9050600060506107cd8361098f610b5e565b6107d79190610b1c565b6107e19086610be3565b90506107ee600b83610b1c565b94506107fb85600c610b5e565b610806836002610ab6565b6108109190610be3565b9150848361081f603187610be3565b61082a906064610b5e565b6108349190610ab6565b61083e9190610ab6565b9a919950975095505050505050565b8383908080548061085d90610c22565b80601f811461086b57610881565b83600052602060002060ff1984168155603f9350505b506002919091019091558154600116156108aa5790600052602060002090602091828204019190065b909190919091601f036101000a81548160ff02191690600160f81b84040217905550838290808054806108dc90610c22565b80601f81146108ea57610900565b83600052602060002060ff1984168155603f9350505b506002919091019091558154600116156109295790600052602060002090602091828204019190065b909190919091601f036101000a81548160ff02191690600160f81b840402179055508381908080548061095b90610c22565b80601f81146109695761097f565b83600052602060002060ff1984168155603f9350505b506002919091019091558154600116156109a85790600052602060002090602091828204019190065b909190919091601f036101000a81548160ff02191690600160f81b8404021790555050505050565b6000806000606084860312156109e557600080fd5b833567ffffffffffffffff808211156109fd57600080fd5b818601915086601f830112610a1157600080fd5b813581811115610a2357610a23610cce565b604051601f8201601f19908116603f01168101908382118183101715610a4b57610a4b610cce565b81604052828152896020848701011115610a6457600080fd5b82602086016020830137600060208483010152809750505050505060208401359150604084013590509250925092565b60008060408385031215610aa757600080fd5b50508035926020909101359150565b600080821280156001600160ff1b0384900385131615610ad857610ad8610c8c565b600160ff1b8390038412811615610af157610af1610c8c565b50500190565b600060ff821660ff84168060ff03821115610b1457610b14610c8c565b019392505050565b600082610b2b57610b2b610ca2565b600160ff1b821460001984141615610b4557610b45610c8c565b500590565b600082610b5957610b59610ca2565b500490565b60006001600160ff1b0381841382841380821686840486111615610b8457610b84610c8c565b600160ff1b6000871282811687830589121615610ba357610ba3610c8c565b60008712925087820587128484161615610bbf57610bbf610c8c565b87850587128184161615610bd557610bd5610c8c565b505050929093029392505050565b60008083128015600160ff1b850184121615610c0157610c01610c8c565b6001600160ff1b0384018313811615610c1c57610c1c610c8c565b50500390565b600181811c90821680610c3657607f821691505b60208210811415610c5757634e487b7160e01b600052602260045260246000fd5b50919050565b6000600019821415610c7157610c71610c8c565b5060010190565b600082610c8757610c87610ca2565b500690565b634e487b7160e01b600052601160045260246000fd5b634e487b7160e01b600052601260045260246000fd5b634e487b7160e01b600052603260045260246000fd5b634e487b7160e01b600052604160045260246000fdfea2646970667358221220e407d82a55ab57581505546b1676b4a55f60499d620aeec036b4ad9056a7a85564736f6c63430008070033",
  "immutableReferences": {},
  "source": "// SPDX-License-Identifier: Apache-2.0\r\npragma solidity ^0.8.0;\r\n\r\nlibrary DateString {\r\n    uint256 public constant SECONDS_PER_DAY = 24 * 60 * 60;\r\n    uint256 public constant SECONDS_PER_HOUR = 60 * 60;\r\n    uint256 public constant SECONDS_PER_MINUTE = 60;\r\n    int256 public constant OFFSET19700101 = 2440588;\r\n\r\n    // This function was forked from https://github.com/bokkypoobah/BokkyPooBahsDateTimeLibrary\r\n    // ------------------------------------------------------------------------\r\n    // Calculate year/month/day from the number of days since 1970/01/01 using\r\n    // the date conversion algorithm from\r\n    //   http://aa.usno.navy.mil/faq/docs/JD_Formula.php\r\n    // and adding the offset 2440588 so that 1970/01/01 is day 0\r\n    //\r\n    // int L = days + 68569 + offset\r\n    // int N = 4 * L / 146097\r\n    // L = L - (146097 * N + 3) / 4\r\n    // year = 4000 * (L + 1) / 1461001\r\n    // L = L - 1461 * year / 4 + 31\r\n    // month = 80 * L / 2447\r\n    // dd = L - 2447 * month / 80\r\n    // L = month / 11\r\n    // month = month + 2 - 12 * L\r\n    // year = 100 * (N - 49) + year + L\r\n    // ------------------------------------------------------------------------\r\n    // solhint-disable-next-line private-vars-leading-underscore\r\n    function _daysToDate(uint256 _days)\r\n        internal\r\n        pure\r\n        returns (\r\n            uint256 year,\r\n            uint256 month,\r\n            uint256 day\r\n        )\r\n    {\r\n        int256 __days = int256(_days);\r\n        // solhint-disable-next-line var-name-mixedcase\r\n        int256 L = __days + 68569 + OFFSET19700101;\r\n        // solhint-disable-next-line var-name-mixedcase\r\n        int256 N = (4 * L) / 146097;\r\n        L = L - (146097 * N + 3) / 4;\r\n        int256 _year = (4000 * (L + 1)) / 1461001;\r\n        L = L - (1461 * _year) / 4 + 31;\r\n        int256 _month = (80 * L) / 2447;\r\n        int256 _day = L - (2447 * _month) / 80;\r\n        L = _month / 11;\r\n        _month = _month + 2 - 12 * L;\r\n        _year = 100 * (N - 49) + _year + L;\r\n\r\n        year = uint256(_year);\r\n        month = uint256(_month);\r\n        day = uint256(_day);\r\n    }\r\n\r\n    /// @dev Writes a prefix and an timestamp encoding to an output storage location\r\n    ///      This function is designed to only work with ASCII encoded strings. No emojis please.\r\n    /// @param _prefix The string to write before the timestamp\r\n    /// @param _timestamp the timestamp to encode and store\r\n    /// @param _output the storage location of the output string\r\n    /// NOTE - Current cost ~90k if gas is problem revisit and use assembly to remove the extra\r\n    ///        sstore s.\r\n    function encodeAndWriteTimestamp(\r\n        string memory _prefix,\r\n        uint256 _timestamp,\r\n        string storage _output\r\n    ) external {\r\n        _encodeAndWriteTimestamp(_prefix, _timestamp, _output);\r\n    }\r\n\r\n    /// @dev Sn internal version of the above function 'encodeAndWriteTimestamp'\r\n    // solhint-disable-next-line\r\n    function _encodeAndWriteTimestamp(\r\n        string memory _prefix,\r\n        uint256 _timestamp,\r\n        string storage _output\r\n    ) internal {\r\n        // Cast the prefix string to a byte array\r\n        bytes memory bytePrefix = bytes(_prefix);\r\n        // Cast the output string to a byte array\r\n        bytes storage bytesOutput = bytes(_output);\r\n        // Copy the bytes from the prefix onto the byte array\r\n        // NOTE - IF PREFIX CONTAINS NON-ASCII CHARS THIS WILL CAUSE AN INCORRECT STRING LENGTH\r\n        for (uint256 i = 0; i < bytePrefix.length; i++) {\r\n            bytesOutput.push(bytePrefix[i]);\r\n        }\r\n        // Add a '-' to the string to separate the prefix from the the date\r\n        bytesOutput.push(bytes1(\"-\"));\r\n        // Add the date string\r\n        timestampToDateString(_timestamp, _output);\r\n    }\r\n\r\n    /// @dev Converts a unix second encoded timestamp to a date format (year, month, day)\r\n    ///      then writes the string encoding of that to the output pointer.\r\n    /// @param _timestamp the unix seconds timestamp\r\n    /// @param _outputPointer the storage pointer to change.\r\n    function timestampToDateString(\r\n        uint256 _timestamp,\r\n        string storage _outputPointer\r\n    ) public {\r\n        _timestampToDateString(_timestamp, _outputPointer);\r\n    }\r\n\r\n    /// @dev Sn internal version of the above function 'timestampToDateString'\r\n    // solhint-disable-next-line\r\n    function _timestampToDateString(\r\n        uint256 _timestamp,\r\n        string storage _outputPointer\r\n    ) internal {\r\n        // We pretend the string is a 'bytes' only push UTF8 encodings to it\r\n        bytes storage output = bytes(_outputPointer);\r\n        // First we get the day month and year\r\n        (uint256 year, uint256 month, uint256 day) = _daysToDate(\r\n            _timestamp / SECONDS_PER_DAY\r\n        );\r\n        // First we add encoded day to the string\r\n        {\r\n            // Round out the second digit\r\n            uint256 firstDigit = day / 10;\r\n            // add it to the encoded byte for '0'\r\n            output.push(bytes1(uint8(bytes1(\"0\")) + uint8(firstDigit)));\r\n            // Extract the second digit\r\n            uint256 secondDigit = day % 10;\r\n            // add it to the string\r\n            output.push(bytes1(uint8(bytes1(\"0\")) + uint8(secondDigit)));\r\n        }\r\n        // Next we encode the month string and add it\r\n        if (month == 1) {\r\n            stringPush(output, \"J\", \"A\", \"N\");\r\n        } else if (month == 2) {\r\n            stringPush(output, \"F\", \"E\", \"B\");\r\n        } else if (month == 3) {\r\n            stringPush(output, \"M\", \"A\", \"R\");\r\n        } else if (month == 4) {\r\n            stringPush(output, \"A\", \"P\", \"R\");\r\n        } else if (month == 5) {\r\n            stringPush(output, \"M\", \"A\", \"Y\");\r\n        } else if (month == 6) {\r\n            stringPush(output, \"J\", \"U\", \"N\");\r\n        } else if (month == 7) {\r\n            stringPush(output, \"J\", \"U\", \"L\");\r\n        } else if (month == 8) {\r\n            stringPush(output, \"A\", \"U\", \"G\");\r\n        } else if (month == 9) {\r\n            stringPush(output, \"S\", \"E\", \"P\");\r\n        } else if (month == 10) {\r\n            stringPush(output, \"O\", \"C\", \"T\");\r\n        } else if (month == 11) {\r\n            stringPush(output, \"N\", \"O\", \"V\");\r\n        } else if (month == 12) {\r\n            stringPush(output, \"D\", \"E\", \"C\");\r\n        } else {\r\n            revert(\"date decoding error\");\r\n        }\r\n        // We take the last two digits of the year\r\n        // Hopefully that's enough\r\n        {\r\n            uint256 lastDigits = year % 100;\r\n            // Round out the second digit\r\n            uint256 firstDigit = lastDigits / 10;\r\n            // add it to the encoded byte for '0'\r\n            output.push(bytes1(uint8(bytes1(\"0\")) + uint8(firstDigit)));\r\n            // Extract the second digit\r\n            uint256 secondDigit = lastDigits % 10;\r\n            // add it to the string\r\n            output.push(bytes1(uint8(bytes1(\"0\")) + uint8(secondDigit)));\r\n        }\r\n    }\r\n\r\n    function stringPush(\r\n        bytes storage output,\r\n        bytes1 data1,\r\n        bytes1 data2,\r\n        bytes1 data3\r\n    ) internal {\r\n        output.push(data1);\r\n        output.push(data2);\r\n        output.push(data3);\r\n    }\r\n}\r\n",
  "sourcePath": "/f/BlockChain/conflux/contract/Liberation-fi/contracts/libraries/DateString.sol",
  "compiler": {
    "name": "solc",
    "version": "0.8.7+commit.e28d00a7.Linux.g++"
  },
  "schemaVersion": "3.3.4",
  "updatedAt": "2021-08-18T09:57:15.884Z",
  "devdoc": {
    "kind": "dev",
    "methods": {
      "encodeAndWriteTimestamp(string,uint256,string storage)": {
        "details": "Writes a prefix and an timestamp encoding to an output storage location      This function is designed to only work with ASCII encoded strings. No emojis please.",
        "params": {
          "_output": "the storage location of the output string NOTE - Current cost ~90k if gas is problem revisit and use assembly to remove the extra        sstore s.",
          "_prefix": "The string to write before the timestamp",
          "_timestamp": "the timestamp to encode and store"
        }
      },
      "timestampToDateString(uint256,string storage)": {
        "details": "Converts a unix second encoded timestamp to a date format (year, month, day)      then writes the string encoding of that to the output pointer.",
        "params": {
          "_outputPointer": "the storage pointer to change.",
          "_timestamp": "the unix seconds timestamp"
        }
      }
    },
    "version": 1
  },
  "userdoc": {
    "kind": "user",
    "methods": {},
    "version": 1
  }
}