{
  "contractName": "FVaultAssetProxy",
  "abi": [
    {
      "inputs": [
        {
          "internalType": "address",
          "name": "vault_",
          "type": "address"
        },
        {
          "internalType": "contract IERC20",
          "name": "_token",
          "type": "address"
        },
        {
          "internalType": "string",
          "name": "_name",
          "type": "string"
        },
        {
          "internalType": "string",
          "name": "_symbol",
          "type": "string"
        }
      ],
      "stateMutability": "nonpayable",
      "type": "constructor"
    },
    {
      "anonymous": false,
      "inputs": [
        {
          "indexed": true,
          "internalType": "address",
          "name": "owner",
          "type": "address"
        },
        {
          "indexed": true,
          "internalType": "address",
          "name": "spender",
          "type": "address"
        },
        {
          "indexed": false,
          "internalType": "uint256",
          "name": "value",
          "type": "uint256"
        }
      ],
      "name": "Approval",
      "type": "event"
    },
    {
      "anonymous": false,
      "inputs": [
        {
          "indexed": true,
          "internalType": "address",
          "name": "from",
          "type": "address"
        },
        {
          "indexed": true,
          "internalType": "address",
          "name": "to",
          "type": "address"
        },
        {
          "indexed": false,
          "internalType": "uint256",
          "name": "value",
          "type": "uint256"
        }
      ],
      "name": "Transfer",
      "type": "event"
    },
    {
      "inputs": [],
      "name": "DOMAIN_SEPARATOR",
      "outputs": [
        {
          "internalType": "bytes32",
          "name": "",
          "type": "bytes32"
        }
      ],
      "stateMutability": "view",
      "type": "function"
    },
    {
      "inputs": [],
      "name": "PERMIT_TYPEHASH",
      "outputs": [
        {
          "internalType": "bytes32",
          "name": "",
          "type": "bytes32"
        }
      ],
      "stateMutability": "view",
      "type": "function"
    },
    {
      "inputs": [],
      "name": "SPONSOR",
      "outputs": [
        {
          "internalType": "contract SponsorWhitelistControl",
          "name": "",
          "type": "address"
        }
      ],
      "stateMutability": "view",
      "type": "function"
    },
    {
      "inputs": [
        {
          "internalType": "address",
          "name": "",
          "type": "address"
        },
        {
          "internalType": "address",
          "name": "",
          "type": "address"
        }
      ],
      "name": "allowance",
      "outputs": [
        {
          "internalType": "uint256",
          "name": "",
          "type": "uint256"
        }
      ],
      "stateMutability": "view",
      "type": "function"
    },
    {
      "inputs": [
        {
          "internalType": "address",
          "name": "",
          "type": "address"
        }
      ],
      "name": "balanceOf",
      "outputs": [
        {
          "internalType": "uint256",
          "name": "",
          "type": "uint256"
        }
      ],
      "stateMutability": "view",
      "type": "function"
    },
    {
      "inputs": [
        {
          "internalType": "address",
          "name": "_who",
          "type": "address"
        }
      ],
      "name": "balanceOfUnderlying",
      "outputs": [
        {
          "internalType": "uint256",
          "name": "",
          "type": "uint256"
        }
      ],
      "stateMutability": "view",
      "type": "function"
    },
    {
      "inputs": [],
      "name": "decimals",
      "outputs": [
        {
          "internalType": "uint8",
          "name": "",
          "type": "uint8"
        }
      ],
      "stateMutability": "view",
      "type": "function"
    },
    {
      "inputs": [
        {
          "internalType": "address",
          "name": "_destination",
          "type": "address"
        },
        {
          "internalType": "uint256",
          "name": "_amount",
          "type": "uint256"
        }
      ],
      "name": "deposit",
      "outputs": [
        {
          "internalType": "uint256",
          "name": "",
          "type": "uint256"
        }
      ],
      "stateMutability": "nonpayable",
      "type": "function"
    },
    {
      "inputs": [
        {
          "internalType": "uint256",
          "name": "_shares",
          "type": "uint256"
        }
      ],
      "name": "getSharesToUnderlying",
      "outputs": [
        {
          "internalType": "uint256",
          "name": "",
          "type": "uint256"
        }
      ],
      "stateMutability": "view",
      "type": "function"
    },
    {
      "inputs": [],
      "name": "name",
      "outputs": [
        {
          "internalType": "string",
          "name": "",
          "type": "string"
        }
      ],
      "stateMutability": "view",
      "type": "function"
    },
    {
      "inputs": [
        {
          "internalType": "address",
          "name": "",
          "type": "address"
        }
      ],
      "name": "nonces",
      "outputs": [
        {
          "internalType": "uint256",
          "name": "",
          "type": "uint256"
        }
      ],
      "stateMutability": "view",
      "type": "function"
    },
    {
      "inputs": [
        {
          "internalType": "address",
          "name": "owner",
          "type": "address"
        },
        {
          "internalType": "address",
          "name": "spender",
          "type": "address"
        },
        {
          "internalType": "uint256",
          "name": "value",
          "type": "uint256"
        },
        {
          "internalType": "uint256",
          "name": "deadline",
          "type": "uint256"
        },
        {
          "internalType": "uint8",
          "name": "v",
          "type": "uint8"
        },
        {
          "internalType": "bytes32",
          "name": "r",
          "type": "bytes32"
        },
        {
          "internalType": "bytes32",
          "name": "s",
          "type": "bytes32"
        }
      ],
      "name": "permit",
      "outputs": [],
      "stateMutability": "nonpayable",
      "type": "function"
    },
    {
      "inputs": [
        {
          "internalType": "address",
          "name": "_destination",
          "type": "address"
        }
      ],
      "name": "prefundedDeposit",
      "outputs": [
        {
          "internalType": "uint256",
          "name": "",
          "type": "uint256"
        },
        {
          "internalType": "uint256",
          "name": "",
          "type": "uint256"
        },
        {
          "internalType": "uint256",
          "name": "",
          "type": "uint256"
        }
      ],
      "stateMutability": "nonpayable",
      "type": "function"
    },
    {
      "inputs": [
        {
          "internalType": "address",
          "name": "",
          "type": "address"
        }
      ],
      "name": "reserveBalances",
      "outputs": [
        {
          "internalType": "uint256",
          "name": "",
          "type": "uint256"
        }
      ],
      "stateMutability": "view",
      "type": "function"
    },
    {
      "inputs": [],
      "name": "reserveShares",
      "outputs": [
        {
          "internalType": "uint128",
          "name": "",
          "type": "uint128"
        }
      ],
      "stateMutability": "view",
      "type": "function"
    },
    {
      "inputs": [],
      "name": "reserveSupply",
      "outputs": [
        {
          "internalType": "uint256",
          "name": "",
          "type": "uint256"
        }
      ],
      "stateMutability": "view",
      "type": "function"
    },
    {
      "inputs": [],
      "name": "reserveUnderlying",
      "outputs": [
        {
          "internalType": "uint128",
          "name": "",
          "type": "uint128"
        }
      ],
      "stateMutability": "view",
      "type": "function"
    },
    {
      "inputs": [],
      "name": "symbol",
      "outputs": [
        {
          "internalType": "string",
          "name": "",
          "type": "string"
        }
      ],
      "stateMutability": "view",
      "type": "function"
    },
    {
      "inputs": [],
      "name": "token",
      "outputs": [
        {
          "internalType": "contract IERC20",
          "name": "",
          "type": "address"
        }
      ],
      "stateMutability": "view",
      "type": "function"
    },
    {
      "inputs": [
        {
          "internalType": "address",
          "name": "recipient",
          "type": "address"
        },
        {
          "internalType": "uint256",
          "name": "amount",
          "type": "uint256"
        }
      ],
      "name": "transfer",
      "outputs": [
        {
          "internalType": "bool",
          "name": "",
          "type": "bool"
        }
      ],
      "stateMutability": "nonpayable",
      "type": "function"
    },
    {
      "inputs": [
        {
          "internalType": "address",
          "name": "spender",
          "type": "address"
        },
        {
          "internalType": "address",
          "name": "recipient",
          "type": "address"
        },
        {
          "internalType": "uint256",
          "name": "amount",
          "type": "uint256"
        }
      ],
      "name": "transferFrom",
      "outputs": [
        {
          "internalType": "bool",
          "name": "",
          "type": "bool"
        }
      ],
      "stateMutability": "nonpayable",
      "type": "function"
    },
    {
      "inputs": [],
      "name": "vault",
      "outputs": [
        {
          "internalType": "contract IFluxVault",
          "name": "",
          "type": "address"
        }
      ],
      "stateMutability": "view",
      "type": "function"
    },
    {
      "inputs": [],
      "name": "vaultDecimals",
      "outputs": [
        {
          "internalType": "uint8",
          "name": "",
          "type": "uint8"
        }
      ],
      "stateMutability": "view",
      "type": "function"
    },
    {
      "inputs": [
        {
          "internalType": "address",
          "name": "_destination",
          "type": "address"
        },
        {
          "internalType": "uint256",
          "name": "_shares",
          "type": "uint256"
        },
        {
          "internalType": "uint256",
          "name": "_minUnderlying",
          "type": "uint256"
        }
      ],
      "name": "withdraw",
      "outputs": [
        {
          "internalType": "uint256",
          "name": "",
          "type": "uint256"
        }
      ],
      "stateMutability": "nonpayable",
      "type": "function"
    },
    {
      "inputs": [
        {
          "internalType": "address",
          "name": "_destination",
          "type": "address"
        },
        {
          "internalType": "uint256",
          "name": "_amount",
          "type": "uint256"
        },
        {
          "internalType": "uint256",
          "name": "_minUnderlying",
          "type": "uint256"
        }
      ],
      "name": "withdrawUnderlying",
      "outputs": [
        {
          "internalType": "uint256",
          "name": "",
          "type": "uint256"
        },
        {
          "internalType": "uint256",
          "name": "",
          "type": "uint256"
        }
      ],
      "stateMutability": "nonpayable",
      "type": "function"
    },
    {
      "inputs": [
        {
          "internalType": "uint256",
          "name": "_amount",
          "type": "uint256"
        }
      ],
      "name": "reserveDeposit",
      "outputs": [],
      "stateMutability": "nonpayable",
      "type": "function"
    },
    {
      "inputs": [
        {
          "internalType": "uint256",
          "name": "_amount",
          "type": "uint256"
        }
      ],
      "name": "reserveWithdraw",
      "outputs": [],
      "stateMutability": "nonpayable",
      "type": "function"
    },
    {
      "inputs": [
        {
          "internalType": "address",
          "name": "account",
          "type": "address"
        },
        {
          "internalType": "uint256",
          "name": "amount",
          "type": "uint256"
        }
      ],
      "name": "approve",
      "outputs": [
        {
          "internalType": "bool",
          "name": "",
          "type": "bool"
        }
      ],
      "stateMutability": "nonpayable",
      "type": "function"
    },
    {
      "inputs": [],
      "name": "approve",
      "outputs": [],
      "stateMutability": "nonpayable",
      "type": "function"
    }
  ],
  "bytecode": "0x60e06040523480156200001157600080fd5b5060405162002d2038038062002d208339810160408190526200003491620005f7565b8282828181816000908051906020019062000051929190620004a6565b50805162000067906001906020840190620004a6565b506002805460ff1916601217905560036020526000197f3617319a054d772f909f7c479a2cebe5066e836a939412e32403c99029b92eff8190553060009081526040902055620000b66200048e565b7f8b73c3c69bb8fe3d512ecc4cf759cc79239f7b179b0ffacaa9a75d522b39400f6000604051620000e89190620006d5565b60408051918290038220828201825260018352603160f81b60209384015290516200013b93927fc89efdaa54c0f20c7adf612882df0950f5a951637e0307cdcb4c672f298b8bc6914691309101620007e2565b60408051601f1981840301815282825280516020918201206006556001600160601b0319606089901b1660805263313ce56760e01b83529051620001ea94506001600160a01b038816935063313ce567926004808201939291829003018186803b158015620001a957600080fd5b505afa158015620001be573d6000803e3d6000fd5b505050506040513d601f19601f82011682018060405250810190620001e49190620006b2565b62000490565b5050506001600160601b0319606085901b1660a05260405163095ea7b360e01b81526001600160a01b0384169063095ea7b39062000231908790600019906004016200077a565b602060405180830381600087803b1580156200024c57600080fd5b505af115801562000261573d6000803e3d6000fd5b505050506040513d601f19601f8201168201806040525081019062000287919062000689565b506000846001600160a01b031663313ce5676040518163ffffffff1660e01b815260040160206040518083038186803b158015620002c457600080fd5b505afa158015620002d9573d6000803e3d6000fd5b505050506040513d601f19601f82011682018060405250810190620002ff9190620006b2565b90508060ff1660c08160ff1660f81b815250508060ff16846001600160a01b031663313ce5676040518163ffffffff1660e01b815260040160206040518083038186803b1580156200035057600080fd5b505afa15801562000365573d6000803e3d6000fd5b505050506040513d601f19601f820116820180604052508101906200038b9190620006b2565b60ff1614620003b75760405162461bcd60e51b8152600401620003ae906200080e565b60405180910390fd5b60408051600180825281830190925260009160208083019080368337019050509050600081600081518110620003fd57634e487b7160e01b600052603260045260246000fd5b6001600160a01b0390921660209283029190910190910152604051630809469f60e11b8152730888000000000000000000000000000000000001906310128d3e906200044e90849060040162000793565b600060405180830381600087803b1580156200046957600080fd5b505af11580156200047e573d6000803e3d6000fd5b50505050505050505050620008bd565b565b6002805460ff191660ff92909216919091179055565b828054620004b49062000851565b90600052602060002090601f016020900481019282620004d8576000855562000523565b82601f10620004f357805160ff191683800117855562000523565b8280016001018555821562000523579182015b828111156200052357825182559160200191906001019062000506565b506200053192915062000535565b5090565b5b8082111562000531576000815560010162000536565b600082601f8301126200055d578081fd5b81516001600160401b03808211156200057a576200057a6200088e565b6040516020601f8401601f1916820181018381118382101715620005a257620005a26200088e565b6040528382528584018101871015620005b9578485fd5b8492505b83831015620005dc5785830181015182840182015291820191620005bd565b83831115620005ed57848185840101525b5095945050505050565b600080600080608085870312156200060d578384fd5b84516200061a81620008a4565b60208601519094506200062d81620008a4565b60408601519093506001600160401b03808211156200064a578384fd5b62000658888389016200054c565b935060608701519150808211156200066e578283fd5b506200067d878288016200054c565b91505092959194509250565b6000602082840312156200069b578081fd5b81518015158114620006ab578182fd5b9392505050565b600060208284031215620006c4578081fd5b815160ff81168114620006ab578182fd5b8154600090819060028104600180831680620006f257607f831692505b60208084108214156200071357634e487b7160e01b87526022600452602487fd5b8180156200072a57600181146200073c576200076c565b60ff198616895284890196506200076c565b620007478a62000845565b885b86811015620007645781548b82015290850190830162000749565b505084890196505b509498975050505050505050565b6001600160a01b03929092168252602082015260400190565b6020808252825182820181905260009190848201906040850190845b81811015620007d65783516001600160a01b031683529284019291840191600101620007af565b50909695505050505050565b9485526020850193909352604084019190915260608301526001600160a01b0316608082015260a00190565b60208082526015908201527f496e636f6e73697374656e7420646563696d616c730000000000000000000000604082015260600190565b60009081526020902090565b6002810460018216806200086657607f821691505b602082108114156200088857634e487b7160e01b600052602260045260246000fd5b50919050565b634e487b7160e01b600052604160045260246000fd5b6001600160a01b0381168114620008ba57600080fd5b50565b60805160601c60a05160601c60c05160f81c61237b620009a560003960008181610b7c01528181610f5c01528181611297015281816112e901526113590152600081816106850152818161074701528181610f3201528181611194015281816111fb015281816114cc0152818161155d015281816115f3015281816117c80152611a9f0152600081816103f8015281816106580152818161071a015281816109c801528181610e8c01528181611005015281816110e7015281816111b8015281816113b20152818161195e01528181611a0e01528181611b350152611c23015261237b6000f3fe608060405234801561001057600080fd5b50600436106101ce5760003560e01c806370a0823111610104578063b5c5f672116100a2578063e613deb211610071578063e613deb2146103ab578063ec5e5e7d146103be578063fbfa77cf146103d1578063fc0c546a146103d9576101ce565b8063b5c5f6721461036a578063d505accf1461037d578063d6b1aaaf14610390578063dd62ed3e14610398576101ce565b806385f45c88116100de57806385f45c881461032557806395d89b41146103475780639d6179c31461034f578063a9059cbb14610357576101ce565b806370a08231146102ec5780637e2fb9f4146102ff5780637ecebe0014610312576101ce565b806330adf81f116101715780633af9e6691161014b5780633af9e6691461029057806347e7ef24146102a357806358c7aa0f146102b657806367caf871146102cb576101ce565b806330adf81f1461026b578063313ce567146102735780633644e51514610288576101ce565b8063095ea7b3116101ad578063095ea7b31461021b57806312424e3f1461023b5780631d073a7a1461024357806323b872dd14610258576101ce565b806291a446146101d357806303d41eb6146101e857806306fdde0314610206575b600080fd5b6101e66101e1366004611e45565b6103e1565b005b6101f0610542565b6040516101fd9190611eec565b60405180910390f35b61020e610548565b6040516101fd9190611f47565b61022e610229366004611dca565b6105d6565b6040516101fd9190611ee1565b6101e6610641565b61024b6107c8565b6040516101fd9190611e90565b61022e610266366004611d1e565b6107e0565b6101f0610951565b61027b610975565b6040516101fd9190612146565b6101f061097e565b6101f061029e366004611cd2565b610984565b6101f06102b1366004611dca565b6109ae565b6102be610a6b565b6040516101fd919061210e565b6102de6102d9366004611df3565b610a81565b6040516101fd929190612122565b6101f06102fa366004611cd2565b610af2565b6101f061030d366004611cd2565b610b04565b6101f0610320366004611cd2565b610b16565b610338610333366004611cd2565b610b28565b6040516101fd93929190612130565b61020e610b6d565b61027b610b7a565b61022e610365366004611dca565b610b9e565b6101f0610378366004611df3565b610bab565b6101e661038b366004611d59565b610bc2565b6102be610e00565b6101f06103a6366004611cec565b610e0f565b6101f06103b9366004611e45565b610e2c565b6101e66103cc366004611e45565b610e37565b61024b611192565b61024b6111b6565b6040516323b872dd60e01b81526001600160a01b037f000000000000000000000000000000000000000000000000000000000000000016906323b872dd9061043190339030908690600401611ea4565b602060405180830381600087803b15801561044b57600080fd5b505af115801561045f573d6000803e3d6000fd5b505050506040513d601f19601f820116820180604052508101906104839190611e25565b5060008061048f6111da565b9092509050816104a08260016111f6565b6104aa9082612154565b6009549091506000816104be5750846104d6565b826104c987846122a3565b6104d3919061216c565b90505b841580156104e2575083155b156104f5576104f26001876122c2565b95505b6105086105028787612154565b85611319565b3360009081526007602052604081208054839290610527908490612154565b9091555061053790508183612154565b600955505050505050565b60095481565b60008054610555906122d9565b80601f0160208091040260200160405190810160405280929190818152602001828054610581906122d9565b80156105ce5780601f106105a3576101008083540402835291602001916105ce565b820191906000526020600020905b8154815290600101906020018083116105b157829003601f168201915b505050505081565b3360008181526004602090815260408083206001600160a01b038716808552925280832085905551919290917f8c5be1e5ebec7d5bd14f71427d1e84f3dd0314c0f7b2291e5b200ac8c7c3b9259061062f908690611eec565b60405180910390a35060015b92915050565b60405163095ea7b360e01b81526001600160a01b037f0000000000000000000000000000000000000000000000000000000000000000169063095ea7b3906106b0907f000000000000000000000000000000000000000000000000000000000000000090600090600401611ec8565b602060405180830381600087803b1580156106ca57600080fd5b505af11580156106de573d6000803e3d6000fd5b505050506040513d601f19601f820116820180604052508101906107029190611e25565b5060405163095ea7b360e01b81526001600160a01b037f0000000000000000000000000000000000000000000000000000000000000000169063095ea7b390610773907f00000000000000000000000000000000000000000000000000000000000000009060001990600401611ec8565b602060405180830381600087803b15801561078d57600080fd5b505af11580156107a1573d6000803e3d6000fd5b505050506040513d601f19601f820116820180604052508101906107c59190611e25565b50565b73088800000000000000000000000000000000000181565b6001600160a01b038316600090815260036020526040812054828110156108225760405162461bcd60e51b8152600401610819906120d7565b60405180910390fd5b6001600160a01b03851633146108b0576001600160a01b038516600090815260046020908152604080832033845290915290205460001981146108ae578381101561087f5760405162461bcd60e51b815260040161081990611f9a565b61088984826122c2565b6001600160a01b03871660009081526004602090815260408083203384529091529020555b505b6108ba83826122c2565b6001600160a01b0380871660009081526003602052604080822093909355908616815220546108ea908490612154565b6001600160a01b0380861660008181526003602052604090819020939093559151908716907fddf252ad1be2c89b69c2b068fc378daa952ba7f163c4a11628f55a4df523b3ef9061093c908790611eec565b60405180910390a360019150505b9392505050565b7f6e71edae12b1b97f4d1f60370fef10105fa2faae0126114a169c64845d6126c981565b60025460ff1681565b60065481565b6001600160a01b0381166000908152600360205260408120546109a690611352565b90505b919050565b6040516323b872dd60e01b81526000906001600160a01b037f000000000000000000000000000000000000000000000000000000000000000016906323b872dd90610a0190339030908790600401611ea4565b602060405180830381600087803b158015610a1b57600080fd5b505af1158015610a2f573d6000803e3d6000fd5b505050506040513d601f19601f82011682018060405250810190610a539190611e25565b506000610a5e61139b565b50905061094a84826116d4565b600854600160801b90046001600160801b031681565b60025460009081908190610a999060ff16600a6121d2565b90506000610aa682611352565b6002549091506000908290610abf9060ff16600a6121d2565b610ac990896122a3565b610ad3919061216c565b90506000610ae389898986611753565b99919850909650505050505050565b60036020526000908152604090205481565b60076020526000908152604090205481565b60056020526000908152604090205481565b6000806000806000610b3861139b565b6001600160a01b0388166000908152600360205260409020549193509150610b6087846116d4565b9196909550909350915050565b60018054610555906122d9565b7f000000000000000000000000000000000000000000000000000000000000000081565b600061094a3384846107e0565b6000610bba8484846000611753565b949350505050565b6006546001600160a01b0388166000908152600560209081526040808320549051929392610c1b927f6e71edae12b1b97f4d1f60370fef10105fa2faae0126114a169c64845d6126c9928d928d928d92918d9101611ef5565b60405160208183030381529060405280519060200120604051602001610c42929190611e75565b60408051601f19818403018152919052805160209091012090506001600160a01b038816610c825760405162461bcd60e51b815260040161081990612013565b60018185858560405160008152602001604052604051610ca59493929190611f29565b6020604051602081039080840390855afa158015610cc7573d6000803e3d6000fd5b505050602060405103516001600160a01b0316886001600160a01b031614610d015760405162461bcd60e51b81526004016108199061204a565b841580610d0e5750844211155b610d2a5760405162461bcd60e51b8152600401610819906120a8565b7f7fffffffffffffffffffffffffffffff5d576e7357a4501ddfe92f46681b20a0821115610d6a5760405162461bcd60e51b815260040161081990611fd1565b6001600160a01b0388166000908152600560205260408120805491610d8e83612314565b90915550506001600160a01b038089166000818152600460209081526040808320948c168084529490915290819020899055517f8c5be1e5ebec7d5bd14f71427d1e84f3dd0314c0f7b2291e5b200ac8c7c3b92590610dee908a90611eec565b60405180910390a35050505050505050565b6008546001600160801b031681565b600460209081526000928352604080842090915290825290205481565b60006109a682611352565b3360009081526007602052604081208054839290610e569084906122c2565b909155506000905080610e676111da565b6009549193509150600081610e7c86856122a3565b610e86919061216c565b905060007f00000000000000000000000000000000000000000000000000000000000000006001600160a01b03166370a08231306040518263ffffffff1660e01b8152600401610ed69190611e90565b60206040518083038186803b158015610eee57600080fd5b505afa158015610f02573d6000803e3d6000fd5b505050506040513d601f19601f82011682018060405250810190610f269190611e5d565b90506001600160a01b037f00000000000000000000000000000000000000000000000000000000000000001663db006a75610f827f0000000000000000000000000000000000000000000000000000000000000000600a6121d2565b610f8a6117c4565b610f9490866122a3565b610f9e919061216c565b6040518263ffffffff1660e01b8152600401610fba9190611eec565b600060405180830381600087803b158015610fd457600080fd5b505af1158015610fe8573d6000803e3d6000fd5b50506040516370a0823160e01b8152600092506001600160a01b037f00000000000000000000000000000000000000000000000000000000000000001691506370a082319061103b903090600401611e90565b60206040518083038186803b15801561105357600080fd5b505afa158015611067573d6000803e3d6000fd5b505050506040513d601f19601f8201168201806040525081019061108b9190611e5d565b9050600061109983836122c2565b90506000856110a88a8a6122a3565b6110b2919061216c565b90506110d06110c1828a6122c2565b6110cb878a6122c2565b611319565b6110da89876122c2565b6009556001600160a01b037f00000000000000000000000000000000000000000000000000000000000000001663a9059cbb336111178486612154565b6040518363ffffffff1660e01b8152600401611134929190611ec8565b602060405180830381600087803b15801561114e57600080fd5b505af1158015611162573d6000803e3d6000fd5b505050506040513d601f19601f820116820180604052508101906111869190611e25565b50505050505050505050565b7f000000000000000000000000000000000000000000000000000000000000000081565b7f000000000000000000000000000000000000000000000000000000000000000081565b6008546001600160801b0380821691600160801b9004165b9091565b6000807f00000000000000000000000000000000000000000000000000000000000000006001600160a01b0316633ba0b9a96040518163ffffffff1660e01b815260040160206040518083038186803b15801561125257600080fd5b505afa158015611266573d6000803e3d6000fd5b505050506040513d601f19601f8201168201806040525081019061128a9190611e5d565b905082156112d9576112bd7f0000000000000000000000000000000000000000000000000000000000000000600a6121d2565b6112c785836122a3565b6112d1919061216c565b91505061063b565b6112e4816001612154565b61130f7f0000000000000000000000000000000000000000000000000000000000000000600a6121d2565b6112c790866122a3565b600880546001600160801b03928316600160801b029383166fffffffffffffffffffffffffffffffff1990911617909116919091179055565b600061137f7f0000000000000000000000000000000000000000000000000000000000000000600a6121d2565b6113876117c4565b61139190846122a3565b6109a6919061216c565b6000806000806113a96111da565b915091506000827f00000000000000000000000000000000000000000000000000000000000000006001600160a01b03166370a08231306040518263ffffffff1660e01b81526004016113fc9190611e90565b60206040518083038186803b15801561141457600080fd5b505afa158015611428573d6000803e3d6000fd5b505050506040513d601f19601f8201168201806040525081019061144c9190611e5d565b61145691906122c2565b90508215158061146557508115155b15611478576114756001826122c2565b90505b60006114858260006111f6565b9050808311156114b2576114a661149c8386612154565b6110cb83866122c2565b945092506111f2915050565b6040516370a0823160e01b81526000906001600160a01b037f000000000000000000000000000000000000000000000000000000000000000016906370a0823190611501903090600401611e90565b60206040518083038186803b15801561151957600080fd5b505afa15801561152d573d6000803e3d6000fd5b505050506040513d601f19601f820116820180604052508101906115519190611e5d565b90506001600160a01b037f00000000000000000000000000000000000000000000000000000000000000001663a0712d6861158c8588612154565b6040518263ffffffff1660e01b81526004016115a89190611eec565b600060405180830381600087803b1580156115c257600080fd5b505af11580156115d6573d6000803e3d6000fd5b50506040516370a0823160e01b8152600092506001600160a01b037f00000000000000000000000000000000000000000000000000000000000000001691506370a0823190611629903090600401611e90565b60206040518083038186803b15801561164157600080fd5b505afa158015611655573d6000803e3d6000fd5b505050506040513d601f19601f820116820180604052508101906116799190611e5d565b9050600061168783836122c2565b905060006116958689612154565b61169f83886122a3565b6116a9919061216c565b90506116c56000826116bb858b612154565b6110cb91906122c2565b98509396505050505050509091565b6001600160a01b0382166000908152600360205260409020546116f8908290612154565b6001600160a01b0383166000818152600360205260408082209390935591519091907fddf252ad1be2c89b69c2b068fc378daa952ba7f163c4a11628f55a4df523b3ef90611747908590611eec565b60405180910390a35050565b6002546000908190839061176b9060ff16600a6121d2565b61177590876122a3565b61177f919061216c565b905061178b338261185c565b60006117988688866118cc565b9050848110156117ba5760405162461bcd60e51b815260040161081990612079565b9695505050505050565b60007f00000000000000000000000000000000000000000000000000000000000000006001600160a01b0316633ba0b9a96040518163ffffffff1660e01b815260040160206040518083038186803b15801561181f57600080fd5b505afa158015611833573d6000803e3d6000fd5b505050506040513d601f19601f820116820180604052508101906118579190611e5d565b905090565b6001600160a01b0382166000908152600360205260409020546118809082906122c2565b6001600160a01b0383166000818152600360205260408082209390935591517fddf252ad1be2c89b69c2b068fc378daa952ba7f163c4a11628f55a4df523b3ef90611747908590611eec565b6000836118db5750600061094a565b816118eb576118e86117c4565b91505b6000806118f66111da565b909250905085828110156119f457600254600090869061191a9060ff16600a6121d2565b611924908a6122a3565b61192e919061216c565b905061194761193d83866122c2565b6110cb8386612154565b60405163a9059cbb60e01b81526001600160a01b037f0000000000000000000000000000000000000000000000000000000000000000169063a9059cbb90611995908a908690600401611ec8565b602060405180830381600087803b1580156119af57600080fd5b505af11580156119c3573d6000803e3d6000fd5b505050506040513d601f19601f820116820180604052508101906119e79190611e25565b508194505050505061094a565b6040516370a0823160e01b81526000906001600160a01b037f000000000000000000000000000000000000000000000000000000000000000016906370a0823190611a43903090600401611e90565b60206040518083038186803b158015611a5b57600080fd5b505afa158015611a6f573d6000803e3d6000fd5b505050506040513d601f19601f82011682018060405250810190611a939190611e5d565b90506001600160a01b037f00000000000000000000000000000000000000000000000000000000000000001663db006a75611ace868b612154565b6040518263ffffffff1660e01b8152600401611aea9190611eec565b600060405180830381600087803b158015611b0457600080fd5b505af1158015611b18573d6000803e3d6000fd5b50506040516370a0823160e01b8152600092506001600160a01b037f00000000000000000000000000000000000000000000000000000000000000001691506370a0823190611b6b903090600401611e90565b60206040518083038186803b158015611b8357600080fd5b505afa158015611b97573d6000803e3d6000fd5b505050506040513d601f19601f82011682018060405250810190611bbb9190611e5d565b90506000611bc983836122c2565b90506000611bd78b87612154565b611be1838d6122a3565b611beb919061216c565b9050611c0c81611bfb848a612154565b611c0591906122c2565b6000611319565b60405163a9059cbb60e01b81526001600160a01b037f0000000000000000000000000000000000000000000000000000000000000000169063a9059cbb90611c5a908d908590600401611ec8565b602060405180830381600087803b158015611c7457600080fd5b505af1158015611c88573d6000803e3d6000fd5b505050506040513d601f19601f82011682018060405250810190611cac9190611e25565b509a9950505050505050505050565b80356001600160a01b03811681146109a957600080fd5b600060208284031215611ce3578081fd5b61094a82611cbb565b60008060408385031215611cfe578081fd5b611d0783611cbb565b9150611d1560208401611cbb565b90509250929050565b600080600060608486031215611d32578081fd5b611d3b84611cbb565b9250611d4960208501611cbb565b9150604084013590509250925092565b600080600080600080600060e0888a031215611d73578283fd5b611d7c88611cbb565b9650611d8a60208901611cbb565b95506040880135945060608801359350608088013560ff81168114611dad578384fd5b9699959850939692959460a0840135945060c09093013592915050565b60008060408385031215611ddc578182fd5b611de583611cbb565b946020939093013593505050565b600080600060608486031215611e07578283fd5b611e1084611cbb565b95602085013595506040909401359392505050565b600060208284031215611e36578081fd5b8151801515811461094a578182fd5b600060208284031215611e56578081fd5b5035919050565b600060208284031215611e6e578081fd5b5051919050565b61190160f01b81526002810192909252602282015260420190565b6001600160a01b0391909116815260200190565b6001600160a01b039384168152919092166020820152604081019190915260600190565b6001600160a01b03929092168252602082015260400190565b901515815260200190565b90815260200190565b9586526001600160a01b0394851660208701529290931660408501526060840152608083019190915260a082015260c00190565b93845260ff9290921660208401526040830152606082015260800190565b6000602080835283518082850152825b81811015611f7357858101830151858201604001528201611f57565b81811115611f845783604083870101525b50601f01601f1916929092016040019392505050565b6020808252601d908201527f45524332303a20696e73756666696369656e742d616c6c6f77616e6365000000604082015260600190565b60208082526022908201527f45524332303a20696e76616c6964207369676e6174757265202773272076616c604082015261756560f01b606082015260800190565b60208082526018908201527f45524332303a20696e76616c69642d616464726573732d300000000000000000604082015260600190565b602080825260159082015274115490cc8c0e881a5b9d985b1a590b5c195c9b5a5d605a1b604082015260600190565b6020808252601590820152744e6f7420656e6f75676820756e6465726c79696e6760581b604082015260600190565b602080825260159082015274115490cc8c0e881c195c9b5a5d0b595e1c1a5c9959605a1b604082015260600190565b6020808252601b908201527f45524332303a20696e73756666696369656e742d62616c616e63650000000000604082015260600190565b6001600160801b0391909116815260200190565b918252602082015260400190565b9283526020830191909152604082015260600190565b60ff91909116815260200190565b600082198211156121675761216761232f565b500190565b60008261218757634e487b7160e01b81526012600452602481fd5b500490565b80825b600180861161219e57506121c9565b8187048211156121b0576121b061232f565b808616156121bd57918102915b9490941c93800261218f565b94509492505050565b600061094a60001960ff8516846000826121ee5750600161094a565b816121fb5750600061094a565b8160018114612211576002811461221b57612248565b600191505061094a565b60ff84111561222c5761222c61232f565b6001841b9150848211156122425761224261232f565b5061094a565b5060208310610133831016604e8410600b841016171561227b575081810a838111156122765761227661232f565b61094a565b612288848484600161218c565b80860482111561229a5761229a61232f565b02949350505050565b60008160001904831182151516156122bd576122bd61232f565b500290565b6000828210156122d4576122d461232f565b500390565b6002810460018216806122ed57607f821691505b6020821081141561230e57634e487b7160e01b600052602260045260246000fd5b50919050565b60006000198214156123285761232861232f565b5060010190565b634e487b7160e01b600052601160045260246000fdfea264697066735822122004d55c02ee1c278c80055e7a3f43aeed9767843e16d3e860ee03011fcae6f84864736f6c63430008000033",
  "immutableReferences": {
    "11": [
      {
        "length": 32,
        "start": 1669
      },
      {
        "length": 32,
        "start": 1863
      },
      {
        "length": 32,
        "start": 3890
      },
      {
        "length": 32,
        "start": 4500
      },
      {
        "length": 32,
        "start": 4603
      },
      {
        "length": 32,
        "start": 5324
      },
      {
        "length": 32,
        "start": 5469
      },
      {
        "length": 32,
        "start": 5619
      },
      {
        "length": 32,
        "start": 6088
      },
      {
        "length": 32,
        "start": 6815
      }
    ],
    "13": [
      {
        "length": 32,
        "start": 2940
      },
      {
        "length": 32,
        "start": 3932
      },
      {
        "length": 32,
        "start": 4759
      },
      {
        "length": 32,
        "start": 4841
      },
      {
        "length": 32,
        "start": 4953
      }
    ],
    "1372": [
      {
        "length": 32,
        "start": 1016
      },
      {
        "length": 32,
        "start": 1624
      },
      {
        "length": 32,
        "start": 1818
      },
      {
        "length": 32,
        "start": 2504
      },
      {
        "length": 32,
        "start": 3724
      },
      {
        "length": 32,
        "start": 4101
      },
      {
        "length": 32,
        "start": 4327
      },
      {
        "length": 32,
        "start": 4536
      },
      {
        "length": 32,
        "start": 5042
      },
      {
        "length": 32,
        "start": 6494
      },
      {
        "length": 32,
        "start": 6670
      },
      {
        "length": 32,
        "start": 6965
      },
      {
        "length": 32,
        "start": 7203
      }
    ]
  },
  "source": "// SPDX-License-Identifier: Apache-2.0\r\npragma solidity ^0.8.0;\r\n\r\nimport \"./interfaces/IERC20.sol\";\r\nimport \"./interfaces/IFluxVault.sol\";\r\nimport \"./WrappedPosition.sol\";\r\nimport \"./libraries/SponsorWhitelistControl.sol\";\r\n\r\n/// @author WontonData\r\n/// @title Flux Vault Asset Proxy\r\ncontract FVaultAssetProxy is WrappedPosition {\r\n    IFluxVault public immutable vault;\r\n    uint8 public immutable vaultDecimals;\r\n\r\n    // This contract allows deposits to a reserve which can\r\n    // be used to short circuit the deposit process and save gas\r\n\r\n    // The following mapping tracks those non-transferable deposits\r\n    mapping(address => uint256) public reserveBalances;\r\n    // These variables store the token balances of this contract and\r\n    // should be packed by solidity into a single slot.\r\n    uint128 public reserveUnderlying;\r\n    uint128 public reserveShares;\r\n    // This is the total amount of reserve deposits\r\n    uint256 public reserveSupply;\r\n    // \r\n    SponsorWhitelistControl constant public SPONSOR = SponsorWhitelistControl(0x0888000000000000000000000000000000000001);\r\n\r\n    /// @notice Constructs this contract and stores needed data\r\n    /// @param vault_ The flux vault\r\n    /// @param _token The underlying token.\r\n    ///               This token should revert in the event of a transfer failure.\r\n    /// @param _name The name of the token created\r\n    /// @param _symbol The symbol of the token created\r\n    constructor(\r\n        address vault_,\r\n        IERC20 _token,\r\n        string memory _name,\r\n        string memory _symbol\r\n    ) WrappedPosition(_token, _name, _symbol) {\r\n        vault = IFluxVault(vault_);\r\n        _token.approve(vault_, type(uint256).max);\r\n        uint8 localVaultDecimals = IERC20(vault_).decimals();\r\n        vaultDecimals = localVaultDecimals;\r\n        require(\r\n            uint8(_token.decimals()) == localVaultDecimals,\r\n            \"Inconsistent decimals\"\r\n        );\r\n\r\n        address[] memory users = new address[](1);\r\n        users[0] = address(0);\r\n        SPONSOR.addPrivilege(users);\r\n    }\r\n\r\n    /// @notice checks if two strings are equal\r\n    /// @param s1 string one\r\n    /// @param s2 string two\r\n    /// @return bool whether they are equal\r\n    function _stringEq(string memory s1, string memory s2)\r\n        internal\r\n        pure\r\n        returns (bool)\r\n    {\r\n        bytes32 h1 = keccak256(abi.encodePacked(s1));\r\n        bytes32 h2 = keccak256(abi.encodePacked(s2));\r\n        return (h1 == h2);\r\n    }\r\n\r\n    /// @notice This function allows a user to deposit to the reserve\r\n    /// @param _amount The amount of underlying to deposit\r\n    function reserveDeposit(uint256 _amount) external {\r\n        // Transfer from user, note variable 'token' is the immutable\r\n        // inherited from the abstract WrappedPosition contract.\r\n        token.transferFrom(msg.sender, address(this), _amount);\r\n        // Load the reserves\r\n        (uint256 localUnderlying, uint256 localShares) = _getReserves();\r\n        // Calculate the total reserve value\r\n        uint256 totalValue = localUnderlying;\r\n        totalValue += _fluxDepositConverter(localShares, true);\r\n        // If this is the first deposit we need different logic\r\n        uint256 localReserveSupply = reserveSupply;\r\n        uint256 mintAmount;\r\n        if (localReserveSupply == 0) {\r\n            // If this is the first mint the tokens are exactly the supplied underlying\r\n            mintAmount = _amount;\r\n        } else {\r\n            // Otherwise we mint the proportion that this increases the value held by this contract\r\n            mintAmount = (localReserveSupply * _amount) / totalValue;\r\n        }\r\n\r\n        // This hack means that the contract will never have zero balance of underlying\r\n        // which levels the gas expenditure of the transfer to this contract. Permanently locks\r\n        // the smallest possible unit of the underlying.\r\n        if (localUnderlying == 0 && localShares == 0) {\r\n            _amount -= 1;\r\n        }\r\n        // Set the reserves that this contract has more underlying\r\n        _setReserves(localUnderlying + _amount, localShares);\r\n        // Note that the sender has deposited and increase reserveSupply\r\n        reserveBalances[msg.sender] += mintAmount;\r\n        reserveSupply = localReserveSupply + mintAmount;\r\n    }\r\n\r\n    /// @notice This function allows a holder of reserve balance to withdraw their share\r\n    /// @param _amount The number of reserve shares to withdraw\r\n    function reserveWithdraw(uint256 _amount) external {\r\n        // Remove 'amount' from the balances of the sender. Because this is 8.0 it will revert on underflow\r\n        reserveBalances[msg.sender] -= _amount;\r\n        // We load the reserves\r\n        (uint256 localUnderlying, uint256 localShares) = _getReserves();\r\n        uint256 localReserveSupply = reserveSupply;\r\n        // Then we calculate the proportion of the shares to redeem\r\n        uint256 userShares = (localShares * _amount) / localReserveSupply;\r\n        // First we withdraw the proportion of shares tokens belonging to the caller\r\n        uint256 amountBefore = token.balanceOf(address(this));\r\n        vault.redeem((userShares * _pricePerShare()) / (10**vaultDecimals));\r\n        uint256 amountAfter = token.balanceOf(address(this));\r\n        uint256 freedUnderlying = amountAfter - amountBefore;\r\n        \r\n        // We calculate the amount of underlying to send\r\n        uint256 userUnderlying = (localUnderlying * _amount) /\r\n            localReserveSupply;\r\n\r\n        // We then store the updated reserve amounts\r\n        _setReserves(\r\n            localUnderlying - userUnderlying,\r\n            localShares - userShares\r\n        );\r\n        // We note a reduction in local supply\r\n        reserveSupply = localReserveSupply - _amount;\r\n\r\n        // We send the redemption underlying to the caller\r\n        // Note 'token' is an immutable from shares\r\n        token.transfer(msg.sender, freedUnderlying + userUnderlying);\r\n    }\r\n\r\n    /// @notice Makes the actual deposit into the flux vault\r\n    ///         Tries to use the local balances before depositing\r\n    /// @return Tuple (the shares minted, amount underlying used)\r\n    function _deposit() internal override returns (uint256, uint256) {\r\n        //Load reserves \r\n        (uint256 localUnderlying, uint256 localShares) = _getReserves();\r\n        // Get the amount deposited  \r\n        uint256 amount = token.balanceOf(address(this)) - localUnderlying;\r\n        // fixing for the fact there's an extra underlying\r\n        if (localUnderlying != 0 || localShares != 0) {\r\n            amount -= 1;\r\n        }\r\n        // Calculate the amount of shares the amount deposited is worth\r\n        uint256 neededShares = _fluxDepositConverter(amount, false);\r\n\r\n        // If we have enough in local reserves we don't call out for deposits\r\n        if (localShares > neededShares) {\r\n            // We set the reserves\r\n            _setReserves(localUnderlying + amount, localShares - neededShares);\r\n            // And then we short circuit execution and return\r\n            return (neededShares, amount);\r\n        }\r\n        // Deposit and get the shares that were minted to this\r\n        uint256 sharesBefore = vault.balanceOf(address(this));\r\n        vault.mint(localUnderlying + amount);\r\n        uint256 sharesAfter = vault.balanceOf(address(this));\r\n        uint256 shares = sharesAfter - sharesBefore;\r\n\r\n        // calculate the user share\r\n        uint256 userShare = (amount * shares) / (localUnderlying + amount);\r\n\r\n        // We set the reserves\r\n        _setReserves(0, localShares + shares - userShare);\r\n        // Return the amount of shares the user has produced, and the amount used for it.\r\n        return (userShare, amount);\r\n    }\r\n\r\n    /// @notice Withdraw the number of shares and will short circuit if it can\r\n    /// @param _amount The number of amount to withdraw\r\n    /// @param _destination The address to send the output funds\r\n    /// @param _underlyingPerShare The possibly precomputed underlying per share\r\n    function _withdraw(\r\n        uint256 _amount,\r\n        address _destination,\r\n        uint256 _underlyingPerShare\r\n    ) internal override returns (uint256) {\r\n        if(_amount==0){\r\n            return 0;\r\n        }\r\n        // If we do not have it we load the price per share\r\n        if (_underlyingPerShare == 0) {\r\n            _underlyingPerShare = _pricePerShare();\r\n        }\r\n        // We load the reserves\r\n        (uint256 localUnderlying, uint256 localShares) = _getReserves();\r\n        // Calculate the amount of shares the amount deposited is worth\r\n        uint256 needed = _amount;\r\n        // If we have enough underlying we don't have to actually withdraw\r\n        if (needed < localUnderlying) {\r\n            uint256 shares = (_amount * 10**decimals) / _underlyingPerShare;\r\n            // We set the reserves to be the new reserves\r\n            _setReserves(localUnderlying - needed, localShares + shares);\r\n            // Then transfer needed underlying to the destination\r\n            // 'token' is an immutable in WrappedPosition\r\n            token.transfer(_destination, needed);\r\n            // Short circuit and return\r\n            return (needed);\r\n        }\r\n        // If we don't have enough local reserves we do the actual withdraw\r\n        // Withdraws shares from the vault. Max loss is set at 100% as\r\n        // the minimum output value is enforced by the calling\r\n        // function in the WrappedPosition contract.\r\n        uint256 amountBefore = token.balanceOf(address(this));\r\n        vault.redeem(_amount + localUnderlying);\r\n        uint256 amountAfter = token.balanceOf(address(this));\r\n        uint256 amountReceived = amountAfter - amountBefore;\r\n\r\n        // calculate the user share\r\n        uint256 userShare = (_amount * amountReceived) /\r\n            (localShares + _amount);\r\n\r\n        _setReserves(localUnderlying + amountReceived - userShare, 0);\r\n        // Transfer the underlying to the destination 'token' is an immutable in WrappedPosition\r\n        token.transfer(_destination, userShare);\r\n        // Return the amount of underlying\r\n        return userShare;\r\n    }\r\n\r\n    /// @notice Get the underlying amount of tokens per shares given\r\n    /// @param _amount The amount of shares you want to know the value of\r\n    /// @return Value of shares in underlying token\r\n    function _underlying(uint256 _amount)\r\n        internal\r\n        override\r\n        view\r\n        returns (uint256)\r\n    {\r\n        return (_amount * _pricePerShare()) / (10**vaultDecimals);\r\n    }\r\n\r\n    /// @notice Get the price per share in the vault\r\n    /// @return The price per share in units of underlying;\r\n    function _pricePerShare() internal view returns (uint256) {\r\n        return vault.exchangeRate();\r\n    }\r\n\r\n    /// @notice Function to reset approvals for the proxy\r\n    function approve() external {\r\n        token.approve(address(vault), 0);\r\n        token.approve(address(vault), type(uint256).max);\r\n    }\r\n\r\n    /// @notice Helper to get the reserves with one sload\r\n    /// @return Tuple (reserve underlying, reserve shares)\r\n    function _getReserves() internal view returns (uint256, uint256) {\r\n        return (uint256(reserveUnderlying), uint256(reserveShares));\r\n    }\r\n\r\n    /// @notice Helper to set reserves using one sstore\r\n    /// @param _newReserveUnderlying The new reserve of underlying\r\n    /// @param _newReserveShares The new reserve of wrapped position shares\r\n    function _setReserves(\r\n        uint256 _newReserveUnderlying,\r\n        uint256 _newReserveShares\r\n    ) internal {\r\n        reserveUnderlying = uint128(_newReserveUnderlying);\r\n        reserveShares = uint128(_newReserveShares);\r\n    }\r\n\r\n    /// @notice Converts an input of shares to it's output of underlying or an input\r\n    ///      of underlying to an output of shares, using flux 's deposit pricing\r\n    /// @param amount the amount of input, shares if 'sharesIn == true' underlying if not\r\n    /// @param sharesIn true to convert from flux shares to underlying, false to convert from\r\n    ///                 underlying to flux shares\r\n    /// @return The converted output of either underlying or flux shares\r\n    function _fluxDepositConverter(uint256 amount, bool sharesIn)\r\n        internal\r\n        virtual\r\n        view\r\n        returns (uint256)\r\n    {\r\n        // Load the flux price per share\r\n        uint256 pricePerShare = vault.exchangeRate();\r\n        // If we are converted shares to underlying\r\n        if (sharesIn) {\r\n            // If the input is shares we multiply by the price per share\r\n            return (pricePerShare * amount) / 10**vaultDecimals;\r\n        } else {\r\n            // If the input is in underlying we divide by price per share\r\n            return (amount * 10**vaultDecimals) / (pricePerShare + 1);\r\n        }\r\n    }\r\n}\r\n",
  "sourcePath": "/f/BlockChain/conflux/contract/Liberation-fi/contracts/FVaultAssetProxy.sol",
  "compiler": {
    "name": "solc",
    "version": "0.8.0+commit.c7dfd78e.Emscripten.clang"
  },
  "schemaVersion": "3.3.4",
  "updatedAt": "2021-09-11T13:23:34.367Z",
  "devdoc": {
    "author": "WontonData",
    "kind": "dev",
    "methods": {
      "approve(address,uint256)": {
        "params": {
          "account": "The account which will be approve to transfer tokens",
          "amount": "The approval amount, if set to uint256.max the allowance does not go down on transfers."
        },
        "returns": {
          "_0": "returns true for compatibility with the ERC20 standard"
        }
      },
      "balanceOfUnderlying(address)": {
        "params": {
          "_who": "The address to query"
        },
        "returns": {
          "_0": "The underlying token balance of the address"
        }
      },
      "constructor": {
        "params": {
          "_name": "The name of the token created",
          "_symbol": "The symbol of the token created",
          "_token": "The underlying token.               This token should revert in the event of a transfer failure.",
          "vault_": "The flux vault"
        }
      },
      "deposit(address,uint256)": {
        "params": {
          "_amount": "The amount of underlying tokens to deposit",
          "_destination": "The address to mint to"
        },
        "returns": {
          "_0": "Returns the number of Wrapped Position tokens minted"
        }
      },
      "getSharesToUnderlying(uint256)": {
        "params": {
          "_shares": "Shares to calculate underlying value for"
        },
        "returns": {
          "_0": "The value of underlying assets for the given shares"
        }
      },
      "permit(address,address,uint256,uint256,uint8,bytes32,bytes32)": {
        "details": "The signature for this function follows EIP 712 standard and should be generated with the      eth_signTypedData JSON RPC call instead of the eth_sign JSON RPC call. If using out of date      parity signing libraries the v component may need to be adjusted. Also it is very rare but possible      for v to be other values, those values are not supported.",
        "params": {
          "deadline": "the timestamp which the signature must be submitted by to be valid",
          "owner": "the owner of the account which is having the new approval set",
          "r": "The r component of the ECDSA signature",
          "s": "The s component of the ECDSA signature",
          "spender": "the address which will be allowed to spend owner's tokens",
          "v": "Extra ECDSA data which allows public key recovery from signature assumed to be 27 or 28",
          "value": "the new allowance value"
        }
      },
      "prefundedDeposit(address)": {
        "details": "WARNING - The call which funds this method MUST be in the same transaction",
        "params": {
          "_destination": "the destination of this deposit"
        },
        "returns": {
          "_0": "Returns (WP tokens minted, used underlying,                  senders WP balance before mint)"
        }
      },
      "reserveDeposit(uint256)": {
        "params": {
          "_amount": "The amount of underlying to deposit"
        }
      },
      "reserveWithdraw(uint256)": {
        "params": {
          "_amount": "The number of reserve shares to withdraw"
        }
      },
      "transfer(address,uint256)": {
        "details": "transfers to this contract address or 0 will fail",
        "params": {
          "amount": "The amount user token to send",
          "recipient": "The address which will be credited with the tokens"
        },
        "returns": {
          "_0": "returns true on success, reverts on failure so cannot return false."
        }
      },
      "transferFrom(address,address,uint256)": {
        "details": "will fail transfers which send funds to this contract or 0",
        "params": {
          "amount": "the number of tokens to send",
          "recipient": "The destination of the ERC20 tokens",
          "spender": "The source of the ERC20 tokens"
        },
        "returns": {
          "_0": "returns true on success and reverts on failure"
        }
      },
      "withdraw(address,uint256,uint256)": {
        "params": {
          "_destination": "The address which is credited with tokens",
          "_minUnderlying": "The min output the caller expects",
          "_shares": "The amount of shares the user is burning to withdraw underlying"
        },
        "returns": {
          "_0": "The amount of underlying transferred to the destination"
        }
      },
      "withdrawUnderlying(address,uint256,uint256)": {
        "params": {
          "_amount": "The amount of underlying to try to redeem for",
          "_destination": "The address to send the output to",
          "_minUnderlying": "The minium underlying to receive"
        },
        "returns": {
          "_0": "The amount of underlying released, and shares used"
        }
      }
    },
    "title": "Flux Vault Asset Proxy",
    "version": 1
  },
  "userdoc": {
    "kind": "user",
    "methods": {
      "approve()": {
        "notice": "Function to reset approvals for the proxy"
      },
      "approve(address,uint256)": {
        "notice": "This function allows a user to approve an account which can transfer         tokens on their behalf."
      },
      "balanceOfUnderlying(address)": {
        "notice": "Get the underlying balance of an address"
      },
      "constructor": {
        "notice": "Constructs this contract and stores needed data"
      },
      "deposit(address,uint256)": {
        "notice": "Entry point to deposit tokens into the Wrapped Position contract         Transfers tokens on behalf of caller so the caller must set         allowance on the contract prior to call."
      },
      "getSharesToUnderlying(uint256)": {
        "notice": "Returns the amount of the underlying asset a certain amount of shares is worth"
      },
      "permit(address,address,uint256,uint256,uint8,bytes32,bytes32)": {
        "notice": "This function allows a caller who is not the owner of an account to execute the functionality of 'approve' with the owners signature."
      },
      "prefundedDeposit(address)": {
        "notice": "Entry point to deposit tokens into the Wrapped Position contract         Assumes the tokens were transferred before this was called"
      },
      "reserveDeposit(uint256)": {
        "notice": "This function allows a user to deposit to the reserve"
      },
      "reserveWithdraw(uint256)": {
        "notice": "This function allows a holder of reserve balance to withdraw their share"
      },
      "transfer(address,uint256)": {
        "notice": "Allows a token owner to send tokens to another address"
      },
      "transferFrom(address,address,uint256)": {
        "notice": "Transfers an amount of erc20 from a spender to a receipt"
      },
      "withdraw(address,uint256,uint256)": {
        "notice": "Exit point to withdraw tokens from the Wrapped Position contract"
      },
      "withdrawUnderlying(address,uint256,uint256)": {
        "notice": "This function burns enough tokens from the sender to send _amount          of underlying to the _destination."
      }
    },
    "version": 1
  }
}