{
  "contractName": "InterestToken",
  "abi": [
    {
      "inputs": [
        {
          "internalType": "address",
          "name": "_tranche",
          "type": "address"
        },
        {
          "internalType": "string",
          "name": "_strategySymbol",
          "type": "string"
        },
        {
          "internalType": "uint256",
          "name": "_timestamp",
          "type": "uint256"
        },
        {
          "internalType": "uint8",
          "name": "_decimals",
          "type": "uint8"
        }
      ],
      "stateMutability": "nonpayable",
      "type": "constructor"
    },
    {
      "anonymous": false,
      "inputs": [
        {
          "indexed": true,
          "internalType": "address",
          "name": "owner",
          "type": "address"
        },
        {
          "indexed": true,
          "internalType": "address",
          "name": "spender",
          "type": "address"
        },
        {
          "indexed": false,
          "internalType": "uint256",
          "name": "value",
          "type": "uint256"
        }
      ],
      "name": "Approval",
      "type": "event"
    },
    {
      "anonymous": false,
      "inputs": [
        {
          "indexed": true,
          "internalType": "address",
          "name": "from",
          "type": "address"
        },
        {
          "indexed": true,
          "internalType": "address",
          "name": "to",
          "type": "address"
        },
        {
          "indexed": false,
          "internalType": "uint256",
          "name": "value",
          "type": "uint256"
        }
      ],
      "name": "Transfer",
      "type": "event"
    },
    {
      "inputs": [],
      "name": "DOMAIN_SEPARATOR",
      "outputs": [
        {
          "internalType": "bytes32",
          "name": "",
          "type": "bytes32"
        }
      ],
      "stateMutability": "view",
      "type": "function"
    },
    {
      "inputs": [],
      "name": "PERMIT_TYPEHASH",
      "outputs": [
        {
          "internalType": "bytes32",
          "name": "",
          "type": "bytes32"
        }
      ],
      "stateMutability": "view",
      "type": "function"
    },
    {
      "inputs": [],
      "name": "SPONSOR",
      "outputs": [
        {
          "internalType": "contract SponsorWhitelistControl",
          "name": "",
          "type": "address"
        }
      ],
      "stateMutability": "view",
      "type": "function"
    },
    {
      "inputs": [
        {
          "internalType": "address",
          "name": "",
          "type": "address"
        },
        {
          "internalType": "address",
          "name": "",
          "type": "address"
        }
      ],
      "name": "allowance",
      "outputs": [
        {
          "internalType": "uint256",
          "name": "",
          "type": "uint256"
        }
      ],
      "stateMutability": "view",
      "type": "function"
    },
    {
      "inputs": [
        {
          "internalType": "address",
          "name": "account",
          "type": "address"
        },
        {
          "internalType": "uint256",
          "name": "amount",
          "type": "uint256"
        }
      ],
      "name": "approve",
      "outputs": [
        {
          "internalType": "bool",
          "name": "",
          "type": "bool"
        }
      ],
      "stateMutability": "nonpayable",
      "type": "function"
    },
    {
      "inputs": [
        {
          "internalType": "address",
          "name": "",
          "type": "address"
        }
      ],
      "name": "balanceOf",
      "outputs": [
        {
          "internalType": "uint256",
          "name": "",
          "type": "uint256"
        }
      ],
      "stateMutability": "view",
      "type": "function"
    },
    {
      "inputs": [],
      "name": "decimals",
      "outputs": [
        {
          "internalType": "uint8",
          "name": "",
          "type": "uint8"
        }
      ],
      "stateMutability": "view",
      "type": "function"
    },
    {
      "inputs": [],
      "name": "name",
      "outputs": [
        {
          "internalType": "string",
          "name": "",
          "type": "string"
        }
      ],
      "stateMutability": "view",
      "type": "function"
    },
    {
      "inputs": [
        {
          "internalType": "address",
          "name": "",
          "type": "address"
        }
      ],
      "name": "nonces",
      "outputs": [
        {
          "internalType": "uint256",
          "name": "",
          "type": "uint256"
        }
      ],
      "stateMutability": "view",
      "type": "function"
    },
    {
      "inputs": [
        {
          "internalType": "address",
          "name": "owner",
          "type": "address"
        },
        {
          "internalType": "address",
          "name": "spender",
          "type": "address"
        },
        {
          "internalType": "uint256",
          "name": "value",
          "type": "uint256"
        },
        {
          "internalType": "uint256",
          "name": "deadline",
          "type": "uint256"
        },
        {
          "internalType": "uint8",
          "name": "v",
          "type": "uint8"
        },
        {
          "internalType": "bytes32",
          "name": "r",
          "type": "bytes32"
        },
        {
          "internalType": "bytes32",
          "name": "s",
          "type": "bytes32"
        }
      ],
      "name": "permit",
      "outputs": [],
      "stateMutability": "nonpayable",
      "type": "function"
    },
    {
      "inputs": [],
      "name": "symbol",
      "outputs": [
        {
          "internalType": "string",
          "name": "",
          "type": "string"
        }
      ],
      "stateMutability": "view",
      "type": "function"
    },
    {
      "inputs": [],
      "name": "tranche",
      "outputs": [
        {
          "internalType": "contract ITranche",
          "name": "",
          "type": "address"
        }
      ],
      "stateMutability": "view",
      "type": "function"
    },
    {
      "inputs": [
        {
          "internalType": "address",
          "name": "recipient",
          "type": "address"
        },
        {
          "internalType": "uint256",
          "name": "amount",
          "type": "uint256"
        }
      ],
      "name": "transfer",
      "outputs": [
        {
          "internalType": "bool",
          "name": "",
          "type": "bool"
        }
      ],
      "stateMutability": "nonpayable",
      "type": "function"
    },
    {
      "inputs": [
        {
          "internalType": "address",
          "name": "spender",
          "type": "address"
        },
        {
          "internalType": "address",
          "name": "recipient",
          "type": "address"
        },
        {
          "internalType": "uint256",
          "name": "amount",
          "type": "uint256"
        }
      ],
      "name": "transferFrom",
      "outputs": [
        {
          "internalType": "bool",
          "name": "",
          "type": "bool"
        }
      ],
      "stateMutability": "nonpayable",
      "type": "function"
    },
    {
      "inputs": [],
      "name": "totalSupply",
      "outputs": [
        {
          "internalType": "uint256",
          "name": "",
          "type": "uint256"
        }
      ],
      "stateMutability": "view",
      "type": "function"
    },
    {
      "inputs": [
        {
          "internalType": "address",
          "name": "_account",
          "type": "address"
        },
        {
          "internalType": "uint256",
          "name": "_amount",
          "type": "uint256"
        }
      ],
      "name": "mint",
      "outputs": [],
      "stateMutability": "nonpayable",
      "type": "function"
    },
    {
      "inputs": [
        {
          "internalType": "address",
          "name": "_account",
          "type": "address"
        },
        {
          "internalType": "uint256",
          "name": "_amount",
          "type": "uint256"
        }
      ],
      "name": "burn",
      "outputs": [],
      "stateMutability": "nonpayable",
      "type": "function"
    }
  ],
  "bytecode": "0x60a06040523480156200001157600080fd5b5060405162002c0138038062002c01833981016040819052620000349162000e01565b60408051808201909152601781527f4c696265726174696f6e205969656c6420546f6b656e20000000000000000000602082015262000075908484620002a9565b6040805180820190915260018152607960f81b60208201526200009a90858562000377565b8151620000af90600090602085019062000d44565b508051620000c590600190602084019062000d44565b506002805460ff1916601217905560036020526000197f3617319a054d772f909f7c479a2cebe5066e836a939412e32403c99029b92eff819055306000908152604090205562000114620003b8565b7f8b73c3c69bb8fe3d512ecc4cf759cc79239f7b179b0ffacaa9a75d522b39400f600060405162000146919062000f0f565b60408051918290038220828201825260018352603160f81b60209384015290516200019993927fc89efdaa54c0f20c7adf612882df0950f5a951637e0307cdcb4c672f298b8bc691469130910162001003565b60408051601f19818403018152919052805160209091012060065550506001600160601b0319606085901b16608052620001d381620003ba565b604080516001808252818301909252600091602080830190803683370190505090506000816000815181106200021957634e487b7160e01b600052603260045260246000fd5b6001600160a01b0390921660209283029190910190910152604051630809469f60e11b8152730888000000000000000000000000000000000001906310128d3e906200026a90849060040162000fb4565b600060405180830381600087803b1580156200028557600080fd5b505af11580156200029a573d6000803e3d6000fd5b505050505050505050620012b4565b8251606090620002c190600090602087019062000d44565b50620002db83836000620003d060201b620009061760201c565b60008054620002ea9062001200565b80601f0160208091040260200160405190810160405280929190818152602001828054620003189062001200565b8015620003695780601f106200033d5761010080835404028352916020019162000369565b820191906000526020600020905b8154815290600101906020018083116200034b57829003601f168201915b505050505090509392505050565b82516060906200038f90600190602087019062000d44565b50620003a983836001620003d060201b620009061760201c565b60018054620002ea9062001200565b565b6002805460ff191660ff92909216919091179055565b828160005b8251811015620004a457818382815181106200040157634e487b7160e01b600052603260045260246000fd5b602001015160f81c60f81b90808054806200041c9062001200565b80601f81146200042c5762000442565b83600052602060002060ff1984168155603f9350505b506002919091019091558154600116156200046c5790600052602060002090602091828204019190065b909190919091601f036101000a81548160ff02191690600160f81b8404021790555080806200049b906200123d565b915050620003d5565b5080602d60f81b9080805480620004bb9062001200565b80601f8114620004cb57620004e1565b83600052602060002060ff1984168155603f9350505b506002919091019091558154600116156200050b5790600052602060002090602091828204019190065b909190919091601f036101000a81548160ff02191690600160f81b840402179055506200053f84846200054660201b60201c565b5050505050565b62000552828262000556565b5050565b8060008080620005746200056e620151808862001115565b62000a06565b9194509250905060006200058a600a8362001115565b9050846200059a826030620010b9565b60f81b9080805480620005ad9062001200565b80601f8114620005bd57620005d3565b83600052602060002060ff1984168155603f9350505b50600291909101909155815460011615620005fd5790600052602060002090602091828204019190065b909190919091601f036101000a81548160ff02191690600160f81b840402179055506000600a836200063091906200125b565b90508562000640826030620010b9565b60f81b9080805480620006539062001200565b80601f8114620006635762000679565b83600052602060002060ff1984168155603f9350505b50600291909101909155815460011615620006a35790600052602060002090602091828204019190065b909190919091601f036101000a81548160ff02191690600160f81b8404021790555050508160011415620006f157620006eb84602560f91b604160f81b602760f91b62000bb2565b620008a0565b81600214156200071557620006eb84602360f91b604560f81b602160f91b62000bb2565b81600314156200073957620006eb84604d60f81b604160f81b602960f91b62000bb2565b81600414156200075d57620006eb84604160f81b600560fc1b602960f91b62000bb2565b81600514156200078157620006eb84604d60f81b604160f81b605960f81b62000bb2565b8160061415620007a557620006eb84602560f91b605560f81b602760f91b62000bb2565b8160071415620007c957620006eb84602560f91b605560f81b601360fa1b62000bb2565b8160081415620007ed57620006eb84604160f81b605560f81b604760f81b62000bb2565b81600914156200081157620006eb84605360f81b604560f81b600560fc1b62000bb2565b81600a14156200083557620006eb84604f60f81b604360f81b601560fa1b62000bb2565b81600b14156200085957620006eb84602760f91b604f60f81b602b60f91b62000bb2565b81600c14156200087d57620006eb84601160fa1b604560f81b604360f81b62000bb2565b60405162461bcd60e51b815260040162000897906200102f565b60405180910390fd5b6000620008af6064856200125b565b90506000620008c0600a8362001115565b905085620008d0826030620010b9565b60f81b9080805480620008e39062001200565b80601f8114620008f35762000909565b83600052602060002060ff1984168155603f9350505b50600291909101909155815460011615620009335790600052602060002090602091828204019190065b909190919091601f036101000a81548160ff02191690600160f81b840402179055506000600a836200096691906200125b565b90508662000976826030620010b9565b60f81b9080805480620009899062001200565b80601f81146200099957620009af565b83600052602060002060ff1984168155603f9350505b50600291909101909155815460011615620009d95790600052602060002090602091828204019190065b909190919091601f036101000a81548160ff02191690600160f81b84040217905550505050505050505050565b60008080838162253d8c62000a1f8362010bd962001072565b62000a2b919062001072565b9050600062023ab162000a408360046200112c565b62000a4c9190620010e1565b9050600462000a5f8262023ab16200112c565b62000a6c90600362001072565b62000a789190620010e1565b62000a849083620011bb565b9150600062164b0962000a9984600162001072565b62000aa790610fa06200112c565b62000ab39190620010e1565b9050600462000ac5826105b56200112c565b62000ad19190620010e1565b62000add9084620011bb565b62000aea90601f62001072565b9250600061098f62000afe8560506200112c565b62000b0a9190620010e1565b90506000605062000b1e8361098f6200112c565b62000b2a9190620010e1565b62000b369086620011bb565b905062000b45600b83620010e1565b945062000b5485600c6200112c565b62000b6183600262001072565b62000b6d9190620011bb565b9150848362000b7e603187620011bb565b62000b8b9060646200112c565b62000b97919062001072565b62000ba3919062001072565b9a919950975095505050505050565b8383908080548062000bc49062001200565b80601f811462000bd45762000bea565b83600052602060002060ff1984168155603f9350505b5060029190910190915581546001161562000c145790600052602060002090602091828204019190065b909190919091601f036101000a81548160ff02191690600160f81b840402179055508382908080548062000c489062001200565b80601f811462000c585762000c6e565b83600052602060002060ff1984168155603f9350505b5060029190910190915581546001161562000c985790600052602060002090602091828204019190065b909190919091601f036101000a81548160ff02191690600160f81b840402179055508381908080548062000ccc9062001200565b80601f811462000cdc5762000cf2565b83600052602060002060ff1984168155603f9350505b5060029190910190915581546001161562000d1c5790600052602060002090602091828204019190065b909190919091601f036101000a81548160ff02191690600160f81b8404021790555050505050565b82805462000d529062001200565b90600052602060002090601f01602090048101928262000d76576000855562000dc1565b82601f1062000d9157805160ff191683800117855562000dc1565b8280016001018555821562000dc1579182015b8281111562000dc157825182559160200191906001019062000da4565b5062000dcf92915062000dd3565b5090565b5b8082111562000dcf576000815560010162000dd4565b805160ff8116811462000dfc57600080fd5b919050565b6000806000806080858703121562000e17578384fd5b84516001600160a01b038116811462000e2e578485fd5b602086810151919550906001600160401b038082111562000e4d578586fd5b818801915088601f83011262000e61578586fd5b81518181111562000e765762000e766200129e565b604051601f8201601f191681018501838111828210171562000e9c5762000e9c6200129e565b60405281815283820185018b101562000eb3578788fd5b8792505b8183101562000ed6578383018501518184018601529184019162000eb7565b8183111562000ee757878583830101525b80975050505050506040850151915062000f046060860162000dea565b905092959194509250565b815460009081906002810460018083168062000f2c57607f831692505b602080841082141562000f4d57634e487b7160e01b87526022600452602487fd5b81801562000f64576001811462000f765762000fa6565b60ff1986168952848901965062000fa6565b62000f818a62001066565b885b8681101562000f9e5781548b82015290850190830162000f83565b505084890196505b509498975050505050505050565b6020808252825182820181905260009190848201906040850190845b8181101562000ff75783516001600160a01b03168352928401929184019160010162000fd0565b50909695505050505050565b9485526020850193909352604084019190915260608301526001600160a01b0316608082015260a00190565b60208082526013908201527f64617465206465636f64696e67206572726f7200000000000000000000000000604082015260600190565b60009081526020902090565b600080821280156001600160ff1b038490038513161562001097576200109762001272565b600160ff1b8390038412811615620010b357620010b362001272565b50500190565b600060ff821660ff84168060ff03821115620010d957620010d962001272565b019392505050565b600082620010f357620010f362001288565b600160ff1b82146000198414161562001110576200111062001272565b500590565b60008262001127576200112762001288565b500490565b60006001600160ff1b038184138284138082168684048611161562001155576200115562001272565b600160ff1b8487128281168783058912161562001176576200117662001272565b85871292508782058712848416161562001194576200119462001272565b87850587128184161615620011ad57620011ad62001272565b505050929093029392505050565b60008083128015600160ff1b850184121615620011dc57620011dc62001272565b6001600160ff1b0384018313811615620011fa57620011fa62001272565b50500390565b6002810460018216806200121557607f821691505b602082108114156200123757634e487b7160e01b600052602260045260246000fd5b50919050565b600060001982141562001254576200125462001272565b5060010190565b6000826200126d576200126d62001288565b500690565b634e487b7160e01b600052601160045260246000fd5b634e487b7160e01b600052601260045260246000fd5b634e487b7160e01b600052604160045260246000fd5b60805160601c611919620012e860003960008181610343015281816105a5015281816105f2015261065001526119196000f3fe608060405234801561001057600080fd5b506004361061010b5760003560e01c806340c10f19116100a257806395d89b411161007157806395d89b41146101f35780639dc29fac146101fb578063a9059cbb1461020e578063d505accf14610221578063dd62ed3e146102345761010b565b806340c10f19146101b05780636ebc0af1146101c557806370a08231146101cd5780637ecebe00146101e05761010b565b806323b872dd116100de57806323b872dd1461017857806330adf81f1461018b578063313ce567146101935780633644e515146101a85761010b565b806306fdde0314610110578063095ea7b31461012e57806318160ddd1461014e5780631d073a7a14610163575b600080fd5b610118610247565b604051610125919061149f565b60405180910390f35b61014161013c3660046113ba565b6102d5565b6040516101259190611425565b61015661033f565b6040516101259190611430565b61016b6103e0565b604051610125919061148b565b61014161018636600461130e565b6103f8565b610156610567565b61019b61058b565b60405161012591906116a6565b610156610594565b6101c36101be3660046113ba565b61059a565b005b61016b6105f0565b6101566101db3660046112c2565b610614565b6101566101ee3660046112c2565b610626565b610118610638565b6101c36102093660046113ba565b610645565b61014161021c3660046113ba565b610697565b6101c361022f366004611349565b6106ab565b6101566102423660046112dc565b6108e9565b600080546102549061184d565b80601f01602080910402602001604051908101604052809291908181526020018280546102809061184d565b80156102cd5780601f106102a2576101008083540402835291602001916102cd565b820191906000526020600020905b8154815290600101906020018083116102b057829003601f168201915b505050505081565b3360008181526004602090815260408083206001600160a01b038716808552925280832085905551919290917f8c5be1e5ebec7d5bd14f71427d1e84f3dd0314c0f7b2291e5b200ac8c7c3b9259061032e908690611430565b60405180910390a350600192915050565b60007f00000000000000000000000000000000000000000000000000000000000000006001600160a01b031663041be7c26040518163ffffffff1660e01b815260040160206040518083038186803b15801561039a57600080fd5b505afa1580156103ae573d6000803e3d6000fd5b505050506040513d601f19601f820116820180604052508101906103d291906113e3565b6001600160801b0316905090565b73088800000000000000000000000000000000000181565b6001600160a01b0383166000908152600360205260408120548281101561043a5760405162461bcd60e51b81526004016104319061162d565b60405180910390fd5b6001600160a01b03851633146104c8576001600160a01b038516600090815260046020908152604080832033845290915290205460001981146104c657838110156104975760405162461bcd60e51b8152600401610431906114f2565b6104a18482611836565b6001600160a01b03871660009081526004602090815260408083203384529091529020555b505b6104d28382611836565b6001600160a01b0380871660009081526003602052604080822093909355908616815220546105029084906116f5565b6001600160a01b0380861660008181526003602052604090819020939093559151908716907fddf252ad1be2c89b69c2b068fc378daa952ba7f163c4a11628f55a4df523b3ef90610554908790611430565b60405180910390a3506001949350505050565b7f6e71edae12b1b97f4d1f60370fef10105fa2faae0126114a169c64845d6126c981565b60025460ff1681565b60065481565b336001600160a01b037f000000000000000000000000000000000000000000000000000000000000000016146105e25760405162461bcd60e51b815260040161043190611664565b6105ec8282610a65565b5050565b7f000000000000000000000000000000000000000000000000000000000000000081565b60036020526000908152604090205481565b60056020526000908152604090205481565b600180546102549061184d565b336001600160a01b037f0000000000000000000000000000000000000000000000000000000000000000161461068d5760405162461bcd60e51b815260040161043190611664565b6105ec8282610ae4565b60006106a43384846103f8565b9392505050565b6006546001600160a01b0388166000908152600560209081526040808320549051929392610704927f6e71edae12b1b97f4d1f60370fef10105fa2faae0126114a169c64845d6126c9928d928d928d92918d9101611439565b6040516020818303038152906040528051906020012060405160200161072b92919061140a565b60408051601f19818403018152919052805160209091012090506001600160a01b03881661076b5760405162461bcd60e51b815260040161043190611598565b6001818585856040516000815260200160405260405161078e949392919061146d565b6020604051602081039080840390855afa1580156107b0573d6000803e3d6000fd5b505050602060405103516001600160a01b0316886001600160a01b0316146107ea5760405162461bcd60e51b8152600401610431906115cf565b8415806107f75750844211155b6108135760405162461bcd60e51b8152600401610431906115fe565b7f7fffffffffffffffffffffffffffffff5d576e7357a4501ddfe92f46681b20a08211156108535760405162461bcd60e51b815260040161043190611529565b6001600160a01b038816600090815260056020526040812080549161087783611888565b90915550506001600160a01b038089166000818152600460209081526040808320948c168084529490915290819020899055517f8c5be1e5ebec7d5bd14f71427d1e84f3dd0314c0f7b2291e5b200ac8c7c3b925906108d7908a90611430565b60405180910390a35050505050505050565b600460209081526000928352604080842090915290825290205481565b828160005b82518110156109d0578183828151811061093557634e487b7160e01b600052603260045260246000fd5b602001015160f81c60f81b908080548061094e9061184d565b80601f811461095c57610972565b83600052602060002060ff1984168155603f9350505b5060029190910190915581546001161561099b5790600052602060002090602091828204019190065b909190919091601f036101000a81548160ff02191690600160f81b8404021790555080806109c890611888565b91505061090b565b5080602d60f81b90808054806109e59061184d565b80601f81146109f357610a09565b83600052602060002060ff1984168155603f9350505b50600291909101909155815460011615610a325790600052602060002090602091828204019190065b909190919091601f036101000a81548160ff02191690600160f81b84040217905550610a5e8484610b54565b5050505050565b6001600160a01b038216600090815260036020526040902054610a899082906116f5565b6001600160a01b0383166000818152600360205260408082209390935591519091907fddf252ad1be2c89b69c2b068fc378daa952ba7f163c4a11628f55a4df523b3ef90610ad8908590611430565b60405180910390a35050565b6001600160a01b038216600090815260036020526040902054610b08908290611836565b6001600160a01b0383166000818152600360205260408082209390935591517fddf252ad1be2c89b69c2b068fc378daa952ba7f163c4a11628f55a4df523b3ef90610ad8908590611430565b6105ec82828060008080610b73610b6e6201518088611760565b610faf565b919450925090506000610b87600a83611760565b905084610b9582603061170d565b60f81b9080805480610ba69061184d565b80601f8114610bb457610bca565b83600052602060002060ff1984168155603f9350505b50600291909101909155815460011615610bf35790600052602060002090602091828204019190065b909190919091601f036101000a81548160ff02191690600160f81b840402179055506000600a83610c2491906118a3565b905085610c3282603061170d565b60f81b9080805480610c439061184d565b80601f8114610c5157610c67565b83600052602060002060ff1984168155603f9350505b50600291909101909155815460011615610c905790600052602060002090602091828204019190065b909190919091601f036101000a81548160ff02191690600160f81b8404021790555050508160011415610cda57610cd584602560f91b604160f81b602760f91b611123565b610e5d565b8160021415610cfb57610cd584602360f91b604560f81b602160f91b611123565b8160031415610d1c57610cd584604d60f81b604160f81b602960f91b611123565b8160041415610d3d57610cd584604160f81b600560fc1b602960f91b611123565b8160051415610d5e57610cd584604d60f81b604160f81b605960f81b611123565b8160061415610d7f57610cd584602560f91b605560f81b602760f91b611123565b8160071415610da057610cd584602560f91b605560f81b601360fa1b611123565b8160081415610dc157610cd584604160f81b605560f81b604760f81b611123565b8160091415610de257610cd584605360f81b604560f81b600560fc1b611123565b81600a1415610e0357610cd584604f60f81b604360f81b601560fa1b611123565b81600b1415610e2457610cd584602760f91b604f60f81b602b60f91b611123565b81600c1415610e4557610cd584601160fa1b604560f81b604360f81b611123565b60405162461bcd60e51b81526004016104319061156b565b6000610e6a6064856118a3565b90506000610e79600a83611760565b905085610e8782603061170d565b60f81b9080805480610e989061184d565b80601f8114610ea657610ebc565b83600052602060002060ff1984168155603f9350505b50600291909101909155815460011615610ee55790600052602060002090602091828204019190065b909190919091601f036101000a81548160ff02191690600160f81b840402179055506000600a83610f1691906118a3565b905086610f2482603061170d565b60f81b9080805480610f359061184d565b80601f8114610f4357610f59565b83600052602060002060ff1984168155603f9350505b50600291909101909155815460011615610f825790600052602060002090602091828204019190065b909190919091601f036101000a81548160ff02191690600160f81b84040217905550505050505050505050565b60008080838162253d8c610fc68362010bd96116b4565b610fd091906116b4565b9050600062023ab1610fe3836004611774565b610fed9190611732565b90506004610ffe8262023ab1611774565b6110099060036116b4565b6110139190611732565b61101d90836117f7565b9150600062164b096110308460016116b4565b61103c90610fa0611774565b6110469190611732565b90506004611056826105b5611774565b6110609190611732565b61106a90846117f7565b61107590601f6116b4565b9250600061098f611087856050611774565b6110919190611732565b9050600060506110a38361098f611774565b6110ad9190611732565b6110b790866117f7565b90506110c4600b83611732565b94506110d185600c611774565b6110dc8360026116b4565b6110e691906117f7565b915084836110f56031876117f7565b611100906064611774565b61110a91906116b4565b61111491906116b4565b9a919950975095505050505050565b838390808054806111339061184d565b80601f811461114157611157565b83600052602060002060ff1984168155603f9350505b506002919091019091558154600116156111805790600052602060002090602091828204019190065b909190919091601f036101000a81548160ff02191690600160f81b84040217905550838290808054806111b29061184d565b80601f81146111c0576111d6565b83600052602060002060ff1984168155603f9350505b506002919091019091558154600116156111ff5790600052602060002090602091828204019190065b909190919091601f036101000a81548160ff02191690600160f81b84040217905550838190808054806112319061184d565b80601f811461123f57611255565b83600052602060002060ff1984168155603f9350505b5060029190910190915581546001161561127e5790600052602060002090602091828204019190065b909190919091601f036101000a81548160ff02191690600160f81b8404021790555050505050565b80356001600160a01b03811681146112bd57600080fd5b919050565b6000602082840312156112d3578081fd5b6106a4826112a6565b600080604083850312156112ee578081fd5b6112f7836112a6565b9150611305602084016112a6565b90509250929050565b600080600060608486031215611322578081fd5b61132b846112a6565b9250611339602085016112a6565b9150604084013590509250925092565b600080600080600080600060e0888a031215611363578283fd5b61136c886112a6565b965061137a602089016112a6565b95506040880135945060608801359350608088013560ff8116811461139d578384fd5b9699959850939692959460a0840135945060c09093013592915050565b600080604083850312156113cc578182fd5b6113d5836112a6565b946020939093013593505050565b6000602082840312156113f4578081fd5b81516001600160801b03811681146106a4578182fd5b61190160f01b81526002810192909252602282015260420190565b901515815260200190565b90815260200190565b9586526001600160a01b0394851660208701529290931660408501526060840152608083019190915260a082015260c00190565b93845260ff9290921660208401526040830152606082015260800190565b6001600160a01b0391909116815260200190565b6000602080835283518082850152825b818110156114cb578581018301518582016040015282016114af565b818111156114dc5783604083870101525b50601f01601f1916929092016040019392505050565b6020808252601d908201527f45524332303a20696e73756666696369656e742d616c6c6f77616e6365000000604082015260600190565b60208082526022908201527f45524332303a20696e76616c6964207369676e6174757265202773272076616c604082015261756560f01b606082015260800190565b6020808252601390820152723230ba32903232b1b7b234b7339032b93937b960691b604082015260600190565b60208082526018908201527f45524332303a20696e76616c69642d616464726573732d300000000000000000604082015260600190565b602080825260159082015274115490cc8c0e881a5b9d985b1a590b5c195c9b5a5d605a1b604082015260600190565b602080825260159082015274115490cc8c0e881c195c9b5a5d0b595e1c1a5c9959605a1b604082015260600190565b6020808252601b908201527f45524332303a20696e73756666696369656e742d62616c616e63650000000000604082015260600190565b60208082526022908201527f63616c6c6572206973206e6f7420616e20617574686f72697a6564206d696e7460408201526132b960f11b606082015260800190565b60ff91909116815260200190565b600080821280156001600160ff1b03849003851316156116d6576116d66118b7565b600160ff1b83900384128116156116ef576116ef6118b7565b50500190565b60008219821115611708576117086118b7565b500190565b600060ff821660ff84168060ff0382111561172a5761172a6118b7565b019392505050565b600082611741576117416118cd565b600160ff1b82146000198414161561175b5761175b6118b7565b500590565b60008261176f5761176f6118cd565b500490565b60006001600160ff1b038184138284138082168684048611161561179a5761179a6118b7565b600160ff1b848712828116878305891216156117b8576117b86118b7565b8587129250878205871284841616156117d3576117d36118b7565b878505871281841616156117e9576117e96118b7565b505050929093029392505050565b60008083128015600160ff1b850184121615611815576118156118b7565b6001600160ff1b0384018313811615611830576118306118b7565b50500390565b600082821015611848576118486118b7565b500390565b60028104600182168061186157607f821691505b6020821081141561188257634e487b7160e01b600052602260045260246000fd5b50919050565b600060001982141561189c5761189c6118b7565b5060010190565b6000826118b2576118b26118cd565b500690565b634e487b7160e01b600052601160045260246000fd5b634e487b7160e01b600052601260045260246000fdfea26469706673582212204f92e3763b9a71c1ba5a57eeda29693e6fe4f3a394754b89188c9a1e1adc1a4464736f6c63430008000033",
  "immutableReferences": {
    "13": [
      {
        "length": 32,
        "start": 835
      },
      {
        "length": 32,
        "start": 1445
      },
      {
        "length": 32,
        "start": 1522
      },
      {
        "length": 32,
        "start": 1616
      }
    ]
  },
  "source": "// SPDX-License-Identifier: Apache-2.0\r\npragma solidity ^0.8.0;\r\n\r\nimport \"./libraries/ERC20Permit.sol\";\r\nimport \"./libraries/DateString.sol\";\r\n\r\nimport \"./interfaces/IInterestToken.sol\";\r\nimport \"./interfaces/ITranche.sol\";\r\nimport \"./libraries/SponsorWhitelistControl.sol\";\r\n\r\ncontract InterestToken is ERC20Permit, IInterestToken {\r\n    // The tranche address which controls the minting\r\n    ITranche public immutable tranche;\r\n    // \r\n    SponsorWhitelistControl constant public SPONSOR = SponsorWhitelistControl(0x0888000000000000000000000000000000000001);\r\n\r\n    /// @dev Initializes the ERC20 and writes the correct names\r\n    /// @param _tranche The tranche contract address\r\n    /// @param _strategySymbol The symbol of the associated WrappedPosition contract\r\n    /// @param _timestamp The unlock time on the tranche\r\n    /// @param _decimals The decimal encoding for this token\r\n    constructor(\r\n        address _tranche,\r\n        string memory _strategySymbol,\r\n        uint256 _timestamp,\r\n        uint8 _decimals\r\n    )\r\n        ERC20Permit(\r\n            _processName(\"Liberation Yield Token \", _strategySymbol, _timestamp),\r\n            _processSymbol(\"y\", _strategySymbol, _timestamp)\r\n        )\r\n    {\r\n        tranche = ITranche(_tranche);\r\n        _setupDecimals(_decimals);\r\n\r\n        address[] memory users = new address[](1);\r\n        users[0] = address(0);\r\n        SPONSOR.addPrivilege(users);\r\n    }\r\n\r\n    /// @notice We use this function to add the date to the name string\r\n    /// @param _name start of the name\r\n    /// @param _strategySymbol the strategy symbol\r\n    /// @param _timestamp the unix second timestamp to be encoded and added to the end of the string\r\n    function _processName(\r\n        string memory _name,\r\n        string memory _strategySymbol,\r\n        uint256 _timestamp\r\n    ) internal returns (string memory) {\r\n        // Set the name in the super\r\n        name = _name;\r\n        // Use the library to write the rest\r\n        DateString._encodeAndWriteTimestamp(_strategySymbol, _timestamp, name);\r\n        // load and return the name\r\n        return name;\r\n    }\r\n\r\n    /// @notice We use this function to add the date to the name string\r\n    /// @param _symbol start of the symbol\r\n    /// @param _strategySymbol the strategy symbol\r\n    /// @param _timestamp the unix second timestamp to be encoded and added to the end of the string\r\n    function _processSymbol(\r\n        string memory _symbol,\r\n        string memory _strategySymbol,\r\n        uint256 _timestamp\r\n    ) internal returns (string memory) {\r\n        // Set the symbol in the super\r\n        symbol = _symbol;\r\n        // Use the library to write the rest\r\n        DateString._encodeAndWriteTimestamp(\r\n            _strategySymbol,\r\n            _timestamp,\r\n            symbol\r\n        );\r\n        // load and return the name\r\n        return symbol;\r\n    }\r\n\r\n    /// @dev Aliasing of the lookup method for the supply of yield tokens which\r\n    ///      improves our ERC20 compatibility.\r\n    /// @return The total supply of yield tokens\r\n    function totalSupply() external view returns (uint256) {\r\n        return uint256(tranche.interestSupply());\r\n    }\r\n\r\n    /// @dev Prevents execution if the caller isn't the tranche\r\n    modifier onlyMintAuthority() {\r\n        require(\r\n            msg.sender == address(tranche),\r\n            \"caller is not an authorized minter\"\r\n        );\r\n        _;\r\n    }\r\n\r\n    /// @dev Mints tokens to an address\r\n    /// @param _account The account to mint to\r\n    /// @param _amount The amount to mint\r\n    function mint(address _account, uint256 _amount)\r\n        external\r\n        override\r\n        onlyMintAuthority\r\n    {\r\n        _mint(_account, _amount);\r\n    }\r\n\r\n    /// @dev Burns tokens from an address\r\n    /// @param _account The account to burn from\r\n    /// @param _amount The amount of token to burn\r\n    function burn(address _account, uint256 _amount)\r\n        external\r\n        override\r\n        onlyMintAuthority\r\n    {\r\n        _burn(_account, _amount);\r\n    }\r\n}\r\n",
  "sourcePath": "/f/BlockChain/conflux/contract/Liberation-fi/contracts/InterestToken.sol",
  "compiler": {
    "name": "solc",
    "version": "0.8.0+commit.c7dfd78e.Emscripten.clang"
  },
  "schemaVersion": "3.3.4",
  "updatedAt": "2021-09-11T11:57:13.800Z",
  "devdoc": {
    "kind": "dev",
    "methods": {
      "approve(address,uint256)": {
        "params": {
          "account": "The account which will be approve to transfer tokens",
          "amount": "The approval amount, if set to uint256.max the allowance does not go down on transfers."
        },
        "returns": {
          "_0": "returns true for compatibility with the ERC20 standard"
        }
      },
      "burn(address,uint256)": {
        "details": "Burns tokens from an address",
        "params": {
          "_account": "The account to burn from",
          "_amount": "The amount of token to burn"
        }
      },
      "constructor": {
        "details": "Initializes the ERC20 and writes the correct names",
        "params": {
          "_decimals": "The decimal encoding for this token",
          "_strategySymbol": "The symbol of the associated WrappedPosition contract",
          "_timestamp": "The unlock time on the tranche",
          "_tranche": "The tranche contract address"
        }
      },
      "mint(address,uint256)": {
        "details": "Mints tokens to an address",
        "params": {
          "_account": "The account to mint to",
          "_amount": "The amount to mint"
        }
      },
      "permit(address,address,uint256,uint256,uint8,bytes32,bytes32)": {
        "details": "The signature for this function follows EIP 712 standard and should be generated with the      eth_signTypedData JSON RPC call instead of the eth_sign JSON RPC call. If using out of date      parity signing libraries the v component may need to be adjusted. Also it is very rare but possible      for v to be other values, those values are not supported.",
        "params": {
          "deadline": "the timestamp which the signature must be submitted by to be valid",
          "owner": "the owner of the account which is having the new approval set",
          "r": "The r component of the ECDSA signature",
          "s": "The s component of the ECDSA signature",
          "spender": "the address which will be allowed to spend owner's tokens",
          "v": "Extra ECDSA data which allows public key recovery from signature assumed to be 27 or 28",
          "value": "the new allowance value"
        }
      },
      "totalSupply()": {
        "details": "Aliasing of the lookup method for the supply of yield tokens which      improves our ERC20 compatibility.",
        "returns": {
          "_0": "The total supply of yield tokens"
        }
      },
      "transfer(address,uint256)": {
        "details": "transfers to this contract address or 0 will fail",
        "params": {
          "amount": "The amount user token to send",
          "recipient": "The address which will be credited with the tokens"
        },
        "returns": {
          "_0": "returns true on success, reverts on failure so cannot return false."
        }
      },
      "transferFrom(address,address,uint256)": {
        "details": "will fail transfers which send funds to this contract or 0",
        "params": {
          "amount": "the number of tokens to send",
          "recipient": "The destination of the ERC20 tokens",
          "spender": "The source of the ERC20 tokens"
        },
        "returns": {
          "_0": "returns true on success and reverts on failure"
        }
      }
    },
    "version": 1
  },
  "userdoc": {
    "kind": "user",
    "methods": {
      "approve(address,uint256)": {
        "notice": "This function allows a user to approve an account which can transfer         tokens on their behalf."
      },
      "permit(address,address,uint256,uint256,uint8,bytes32,bytes32)": {
        "notice": "This function allows a caller who is not the owner of an account to execute the functionality of 'approve' with the owners signature."
      },
      "transfer(address,uint256)": {
        "notice": "Allows a token owner to send tokens to another address"
      },
      "transferFrom(address,address,uint256)": {
        "notice": "Transfers an amount of erc20 from a spender to a receipt"
      }
    },
    "version": 1
  }
}