{
  "contractName": "InterestTokenFactory",
  "abi": [
    {
      "anonymous": false,
      "inputs": [
        {
          "indexed": true,
          "internalType": "address",
          "name": "token",
          "type": "address"
        },
        {
          "indexed": true,
          "internalType": "address",
          "name": "tranche",
          "type": "address"
        }
      ],
      "name": "InterestTokenCreated",
      "type": "event"
    },
    {
      "inputs": [
        {
          "internalType": "address",
          "name": "_tranche",
          "type": "address"
        },
        {
          "internalType": "string",
          "name": "_strategySymbol",
          "type": "string"
        },
        {
          "internalType": "uint256",
          "name": "_expiration",
          "type": "uint256"
        },
        {
          "internalType": "uint8",
          "name": "_underlyingDecimals",
          "type": "uint8"
        }
      ],
      "name": "deployInterestToken",
      "outputs": [
        {
          "internalType": "contract InterestToken",
          "name": "",
          "type": "address"
        }
      ],
      "stateMutability": "nonpayable",
      "type": "function"
    }
  ],
  "bytecode": "0x608060405234801561001057600080fd5b50612d9c806100206000396000f3fe60806040523480156200001157600080fd5b50600436106200002e5760003560e01c806334bc39591462000033575b600080fd5b6200004a6200004436600462000114565b62000062565b60405162000059919062000280565b60405180910390f35b600080858585856040516200007790620000ef565b62000086949392919062000201565b604051809103906000f080158015620000a3573d6000803e3d6000fd5b509050856001600160a01b0316816001600160a01b03167f2a1f28f802ee995b68603fc0cc09180e843b627b76aadbe290b8675c3c4edc0b60405160405180910390a395945050505050565b612abc80620002ab83390190565b803560ff811681146200010f57600080fd5b919050565b600080600080608085870312156200012a578384fd5b84356001600160a01b038116811462000141578485fd5b935060208581013567ffffffffffffffff808211156200015f578586fd5b818801915088601f83011262000173578586fd5b81358181111562000188576200018862000294565b604051601f8201601f1916810185018381118282101715620001ae57620001ae62000294565b60405281815283820185018b1015620001c5578788fd5b81858501868301379081019093019590955250925060408501359150620001ef60608601620000fd565b905092959194509250565b60ff169052565b600060018060a01b038616825260206080818401528551806080850152825b818110156200023e5787810183015185820160a00152820162000220565b8181111562000250578360a083870101525b5060408401869052601f01601f1916830160a00191506200027790506060830184620001fa565b95945050505050565b6001600160a01b0391909116815260200190565b634e487b7160e01b600052604160045260246000fdfe60a06040523480156200001157600080fd5b5060405162002abc38038062002abc833981016040819052620000349162000d36565b60408051808201909152601481527f456c656d656e74205969656c6420546f6b656e20000000000000000000000000602082015262000075908484620001de565b604080518082019091526002815261655960f01b60208201526200009b908585620002ac565b8151620000b090600090602085019062000c79565b508051620000c690600190602084019062000c79565b506002805460ff1916601217905560036020526000197f3617319a054d772f909f7c479a2cebe5066e836a939412e32403c99029b92eff819055306000908152604090205562000115620002ed565b7f8b73c3c69bb8fe3d512ecc4cf759cc79239f7b179b0ffacaa9a75d522b39400f600060405162000147919062000e44565b60408051918290038220828201825260018352603160f81b60209384015290516200019a93927fc89efdaa54c0f20c7adf612882df0950f5a951637e0307cdcb4c672f298b8bc691469130910162000ee9565b60408051601f19818403018152919052805160209091012060065550506001600160601b0319606085901b16608052620001d481620002ef565b505050506200119a565b8251606090620001f690600090602087019062000c79565b5062000210838360006200030560201b620008db1760201c565b600080546200021f90620010e6565b80601f01602080910402602001604051908101604052809291908181526020018280546200024d90620010e6565b80156200029e5780601f1062000272576101008083540402835291602001916200029e565b820191906000526020600020905b8154815290600101906020018083116200028057829003601f168201915b505050505090509392505050565b8251606090620002c490600190602087019062000c79565b50620002de838360016200030560201b620008db1760201c565b600180546200021f90620010e6565b565b6002805460ff191660ff92909216919091179055565b828160005b8251811015620003d957818382815181106200033657634e487b7160e01b600052603260045260246000fd5b602001015160f81c60f81b90808054806200035190620010e6565b80601f8114620003615762000377565b83600052602060002060ff1984168155603f9350505b50600291909101909155815460011615620003a15790600052602060002090602091828204019190065b909190919091601f036101000a81548160ff02191690600160f81b840402179055508080620003d09062001123565b9150506200030a565b5080602d60f81b9080805480620003f090620010e6565b80601f8114620004005762000416565b83600052602060002060ff1984168155603f9350505b50600291909101909155815460011615620004405790600052602060002090602091828204019190065b909190919091601f036101000a81548160ff02191690600160f81b840402179055506200047484846200047b60201b60201c565b5050505050565b6200048782826200048b565b5050565b8060008080620004a9620004a3620151808862000ffb565b6200093b565b919450925090506000620004bf600a8362000ffb565b905084620004cf82603062000f9f565b60f81b9080805480620004e290620010e6565b80601f8114620004f25762000508565b83600052602060002060ff1984168155603f9350505b50600291909101909155815460011615620005325790600052602060002090602091828204019190065b909190919091601f036101000a81548160ff02191690600160f81b840402179055506000600a8362000565919062001141565b9050856200057582603062000f9f565b60f81b90808054806200058890620010e6565b80601f81146200059857620005ae565b83600052602060002060ff1984168155603f9350505b50600291909101909155815460011615620005d85790600052602060002090602091828204019190065b909190919091601f036101000a81548160ff02191690600160f81b840402179055505050816001141562000626576200062084602560f91b604160f81b602760f91b62000ae7565b620007d5565b81600214156200064a576200062084602360f91b604560f81b602160f91b62000ae7565b81600314156200066e576200062084604d60f81b604160f81b602960f91b62000ae7565b816004141562000692576200062084604160f81b600560fc1b602960f91b62000ae7565b8160051415620006b6576200062084604d60f81b604160f81b605960f81b62000ae7565b8160061415620006da576200062084602560f91b605560f81b602760f91b62000ae7565b8160071415620006fe576200062084602560f91b605560f81b601360fa1b62000ae7565b816008141562000722576200062084604160f81b605560f81b604760f81b62000ae7565b816009141562000746576200062084605360f81b604560f81b600560fc1b62000ae7565b81600a14156200076a576200062084604f60f81b604360f81b601560fa1b62000ae7565b81600b14156200078e576200062084602760f91b604f60f81b602b60f91b62000ae7565b81600c1415620007b2576200062084601160fa1b604560f81b604360f81b62000ae7565b60405162461bcd60e51b8152600401620007cc9062000f15565b60405180910390fd5b6000620007e460648562001141565b90506000620007f5600a8362000ffb565b9050856200080582603062000f9f565b60f81b90808054806200081890620010e6565b80601f811462000828576200083e565b83600052602060002060ff1984168155603f9350505b50600291909101909155815460011615620008685790600052602060002090602091828204019190065b909190919091601f036101000a81548160ff02191690600160f81b840402179055506000600a836200089b919062001141565b905086620008ab82603062000f9f565b60f81b9080805480620008be90620010e6565b80601f8114620008ce57620008e4565b83600052602060002060ff1984168155603f9350505b506002919091019091558154600116156200090e5790600052602060002090602091828204019190065b909190919091601f036101000a81548160ff02191690600160f81b84040217905550505050505050505050565b60008080838162253d8c620009548362010bd962000f58565b62000960919062000f58565b9050600062023ab16200097583600462001012565b62000981919062000fc7565b90506004620009948262023ab162001012565b620009a190600362000f58565b620009ad919062000fc7565b620009b99083620010a1565b9150600062164b09620009ce84600162000f58565b620009dc90610fa062001012565b620009e8919062000fc7565b90506004620009fa826105b562001012565b62000a06919062000fc7565b62000a129084620010a1565b62000a1f90601f62000f58565b9250600061098f62000a3385605062001012565b62000a3f919062000fc7565b90506000605062000a538361098f62001012565b62000a5f919062000fc7565b62000a6b9086620010a1565b905062000a7a600b8362000fc7565b945062000a8985600c62001012565b62000a9683600262000f58565b62000aa29190620010a1565b9150848362000ab3603187620010a1565b62000ac090606462001012565b62000acc919062000f58565b62000ad8919062000f58565b9a919950975095505050505050565b8383908080548062000af990620010e6565b80601f811462000b095762000b1f565b83600052602060002060ff1984168155603f9350505b5060029190910190915581546001161562000b495790600052602060002090602091828204019190065b909190919091601f036101000a81548160ff02191690600160f81b840402179055508382908080548062000b7d90620010e6565b80601f811462000b8d5762000ba3565b83600052602060002060ff1984168155603f9350505b5060029190910190915581546001161562000bcd5790600052602060002090602091828204019190065b909190919091601f036101000a81548160ff02191690600160f81b840402179055508381908080548062000c0190620010e6565b80601f811462000c115762000c27565b83600052602060002060ff1984168155603f9350505b5060029190910190915581546001161562000c515790600052602060002090602091828204019190065b909190919091601f036101000a81548160ff02191690600160f81b8404021790555050505050565b82805462000c8790620010e6565b90600052602060002090601f01602090048101928262000cab576000855562000cf6565b82601f1062000cc657805160ff191683800117855562000cf6565b8280016001018555821562000cf6579182015b8281111562000cf657825182559160200191906001019062000cd9565b5062000d0492915062000d08565b5090565b5b8082111562000d04576000815560010162000d09565b805160ff8116811462000d3157600080fd5b919050565b6000806000806080858703121562000d4c578384fd5b84516001600160a01b038116811462000d63578485fd5b602086810151919550906001600160401b038082111562000d82578586fd5b818801915088601f83011262000d96578586fd5b81518181111562000dab5762000dab62001184565b604051601f8201601f191681018501838111828210171562000dd15762000dd162001184565b60405281815283820185018b101562000de8578788fd5b8792505b8183101562000e0b578383018501518184018601529184019162000dec565b8183111562000e1c57878583830101525b80975050505050506040850151915062000e396060860162000d1f565b905092959194509250565b815460009081906002810460018083168062000e6157607f831692505b602080841082141562000e8257634e487b7160e01b87526022600452602487fd5b81801562000e99576001811462000eab5762000edb565b60ff1986168952848901965062000edb565b62000eb68a62000f4c565b885b8681101562000ed35781548b82015290850190830162000eb8565b505084890196505b509498975050505050505050565b9485526020850193909352604084019190915260608301526001600160a01b0316608082015260a00190565b60208082526013908201527f64617465206465636f64696e67206572726f7200000000000000000000000000604082015260600190565b60009081526020902090565b600080821280156001600160ff1b038490038513161562000f7d5762000f7d62001158565b600160ff1b839003841281161562000f995762000f9962001158565b50500190565b600060ff821660ff84168060ff0382111562000fbf5762000fbf62001158565b019392505050565b60008262000fd95762000fd96200116e565b600160ff1b82146000198414161562000ff65762000ff662001158565b500590565b6000826200100d576200100d6200116e565b500490565b60006001600160ff1b03818413828413808216868404861116156200103b576200103b62001158565b600160ff1b848712828116878305891216156200105c576200105c62001158565b8587129250878205871284841616156200107a576200107a62001158565b8785058712818416161562001093576200109362001158565b505050929093029392505050565b60008083128015600160ff1b850184121615620010c257620010c262001158565b6001600160ff1b0384018313811615620010e057620010e062001158565b50500390565b600281046001821680620010fb57607f821691505b602082108114156200111d57634e487b7160e01b600052602260045260246000fd5b50919050565b60006000198214156200113a576200113a62001158565b5060010190565b6000826200115357620011536200116e565b500690565b634e487b7160e01b600052601160045260246000fd5b634e487b7160e01b600052601260045260246000fd5b634e487b7160e01b600052604160045260246000fd5b60805160601c6118ee620011ce600039600081816103300152818161057a015281816105c7015261062501526118ee6000f3fe608060405234801561001057600080fd5b50600436106101005760003560e01c80636ebc0af1116100975780639dc29fac116100665780639dc29fac146101e8578063a9059cbb146101fb578063d505accf1461020e578063dd62ed3e1461022157610100565b80636ebc0af1146101a557806370a08231146101ba5780637ecebe00146101cd57806395d89b41146101e057610100565b806330adf81f116100d357806330adf81f1461016b578063313ce567146101735780633644e5151461018857806340c10f191461019057610100565b806306fdde0314610105578063095ea7b31461012357806318160ddd1461014357806323b872dd14610158575b600080fd5b61010d610234565b60405161011a9190611474565b60405180910390f35b61013661013136600461138f565b6102c2565b60405161011a91906113fa565b61014b61032c565b60405161011a9190611405565b6101366101663660046112e3565b6103cd565b61014b61053c565b61017b610560565b60405161011a919061167b565b61014b610569565b6101a361019e36600461138f565b61056f565b005b6101ad6105c5565b60405161011a9190611460565b61014b6101c8366004611297565b6105e9565b61014b6101db366004611297565b6105fb565b61010d61060d565b6101a36101f636600461138f565b61061a565b61013661020936600461138f565b61066c565b6101a361021c36600461131e565b610680565b61014b61022f3660046112b1565b6108be565b6000805461024190611822565b80601f016020809104026020016040519081016040528092919081815260200182805461026d90611822565b80156102ba5780601f1061028f576101008083540402835291602001916102ba565b820191906000526020600020905b81548152906001019060200180831161029d57829003601f168201915b505050505081565b3360008181526004602090815260408083206001600160a01b038716808552925280832085905551919290917f8c5be1e5ebec7d5bd14f71427d1e84f3dd0314c0f7b2291e5b200ac8c7c3b9259061031b908690611405565b60405180910390a350600192915050565b60007f00000000000000000000000000000000000000000000000000000000000000006001600160a01b031663041be7c26040518163ffffffff1660e01b815260040160206040518083038186803b15801561038757600080fd5b505afa15801561039b573d6000803e3d6000fd5b505050506040513d601f19601f820116820180604052508101906103bf91906113b8565b6001600160801b0316905090565b6001600160a01b0383166000908152600360205260408120548281101561040f5760405162461bcd60e51b815260040161040690611602565b60405180910390fd5b6001600160a01b038516331461049d576001600160a01b0385166000908152600460209081526040808320338452909152902054600019811461049b578381101561046c5760405162461bcd60e51b8152600401610406906114c7565b610476848261180b565b6001600160a01b03871660009081526004602090815260408083203384529091529020555b505b6104a7838261180b565b6001600160a01b0380871660009081526003602052604080822093909355908616815220546104d79084906116ca565b6001600160a01b0380861660008181526003602052604090819020939093559151908716907fddf252ad1be2c89b69c2b068fc378daa952ba7f163c4a11628f55a4df523b3ef90610529908790611405565b60405180910390a3506001949350505050565b7f6e71edae12b1b97f4d1f60370fef10105fa2faae0126114a169c64845d6126c981565b60025460ff1681565b60065481565b336001600160a01b037f000000000000000000000000000000000000000000000000000000000000000016146105b75760405162461bcd60e51b815260040161040690611639565b6105c18282610a3a565b5050565b7f000000000000000000000000000000000000000000000000000000000000000081565b60036020526000908152604090205481565b60056020526000908152604090205481565b6001805461024190611822565b336001600160a01b037f000000000000000000000000000000000000000000000000000000000000000016146106625760405162461bcd60e51b815260040161040690611639565b6105c18282610ab9565b60006106793384846103cd565b9392505050565b6006546001600160a01b03881660009081526005602090815260408083205490519293926106d9927f6e71edae12b1b97f4d1f60370fef10105fa2faae0126114a169c64845d6126c9928d928d928d92918d910161140e565b604051602081830303815290604052805190602001206040516020016107009291906113df565b60408051601f19818403018152919052805160209091012090506001600160a01b0388166107405760405162461bcd60e51b81526004016104069061156d565b600181858585604051600081526020016040526040516107639493929190611442565b6020604051602081039080840390855afa158015610785573d6000803e3d6000fd5b505050602060405103516001600160a01b0316886001600160a01b0316146107bf5760405162461bcd60e51b8152600401610406906115a4565b8415806107cc5750844211155b6107e85760405162461bcd60e51b8152600401610406906115d3565b7f7fffffffffffffffffffffffffffffff5d576e7357a4501ddfe92f46681b20a08211156108285760405162461bcd60e51b8152600401610406906114fe565b6001600160a01b038816600090815260056020526040812080549161084c8361185d565b90915550506001600160a01b038089166000818152600460209081526040808320948c168084529490915290819020899055517f8c5be1e5ebec7d5bd14f71427d1e84f3dd0314c0f7b2291e5b200ac8c7c3b925906108ac908a90611405565b60405180910390a35050505050505050565b600460209081526000928352604080842090915290825290205481565b828160005b82518110156109a5578183828151811061090a57634e487b7160e01b600052603260045260246000fd5b602001015160f81c60f81b908080548061092390611822565b80601f811461093157610947565b83600052602060002060ff1984168155603f9350505b506002919091019091558154600116156109705790600052602060002090602091828204019190065b909190919091601f036101000a81548160ff02191690600160f81b84040217905550808061099d9061185d565b9150506108e0565b5080602d60f81b90808054806109ba90611822565b80601f81146109c8576109de565b83600052602060002060ff1984168155603f9350505b50600291909101909155815460011615610a075790600052602060002090602091828204019190065b909190919091601f036101000a81548160ff02191690600160f81b84040217905550610a338484610b29565b5050505050565b6001600160a01b038216600090815260036020526040902054610a5e9082906116ca565b6001600160a01b0383166000818152600360205260408082209390935591519091907fddf252ad1be2c89b69c2b068fc378daa952ba7f163c4a11628f55a4df523b3ef90610aad908590611405565b60405180910390a35050565b6001600160a01b038216600090815260036020526040902054610add90829061180b565b6001600160a01b0383166000818152600360205260408082209390935591517fddf252ad1be2c89b69c2b068fc378daa952ba7f163c4a11628f55a4df523b3ef90610aad908590611405565b6105c182828060008080610b48610b436201518088611735565b610f84565b919450925090506000610b5c600a83611735565b905084610b6a8260306116e2565b60f81b9080805480610b7b90611822565b80601f8114610b8957610b9f565b83600052602060002060ff1984168155603f9350505b50600291909101909155815460011615610bc85790600052602060002090602091828204019190065b909190919091601f036101000a81548160ff02191690600160f81b840402179055506000600a83610bf99190611878565b905085610c078260306116e2565b60f81b9080805480610c1890611822565b80601f8114610c2657610c3c565b83600052602060002060ff1984168155603f9350505b50600291909101909155815460011615610c655790600052602060002090602091828204019190065b909190919091601f036101000a81548160ff02191690600160f81b8404021790555050508160011415610caf57610caa84602560f91b604160f81b602760f91b6110f8565b610e32565b8160021415610cd057610caa84602360f91b604560f81b602160f91b6110f8565b8160031415610cf157610caa84604d60f81b604160f81b602960f91b6110f8565b8160041415610d1257610caa84604160f81b600560fc1b602960f91b6110f8565b8160051415610d3357610caa84604d60f81b604160f81b605960f81b6110f8565b8160061415610d5457610caa84602560f91b605560f81b602760f91b6110f8565b8160071415610d7557610caa84602560f91b605560f81b601360fa1b6110f8565b8160081415610d9657610caa84604160f81b605560f81b604760f81b6110f8565b8160091415610db757610caa84605360f81b604560f81b600560fc1b6110f8565b81600a1415610dd857610caa84604f60f81b604360f81b601560fa1b6110f8565b81600b1415610df957610caa84602760f91b604f60f81b602b60f91b6110f8565b81600c1415610e1a57610caa84601160fa1b604560f81b604360f81b6110f8565b60405162461bcd60e51b815260040161040690611540565b6000610e3f606485611878565b90506000610e4e600a83611735565b905085610e5c8260306116e2565b60f81b9080805480610e6d90611822565b80601f8114610e7b57610e91565b83600052602060002060ff1984168155603f9350505b50600291909101909155815460011615610eba5790600052602060002090602091828204019190065b909190919091601f036101000a81548160ff02191690600160f81b840402179055506000600a83610eeb9190611878565b905086610ef98260306116e2565b60f81b9080805480610f0a90611822565b80601f8114610f1857610f2e565b83600052602060002060ff1984168155603f9350505b50600291909101909155815460011615610f575790600052602060002090602091828204019190065b909190919091601f036101000a81548160ff02191690600160f81b84040217905550505050505050505050565b60008080838162253d8c610f9b8362010bd9611689565b610fa59190611689565b9050600062023ab1610fb8836004611749565b610fc29190611707565b90506004610fd38262023ab1611749565b610fde906003611689565b610fe89190611707565b610ff290836117cc565b9150600062164b09611005846001611689565b61101190610fa0611749565b61101b9190611707565b9050600461102b826105b5611749565b6110359190611707565b61103f90846117cc565b61104a90601f611689565b9250600061098f61105c856050611749565b6110669190611707565b9050600060506110788361098f611749565b6110829190611707565b61108c90866117cc565b9050611099600b83611707565b94506110a685600c611749565b6110b1836002611689565b6110bb91906117cc565b915084836110ca6031876117cc565b6110d5906064611749565b6110df9190611689565b6110e99190611689565b9a919950975095505050505050565b8383908080548061110890611822565b80601f81146111165761112c565b83600052602060002060ff1984168155603f9350505b506002919091019091558154600116156111555790600052602060002090602091828204019190065b909190919091601f036101000a81548160ff02191690600160f81b840402179055508382908080548061118790611822565b80601f8114611195576111ab565b83600052602060002060ff1984168155603f9350505b506002919091019091558154600116156111d45790600052602060002090602091828204019190065b909190919091601f036101000a81548160ff02191690600160f81b840402179055508381908080548061120690611822565b80601f81146112145761122a565b83600052602060002060ff1984168155603f9350505b506002919091019091558154600116156112535790600052602060002090602091828204019190065b909190919091601f036101000a81548160ff02191690600160f81b8404021790555050505050565b80356001600160a01b038116811461129257600080fd5b919050565b6000602082840312156112a8578081fd5b6106798261127b565b600080604083850312156112c3578081fd5b6112cc8361127b565b91506112da6020840161127b565b90509250929050565b6000806000606084860312156112f7578081fd5b6113008461127b565b925061130e6020850161127b565b9150604084013590509250925092565b600080600080600080600060e0888a031215611338578283fd5b6113418861127b565b965061134f6020890161127b565b95506040880135945060608801359350608088013560ff81168114611372578384fd5b9699959850939692959460a0840135945060c09093013592915050565b600080604083850312156113a1578182fd5b6113aa8361127b565b946020939093013593505050565b6000602082840312156113c9578081fd5b81516001600160801b0381168114610679578182fd5b61190160f01b81526002810192909252602282015260420190565b901515815260200190565b90815260200190565b9586526001600160a01b0394851660208701529290931660408501526060840152608083019190915260a082015260c00190565b93845260ff9290921660208401526040830152606082015260800190565b6001600160a01b0391909116815260200190565b6000602080835283518082850152825b818110156114a057858101830151858201604001528201611484565b818111156114b15783604083870101525b50601f01601f1916929092016040019392505050565b6020808252601d908201527f45524332303a20696e73756666696369656e742d616c6c6f77616e6365000000604082015260600190565b60208082526022908201527f45524332303a20696e76616c6964207369676e6174757265202773272076616c604082015261756560f01b606082015260800190565b6020808252601390820152723230ba32903232b1b7b234b7339032b93937b960691b604082015260600190565b60208082526018908201527f45524332303a20696e76616c69642d616464726573732d300000000000000000604082015260600190565b602080825260159082015274115490cc8c0e881a5b9d985b1a590b5c195c9b5a5d605a1b604082015260600190565b602080825260159082015274115490cc8c0e881c195c9b5a5d0b595e1c1a5c9959605a1b604082015260600190565b6020808252601b908201527f45524332303a20696e73756666696369656e742d62616c616e63650000000000604082015260600190565b60208082526022908201527f63616c6c6572206973206e6f7420616e20617574686f72697a6564206d696e7460408201526132b960f11b606082015260800190565b60ff91909116815260200190565b600080821280156001600160ff1b03849003851316156116ab576116ab61188c565b600160ff1b83900384128116156116c4576116c461188c565b50500190565b600082198211156116dd576116dd61188c565b500190565b600060ff821660ff84168060ff038211156116ff576116ff61188c565b019392505050565b600082611716576117166118a2565b600160ff1b8214600019841416156117305761173061188c565b500590565b600082611744576117446118a2565b500490565b60006001600160ff1b038184138284138082168684048611161561176f5761176f61188c565b600160ff1b8487128281168783058912161561178d5761178d61188c565b8587129250878205871284841616156117a8576117a861188c565b878505871281841616156117be576117be61188c565b505050929093029392505050565b60008083128015600160ff1b8501841216156117ea576117ea61188c565b6001600160ff1b03840183138116156118055761180561188c565b50500390565b60008282101561181d5761181d61188c565b500390565b60028104600182168061183657607f821691505b6020821081141561185757634e487b7160e01b600052602260045260246000fd5b50919050565b60006000198214156118715761187161188c565b5060010190565b600082611887576118876118a2565b500690565b634e487b7160e01b600052601160045260246000fd5b634e487b7160e01b600052601260045260246000fdfea26469706673582212208d7a5bb1a06b8d5c93464b0d38b7cfb357101623821213f01a14d079e49dbec264736f6c63430008000033a2646970667358221220353a8ea4cff4317bd7d0ef5ccdb44a45e05fdbbbf9b5bbd6b0726f4116bab08a64736f6c63430008000033",
  "immutableReferences": {},
  "source": "// SPDX-License-Identifier: Apache-2.0\r\npragma solidity ^0.8.0;\r\n\r\nimport \"../InterestToken.sol\";\r\nimport \"../interfaces/IERC20.sol\";\r\n\r\ncontract InterestTokenFactory {\r\n    /// @dev Emitted when a new InterestToken is created.\r\n    /// @param token the token address\r\n    /// @param tranche the tranche address\r\n    event InterestTokenCreated(address indexed token, address indexed tranche);\r\n\r\n    /// @notice Deploy a new interest token contract\r\n    /// @param _tranche The Tranche contract associated with this interest token.\r\n    /// The Tranche contract is also the mint authority.\r\n    /// @param _strategySymbol The symbol of the associated Wrapped Position contract.\r\n    /// @param _expiration Expiration timestamp of the Tranche contract.\r\n    /// @param _underlyingDecimals The number of decimal places the underlying token adheres to.\r\n    /// @return The deployed interest token contract\r\n    function deployInterestToken(\r\n        address _tranche,\r\n        string memory _strategySymbol,\r\n        uint256 _expiration,\r\n        uint8 _underlyingDecimals\r\n    ) public returns (InterestToken) {\r\n        InterestToken token = new InterestToken(\r\n            _tranche,\r\n            _strategySymbol,\r\n            _expiration,\r\n            _underlyingDecimals\r\n        );\r\n\r\n        emit InterestTokenCreated(address(token), _tranche);\r\n\r\n        return token;\r\n    }\r\n}\r\n",
  "sourcePath": "/d/Code/Conflux-UMA/element-demo/contracts/factories/InterestTokenFactory.sol",
  "compiler": {
    "name": "solc",
    "version": "0.8.0+commit.c7dfd78e.Emscripten.clang"
  },
  "schemaVersion": "3.3.4",
  "updatedAt": "2021-08-12T11:09:27.415Z",
  "devdoc": {
    "events": {
      "InterestTokenCreated(address,address)": {
        "details": "Emitted when a new InterestToken is created.",
        "params": {
          "token": "the token address",
          "tranche": "the tranche address"
        }
      }
    },
    "kind": "dev",
    "methods": {
      "deployInterestToken(address,string,uint256,uint8)": {
        "params": {
          "_expiration": "Expiration timestamp of the Tranche contract.",
          "_strategySymbol": "The symbol of the associated Wrapped Position contract.",
          "_tranche": "The Tranche contract associated with this interest token. The Tranche contract is also the mint authority.",
          "_underlyingDecimals": "The number of decimal places the underlying token adheres to."
        },
        "returns": {
          "_0": "The deployed interest token contract"
        }
      }
    },
    "version": 1
  },
  "userdoc": {
    "kind": "user",
    "methods": {
      "deployInterestToken(address,string,uint256,uint8)": {
        "notice": "Deploy a new interest token contract"
      }
    },
    "version": 1
  }
}