{
  "contractName": "InterestTokenFactory",
  "abi": [
    {
      "anonymous": false,
      "inputs": [
        {
          "indexed": true,
          "internalType": "address",
          "name": "token",
          "type": "address"
        },
        {
          "indexed": true,
          "internalType": "address",
          "name": "tranche",
          "type": "address"
        }
      ],
      "name": "InterestTokenCreated",
      "type": "event"
    },
    {
      "inputs": [
        {
          "internalType": "address",
          "name": "_tranche",
          "type": "address"
        },
        {
          "internalType": "string",
          "name": "_strategySymbol",
          "type": "string"
        },
        {
          "internalType": "uint256",
          "name": "_expiration",
          "type": "uint256"
        },
        {
          "internalType": "uint8",
          "name": "_underlyingDecimals",
          "type": "uint8"
        }
      ],
      "name": "deployInterestToken",
      "outputs": [
        {
          "internalType": "contract InterestToken",
          "name": "",
          "type": "address"
        }
      ],
      "stateMutability": "nonpayable",
      "type": "function"
    }
  ],
  "bytecode": "0x608060405234801561001057600080fd5b50612cb4806100206000396000f3fe60806040523480156200001157600080fd5b50600436106200002e5760003560e01c806334bc39591462000033575b600080fd5b6200004a6200004436600462000118565b62000066565b6040516001600160a01b03909116815260200160405180910390f35b600080858585856040516200007b90620000f3565b6200008a94939291906200020f565b604051809103906000f080158015620000a7573d6000803e3d6000fd5b509050856001600160a01b0316816001600160a01b03167f2a1f28f802ee995b68603fc0cc09180e843b627b76aadbe290b8675c3c4edc0b60405160405180910390a395945050505050565b6129d780620002a883390190565b803560ff811681146200011357600080fd5b919050565b600080600080608085870312156200012f57600080fd5b84356001600160a01b03811681146200014757600080fd5b9350602085013567ffffffffffffffff808211156200016557600080fd5b818701915087601f8301126200017a57600080fd5b8135818111156200018f576200018f62000291565b604051601f8201601f19908116603f01168101908382118183101715620001ba57620001ba62000291565b816040528281528a6020848701011115620001d457600080fd5b82602086016020830137600060208483010152809750505050505060408501359150620002046060860162000101565b905092959194509250565b60018060a01b038516815260006020608081840152855180608085015260005b818110156200024d5787810183015185820160a0015282016200022f565b818111156200026057600060a083870101525b5060408401869052601f01601f1916830160a0019150620002889050606083018460ff169052565b95945050505050565b634e487b7160e01b600052604160045260246000fdfe60a06040523480156200001157600080fd5b50604051620029d7380380620029d7833981016040819052620000349162000d46565b60408051808201909152601481527f456c656d656e74205969656c6420546f6b656e20000000000000000000000000602082015262000075908484620001e9565b604080518082019091526002815261655960f01b60208201526200009b908585620002b7565b8151620000b090600090602085019062000c89565b508051620000c690600190602084019062000c89565b506002805460ff1916601217905560036020526000197f3617319a054d772f909f7c479a2cebe5066e836a939412e32403c99029b92eff81905530600090815260409020557f8b73c3c69bb8fe3d512ecc4cf759cc79239f7b179b0ffacaa9a75d522b39400f60006040516200013d919062000e62565b60408051918290038220828201825260018352603160f81b6020938401528151928301939093528101919091527fc89efdaa54c0f20c7adf612882df0950f5a951637e0307cdcb4c672f298b8bc660608201524660808201523060a082015260c00160408051808303601f1901815291905280516020909101206006555050606084901b6001600160601b0319166080526002805460ff831660ff199091161790555050505062001160565b82516060906200020190600090602087019062000c89565b506200021b83836000620002f860201b62000a071760201c565b600080546200022a9062001096565b80601f0160208091040260200160405190810160405280929190818152602001828054620002589062001096565b8015620002a95780601f106200027d57610100808354040283529160200191620002a9565b820191906000526020600020905b8154815290600101906020018083116200028b57829003601f168201915b505050505090509392505050565b8251606090620002cf90600190602087019062000c89565b50620002e983836001620002f860201b62000a071760201c565b600180546200022a9062001096565b828160005b8251811015620003c057818382815181106200031d576200031d62001134565b602001015160f81c60f81b9080805480620003389062001096565b80601f811462000348576200035e565b83600052602060002060ff1984168155603f9350505b50600291909101909155815460011615620003885790600052602060002090602091828204019190065b909190919091601f036101000a81548160ff02191690600160f81b840402179055508080620003b790620010d3565b915050620002fd565b5080602d60f81b9080805480620003d79062001096565b80601f8114620003e757620003fd565b83600052602060002060ff1984168155603f9350505b50600291909101909155815460011615620004275790600052602060002090602091828204019190065b909190919091601f036101000a81548160ff02191690600160f81b840402179055506200045b84846200046260201b60201c565b5050505050565b6200046e828262000472565b5050565b8060008080620004906200048a620151808862000fa9565b6200094b565b919450925090506000620004a6600a8362000fa9565b905084620004b682603062000f4d565b60f81b9080805480620004c99062001096565b80601f8114620004d957620004ef565b83600052602060002060ff1984168155603f9350505b50600291909101909155815460011615620005195790600052602060002090602091828204019190065b909190919091601f036101000a81548160ff02191690600160f81b840402179055506000600a836200054c9190620010f1565b9050856200055c82603062000f4d565b60f81b90808054806200056f9062001096565b80601f81146200057f5762000595565b83600052602060002060ff1984168155603f9350505b50600291909101909155815460011615620005bf5790600052602060002090602091828204019190065b909190919091601f036101000a81548160ff02191690600160f81b84040217905550505081600114156200060d576200060784602560f91b604160f81b602760f91b62000af7565b620007e5565b816002141562000631576200060784602360f91b604560f81b602160f91b62000af7565b816003141562000655576200060784604d60f81b604160f81b602960f91b62000af7565b816004141562000679576200060784604160f81b600560fc1b602960f91b62000af7565b81600514156200069d576200060784604d60f81b604160f81b605960f81b62000af7565b8160061415620006c1576200060784602560f91b605560f81b602760f91b62000af7565b8160071415620006e5576200060784602560f91b605560f81b601360fa1b62000af7565b816008141562000709576200060784604160f81b605560f81b604760f81b62000af7565b81600914156200072d576200060784605360f81b604560f81b600560fc1b62000af7565b81600a141562000751576200060784604f60f81b604360f81b601560fa1b62000af7565b81600b141562000775576200060784602760f91b604f60f81b602b60f91b62000af7565b81600c141562000799576200060784601160fa1b604560f81b604360f81b62000af7565b60405162461bcd60e51b815260206004820152601360248201527f64617465206465636f64696e67206572726f7200000000000000000000000000604482015260640160405180910390fd5b6000620007f4606485620010f1565b9050600062000805600a8362000fa9565b9050856200081582603062000f4d565b60f81b9080805480620008289062001096565b80601f811462000838576200084e565b83600052602060002060ff1984168155603f9350505b50600291909101909155815460011615620008785790600052602060002090602091828204019190065b909190919091601f036101000a81548160ff02191690600160f81b840402179055506000600a83620008ab9190620010f1565b905086620008bb82603062000f4d565b60f81b9080805480620008ce9062001096565b80601f8114620008de57620008f4565b83600052602060002060ff1984168155603f9350505b506002919091019091558154600116156200091e5790600052602060002090602091828204019190065b909190919091601f036101000a81548160ff02191690600160f81b84040217905550505050505050505050565b60008080838162253d8c620009648362010bd962000f06565b62000970919062000f06565b9050600062023ab16200098583600462000fc0565b62000991919062000f75565b90506004620009a48262023ab162000fc0565b620009b190600362000f06565b620009bd919062000f75565b620009c9908362001051565b9150600062164b09620009de84600162000f06565b620009ec90610fa062000fc0565b620009f8919062000f75565b9050600462000a0a826105b562000fc0565b62000a16919062000f75565b62000a22908462001051565b62000a2f90601f62000f06565b9250600061098f62000a4385605062000fc0565b62000a4f919062000f75565b90506000605062000a638361098f62000fc0565b62000a6f919062000f75565b62000a7b908662001051565b905062000a8a600b8362000f75565b945062000a9985600c62000fc0565b62000aa683600262000f06565b62000ab2919062001051565b9150848362000ac360318762001051565b62000ad090606462000fc0565b62000adc919062000f06565b62000ae8919062000f06565b9a919950975095505050505050565b8383908080548062000b099062001096565b80601f811462000b195762000b2f565b83600052602060002060ff1984168155603f9350505b5060029190910190915581546001161562000b595790600052602060002090602091828204019190065b909190919091601f036101000a81548160ff02191690600160f81b840402179055508382908080548062000b8d9062001096565b80601f811462000b9d5762000bb3565b83600052602060002060ff1984168155603f9350505b5060029190910190915581546001161562000bdd5790600052602060002090602091828204019190065b909190919091601f036101000a81548160ff02191690600160f81b840402179055508381908080548062000c119062001096565b80601f811462000c215762000c37565b83600052602060002060ff1984168155603f9350505b5060029190910190915581546001161562000c615790600052602060002090602091828204019190065b909190919091601f036101000a81548160ff02191690600160f81b8404021790555050505050565b82805462000c979062001096565b90600052602060002090601f01602090048101928262000cbb576000855562000d06565b82601f1062000cd657805160ff191683800117855562000d06565b8280016001018555821562000d06579182015b8281111562000d0657825182559160200191906001019062000ce9565b5062000d1492915062000d18565b5090565b5b8082111562000d14576000815560010162000d19565b805160ff8116811462000d4157600080fd5b919050565b6000806000806080858703121562000d5d57600080fd5b84516001600160a01b038116811462000d7557600080fd5b602086810151919550906001600160401b038082111562000d9557600080fd5b818801915088601f83011262000daa57600080fd5b81518181111562000dbf5762000dbf6200114a565b604051601f8201601f19908116603f0116810190838211818310171562000dea5762000dea6200114a565b816040528281528b8684870101111562000e0357600080fd5b600093505b8284101562000e27578484018601518185018701529285019262000e08565b8284111562000e395760008684830101525b8098505050505050506040850151915062000e576060860162000d2f565b905092959194509250565b600080835481600182811c91508083168062000e7f57607f831692505b602080841082141562000ea057634e487b7160e01b86526022600452602486fd5b81801562000eb7576001811462000ec95762000ef8565b60ff1986168952848901965062000ef8565b60008a81526020902060005b8681101562000ef05781548b82015290850190830162000ed5565b505084890196505b509498975050505050505050565b600080821280156001600160ff1b038490038513161562000f2b5762000f2b62001108565b600160ff1b839003841281161562000f475762000f4762001108565b50500190565b600060ff821660ff84168060ff0382111562000f6d5762000f6d62001108565b019392505050565b60008262000f875762000f876200111e565b600160ff1b82146000198414161562000fa45762000fa462001108565b500590565b60008262000fbb5762000fbb6200111e565b500490565b60006001600160ff1b038184138284138082168684048611161562000fe95762000fe962001108565b600160ff1b60008712828116878305891216156200100b576200100b62001108565b600087129250878205871284841616156200102a576200102a62001108565b8785058712818416161562001043576200104362001108565b505050929093029392505050565b60008083128015600160ff1b85018412161562001072576200107262001108565b6001600160ff1b038401831381161562001090576200109062001108565b50500390565b600181811c90821680620010ab57607f821691505b60208210811415620010cd57634e487b7160e01b600052602260045260246000fd5b50919050565b6000600019821415620010ea57620010ea62001108565b5060010190565b6000826200110357620011036200111e565b500690565b634e487b7160e01b600052601160045260246000fd5b634e487b7160e01b600052601260045260246000fd5b634e487b7160e01b600052603260045260246000fd5b634e487b7160e01b600052604160045260246000fd5b60805160601c61184362001194600039600081816101d8015281816103bc01528181610631015261069401526118436000f3fe608060405234801561001057600080fd5b50600436106101005760003560e01c80636ebc0af1116100975780639dc29fac116100665780639dc29fac1461025a578063a9059cbb1461026d578063d505accf14610280578063dd62ed3e1461029357600080fd5b80636ebc0af1146101d357806370a08231146102125780637ecebe001461023257806395d89b411461025257600080fd5b806330adf81f116100d357806330adf81f1461016f578063313ce567146101965780633644e515146101b557806340c10f19146101be57600080fd5b806306fdde0314610105578063095ea7b31461012357806318160ddd1461014657806323b872dd1461015c575b600080fd5b61010d6102be565b60405161011a919061152f565b60405180910390f35b6101366101313660046114dc565b61034c565b604051901515815260200161011a565b61014e6103b8565b60405190815260200161011a565b61013661016a36600461142d565b610459565b61014e7f6e71edae12b1b97f4d1f60370fef10105fa2faae0126114a169c64845d6126c981565b6002546101a39060ff1681565b60405160ff909116815260200161011a565b61014e60065481565b6101d16101cc3660046114dc565b610626565b005b6101fa7f000000000000000000000000000000000000000000000000000000000000000081565b6040516001600160a01b03909116815260200161011a565b61014e6102203660046113df565b60036020526000908152604090205481565b61014e6102403660046113df565b60056020526000908152604090205481565b61010d61067c565b6101d16102683660046114dc565b610689565b61013661027b3660046114dc565b6106db565b6101d161028e366004611469565b6106ef565b61014e6102a13660046113fa565b600460209081526000928352604080842090915290825290205481565b600080546102cb90611761565b80601f01602080910402602001604051908101604052809291908181526020018280546102f790611761565b80156103445780601f1061031957610100808354040283529160200191610344565b820191906000526020600020905b81548152906001019060200180831161032757829003601f168201915b505050505081565b3360008181526004602090815260408083206001600160a01b038716808552925280832085905551919290917f8c5be1e5ebec7d5bd14f71427d1e84f3dd0314c0f7b2291e5b200ac8c7c3b925906103a79086815260200190565b60405180910390a350600192915050565b60007f00000000000000000000000000000000000000000000000000000000000000006001600160a01b031663041be7c26040518163ffffffff1660e01b815260040160206040518083038186803b15801561041357600080fd5b505afa158015610427573d6000803e3d6000fd5b505050506040513d601f19601f8201168201806040525081019061044b9190611506565b6001600160801b0316905090565b6001600160a01b038316600090815260036020526040812054828110156104c75760405162461bcd60e51b815260206004820152601b60248201527f45524332303a20696e73756666696369656e742d62616c616e6365000000000060448201526064015b60405180910390fd5b6001600160a01b0385163314610585576001600160a01b0385166000908152600460209081526040808320338452909152902054600019811461058357838110156105545760405162461bcd60e51b815260206004820152601d60248201527f45524332303a20696e73756666696369656e742d616c6c6f77616e636500000060448201526064016104be565b61055e848261174a565b6001600160a01b03871660009081526004602090815260408083203384529091529020555b505b61058f838261174a565b6001600160a01b0380871660009081526003602052604080822093909355908616815220546105bf908490611607565b6001600160a01b0380861660008181526003602052604090819020939093559151908716907fddf252ad1be2c89b69c2b068fc378daa952ba7f163c4a11628f55a4df523b3ef906106139087815260200190565b60405180910390a3506001949350505050565b336001600160a01b037f0000000000000000000000000000000000000000000000000000000000000000161461066e5760405162461bcd60e51b81526004016104be90611584565b6106788282610b58565b5050565b600180546102cb90611761565b336001600160a01b037f000000000000000000000000000000000000000000000000000000000000000016146106d15760405162461bcd60e51b81526004016104be90611584565b6106788282610bd9565b60006106e8338484610459565b9392505050565b6006546001600160a01b038881166000818152600560209081526040918290205482517f6e71edae12b1b97f4d1f60370fef10105fa2faae0126114a169c64845d6126c981840152808401859052948c166060860152608085018b905260a085015260c08085018a90528251808603909101815260e08501835280519082012061190160f01b6101008601526101028501959095526101228085019590955281518085039095018552610142909301905282519290910191909120906107f75760405162461bcd60e51b815260206004820152601860248201527f45524332303a20696e76616c69642d616464726573732d30000000000000000060448201526064016104be565b60408051600081526020810180835283905260ff861691810191909152606081018490526080810183905260019060a0016020604051602081039080840390855afa15801561084a573d6000803e3d6000fd5b505050602060405103516001600160a01b0316886001600160a01b0316146108ac5760405162461bcd60e51b8152602060048201526015602482015274115490cc8c0e881a5b9d985b1a590b5c195c9b5a5d605a1b60448201526064016104be565b8415806108b95750844211155b6108fd5760405162461bcd60e51b8152602060048201526015602482015274115490cc8c0e881c195c9b5a5d0b595e1c1a5c9959605a1b60448201526064016104be565b7f7fffffffffffffffffffffffffffffff5d576e7357a4501ddfe92f46681b20a08211156109785760405162461bcd60e51b815260206004820152602260248201527f45524332303a20696e76616c6964207369676e6174757265202773272076616c604482015261756560f01b60648201526084016104be565b6001600160a01b038816600090815260056020526040812080549161099c8361179c565b90915550506001600160a01b038881166000818152600460209081526040808320948c16808452948252918290208a905590518981527f8c5be1e5ebec7d5bd14f71427d1e84f3dd0314c0f7b2291e5b200ac8c7c3b925910160405180910390a35050505050505050565b828160005b8251811015610ac35781838281518110610a2857610a286117f7565b602001015160f81c60f81b9080805480610a4190611761565b80601f8114610a4f57610a65565b83600052602060002060ff1984168155603f9350505b50600291909101909155815460011615610a8e5790600052602060002090602091828204019190065b909190919091601f036101000a81548160ff02191690600160f81b840402179055508080610abb9061179c565b915050610a0c565b5080602d60f81b9080805480610ad890611761565b80601f8114610ae657610afc565b83600052602060002060ff1984168155603f9350505b50600291909101909155815460011615610b255790600052602060002090602091828204019190065b909190919091601f036101000a81548160ff02191690600160f81b84040217905550610b518484610c4b565b5050505050565b6001600160a01b038216600090815260036020526040902054610b7c908290611607565b6001600160a01b0383166000818152600360205260408082209390935591519091907fddf252ad1be2c89b69c2b068fc378daa952ba7f163c4a11628f55a4df523b3ef90610bcd9085815260200190565b60405180910390a35050565b6001600160a01b038216600090815260036020526040902054610bfd90829061174a565b6001600160a01b0383166000818152600360205260408082209390935591517fddf252ad1be2c89b69c2b068fc378daa952ba7f163c4a11628f55a4df523b3ef90610bcd9085815260200190565b61067882828060008080610c6a610c656201518088611672565b6110cc565b919450925090506000610c7e600a83611672565b905084610c8c82603061161f565b60f81b9080805480610c9d90611761565b80601f8114610cab57610cc1565b83600052602060002060ff1984168155603f9350505b50600291909101909155815460011615610cea5790600052602060002090602091828204019190065b909190919091601f036101000a81548160ff02191690600160f81b840402179055506000600a83610d1b91906117b7565b905085610d2982603061161f565b60f81b9080805480610d3a90611761565b80601f8114610d4857610d5e565b83600052602060002060ff1984168155603f9350505b50600291909101909155815460011615610d875790600052602060002090602091828204019190065b909190919091601f036101000a81548160ff02191690600160f81b8404021790555050508160011415610dd157610dcc84602560f91b604160f81b602760f91b611240565b610f7a565b8160021415610df257610dcc84602360f91b604560f81b602160f91b611240565b8160031415610e1357610dcc84604d60f81b604160f81b602960f91b611240565b8160041415610e3457610dcc84604160f81b600560fc1b602960f91b611240565b8160051415610e5557610dcc84604d60f81b604160f81b605960f81b611240565b8160061415610e7657610dcc84602560f91b605560f81b602760f91b611240565b8160071415610e9757610dcc84602560f91b605560f81b601360fa1b611240565b8160081415610eb857610dcc84604160f81b605560f81b604760f81b611240565b8160091415610ed957610dcc84605360f81b604560f81b600560fc1b611240565b81600a1415610efa57610dcc84604f60f81b604360f81b601560fa1b611240565b81600b1415610f1b57610dcc84602760f91b604f60f81b602b60f91b611240565b81600c1415610f3c57610dcc84601160fa1b604560f81b604360f81b611240565b60405162461bcd60e51b81526020600482015260136024820152723230ba32903232b1b7b234b7339032b93937b960691b60448201526064016104be565b6000610f876064856117b7565b90506000610f96600a83611672565b905085610fa482603061161f565b60f81b9080805480610fb590611761565b80601f8114610fc357610fd9565b83600052602060002060ff1984168155603f9350505b506002919091019091558154600116156110025790600052602060002090602091828204019190065b909190919091601f036101000a81548160ff02191690600160f81b840402179055506000600a8361103391906117b7565b90508661104182603061161f565b60f81b908080548061105290611761565b80601f811461106057611076565b83600052602060002060ff1984168155603f9350505b5060029190910190915581546001161561109f5790600052602060002090602091828204019190065b909190919091601f036101000a81548160ff02191690600160f81b84040217905550505050505050505050565b60008080838162253d8c6110e38362010bd96115c6565b6110ed91906115c6565b9050600062023ab1611100836004611686565b61110a9190611644565b9050600461111b8262023ab1611686565b6111269060036115c6565b6111309190611644565b61113a908361170b565b9150600062164b0961114d8460016115c6565b61115990610fa0611686565b6111639190611644565b90506004611173826105b5611686565b61117d9190611644565b611187908461170b565b61119290601f6115c6565b9250600061098f6111a4856050611686565b6111ae9190611644565b9050600060506111c08361098f611686565b6111ca9190611644565b6111d4908661170b565b90506111e1600b83611644565b94506111ee85600c611686565b6111f98360026115c6565b611203919061170b565b9150848361121260318761170b565b61121d906064611686565b61122791906115c6565b61123191906115c6565b9a919950975095505050505050565b8383908080548061125090611761565b80601f811461125e57611274565b83600052602060002060ff1984168155603f9350505b5060029190910190915581546001161561129d5790600052602060002090602091828204019190065b909190919091601f036101000a81548160ff02191690600160f81b84040217905550838290808054806112cf90611761565b80601f81146112dd576112f3565b83600052602060002060ff1984168155603f9350505b5060029190910190915581546001161561131c5790600052602060002090602091828204019190065b909190919091601f036101000a81548160ff02191690600160f81b840402179055508381908080548061134e90611761565b80601f811461135c57611372565b83600052602060002060ff1984168155603f9350505b5060029190910190915581546001161561139b5790600052602060002090602091828204019190065b909190919091601f036101000a81548160ff02191690600160f81b8404021790555050505050565b80356001600160a01b03811681146113da57600080fd5b919050565b6000602082840312156113f157600080fd5b6106e8826113c3565b6000806040838503121561140d57600080fd5b611416836113c3565b9150611424602084016113c3565b90509250929050565b60008060006060848603121561144257600080fd5b61144b846113c3565b9250611459602085016113c3565b9150604084013590509250925092565b600080600080600080600060e0888a03121561148457600080fd5b61148d886113c3565b965061149b602089016113c3565b95506040880135945060608801359350608088013560ff811681146114bf57600080fd5b9699959850939692959460a0840135945060c09093013592915050565b600080604083850312156114ef57600080fd5b6114f8836113c3565b946020939093013593505050565b60006020828403121561151857600080fd5b81516001600160801b03811681146106e857600080fd5b600060208083528351808285015260005b8181101561155c57858101830151858201604001528201611540565b8181111561156e576000604083870101525b50601f01601f1916929092016040019392505050565b60208082526022908201527f63616c6c6572206973206e6f7420616e20617574686f72697a6564206d696e7460408201526132b960f11b606082015260800190565b600080821280156001600160ff1b03849003851316156115e8576115e86117cb565b600160ff1b8390038412811615611601576116016117cb565b50500190565b6000821982111561161a5761161a6117cb565b500190565b600060ff821660ff84168060ff0382111561163c5761163c6117cb565b019392505050565b600082611653576116536117e1565b600160ff1b82146000198414161561166d5761166d6117cb565b500590565b600082611681576116816117e1565b500490565b60006001600160ff1b03818413828413808216868404861116156116ac576116ac6117cb565b600160ff1b60008712828116878305891216156116cb576116cb6117cb565b600087129250878205871284841616156116e7576116e76117cb565b878505871281841616156116fd576116fd6117cb565b505050929093029392505050565b60008083128015600160ff1b850184121615611729576117296117cb565b6001600160ff1b0384018313811615611744576117446117cb565b50500390565b60008282101561175c5761175c6117cb565b500390565b600181811c9082168061177557607f821691505b6020821081141561179657634e487b7160e01b600052602260045260246000fd5b50919050565b60006000198214156117b0576117b06117cb565b5060010190565b6000826117c6576117c66117e1565b500690565b634e487b7160e01b600052601160045260246000fd5b634e487b7160e01b600052601260045260246000fd5b634e487b7160e01b600052603260045260246000fdfea26469706673582212201d61212ea09ff4a8bcd06b567a9636fdf346c3f9c1c0b06d2b0174abd0ea094564736f6c63430008070033a26469706673582212206203c8877ee456c23e8c2665d25230ef6bd67e43f9a665fe092f3ebf06c8789264736f6c63430008070033",
  "immutableReferences": {},
  "source": "// SPDX-License-Identifier: Apache-2.0\r\npragma solidity ^0.8.0;\r\n\r\nimport \"../InterestToken.sol\";\r\nimport \"../interfaces/IERC20.sol\";\r\n\r\ncontract InterestTokenFactory {\r\n    /// @dev Emitted when a new InterestToken is created.\r\n    /// @param token the token address\r\n    /// @param tranche the tranche address\r\n    event InterestTokenCreated(address indexed token, address indexed tranche);\r\n\r\n    /// @notice Deploy a new interest token contract\r\n    /// @param _tranche The Tranche contract associated with this interest token.\r\n    /// The Tranche contract is also the mint authority.\r\n    /// @param _strategySymbol The symbol of the associated Wrapped Position contract.\r\n    /// @param _expiration Expiration timestamp of the Tranche contract.\r\n    /// @param _underlyingDecimals The number of decimal places the underlying token adheres to.\r\n    /// @return The deployed interest token contract\r\n    function deployInterestToken(\r\n        address _tranche,\r\n        string memory _strategySymbol,\r\n        uint256 _expiration,\r\n        uint8 _underlyingDecimals\r\n    ) public returns (InterestToken) {\r\n        InterestToken token = new InterestToken(\r\n            _tranche,\r\n            _strategySymbol,\r\n            _expiration,\r\n            _underlyingDecimals\r\n        );\r\n\r\n        emit InterestTokenCreated(address(token), _tranche);\r\n\r\n        return token;\r\n    }\r\n}\r\n",
  "sourcePath": "/f/BlockChain/conflux/contract/Liberation-fi/contracts/factories/InterestTokenFactory.sol",
  "compiler": {
    "name": "solc",
    "version": "0.8.7+commit.e28d00a7.Linux.g++"
  },
  "schemaVersion": "3.3.4",
  "updatedAt": "2021-08-18T09:57:15.373Z",
  "devdoc": {
    "events": {
      "InterestTokenCreated(address,address)": {
        "details": "Emitted when a new InterestToken is created.",
        "params": {
          "token": "the token address",
          "tranche": "the tranche address"
        }
      }
    },
    "kind": "dev",
    "methods": {
      "deployInterestToken(address,string,uint256,uint8)": {
        "params": {
          "_expiration": "Expiration timestamp of the Tranche contract.",
          "_strategySymbol": "The symbol of the associated Wrapped Position contract.",
          "_tranche": "The Tranche contract associated with this interest token. The Tranche contract is also the mint authority.",
          "_underlyingDecimals": "The number of decimal places the underlying token adheres to."
        },
        "returns": {
          "_0": "The deployed interest token contract"
        }
      }
    },
    "version": 1
  },
  "userdoc": {
    "kind": "user",
    "methods": {
      "deployInterestToken(address,string,uint256,uint8)": {
        "notice": "Deploy a new interest token contract"
      }
    },
    "version": 1
  }
}