{
  "contractName": "SponsorWhitelistControl",
  "abi": [
    {
      "inputs": [
        {
          "internalType": "address",
          "name": "contractAddr",
          "type": "address"
        }
      ],
      "name": "getSponsorForGas",
      "outputs": [
        {
          "internalType": "address",
          "name": "",
          "type": "address"
        }
      ],
      "stateMutability": "view",
      "type": "function"
    },
    {
      "inputs": [
        {
          "internalType": "address",
          "name": "contractAddr",
          "type": "address"
        }
      ],
      "name": "getSponsoredBalanceForGas",
      "outputs": [
        {
          "internalType": "uint256",
          "name": "",
          "type": "uint256"
        }
      ],
      "stateMutability": "view",
      "type": "function"
    },
    {
      "inputs": [
        {
          "internalType": "address",
          "name": "contractAddr",
          "type": "address"
        }
      ],
      "name": "getSponsoredGasFeeUpperBound",
      "outputs": [
        {
          "internalType": "uint256",
          "name": "",
          "type": "uint256"
        }
      ],
      "stateMutability": "view",
      "type": "function"
    },
    {
      "inputs": [
        {
          "internalType": "address",
          "name": "contractAddr",
          "type": "address"
        }
      ],
      "name": "getSponsorForCollateral",
      "outputs": [
        {
          "internalType": "address",
          "name": "",
          "type": "address"
        }
      ],
      "stateMutability": "view",
      "type": "function"
    },
    {
      "inputs": [
        {
          "internalType": "address",
          "name": "contractAddr",
          "type": "address"
        }
      ],
      "name": "getSponsoredBalanceForCollateral",
      "outputs": [
        {
          "internalType": "uint256",
          "name": "",
          "type": "uint256"
        }
      ],
      "stateMutability": "view",
      "type": "function"
    },
    {
      "inputs": [
        {
          "internalType": "address",
          "name": "contractAddr",
          "type": "address"
        },
        {
          "internalType": "address",
          "name": "user",
          "type": "address"
        }
      ],
      "name": "isWhitelisted",
      "outputs": [
        {
          "internalType": "bool",
          "name": "",
          "type": "bool"
        }
      ],
      "stateMutability": "view",
      "type": "function"
    },
    {
      "inputs": [
        {
          "internalType": "address",
          "name": "contractAddr",
          "type": "address"
        }
      ],
      "name": "isAllWhitelisted",
      "outputs": [
        {
          "internalType": "bool",
          "name": "",
          "type": "bool"
        }
      ],
      "stateMutability": "view",
      "type": "function"
    },
    {
      "inputs": [
        {
          "internalType": "address",
          "name": "contractAddr",
          "type": "address"
        },
        {
          "internalType": "address[]",
          "name": "addresses",
          "type": "address[]"
        }
      ],
      "name": "addPrivilegeByAdmin",
      "outputs": [],
      "stateMutability": "nonpayable",
      "type": "function"
    },
    {
      "inputs": [
        {
          "internalType": "address",
          "name": "contractAddr",
          "type": "address"
        },
        {
          "internalType": "address[]",
          "name": "addresses",
          "type": "address[]"
        }
      ],
      "name": "removePrivilegeByAdmin",
      "outputs": [],
      "stateMutability": "nonpayable",
      "type": "function"
    },
    {
      "inputs": [
        {
          "internalType": "address",
          "name": "contractAddr",
          "type": "address"
        },
        {
          "internalType": "uint256",
          "name": "upperBound",
          "type": "uint256"
        }
      ],
      "name": "setSponsorForGas",
      "outputs": [],
      "stateMutability": "payable",
      "type": "function"
    },
    {
      "inputs": [
        {
          "internalType": "address",
          "name": "contractAddr",
          "type": "address"
        }
      ],
      "name": "setSponsorForCollateral",
      "outputs": [],
      "stateMutability": "payable",
      "type": "function"
    },
    {
      "inputs": [
        {
          "internalType": "address[]",
          "name": "",
          "type": "address[]"
        }
      ],
      "name": "addPrivilege",
      "outputs": [],
      "stateMutability": "nonpayable",
      "type": "function"
    },
    {
      "inputs": [
        {
          "internalType": "address[]",
          "name": "",
          "type": "address[]"
        }
      ],
      "name": "removePrivilege",
      "outputs": [],
      "stateMutability": "nonpayable",
      "type": "function"
    }
  ],
  "bytecode": "0x608060405234801561001057600080fd5b50610412806100206000396000f3fe6080604052600436106100c25760003560e01c80638382c3a71161007f578063d2932db611610059578063d2932db6146100c7578063d47e9a5714610175578063d665f9dd14610175578063e66c1bea146101bd576100c2565b80638382c3a714610109578063b3b28fac14610175578063b6b352721461019d576100c2565b806310128d3e146100c7578063217e055b146100e957806322effe84146100e957806333a1af31146101095780633e3e64281461013f57806379b47faa1461014d575b600080fd5b3480156100d357600080fd5b506100e76100e2366004610363565b6101cb565b005b3480156100f557600080fd5b506100e76101043660046102ee565b6101ce565b34801561011557600080fd5b5061012961012436600461029b565b6101d2565b604051610136919061039e565b60405180910390f35b6100e761010436600461033a565b34801561015957600080fd5b5061016861012436600461029b565b60405161013691906103b2565b34801561018157600080fd5b5061019061012436600461029b565b60405161013691906103bd565b3480156101a957600080fd5b506101686101b83660046102bc565b6101d8565b6100e76100e236600461029b565b50565b5050565b50600090565b600092915050565b80356001600160a01b03811681146101f757600080fd5b919050565b600082601f83011261020c578081fd5b8135602067ffffffffffffffff80831115610229576102296103c6565b81830260405183828201018181108482111715610248576102486103c6565b60405284815283810192508684018288018501891015610266578687fd5b8692505b8583101561028f5761027b816101e0565b84529284019260019290920191840161026a565b50979650505050505050565b6000602082840312156102ac578081fd5b6102b5826101e0565b9392505050565b600080604083850312156102ce578081fd5b6102d7836101e0565b91506102e5602084016101e0565b90509250929050565b60008060408385031215610300578182fd5b610309836101e0565b9150602083013567ffffffffffffffff811115610324578182fd5b610330858286016101fc565b9150509250929050565b6000806040838503121561034c578182fd5b610355836101e0565b946020939093013593505050565b600060208284031215610374578081fd5b813567ffffffffffffffff81111561038a578182fd5b610396848285016101fc565b949350505050565b6001600160a01b0391909116815260200190565b901515815260200190565b90815260200190565b634e487b7160e01b600052604160045260246000fdfea2646970667358221220e7962fe17e1b6d84819f6ee45607c07ba98a8f00ab441b65dac08a8b0b45b06164736f6c63430008000033",
  "immutableReferences": {},
  "source": "pragma solidity ^0.8.0;\r\n\r\ncontract SponsorWhitelistControl {\r\n  function getSponsorForGas(address contractAddr) public view returns (address) {}\r\n  function getSponsoredBalanceForGas(address contractAddr) public view returns (uint) {}\r\n  function getSponsoredGasFeeUpperBound(address contractAddr) public view returns (uint) {}\r\n  function getSponsorForCollateral(address contractAddr) public view returns (address) {}\r\n  function getSponsoredBalanceForCollateral(address contractAddr) public view returns (uint) {}\r\n  function isWhitelisted(address contractAddr, address user) public view returns (bool) {}\r\n  function isAllWhitelisted(address contractAddr) public view returns (bool) {}\r\n  function addPrivilegeByAdmin(address contractAddr, address[] memory addresses) public {}\r\n  function removePrivilegeByAdmin(address contractAddr, address[] memory addresses) public {}\r\n  function setSponsorForGas(address contractAddr, uint upperBound) public payable {}\r\n  function setSponsorForCollateral(address contractAddr) public payable {}\r\n  function addPrivilege(address[] memory) public {}\r\n  function removePrivilege(address[] memory) public {}\r\n}",
  "sourcePath": "/f/BlockChain/conflux/contract/Liberation-fi/contracts/libraries/SponsorWhitelistControl.sol",
  "compiler": {
    "name": "solc",
    "version": "0.8.0+commit.c7dfd78e.Emscripten.clang"
  },
  "schemaVersion": "3.3.4",
  "updatedAt": "2021-08-29T16:25:52.197Z",
  "devdoc": {
    "kind": "dev",
    "methods": {},
    "version": 1
  },
  "userdoc": {
    "kind": "user",
    "methods": {},
    "version": 1
  }
}