{
  "contractName": "SponsorWhitelistControl",
  "abi": [
    {
      "inputs": [
        {
          "internalType": "address",
          "name": "contractAddr",
          "type": "address"
        }
      ],
      "name": "getSponsorForGas",
      "outputs": [
        {
          "internalType": "address",
          "name": "",
          "type": "address"
        }
      ],
      "stateMutability": "view",
      "type": "function"
    },
    {
      "inputs": [
        {
          "internalType": "address",
          "name": "contractAddr",
          "type": "address"
        }
      ],
      "name": "getSponsoredBalanceForGas",
      "outputs": [
        {
          "internalType": "uint256",
          "name": "",
          "type": "uint256"
        }
      ],
      "stateMutability": "view",
      "type": "function"
    },
    {
      "inputs": [
        {
          "internalType": "address",
          "name": "contractAddr",
          "type": "address"
        }
      ],
      "name": "getSponsoredGasFeeUpperBound",
      "outputs": [
        {
          "internalType": "uint256",
          "name": "",
          "type": "uint256"
        }
      ],
      "stateMutability": "view",
      "type": "function"
    },
    {
      "inputs": [
        {
          "internalType": "address",
          "name": "contractAddr",
          "type": "address"
        }
      ],
      "name": "getSponsorForCollateral",
      "outputs": [
        {
          "internalType": "address",
          "name": "",
          "type": "address"
        }
      ],
      "stateMutability": "view",
      "type": "function"
    },
    {
      "inputs": [
        {
          "internalType": "address",
          "name": "contractAddr",
          "type": "address"
        }
      ],
      "name": "getSponsoredBalanceForCollateral",
      "outputs": [
        {
          "internalType": "uint256",
          "name": "",
          "type": "uint256"
        }
      ],
      "stateMutability": "view",
      "type": "function"
    },
    {
      "inputs": [
        {
          "internalType": "address",
          "name": "contractAddr",
          "type": "address"
        },
        {
          "internalType": "address",
          "name": "user",
          "type": "address"
        }
      ],
      "name": "isWhitelisted",
      "outputs": [
        {
          "internalType": "bool",
          "name": "",
          "type": "bool"
        }
      ],
      "stateMutability": "view",
      "type": "function"
    },
    {
      "inputs": [
        {
          "internalType": "address",
          "name": "contractAddr",
          "type": "address"
        }
      ],
      "name": "isAllWhitelisted",
      "outputs": [
        {
          "internalType": "bool",
          "name": "",
          "type": "bool"
        }
      ],
      "stateMutability": "view",
      "type": "function"
    },
    {
      "inputs": [
        {
          "internalType": "address",
          "name": "contractAddr",
          "type": "address"
        },
        {
          "internalType": "address[]",
          "name": "addresses",
          "type": "address[]"
        }
      ],
      "name": "addPrivilegeByAdmin",
      "outputs": [],
      "stateMutability": "nonpayable",
      "type": "function"
    },
    {
      "inputs": [
        {
          "internalType": "address",
          "name": "contractAddr",
          "type": "address"
        },
        {
          "internalType": "address[]",
          "name": "addresses",
          "type": "address[]"
        }
      ],
      "name": "removePrivilegeByAdmin",
      "outputs": [],
      "stateMutability": "nonpayable",
      "type": "function"
    },
    {
      "inputs": [
        {
          "internalType": "address",
          "name": "contractAddr",
          "type": "address"
        },
        {
          "internalType": "uint256",
          "name": "upperBound",
          "type": "uint256"
        }
      ],
      "name": "setSponsorForGas",
      "outputs": [],
      "stateMutability": "payable",
      "type": "function"
    },
    {
      "inputs": [
        {
          "internalType": "address",
          "name": "contractAddr",
          "type": "address"
        }
      ],
      "name": "setSponsorForCollateral",
      "outputs": [],
      "stateMutability": "payable",
      "type": "function"
    },
    {
      "inputs": [
        {
          "internalType": "address[]",
          "name": "",
          "type": "address[]"
        }
      ],
      "name": "addPrivilege",
      "outputs": [],
      "stateMutability": "nonpayable",
      "type": "function"
    },
    {
      "inputs": [
        {
          "internalType": "address[]",
          "name": "",
          "type": "address[]"
        }
      ],
      "name": "removePrivilege",
      "outputs": [],
      "stateMutability": "nonpayable",
      "type": "function"
    }
  ],
  "bytecode": "0x608060405234801561001057600080fd5b506103f1806100206000396000f3fe6080604052600436106100c25760003560e01c80638382c3a71161007f578063d2932db611610059578063d2932db6146100c7578063d47e9a571461017d578063d665f9dd1461017d578063e66c1bea146101c957600080fd5b80638382c3a714610106578063b3b28fac1461017d578063b6b35272146101a657600080fd5b806310128d3e146100c7578063217e055b146100e757806322effe84146100e757806333a1af31146101065780633e3e64281461014457806379b47faa14610152575b600080fd5b3480156100d357600080fd5b506100e56100e2366004610368565b50565b005b3480156100f357600080fd5b506100e56101023660046102f0565b5050565b34801561011257600080fd5b5061012761012136600461029b565b50600090565b6040516001600160a01b0390911681526020015b60405180910390f35b6100e561010236600461033e565b34801561015e57600080fd5b5061016d61012136600461029b565b604051901515815260200161013b565b34801561018957600080fd5b5061019861012136600461029b565b60405190815260200161013b565b3480156101b257600080fd5b5061016d6101c13660046102bd565b600092915050565b6100e56100e236600461029b565b80356001600160a01b03811681146101ee57600080fd5b919050565b600082601f83011261020457600080fd5b8135602067ffffffffffffffff80831115610221576102216103a5565b8260051b604051601f19603f83011681018181108482111715610246576102466103a5565b6040528481528381019250868401828801850189101561026557600080fd5b600092505b8583101561028f5761027b816101d7565b84529284019260019290920191840161026a565b50979650505050505050565b6000602082840312156102ad57600080fd5b6102b6826101d7565b9392505050565b600080604083850312156102d057600080fd5b6102d9836101d7565b91506102e7602084016101d7565b90509250929050565b6000806040838503121561030357600080fd5b61030c836101d7565b9150602083013567ffffffffffffffff81111561032857600080fd5b610334858286016101f3565b9150509250929050565b6000806040838503121561035157600080fd5b61035a836101d7565b946020939093013593505050565b60006020828403121561037a57600080fd5b813567ffffffffffffffff81111561039157600080fd5b61039d848285016101f3565b949350505050565b634e487b7160e01b600052604160045260246000fdfea26469706673582212203d4217dfbd849b9c95f65dec15edc446495c7e26091018ef219a3c52fb7cd99564736f6c63430008070033",
  "immutableReferences": {},
  "source": "pragma solidity ^0.8.0;\r\n\r\ncontract SponsorWhitelistControl {\r\n  function getSponsorForGas(address contractAddr) public view returns (address) {}\r\n  function getSponsoredBalanceForGas(address contractAddr) public view returns (uint) {}\r\n  function getSponsoredGasFeeUpperBound(address contractAddr) public view returns (uint) {}\r\n  function getSponsorForCollateral(address contractAddr) public view returns (address) {}\r\n  function getSponsoredBalanceForCollateral(address contractAddr) public view returns (uint) {}\r\n  function isWhitelisted(address contractAddr, address user) public view returns (bool) {}\r\n  function isAllWhitelisted(address contractAddr) public view returns (bool) {}\r\n  function addPrivilegeByAdmin(address contractAddr, address[] memory addresses) public {}\r\n  function removePrivilegeByAdmin(address contractAddr, address[] memory addresses) public {}\r\n  function setSponsorForGas(address contractAddr, uint upperBound) public payable {}\r\n  function setSponsorForCollateral(address contractAddr) public payable {}\r\n  function addPrivilege(address[] memory) public {}\r\n  function removePrivilege(address[] memory) public {}\r\n}",
  "sourcePath": "/f/BlockChain/conflux/contract/Liberation-fi/contracts/libraries/SponsorWhitelistControl.sol",
  "compiler": {
    "name": "solc",
    "version": "0.8.7+commit.e28d00a7.Linux.g++"
  },
  "schemaVersion": "3.3.4",
  "updatedAt": "2021-08-18T09:57:16.110Z",
  "devdoc": {
    "kind": "dev",
    "methods": {},
    "version": 1
  },
  "userdoc": {
    "kind": "user",
    "methods": {},
    "version": 1
  }
}