{
  "contractName": "Tranche",
  "abi": [
    {
      "inputs": [],
      "stateMutability": "nonpayable",
      "type": "constructor"
    },
    {
      "anonymous": false,
      "inputs": [
        {
          "indexed": true,
          "internalType": "address",
          "name": "owner",
          "type": "address"
        },
        {
          "indexed": true,
          "internalType": "address",
          "name": "spender",
          "type": "address"
        },
        {
          "indexed": false,
          "internalType": "uint256",
          "name": "value",
          "type": "uint256"
        }
      ],
      "name": "Approval",
      "type": "event"
    },
    {
      "anonymous": false,
      "inputs": [
        {
          "indexed": false,
          "internalType": "uint256",
          "name": "timestamp",
          "type": "uint256"
        }
      ],
      "name": "SpeedBumpHit",
      "type": "event"
    },
    {
      "anonymous": false,
      "inputs": [
        {
          "indexed": true,
          "internalType": "address",
          "name": "from",
          "type": "address"
        },
        {
          "indexed": true,
          "internalType": "address",
          "name": "to",
          "type": "address"
        },
        {
          "indexed": false,
          "internalType": "uint256",
          "name": "value",
          "type": "uint256"
        }
      ],
      "name": "Transfer",
      "type": "event"
    },
    {
      "inputs": [],
      "name": "DOMAIN_SEPARATOR",
      "outputs": [
        {
          "internalType": "bytes32",
          "name": "",
          "type": "bytes32"
        }
      ],
      "stateMutability": "view",
      "type": "function"
    },
    {
      "inputs": [],
      "name": "PERMIT_TYPEHASH",
      "outputs": [
        {
          "internalType": "bytes32",
          "name": "",
          "type": "bytes32"
        }
      ],
      "stateMutability": "view",
      "type": "function"
    },
    {
      "inputs": [
        {
          "internalType": "address",
          "name": "",
          "type": "address"
        },
        {
          "internalType": "address",
          "name": "",
          "type": "address"
        }
      ],
      "name": "allowance",
      "outputs": [
        {
          "internalType": "uint256",
          "name": "",
          "type": "uint256"
        }
      ],
      "stateMutability": "view",
      "type": "function"
    },
    {
      "inputs": [
        {
          "internalType": "address",
          "name": "account",
          "type": "address"
        },
        {
          "internalType": "uint256",
          "name": "amount",
          "type": "uint256"
        }
      ],
      "name": "approve",
      "outputs": [
        {
          "internalType": "bool",
          "name": "",
          "type": "bool"
        }
      ],
      "stateMutability": "nonpayable",
      "type": "function"
    },
    {
      "inputs": [
        {
          "internalType": "address",
          "name": "",
          "type": "address"
        }
      ],
      "name": "balanceOf",
      "outputs": [
        {
          "internalType": "uint256",
          "name": "",
          "type": "uint256"
        }
      ],
      "stateMutability": "view",
      "type": "function"
    },
    {
      "inputs": [],
      "name": "decimals",
      "outputs": [
        {
          "internalType": "uint8",
          "name": "",
          "type": "uint8"
        }
      ],
      "stateMutability": "view",
      "type": "function"
    },
    {
      "inputs": [],
      "name": "interestSupply",
      "outputs": [
        {
          "internalType": "uint128",
          "name": "",
          "type": "uint128"
        }
      ],
      "stateMutability": "view",
      "type": "function"
    },
    {
      "inputs": [],
      "name": "interestToken",
      "outputs": [
        {
          "internalType": "contract IInterestToken",
          "name": "",
          "type": "address"
        }
      ],
      "stateMutability": "view",
      "type": "function"
    },
    {
      "inputs": [],
      "name": "name",
      "outputs": [
        {
          "internalType": "string",
          "name": "",
          "type": "string"
        }
      ],
      "stateMutability": "view",
      "type": "function"
    },
    {
      "inputs": [
        {
          "internalType": "address",
          "name": "",
          "type": "address"
        }
      ],
      "name": "nonces",
      "outputs": [
        {
          "internalType": "uint256",
          "name": "",
          "type": "uint256"
        }
      ],
      "stateMutability": "view",
      "type": "function"
    },
    {
      "inputs": [
        {
          "internalType": "address",
          "name": "owner",
          "type": "address"
        },
        {
          "internalType": "address",
          "name": "spender",
          "type": "address"
        },
        {
          "internalType": "uint256",
          "name": "value",
          "type": "uint256"
        },
        {
          "internalType": "uint256",
          "name": "deadline",
          "type": "uint256"
        },
        {
          "internalType": "uint8",
          "name": "v",
          "type": "uint8"
        },
        {
          "internalType": "bytes32",
          "name": "r",
          "type": "bytes32"
        },
        {
          "internalType": "bytes32",
          "name": "s",
          "type": "bytes32"
        }
      ],
      "name": "permit",
      "outputs": [],
      "stateMutability": "nonpayable",
      "type": "function"
    },
    {
      "inputs": [],
      "name": "position",
      "outputs": [
        {
          "internalType": "contract IWrappedPosition",
          "name": "",
          "type": "address"
        }
      ],
      "stateMutability": "view",
      "type": "function"
    },
    {
      "inputs": [],
      "name": "speedbump",
      "outputs": [
        {
          "internalType": "uint256",
          "name": "",
          "type": "uint256"
        }
      ],
      "stateMutability": "view",
      "type": "function"
    },
    {
      "inputs": [],
      "name": "symbol",
      "outputs": [
        {
          "internalType": "string",
          "name": "",
          "type": "string"
        }
      ],
      "stateMutability": "view",
      "type": "function"
    },
    {
      "inputs": [
        {
          "internalType": "address",
          "name": "recipient",
          "type": "address"
        },
        {
          "internalType": "uint256",
          "name": "amount",
          "type": "uint256"
        }
      ],
      "name": "transfer",
      "outputs": [
        {
          "internalType": "bool",
          "name": "",
          "type": "bool"
        }
      ],
      "stateMutability": "nonpayable",
      "type": "function"
    },
    {
      "inputs": [
        {
          "internalType": "address",
          "name": "spender",
          "type": "address"
        },
        {
          "internalType": "address",
          "name": "recipient",
          "type": "address"
        },
        {
          "internalType": "uint256",
          "name": "amount",
          "type": "uint256"
        }
      ],
      "name": "transferFrom",
      "outputs": [
        {
          "internalType": "bool",
          "name": "",
          "type": "bool"
        }
      ],
      "stateMutability": "nonpayable",
      "type": "function"
    },
    {
      "inputs": [],
      "name": "underlying",
      "outputs": [
        {
          "internalType": "contract IERC20",
          "name": "",
          "type": "address"
        }
      ],
      "stateMutability": "view",
      "type": "function"
    },
    {
      "inputs": [],
      "name": "unlockTimestamp",
      "outputs": [
        {
          "internalType": "uint256",
          "name": "",
          "type": "uint256"
        }
      ],
      "stateMutability": "view",
      "type": "function"
    },
    {
      "inputs": [],
      "name": "valueSupplied",
      "outputs": [
        {
          "internalType": "uint128",
          "name": "",
          "type": "uint128"
        }
      ],
      "stateMutability": "view",
      "type": "function"
    },
    {
      "inputs": [],
      "name": "totalSupply",
      "outputs": [
        {
          "internalType": "uint256",
          "name": "",
          "type": "uint256"
        }
      ],
      "stateMutability": "view",
      "type": "function"
    },
    {
      "inputs": [
        {
          "internalType": "uint256",
          "name": "_amount",
          "type": "uint256"
        },
        {
          "internalType": "address",
          "name": "_destination",
          "type": "address"
        }
      ],
      "name": "deposit",
      "outputs": [
        {
          "internalType": "uint256",
          "name": "",
          "type": "uint256"
        },
        {
          "internalType": "uint256",
          "name": "",
          "type": "uint256"
        }
      ],
      "stateMutability": "nonpayable",
      "type": "function"
    },
    {
      "inputs": [
        {
          "internalType": "address",
          "name": "_destination",
          "type": "address"
        }
      ],
      "name": "prefundedDeposit",
      "outputs": [
        {
          "internalType": "uint256",
          "name": "",
          "type": "uint256"
        },
        {
          "internalType": "uint256",
          "name": "",
          "type": "uint256"
        }
      ],
      "stateMutability": "nonpayable",
      "type": "function"
    },
    {
      "inputs": [
        {
          "internalType": "uint256",
          "name": "_amount",
          "type": "uint256"
        },
        {
          "internalType": "address",
          "name": "_destination",
          "type": "address"
        }
      ],
      "name": "withdrawPrincipal",
      "outputs": [
        {
          "internalType": "uint256",
          "name": "",
          "type": "uint256"
        }
      ],
      "stateMutability": "nonpayable",
      "type": "function"
    },
    {
      "inputs": [],
      "name": "hitSpeedbump",
      "outputs": [],
      "stateMutability": "nonpayable",
      "type": "function"
    },
    {
      "inputs": [
        {
          "internalType": "uint256",
          "name": "_amount",
          "type": "uint256"
        },
        {
          "internalType": "address",
          "name": "_destination",
          "type": "address"
        }
      ],
      "name": "withdrawInterest",
      "outputs": [
        {
          "internalType": "uint256",
          "name": "",
          "type": "uint256"
        }
      ],
      "stateMutability": "nonpayable",
      "type": "function"
    }
  ],
  "bytecode": "0x6101206040523480156200001257600080fd5b50604080518082018252601b81527f4c696265726174696f6e205072696e636970616c20546f6b656e2000000000006020808301918252835180850190945260018452600760fc1b90840152815191929162000071916000916200063d565b508051620000879060019060208401906200063d565b506002805460ff1916601217905560036020526000197f3617319a054d772f909f7c479a2cebe5066e836a939412e32403c99029b92eff8190553060009081526040902055620000d662000383565b7f8b73c3c69bb8fe3d512ecc4cf759cc79239f7b179b0ffacaa9a75d522b39400f600060405162000108919062000853565b60408051918290038220828201825260018352603160f81b60209384015290516200015b93927fc89efdaa54c0f20c7adf612882df0950f5a951637e0307cdcb4c672f298b8bc6914691309101620008f8565b6040516020818303038152906040528051906020012060068190555050506000339050600080600080846001600160a01b0316633bc5de306040518163ffffffff1660e01b8152600401608060405180830381600087803b158015620001c057600080fd5b505af1158015620001d5573d6000803e3d6000fd5b505050506040513d601f19601f82011682018060405250810190620001fb9190620006e3565b6001600160601b0319606083811b821660805285901b1660a05261010083905260408051637e062a3560e11b81529051949850929650909450925085916000916001600160a01b0384169163fc0c546a91600480820192602092909190829003018186803b1580156200026d57600080fd5b505afa15801562000282573d6000803e3d6000fd5b505050506040513d601f19601f82011682018060405250810190620002a891906200073e565b9050806001600160a01b031660c0816001600160a01b031660601b815250506000816001600160a01b031663313ce5676040518163ffffffff1660e01b815260040160206040518083038186803b1580156200030357600080fd5b505afa15801562000318573d6000803e3d6000fd5b505050506040513d601f19601f820116820180604052508101906200033e919062000812565b7fff0000000000000000000000000000000000000000000000000000000000000060f882901b1660e0529050620003758162000627565b505050505050505062000a13565b6000339050600080600080846001600160a01b0316633bc5de306040518163ffffffff1660e01b8152600401608060405180830381600087803b158015620003ca57600080fd5b505af1158015620003df573d6000803e3d6000fd5b505050506040513d601f19601f82011682018060405250810190620004059190620006e3565b93509350935093506000846001600160a01b03166395d89b416040518163ffffffff1660e01b815260040160006040518083038186803b1580156200044957600080fd5b505afa1580156200045e573d6000803e3d6000fd5b505050506040513d6000823e601f3d908101601f1916820160405262000488919081019062000764565b60405190915060009060019082906001600160a01b03861690637a0674a360e11b90620004be9087908b90869060240162000924565b60408051601f198184030181529181526020820180516001600160e01b03166001600160e01b0319909416939093179092529051620004fe919062000835565b600060405180830381855af49150503d80600081146200053b576040519150601f19603f3d011682016040523d82523d6000602084013e62000540565b606091505b505090506000856001600160a01b031663f40ce94660e01b868a866040516024016200056f9392919062000924565b60408051601f198184030181529181526020820180516001600160e01b03166001600160e01b0319909416939093179092529051620005af919062000835565b600060405180830381855af49150503d8060008114620005ec576040519150601f19603f3d011682016040523d82523d6000602084013e620005f1565b606091505b50509050818015620006005750805b6200061b57634e487b7160e01b600052600160045260246000fd5b50505050505050505050565b6002805460ff191660ff92909216919091179055565b8280546200064b90620009a7565b90600052602060002090601f0160209004810192826200066f5760008555620006ba565b82601f106200068a57805160ff1916838001178555620006ba565b82800160010185558215620006ba579182015b82811115620006ba5782518255916020019190600101906200069d565b50620006c8929150620006cc565b5090565b5b80821115620006c85760008155600101620006cd565b60008060008060808587031215620006f9578384fd5b84516200070681620009fa565b6020860151604087015191955093506200072081620009fa565b60608601519092506200073381620009fa565b939692955090935050565b60006020828403121562000750578081fd5b81516200075d81620009fa565b9392505050565b60006020828403121562000776578081fd5b81516001600160401b03808211156200078d578283fd5b818401915084601f830112620007a1578283fd5b815181811115620007b657620007b6620009e4565b604051601f8201601f191681016020018381118282101715620007dd57620007dd620009e4565b604052818152838201602001871015620007f5578485fd5b6200080882602083016020870162000974565b9695505050505050565b60006020828403121562000824578081fd5b815160ff811681146200075d578182fd5b600082516200084981846020870162000974565b9190910192915050565b81546000908190600281046001808316806200087057607f831692505b60208084108214156200089157634e487b7160e01b87526022600452602487fd5b818015620008a85760018114620008ba57620008ea565b60ff19861689528489019650620008ea565b620008c58a62000968565b885b86811015620008e25781548b820152908501908301620008c7565b505084890196505b509498975050505050505050565b9485526020850193909352604084019190915260608301526001600160a01b0316608082015260a00190565b60006060825284518060608401526200094581608085016020890162000974565b60208301949094525060408101919091526080601f909201601f19160101919050565b60009081526020902090565b60005b838110156200099157818101518382015260200162000977565b83811115620009a1576000848401525b50505050565b600281046001821680620009bc57607f821691505b60208210811415620009de57634e487b7160e01b600052602260045260246000fd5b50919050565b634e487b7160e01b600052604160045260246000fd5b6001600160a01b038116811462000a1057600080fd5b50565b60805160601c60a05160601c60c05160601c60e05160f81c61010051611bbf62000aca6000396000818161045601528181610a2901528181610b8e01528181610df501526111a5015260005050600081816108d801526109af0152600081816103c6015281816105360152818161067d0152818161090801528181610a8101528181610bd201528181610e6401528181610f7d01526110680152600081816104b4015281816109e50152610d6f0152611bbf6000f3fe608060405234801561001057600080fd5b50600436106101735760003560e01c80636e553f65116100de57806385f45c8811610097578063a9059cbb11610071578063a9059cbb146102df578063aa082a9d146102f2578063d505accf146102fa578063dd62ed3e1461030d57610173565b806385f45c88146102b1578063884e17f3146102c457806395d89b41146102d757610173565b80636e553f65146102505780636f307dc31461027157806370a0823114610279578063764b666c1461028c5780637da081a2146102945780637ecebe001461029e57610173565b806323b872dd1161013057806323b872dd1461020857806330adf81f1461021b578063313ce567146102235780633644e51514610238578063421b15c11461024057806363cf7cdd1461024857610173565b8063041be7c21461017857806306fdde031461019657806309218e91146101ab578063095ea7b3146101c05780631210aac2146101e057806318160ddd14610200575b600080fd5b610180610320565b60405161018d9190611a57565b60405180910390f35b61019e610336565b60405161018d91906117eb565b6101b36103c4565b60405161018d9190611713565b6101d36101ce366004611625565b6103e8565b60405161018d9190611785565b6101f36101ee366004611686565b610452565b60405161018d9190611790565b6101f3610716565b6101d3610216366004611579565b610725565b6101f361088b565b61022b6108af565b60405161018d9190611a79565b6101f36108b8565b6101f36108be565b6101806108c4565b61026361025e366004611686565b6108d3565b60405161018d929190611a6b565b6101b36109ad565b6101f361028736600461152d565b6109d1565b6101b36109e3565b61029c610a07565b005b6101f36102ac36600461152d565b610b77565b6102636102bf36600461152d565b610b89565b6101f36102d2366004611686565b610df1565b61019e611182565b6101d36102ed366004611625565b61118f565b6101f36111a3565b61029c6103083660046115b4565b6111c7565b6101f361031b366004611547565b611405565b600754600160801b90046001600160801b031681565b6000805461034390611b1d565b80601f016020809104026020016040519081016040528092919081815260200182805461036f90611b1d565b80156103bc5780601f10610391576101008083540402835291602001916103bc565b820191906000526020600020905b81548152906001019060200180831161039f57829003601f168201915b505050505081565b7f000000000000000000000000000000000000000000000000000000000000000081565b3360008181526004602090815260408083206001600160a01b038716808552925280832085905551919290917f8c5be1e5ebec7d5bd14f71427d1e84f3dd0314c0f7b2291e5b200ac8c7c3b92590610441908690611790565b60405180910390a350600192915050565b60007f000000000000000000000000000000000000000000000000000000000000000042101561049d5760405162461bcd60e51b815260040161049490611930565b60405180910390fd5b604051632770a7eb60e21b81526001600160a01b037f00000000000000000000000000000000000000000000000000000000000000001690639dc29fac906104eb903390879060040161174b565b600060405180830381600087803b15801561050557600080fd5b505af1158015610519573d6000803e3d6000fd5b5050604051633af9e66960e01b8152600092506001600160a01b037f0000000000000000000000000000000000000000000000000000000000000000169150633af9e6699061056c903090600401611713565b60206040518083038186803b15801561058457600080fd5b505afa158015610598573d6000803e3d6000fd5b505050506040513d601f19601f820116820180604052508101906105bc919061166e565b6007549091506001600160801b0380821691600160801b90041660008284116105e65760006105f0565b6105f08385611b06565b90506000826105ff8984611abf565b6106099190611a9f565b90506000670de0b6b3a76400006106266509184e72a00084611abf565b6106309190611a9f565b61063a9083611b06565b90506106468985611b06565b600780546001600160801b03928316600160801b0292169190911790556040516367caf87160e01b81526000906001600160a01b037f000000000000000000000000000000000000000000000000000000000000000016906367caf871906106b6908c9087908790600401611764565b6040805180830381600087803b1580156106cf57600080fd5b505af11580156106e3573d6000803e3d6000fd5b505050506040513d601f19601f8201168201806040525081019061070791906116a8565b509a9950505050505050505050565b6007546001600160801b031690565b6001600160a01b0383166000908152600360205260408120548281101561075e5760405162461bcd60e51b815260040161049490611a20565b6001600160a01b03851633146107ec576001600160a01b038516600090815260046020908152604080832033845290915290205460001981146107ea57838110156107bb5760405162461bcd60e51b81526004016104949061183e565b6107c58482611b06565b6001600160a01b03871660009081526004602090815260408083203384529091529020555b505b6107f68382611b06565b6001600160a01b038087166000908152600360205260408082209390935590861681522054610826908490611a87565b6001600160a01b0380861660008181526003602052604090819020939093559151908716907fddf252ad1be2c89b69c2b068fc378daa952ba7f163c4a11628f55a4df523b3ef90610878908790611790565b60405180910390a3506001949350505050565b7f6e71edae12b1b97f4d1f60370fef10105fa2faae0126114a169c64845d6126c981565b60025460ff1681565b60065481565b60085481565b6007546001600160801b031681565b6000807f00000000000000000000000000000000000000000000000000000000000000006001600160a01b03166323b872dd337f0000000000000000000000000000000000000000000000000000000000000000876040518463ffffffff1660e01b815260040161094693929190611727565b602060405180830381600087803b15801561096057600080fd5b505af1158015610974573d6000803e3d6000fd5b505050506040513d601f19601f82011682018060405250810190610998919061164e565b506109a283610b89565b915091509250929050565b7f000000000000000000000000000000000000000000000000000000000000000081565b60036020526000908152604090205481565b7f000000000000000000000000000000000000000000000000000000000000000081565b60085415610a275760405162461bcd60e51b815260040161049490611986565b7f0000000000000000000000000000000000000000000000000000000000000000421015610a675760405162461bcd60e51b815260040161049490611930565b604051633af9e66960e01b81526000906001600160a01b037f00000000000000000000000000000000000000000000000000000000000000001690633af9e66990610ab6903090600401611713565b60206040518083038186803b158015610ace57600080fd5b505afa158015610ae2573d6000803e3d6000fd5b505050506040513d601f19601f82011682018060405250810190610b06919061166e565b6007549091506001600160801b0316811015610b5c577ff7f87880c827db1e5aaa7a648e710c6e9c3a608de27471889dbd94199232c31f42604051610b4b9190611790565b60405180910390a142600855610b74565b60405162461bcd60e51b8152600401610494906119fe565b50565b60056020526000908152604090205481565b6000807f00000000000000000000000000000000000000000000000000000000000000004210610bcb5760405162461bcd60e51b81526004016104949061190f565b60008060007f00000000000000000000000000000000000000000000000000000000000000006001600160a01b03166385f45c88306040518263ffffffff1660e01b8152600401610c1c9190611713565b606060405180830381600087803b158015610c3657600080fd5b505af1158015610c4a573d6000803e3d6000fd5b505050506040513d601f19601f82011682018060405250810190610c6e91906116cb565b91945092509050600083610c828484611abf565b610c8c9190611a9f565b6007549091506001600160801b0380821691600160801b900416610cb1836002611a87565b821115610cd05760405162461bcd60e51b8152600401610494906119db565b60008083118015610ce057508284115b15610d16578186610cf18587611b06565b610cfb9190611abf565b610d059190611a9f565b610d0f9087611b06565b9050610d19565b50845b610d238184611a87565b610d2d8784611a87565b600780546001600160801b03938416928416600160801b029316929092176001600160801b0319161790556040516340c10f1960e01b81526001600160a01b037f000000000000000000000000000000000000000000000000000000000000000016906340c10f1990610da6908d908a9060040161174b565b600060405180830381600087803b158015610dc057600080fd5b505af1158015610dd4573d6000803e3d6000fd5b50505050610de28a82611422565b97509395505050505050915091565b60007f0000000000000000000000000000000000000000000000000000000000000000421015610e335760405162461bcd60e51b815260040161049490611930565b60085460075484906001600160801b03168215610f3757604051633af9e66960e01b81526000906001600160a01b037f00000000000000000000000000000000000000000000000000000000000000001690633af9e66990610e99903090600401611713565b60206040518083038186803b158015610eb157600080fd5b505afa158015610ec5573d6000803e3d6000fd5b505050506040513d601f19601f82011682018060405250810190610ee9919061166e565b905081811015610f355781610efe8289611abf565b610f089190611a9f565b925042610f186202a30086611a87565b10610f355760405162461bcd60e51b815260040161049490611875565b505b610f4133876114a1565b610f4b8682611ade565b600780546001600160801b0319166001600160801b03929092169190911790556040516370a0823160e01b81526000907f00000000000000000000000000000000000000000000000000000000000000006001600160a01b0316906370a0823190610fba903090600401611713565b60206040518083038186803b158015610fd257600080fd5b505afa158015610fe6573d6000803e3d6000fd5b505050506040513d601f19601f8201168201806040525081019061100a919061166e565b905060006509184e72a000670de0b6b3a7640000816110298188611abf565b6110339190611abf565b61103d9190611a9f565b61104d6509184e72a00087611abf565b6110579190611b06565b6110619190611a9f565b90506000807f00000000000000000000000000000000000000000000000000000000000000006001600160a01b03166367caf8718a88866040518463ffffffff1660e01b81526004016110b693929190611764565b6040805180830381600087803b1580156110cf57600080fd5b505af11580156110e3573d6000803e3d6000fd5b505050506040513d601f19601f8201168201806040525081019061110791906116a8565b90925090506000816111198487611abf565b6111239190611a9f565b905085811015611173578761114a5760405162461bcd60e51b8152600401610494906119db565b426111586202a3008a611a87565b1061117357634e487b7160e01b600052600160045260246000fd5b50909998505050505050505050565b6001805461034390611b1d565b600061119c338484610725565b9392505050565b7f000000000000000000000000000000000000000000000000000000000000000081565b6006546001600160a01b0388166000908152600560209081526040808320549051929392611220927f6e71edae12b1b97f4d1f60370fef10105fa2faae0126114a169c64845d6126c9928d928d928d92918d9101611799565b604051602081830303815290604052805190602001206040516020016112479291906116f8565b60408051601f19818403018152919052805160209091012090506001600160a01b0388166112875760405162461bcd60e51b8152600401610494906118d8565b600181858585604051600081526020016040526040516112aa94939291906117cd565b6020604051602081039080840390855afa1580156112cc573d6000803e3d6000fd5b505050602060405103516001600160a01b0316886001600160a01b0316146113065760405162461bcd60e51b815260040161049490611957565b8415806113135750844211155b61132f5760405162461bcd60e51b8152600401610494906119ac565b7f7fffffffffffffffffffffffffffffff5d576e7357a4501ddfe92f46681b20a082111561136f5760405162461bcd60e51b815260040161049490611896565b6001600160a01b038816600090815260056020526040812080549161139383611b58565b90915550506001600160a01b038089166000818152600460209081526040808320948c168084529490915290819020899055517f8c5be1e5ebec7d5bd14f71427d1e84f3dd0314c0f7b2291e5b200ac8c7c3b925906113f3908a90611790565b60405180910390a35050505050505050565b600460209081526000928352604080842090915290825290205481565b6001600160a01b038216600090815260036020526040902054611446908290611a87565b6001600160a01b0383166000818152600360205260408082209390935591519091907fddf252ad1be2c89b69c2b068fc378daa952ba7f163c4a11628f55a4df523b3ef90611495908590611790565b60405180910390a35050565b6001600160a01b0382166000908152600360205260409020546114c5908290611b06565b6001600160a01b0383166000818152600360205260408082209390935591517fddf252ad1be2c89b69c2b068fc378daa952ba7f163c4a11628f55a4df523b3ef90611495908590611790565b80356001600160a01b038116811461152857600080fd5b919050565b60006020828403121561153e578081fd5b61119c82611511565b60008060408385031215611559578081fd5b61156283611511565b915061157060208401611511565b90509250929050565b60008060006060848603121561158d578081fd5b61159684611511565b92506115a460208501611511565b9150604084013590509250925092565b600080600080600080600060e0888a0312156115ce578283fd5b6115d788611511565b96506115e560208901611511565b95506040880135945060608801359350608088013560ff81168114611608578384fd5b9699959850939692959460a0840135945060c09093013592915050565b60008060408385031215611637578182fd5b61164083611511565b946020939093013593505050565b60006020828403121561165f578081fd5b8151801515811461119c578182fd5b60006020828403121561167f578081fd5b5051919050565b60008060408385031215611698578182fd5b8235915061157060208401611511565b600080604083850312156116ba578182fd5b505080516020909101519092909150565b6000806000606084860312156116df578283fd5b8351925060208401519150604084015190509250925092565b61190160f01b81526002810192909252602282015260420190565b6001600160a01b0391909116815260200190565b6001600160a01b039384168152919092166020820152604081019190915260600190565b6001600160a01b03929092168252602082015260400190565b6001600160a01b039390931683526020830191909152604082015260600190565b901515815260200190565b90815260200190565b9586526001600160a01b0394851660208701529290931660408501526060840152608083019190915260a082015260c00190565b93845260ff9290921660208401526040830152606082015260800190565b6000602080835283518082850152825b81811015611817578581018301518582016040015282016117fb565b818111156118285783604083870101525b50601f01601f1916929092016040019392505050565b6020808252601d908201527f45524332303a20696e73756666696369656e742d616c6c6f77616e6365000000604082015260600190565b602080825260079082015266453a4561726c7960c81b604082015260600190565b60208082526022908201527f45524332303a20696e76616c6964207369676e6174757265202773272076616c604082015261756560f01b606082015260800190565b60208082526018908201527f45524332303a20696e76616c69642d616464726573732d300000000000000000604082015260600190565b602080825260079082015266195e1c1a5c995960ca1b604082015260600190565b6020808252600d908201526c114e939bdd08115e1c1a5c9959609a1b604082015260600190565b602080825260159082015274115490cc8c0e881a5b9d985b1a590b5c195c9b5a5d605a1b604082015260600190565b6020808252600c908201526b114e905b1c9958591e54d95d60a21b604082015260600190565b602080825260159082015274115490cc8c0e881c195c9b5a5d0b595e1c1a5c9959605a1b604082015260600190565b602080825260099082015268114e939151d7d2539560ba1b604082015260600190565b602080825260089082015267453a4e6f4c6f737360c01b604082015260600190565b6020808252601b908201527f45524332303a20696e73756666696369656e742d62616c616e63650000000000604082015260600190565b6001600160801b0391909116815260200190565b918252602082015260400190565b60ff91909116815260200190565b60008219821115611a9a57611a9a611b73565b500190565b600082611aba57634e487b7160e01b81526012600452602481fd5b500490565b6000816000190483118215151615611ad957611ad9611b73565b500290565b60006001600160801b0383811690831681811015611afe57611afe611b73565b039392505050565b600082821015611b1857611b18611b73565b500390565b600281046001821680611b3157607f821691505b60208210811415611b5257634e487b7160e01b600052602260045260246000fd5b50919050565b6000600019821415611b6c57611b6c611b73565b5060010190565b634e487b7160e01b600052601160045260246000fdfea264697066735822122099e067126d5ef833580eda30b5fcc7b073721931226982c7c3520538159e01ef64736f6c63430008000033",
  "immutableReferences": {
    "217": [
      {
        "length": 32,
        "start": 1204
      },
      {
        "length": 32,
        "start": 2533
      },
      {
        "length": 32,
        "start": 3439
      }
    ],
    "220": [
      {
        "length": 32,
        "start": 966
      },
      {
        "length": 32,
        "start": 1334
      },
      {
        "length": 32,
        "start": 1661
      },
      {
        "length": 32,
        "start": 2312
      },
      {
        "length": 32,
        "start": 2689
      },
      {
        "length": 32,
        "start": 3026
      },
      {
        "length": 32,
        "start": 3684
      },
      {
        "length": 32,
        "start": 3965
      },
      {
        "length": 32,
        "start": 4200
      }
    ],
    "223": [
      {
        "length": 32,
        "start": 2264
      },
      {
        "length": 32,
        "start": 2479
      }
    ],
    "232": [
      {
        "length": 32,
        "start": 1110
      },
      {
        "length": 32,
        "start": 2601
      },
      {
        "length": 32,
        "start": 2958
      },
      {
        "length": 32,
        "start": 3573
      },
      {
        "length": 32,
        "start": 4517
      }
    ]
  },
  "source": "// SPDX-License-Identifier: Apache-2.0\r\npragma solidity ^0.8.0;\r\n\r\nimport \"./interfaces/IERC20.sol\";\r\nimport \"./interfaces/IWrappedPosition.sol\";\r\nimport \"./interfaces/ITranche.sol\";\r\nimport \"./interfaces/ITrancheFactory.sol\";\r\nimport \"./interfaces/IInterestToken.sol\";\r\n\r\nimport \"./libraries/ERC20Permit.sol\";\r\nimport \"./libraries/DateString.sol\";\r\n\r\n/// @author WontonData\r\n/// @title Tranche\r\ncontract Tranche is ERC20Permit, ITranche {\r\n    IInterestToken public immutable override interestToken;\r\n    IWrappedPosition public immutable position;\r\n    IERC20 public immutable underlying;\r\n    uint8 internal immutable _underlyingDecimals;\r\n\r\n    // The outstanding amount of underlying which\r\n    // can be redeemed from the contract from Principal Tokens\r\n    // NOTE - we use smaller sizes so that they can be one storage slot\r\n    uint128 public valueSupplied;\r\n    // The total supply of interest tokens\r\n    uint128 public override interestSupply;\r\n    // The timestamp when tokens can be redeemed.\r\n    uint256 public immutable unlockTimestamp;\r\n    // The amount of slippage allowed on the Principal token redemption [0.1 basis points]\r\n    uint256 internal constant _SLIPPAGE_BP = 1e13;\r\n    // The speedbump variable records the first timestamp where redemption was attempted to be\r\n    // performed on a tranche where loss occurred. It blocks redemptions for 48 hours after\r\n    // it is triggered in order to (1) prevent atomic flash loan price manipulation (2)\r\n    // give 48 hours to remediate any other loss scenario before allowing withdraws\r\n    uint256 public speedbump;\r\n    // Const which is 48 hours in seconds\r\n    uint256 internal constant _FORTY_EIGHT_HOURS = 172800;\r\n    // An event to listen for when negative interest withdraw are triggered\r\n    event SpeedBumpHit(uint256 timestamp);\r\n\r\n    /// @notice Constructs this contract\r\n    constructor() ERC20Permit(\"Liberation Principal Token \", \"p\") {\r\n        // Assume the caller is the Tranche factory.\r\n        ITrancheFactory trancheFactory = ITrancheFactory(msg.sender);\r\n        (\r\n            address wpAddress,\r\n            uint256 expiration,\r\n            IInterestToken interestTokenTemp,\r\n            // solhint-disable-next-line\r\n            address unused\r\n        ) = trancheFactory.getData();\r\n        interestToken = interestTokenTemp;\r\n\r\n        IWrappedPosition wpContract = IWrappedPosition(wpAddress);\r\n        position = wpContract;\r\n\r\n        // Store the immutable time variables\r\n        unlockTimestamp = expiration;\r\n        // We use local because immutables are not readable in construction\r\n        IERC20 localUnderlying = wpContract.token();\r\n        underlying = localUnderlying;\r\n        // We load and store the underlying decimals\r\n        uint8 localUnderlyingDecimals = localUnderlying.decimals();\r\n        _underlyingDecimals = localUnderlyingDecimals;\r\n        // And set this contract to have the same\r\n        _setupDecimals(localUnderlyingDecimals);\r\n    }\r\n\r\n    /// @notice We override the optional extra construction function from ERC20 to change names\r\n    function _extraConstruction() internal override {\r\n        // Assume the caller is the Tranche factory and that this is called from constructor\r\n        // We have to do this double load because of the lack of flexibility in constructor ordering\r\n        ITrancheFactory trancheFactory = ITrancheFactory(msg.sender);\r\n        (\r\n            address wpAddress,\r\n            uint256 expiration,\r\n            // solhint-disable-next-line\r\n            IInterestToken unused,\r\n            address dateLib\r\n        ) = trancheFactory.getData();\r\n\r\n        string memory strategySymbol = IWrappedPosition(wpAddress).symbol();\r\n\r\n        // Write the strategySymbol and expiration time to name and symbol\r\n\r\n        // This logic was previously encoded as calling a library \"DateString\"\r\n        // in line and directly. However even though this code is only in the constructor\r\n        // it both made the code of this contract much bigger and made the factory\r\n        // un deployable. So we needed to use the library as an external contract\r\n        // but solidity does not have support for address to library conversions\r\n        // or other support for working directly with libraries in a type safe way.\r\n        // For that reason we have to use this ugly and non type safe hack to make these\r\n        // contracts deployable. Since the library is an immutable in the factory\r\n        // the security profile is quite similar to a standard external linked library.\r\n\r\n        // We load the real storage slots of the symbol and name storage variables\r\n        uint256 namePtr;\r\n        uint256 symbolPtr;\r\n        assembly {\r\n            namePtr := name.slot\r\n            symbolPtr := symbol.slot\r\n        }\r\n        // We then call the 'encodeAndWriteTimestamp' function on our library contract\r\n        (bool success1, ) = dateLib.delegatecall(\r\n            abi.encodeWithSelector(\r\n                DateString.encodeAndWriteTimestamp.selector,\r\n                strategySymbol,\r\n                expiration,\r\n                namePtr\r\n            )\r\n        );\r\n        (bool success2, ) = dateLib.delegatecall(\r\n            abi.encodeWithSelector(\r\n                DateString.encodeAndWriteTimestamp.selector,\r\n                strategySymbol,\r\n                expiration,\r\n                symbolPtr\r\n            )\r\n        );\r\n        // Assert that both calls succeeded\r\n        assert(success1 && success2);\r\n    }\r\n\r\n    /// @notice An aliasing of the getter for valueSupplied to improve ERC20 compatibility\r\n    /// @return The number of principal tokens which exist.\r\n    function totalSupply() external view returns (uint256) {\r\n        return uint256(valueSupplied);\r\n    }\r\n\r\n    /**\r\n    @notice Deposit wrapped position tokens and receive interest and Principal ERC20 tokens.\r\n            If interest has already been accrued by the wrapped position\r\n            tokens held in this contract, the number of Principal tokens minted is\r\n            reduced in order to pay for the accrued interest.\r\n    @param _amount The amount of underlying to deposit\r\n    @param _destination The address to mint to\r\n    @return The amount of principal and yield token minted as (pt, yt)\r\n     */\r\n    function deposit(uint256 _amount, address _destination)\r\n        external\r\n        override\r\n        returns (uint256, uint256)\r\n    {\r\n        // Transfer the underlying to be wrapped into the position\r\n        underlying.transferFrom(msg.sender, address(position), _amount);\r\n        // Now that we have funded the deposit we can call\r\n        // the prefunded deposit\r\n        return prefundedDeposit(_destination);\r\n    }\r\n\r\n    /// @notice This function calls the prefunded deposit method to\r\n    ///         create wrapped position tokens held by the contract. It should\r\n    ///         only be called when a transfer has already been made to\r\n    ///         the wrapped position contract of the underlying\r\n    /// @param _destination The address to mint to\r\n    /// @return the amount of principal and yield token minted as (pt, yt)\r\n    /// @dev WARNING - The call which funds this method MUST be in the same transaction\r\n    //                 as the call to this method or you risk loss of funds\r\n    function prefundedDeposit(address _destination)\r\n        public\r\n        override\r\n        returns (uint256, uint256)\r\n    {\r\n        // We check that this it is possible to deposit\r\n        require(block.timestamp < unlockTimestamp, \"expired\");\r\n        // Since the wrapped position contract holds a balance we use the prefunded deposit method\r\n        (\r\n            uint256 shares,\r\n            uint256 usedUnderlying,\r\n            uint256 balanceBefore\r\n        ) = position.prefundedDeposit(address(this));\r\n        // The implied current value of the holding of this contract in underlying\r\n        // is the balanceBefore*(usedUnderlying/shares) since (usedUnderlying/shares)\r\n        // is underlying per share and balanceBefore is the balance of this contract\r\n        // in position tokens before this deposit.\r\n        uint256 holdingsValue = (balanceBefore * usedUnderlying) / shares;\r\n        // This formula is inputUnderlying - inputUnderlying*interestPerUnderlying\r\n        // Accumulated interest has its value in the interest tokens so we have to mint less\r\n        // principal tokens to account for that.\r\n        // NOTE - If a pool has more than 100% interest in the period this will revert on underflow\r\n        //        The user cannot discount the principal token enough to pay for the outstanding interest accrued.\r\n        (uint256 _valueSupplied, uint256 _interestSupply) = (\r\n            uint256(valueSupplied),\r\n            uint256(interestSupply)\r\n        );\r\n        // We block deposits in negative interest rate regimes\r\n        // The +2 allows for very small rounding errors which occur when\r\n        // depositing into a tranche which is attached to a wp which has\r\n        // accrued interest but the tranche has not yet accrued interest\r\n        // and the first deposit into the tranche is substantially smaller\r\n        // than following ones.\r\n        require(_valueSupplied <= holdingsValue + 2, \"E:NEG_INT\");\r\n\r\n        uint256 adjustedAmount;\r\n        // Have to split on the initialization case and negative interest case\r\n        if (_valueSupplied > 0 && holdingsValue > _valueSupplied) {\r\n            adjustedAmount =\r\n                usedUnderlying -\r\n                ((holdingsValue - _valueSupplied) * usedUnderlying) /\r\n                _interestSupply;\r\n        } else {\r\n            adjustedAmount = usedUnderlying;\r\n        }\r\n        // We record the new input of reclaimable underlying\r\n        (valueSupplied, interestSupply) = (\r\n            uint128(_valueSupplied + adjustedAmount),\r\n            uint128(_interestSupply + usedUnderlying)\r\n        );\r\n        // We mint interest token for each underlying provided\r\n        interestToken.mint(_destination, usedUnderlying);\r\n        // We mint principal token discounted by the accumulated interest.\r\n        _mint(_destination, adjustedAmount);\r\n        // We return the number of principal token and yield token\r\n        return (adjustedAmount, usedUnderlying);\r\n    }\r\n\r\n    /**\r\n    @notice Burn principal tokens to withdraw underlying tokens.\r\n    @param _amount The number of tokens to burn.\r\n    @param _destination The address to send the underlying too\r\n    @return The number of underlying tokens released\r\n    @dev This method will return 1 underlying for 1 principal except when interest\r\n         is negative, in which case the principal tokens is redeemable pro rata for\r\n         the assets controlled by this vault.\r\n         Also note: Redemption has the possibility of at most _SLIPPAGE_BP\r\n         numerical error on each redemption so each principal token may occasionally redeem\r\n         for less than 1 unit of underlying. Max loss defaults to 0.1 BP ie 0.001% loss\r\n     */\r\n    function withdrawPrincipal(uint256 _amount, address _destination)\r\n        external\r\n        override\r\n        returns (uint256)\r\n    {\r\n        // No redemptions before unlock\r\n        require(block.timestamp >= unlockTimestamp, \"E:Not Expired\");\r\n        // If the speedbump == 0 it's never been hit so we don't need\r\n        // to change the withdraw rate.\r\n        uint256 localSpeedbump = speedbump;\r\n        uint256 withdrawAmount = _amount;\r\n        uint256 localSupply = uint256(valueSupplied);\r\n        if (localSpeedbump != 0) {\r\n            // Load the assets we have in this vault\r\n            uint256 holdings = position.balanceOfUnderlying(address(this));\r\n            // If we check and the interest rate is no longer negative then we\r\n            // allow normal 1 to 1 withdraws [even if the speedbump was hit less\r\n            // than 48 hours ago, to prevent possible griefing]\r\n            if (holdings < localSupply) {\r\n                // We allow the user to only withdraw their percent of holdings\r\n                // NOTE - Because of the discounting mechanics this causes account loss\r\n                //        percentages to be slightly perturbed from overall loss.\r\n                //        ie: tokens holders who join when interest has accumulated\r\n                //        will get slightly higher percent loss than those who joined earlier\r\n                //        in the case of loss at the end of the period. Biases are very\r\n                //        small except in extreme cases.\r\n                withdrawAmount = (_amount * holdings) / localSupply;\r\n                // If the interest rate is still negative and we are not 48 hours after\r\n                // speedbump being set we revert\r\n                require(\r\n                    localSpeedbump + _FORTY_EIGHT_HOURS < block.timestamp,\r\n                    \"E:Early\"\r\n                );\r\n            }\r\n        }\r\n        // Burn from the sender\r\n        _burn(msg.sender, _amount);\r\n        // Remove these principal token from the interest calculations for future interest redemptions\r\n        valueSupplied = uint128(localSupply) - uint128(_amount);\r\n        // Load the share balance of the vault before withdrawing [gas note - both the smart\r\n        // contract and share value is warmed so this is actually quite a cheap lookup]\r\n        uint256 shareBalanceBefore = position.balanceOf(address(this));\r\n        // Calculate the min output\r\n        uint256 minOutput = (withdrawAmount  * _SLIPPAGE_BP - (withdrawAmount * _SLIPPAGE_BP  * _SLIPPAGE_BP) /\r\n            1e18 ) /  _SLIPPAGE_BP;\r\n        // We make the actual withdraw from the position.\r\n        (uint256 actualWithdraw, uint256 sharesBurned) = position\r\n            .withdrawUnderlying(_destination, withdrawAmount, minOutput);\r\n\r\n        // At this point we check that the implied contract holdings before this withdraw occurred\r\n        // are more than enough to redeem all of the principal tokens for underlying ie that no\r\n        // loss has happened.\r\n        uint256 balanceBefore = (shareBalanceBefore * actualWithdraw) /\r\n            sharesBurned;\r\n        if (balanceBefore < localSupply) {\r\n            // Require that that the speedbump has been set.\r\n            require(localSpeedbump != 0, \"E:NEG_INT\");\r\n            // This assert should be very difficult to hit because it is checked above\r\n            // but may be possible with  complex reentrancy.\r\n            assert(localSpeedbump + _FORTY_EIGHT_HOURS < block.timestamp);\r\n        }\r\n        return (actualWithdraw);\r\n    }\r\n\r\n    /// @notice This function allows someone to trigger the speedbump and eventually allow\r\n    ///         pro rata withdraws\r\n    function hitSpeedbump() external {\r\n        // We only allow setting the speedbump once\r\n        require(speedbump == 0, \"E:AlreadySet\");\r\n        // We only allow setting it when withdraws can happen\r\n        require(block.timestamp >= unlockTimestamp, \"E:Not Expired\");\r\n        // We require that the total holds are less than the supply of\r\n        // principal token we need to redeem\r\n        uint256 totalHoldings = position.balanceOfUnderlying(address(this));\r\n        if (totalHoldings < valueSupplied) {\r\n            // We emit a notification so that if a speedbump is hit the community\r\n            // can investigate.\r\n            // Note - this is a form of defense mechanism because any flash loan\r\n            //        attack must be public for at least 48 hours before it has\r\n            //        affects.\r\n            emit SpeedBumpHit(block.timestamp);\r\n            // Set the speedbump\r\n            speedbump = block.timestamp;\r\n        } else {\r\n            revert(\"E:NoLoss\");\r\n        }\r\n    }\r\n\r\n    /**\r\n    @notice Burn interest tokens to withdraw underlying tokens.\r\n    @param _amount The number of interest tokens to burn.\r\n    @param _destination The address to send the result to\r\n    @return The number of underlying token released\r\n    @dev Due to slippage the redemption may receive up to _SLIPPAGE_BP less\r\n         in output compared to the floating rate.\r\n     */\r\n    function withdrawInterest(uint256 _amount, address _destination)\r\n        external\r\n        override\r\n        returns (uint256)\r\n    {\r\n        require(block.timestamp >= unlockTimestamp, \"E:Not Expired\");\r\n        // Burn tokens from the sender\r\n        interestToken.burn(msg.sender, _amount);\r\n        // Load the underlying value of this contract\r\n        uint256 underlyingValueLocked = position.balanceOfUnderlying(\r\n            address(this)\r\n        );\r\n        // Load a stack variable to avoid future sloads\r\n        (uint256 _valueSupplied, uint256 _interestSupply) = (\r\n            uint256(valueSupplied),\r\n            uint256(interestSupply)\r\n        );\r\n        // Interest is value locked minus current value\r\n        uint256 interest = underlyingValueLocked > _valueSupplied\r\n            ? underlyingValueLocked - _valueSupplied\r\n            : 0;\r\n        // The redemption amount is the interest per token times the amount\r\n        uint256 redemptionAmount = (interest * _amount) / _interestSupply;\r\n        uint256 minRedemption = redemptionAmount -\r\n            (redemptionAmount * _SLIPPAGE_BP) /\r\n            1e18;\r\n        // Store that we reduced the supply\r\n        interestSupply = uint128(_interestSupply - _amount);\r\n        // Redeem position tokens for underlying\r\n        (uint256 redemption, ) = position.withdrawUnderlying(\r\n            _destination,\r\n            redemptionAmount,\r\n            minRedemption\r\n        );\r\n        return (redemption);\r\n    }\r\n}\r\n",
  "sourcePath": "/f/BlockChain/conflux/contract/Liberation-fi/contracts/Tranche.sol",
  "compiler": {
    "name": "solc",
    "version": "0.8.0+commit.c7dfd78e.Emscripten.clang"
  },
  "schemaVersion": "3.3.4",
  "updatedAt": "2021-09-11T11:57:13.879Z",
  "devdoc": {
    "author": "WontonData",
    "kind": "dev",
    "methods": {
      "approve(address,uint256)": {
        "params": {
          "account": "The account which will be approve to transfer tokens",
          "amount": "The approval amount, if set to uint256.max the allowance does not go down on transfers."
        },
        "returns": {
          "_0": "returns true for compatibility with the ERC20 standard"
        }
      },
      "deposit(uint256,address)": {
        "params": {
          "_amount": "The amount of underlying to deposit",
          "_destination": "The address to mint to"
        },
        "returns": {
          "_0": "The amount of principal and yield token minted as (pt, yt)"
        }
      },
      "permit(address,address,uint256,uint256,uint8,bytes32,bytes32)": {
        "details": "The signature for this function follows EIP 712 standard and should be generated with the      eth_signTypedData JSON RPC call instead of the eth_sign JSON RPC call. If using out of date      parity signing libraries the v component may need to be adjusted. Also it is very rare but possible      for v to be other values, those values are not supported.",
        "params": {
          "deadline": "the timestamp which the signature must be submitted by to be valid",
          "owner": "the owner of the account which is having the new approval set",
          "r": "The r component of the ECDSA signature",
          "s": "The s component of the ECDSA signature",
          "spender": "the address which will be allowed to spend owner's tokens",
          "v": "Extra ECDSA data which allows public key recovery from signature assumed to be 27 or 28",
          "value": "the new allowance value"
        }
      },
      "prefundedDeposit(address)": {
        "details": "WARNING - The call which funds this method MUST be in the same transaction",
        "params": {
          "_destination": "The address to mint to"
        },
        "returns": {
          "_0": "the amount of principal and yield token minted as (pt, yt)"
        }
      },
      "totalSupply()": {
        "returns": {
          "_0": "The number of principal tokens which exist."
        }
      },
      "transfer(address,uint256)": {
        "details": "transfers to this contract address or 0 will fail",
        "params": {
          "amount": "The amount user token to send",
          "recipient": "The address which will be credited with the tokens"
        },
        "returns": {
          "_0": "returns true on success, reverts on failure so cannot return false."
        }
      },
      "transferFrom(address,address,uint256)": {
        "details": "will fail transfers which send funds to this contract or 0",
        "params": {
          "amount": "the number of tokens to send",
          "recipient": "The destination of the ERC20 tokens",
          "spender": "The source of the ERC20 tokens"
        },
        "returns": {
          "_0": "returns true on success and reverts on failure"
        }
      },
      "withdrawInterest(uint256,address)": {
        "details": "Due to slippage the redemption may receive up to _SLIPPAGE_BP less in output compared to the floating rate.",
        "params": {
          "_amount": "The number of interest tokens to burn.",
          "_destination": "The address to send the result to"
        },
        "returns": {
          "_0": "The number of underlying token released"
        }
      },
      "withdrawPrincipal(uint256,address)": {
        "details": "This method will return 1 underlying for 1 principal except when interest is negative, in which case the principal tokens is redeemable pro rata for the assets controlled by this vault. Also note: Redemption has the possibility of at most _SLIPPAGE_BP numerical error on each redemption so each principal token may occasionally redeem for less than 1 unit of underlying. Max loss defaults to 0.1 BP ie 0.001% loss",
        "params": {
          "_amount": "The number of tokens to burn.",
          "_destination": "The address to send the underlying too"
        },
        "returns": {
          "_0": "The number of underlying tokens released"
        }
      }
    },
    "title": "Tranche",
    "version": 1
  },
  "userdoc": {
    "kind": "user",
    "methods": {
      "approve(address,uint256)": {
        "notice": "This function allows a user to approve an account which can transfer         tokens on their behalf."
      },
      "constructor": {
        "notice": "Constructs this contract"
      },
      "deposit(uint256,address)": {
        "notice": "Deposit wrapped position tokens and receive interest and Principal ERC20 tokens. If interest has already been accrued by the wrapped position tokens held in this contract, the number of Principal tokens minted is reduced in order to pay for the accrued interest."
      },
      "hitSpeedbump()": {
        "notice": "This function allows someone to trigger the speedbump and eventually allow         pro rata withdraws"
      },
      "permit(address,address,uint256,uint256,uint8,bytes32,bytes32)": {
        "notice": "This function allows a caller who is not the owner of an account to execute the functionality of 'approve' with the owners signature."
      },
      "prefundedDeposit(address)": {
        "notice": "This function calls the prefunded deposit method to         create wrapped position tokens held by the contract. It should         only be called when a transfer has already been made to         the wrapped position contract of the underlying"
      },
      "totalSupply()": {
        "notice": "An aliasing of the getter for valueSupplied to improve ERC20 compatibility"
      },
      "transfer(address,uint256)": {
        "notice": "Allows a token owner to send tokens to another address"
      },
      "transferFrom(address,address,uint256)": {
        "notice": "Transfers an amount of erc20 from a spender to a receipt"
      },
      "withdrawInterest(uint256,address)": {
        "notice": "Burn interest tokens to withdraw underlying tokens."
      },
      "withdrawPrincipal(uint256,address)": {
        "notice": "Burn principal tokens to withdraw underlying tokens."
      }
    },
    "version": 1
  }
}