{
  "contractName": "TrancheFactory",
  "abi": [
    {
      "inputs": [
        {
          "internalType": "address",
          "name": "_factory",
          "type": "address"
        },
        {
          "internalType": "address",
          "name": "dateLibrary",
          "type": "address"
        }
      ],
      "stateMutability": "nonpayable",
      "type": "constructor"
    },
    {
      "anonymous": false,
      "inputs": [
        {
          "indexed": true,
          "internalType": "address",
          "name": "trancheAddress",
          "type": "address"
        },
        {
          "indexed": true,
          "internalType": "address",
          "name": "wpAddress",
          "type": "address"
        },
        {
          "indexed": true,
          "internalType": "uint256",
          "name": "expiration",
          "type": "uint256"
        }
      ],
      "name": "TrancheCreated",
      "type": "event"
    },
    {
      "inputs": [],
      "name": "TRANCHE_CREATION_HASH",
      "outputs": [
        {
          "internalType": "bytes32",
          "name": "",
          "type": "bytes32"
        }
      ],
      "stateMutability": "view",
      "type": "function"
    },
    {
      "inputs": [
        {
          "internalType": "uint256",
          "name": "_expiration",
          "type": "uint256"
        },
        {
          "internalType": "address",
          "name": "_wpAddress",
          "type": "address"
        }
      ],
      "name": "deployTranche",
      "outputs": [
        {
          "internalType": "contract Tranche",
          "name": "",
          "type": "address"
        }
      ],
      "stateMutability": "nonpayable",
      "type": "function"
    },
    {
      "inputs": [],
      "name": "getData",
      "outputs": [
        {
          "internalType": "address",
          "name": "",
          "type": "address"
        },
        {
          "internalType": "uint256",
          "name": "",
          "type": "uint256"
        },
        {
          "internalType": "contract IInterestToken",
          "name": "",
          "type": "address"
        },
        {
          "internalType": "address",
          "name": "",
          "type": "address"
        }
      ],
      "stateMutability": "view",
      "type": "function"
    }
  ],
  "bytecode": "0x60c060405234801561001057600080fd5b50604051612d5b380380612d5b83398101604081905261002f91610069565b6001600160601b0319606092831b8116608052911b1660a05261009c565b80516001600160a01b038116811461006457600080fd5b919050565b6000806040838503121561007c57600080fd5b6100858361004d565b91506100936020840161004d565b90509250929050565b60805160601c60a05160601c612c956100c660003960006093015260006103a00152612c956000f3fe60806040523480156200001157600080fd5b5060043610620000465760003560e01c80631af3f317146200004b5780633bc5de3014620000685780638e7ff0bd14620000c3575b600080fd5b62000055620000f3565b6040519081526020015b60405180910390f35b600054600154600254604080516001600160a01b0394851681526020810193909352908316908201527f000000000000000000000000000000000000000000000000000000000000000090911660608201526080016200005f565b620000da620000d436600462000651565b62000122565b6040516001600160a01b0390911681526020016200005f565b604051620001046020820162000563565b6020820181038252601f19601f820116604052508051906020012081565b600080546001600160a01b0319166001600160a01b03831617815560018390556040516bffffffffffffffffffffffff19606084901b16602082015260348101849052829082906054016040516020818303038152906040528051906020012090506000826001600160a01b03166395d89b416040518163ffffffff1660e01b815260040160006040518083038186803b158015620001c057600080fd5b505afa158015620001d5573d6000803e3d6000fd5b505050506040513d6000823e601f3d908101601f19168201604052620001ff919081019062000598565b90506000836001600160a01b031663fc0c546a6040518163ffffffff1660e01b815260040160206040518083038186803b1580156200023d57600080fd5b505afa15801562000252573d6000803e3d6000fd5b505050506040513d601f19601f8201168201806040525081019062000278919062000571565b90506000816001600160a01b031663313ce5676040518163ffffffff1660e01b815260040160206040518083038186803b158015620002b657600080fd5b505afa158015620002cb573d6000803e3d6000fd5b505050506040513d601f19601f82011682018060405250810190620002f1919062000684565b9050600060ff60f81b3086604051806020016200030e9062000563565b6020820181038252601f19601f82011660405250805190602001206040516020016200037194939291906001600160f81b031994909416845260609290921b6bffffffffffffffffffffffff191660018401526015830152603582015260550190565b60408051601f198184030181529082905280516020909101206334bc395960e01b825291506001600160a01b037f000000000000000000000000000000000000000000000000000000000000000016906334bc395990620003dd90849088908e908890600401620006a9565b602060405180830381600087803b158015620003f857600080fd5b505af11580156200040d573d6000803e3d6000fd5b505050506040513d601f19601f8201168201806040525081019062000433919062000571565b600260006101000a8154816001600160a01b0302191690836001600160a01b031602179055506000856040516200046a9062000563565b8190604051809103906000f59050801580156200048b573d6000803e3d6000fd5b50905089896001600160a01b0316826001600160a01b03167f86944ab3f9722712d06f9d63f492e9893c0c77cc40e512ca1c1f3aaaec6bf2d360405160405180910390a4816001600160a01b0316816001600160a01b031614620005355760405162461bcd60e51b815260206004820152601860248201527f435245415445322061646472657373206d69736d617463680000000000000000604482015260640160405180910390fd5b600080546001600160a01b031990811682556001919091556002805490911690559998505050505050505050565b6124fe806200076283390190565b6000602082840312156200058457600080fd5b8151620005918162000748565b9392505050565b600060208284031215620005ab57600080fd5b815167ffffffffffffffff80821115620005c457600080fd5b818401915084601f830112620005d957600080fd5b815181811115620005ee57620005ee62000732565b604051601f8201601f19908116603f0116810190838211818310171562000619576200061962000732565b816040528281528760208487010111156200063357600080fd5b62000646836020830160208801620006ff565b979650505050505050565b600080604083850312156200066557600080fd5b823591506020830135620006798162000748565b809150509250929050565b6000602082840312156200069757600080fd5b815160ff811681146200059157600080fd5b60018060a01b03851681526080602082015260008451806080840152620006d88160a0850160208901620006ff565b60408301949094525060ff91909116606082015260a0601f909201601f1916010192915050565b60005b838110156200071c57818101518382015260200162000702565b838111156200072c576000848401525b50505050565b634e487b7160e01b600052604160045260246000fd5b6001600160a01b03811681146200075e57600080fd5b5056fe6101206040523480156200001257600080fd5b50604080518082018252601881527f456c656d656e74205072696e636970616c20546f6b656e200000000000000000602080830191825283518085019094526002845261065560f41b90840152815191929162000072916000916200062f565b508051620000889060019060208401906200062f565b506002805460ff1916601217905560036020526000197f3617319a054d772f909f7c479a2cebe5066e836a939412e32403c99029b92eff8190553060009081526040902055620000d762000397565b7f8b73c3c69bb8fe3d512ecc4cf759cc79239f7b179b0ffacaa9a75d522b39400f600060405162000109919062000853565b60408051918290038220828201825260018352603160f81b6020938401528151928301939093528101919091527fc89efdaa54c0f20c7adf612882df0950f5a951637e0307cdcb4c672f298b8bc660608201524660808201523060a082015260c0016040516020818303038152906040528051906020012060068190555050506000339050600080600080846001600160a01b0316633bc5de306040518163ffffffff1660e01b8152600401608060405180830381600087803b158015620001d057600080fd5b505af1158015620001e5573d6000803e3d6000fd5b505050506040513d601f19601f820116820180604052508101906200020b9190620006d5565b6001600160601b0319606083811b821660805285901b1660a05261010083905260408051637e062a3560e11b81529051949850929650909450925085916000916001600160a01b0384169163fc0c546a91600480820192602092909190829003018186803b1580156200027d57600080fd5b505afa15801562000292573d6000803e3d6000fd5b505050506040513d601f19601f82011682018060405250810190620002b8919062000731565b9050806001600160a01b031660c0816001600160a01b031660601b815250506000816001600160a01b031663313ce5676040518163ffffffff1660e01b815260040160206040518083038186803b1580156200031357600080fd5b505afa15801562000328573d6000803e3d6000fd5b505050506040513d601f19601f820116820180604052508101906200034e919062000810565b7fff0000000000000000000000000000000000000000000000000000000000000060f882901b1660e0526002805460ff191660ff831617905590505050505050505050620009f0565b6000339050600080600080846001600160a01b0316633bc5de306040518163ffffffff1660e01b8152600401608060405180830381600087803b158015620003de57600080fd5b505af1158015620003f3573d6000803e3d6000fd5b505050506040513d601f19601f82011682018060405250810190620004199190620006d5565b93509350935093506000846001600160a01b03166395d89b416040518163ffffffff1660e01b815260040160006040518083038186803b1580156200045d57600080fd5b505afa15801562000472573d6000803e3d6000fd5b505050506040513d6000823e601f3d908101601f191682016040526200049c919081019062000758565b60405190915060009060019082906001600160a01b03861690637a0674a360e11b90620004d29087908b908690602401620008f7565b60408051601f198184030181529181526020820180516001600160e01b03166001600160e01b031990941693909317909252905162000512919062000835565b600060405180830381855af49150503d80600081146200054f576040519150601f19603f3d011682016040523d82523d6000602084013e62000554565b606091505b505090506000856001600160a01b031663f40ce94660e01b868a866040516024016200058393929190620008f7565b60408051601f198184030181529181526020820180516001600160e01b03166001600160e01b0319909416939093179092529051620005c3919062000835565b600060405180830381855af49150503d806000811462000600576040519150601f19603f3d011682016040523d82523d6000602084013e62000605565b606091505b50509050818015620006145750805b620006235762000623620009ab565b50505050505050505050565b8280546200063d906200096e565b90600052602060002090601f016020900481019282620006615760008555620006ac565b82601f106200067c57805160ff1916838001178555620006ac565b82800160010185558215620006ac579182015b82811115620006ac5782518255916020019190600101906200068f565b50620006ba929150620006be565b5090565b5b80821115620006ba5760008155600101620006bf565b60008060008060808587031215620006ec57600080fd5b8451620006f981620009d7565b6020860151604087015191955093506200071381620009d7565b60608601519092506200072681620009d7565b939692955090935050565b6000602082840312156200074457600080fd5b81516200075181620009d7565b9392505050565b6000602082840312156200076b57600080fd5b81516001600160401b03808211156200078357600080fd5b818401915084601f8301126200079857600080fd5b815181811115620007ad57620007ad620009c1565b604051601f8201601f19908116603f01168101908382118183101715620007d857620007d8620009c1565b81604052828152876020848701011115620007f257600080fd5b620008058360208301602088016200093b565b979650505050505050565b6000602082840312156200082357600080fd5b815160ff811681146200075157600080fd5b60008251620008498184602087016200093b565b9190910192915050565b600080835481600182811c9150808316806200087057607f831692505b60208084108214156200089157634e487b7160e01b86526022600452602486fd5b818015620008a85760018114620008ba57620008e9565b60ff19861689528489019650620008e9565b60008a81526020902060005b86811015620008e15781548b820152908501908301620008c6565b505084890196505b509498975050505050505050565b6060815260008451806060840152620009188160808501602089016200093b565b60208301949094525060408101919091526080601f909201601f19160101919050565b60005b83811015620009585781810151838201526020016200093e565b8381111562000968576000848401525b50505050565b600181811c908216806200098357607f821691505b60208210811415620009a557634e487b7160e01b600052602260045260246000fd5b50919050565b634e487b7160e01b600052600160045260246000fd5b634e487b7160e01b600052604160045260246000fd5b6001600160a01b0381168114620009ed57600080fd5b50565b60805160601c60a05160601c60c05160601c60e05160f81c61010051611a5762000aa7600039600081816103dc0152818161053a01528181610ae901528181610c490152610edb015260005050600081816103030152610a170152600081816101c90152818161061801528181610772015281816109e301528181610b3f01528181610cc401528181610f480152818161107e015261116601526000818161034a0152818161059d0152610e620152611a576000f3fe608060405234801561001057600080fd5b50600436106101735760003560e01c80636e553f65116100de57806385f45c8811610097578063a9059cbb11610071578063a9059cbb146103c4578063aa082a9d146103d7578063d505accf146103fe578063dd62ed3e1461041157600080fd5b806385f45c8814610396578063884e17f3146103a957806395d89b41146103bc57600080fd5b80636e553f65146102d65780636f307dc3146102fe57806370a0823114610325578063764b666c146103455780637da081a21461036c5780637ecebe001461037657600080fd5b806323b872dd1161013057806323b872dd1461025857806330adf81f1461026b578063313ce567146102925780633644e515146102b1578063421b15c1146102ba57806363cf7cdd146102c357600080fd5b8063041be7c21461017857806306fdde03146101af57806309218e91146101c4578063095ea7b3146102035780631210aac21461022657806318160ddd14610247575b600080fd5b60075461019290600160801b90046001600160801b031681565b6040516001600160801b0390911681526020015b60405180910390f35b6101b761043c565b6040516101a6919061188b565b6101eb7f000000000000000000000000000000000000000000000000000000000000000081565b6040516001600160a01b0390911681526020016101a6565b6102166102113660046117b1565b6104ca565b60405190151581526020016101a6565b610239610234366004611816565b610536565b6040519081526020016101a6565b6007546001600160801b0316610239565b610216610266366004611702565b6107fe565b6102397f6e71edae12b1b97f4d1f60370fef10105fa2faae0126114a169c64845d6126c981565b60025461029f9060ff1681565b60405160ff90911681526020016101a6565b61023960065481565b61023960085481565b600754610192906001600160801b031681565b6102e96102e4366004611816565b6109c6565b604080519283526020830191909152016101a6565b6101eb7f000000000000000000000000000000000000000000000000000000000000000081565b6102396103333660046116b4565b60036020526000908152604090205481565b6101eb7f000000000000000000000000000000000000000000000000000000000000000081565b610374610aa8565b005b6102396103843660046116b4565b60056020526000908152604090205481565b6102e96103a43660046116b4565b610c44565b6102396103b7366004611816565b610ed7565b6101b761126c565b6102166103d23660046117b1565b611279565b6102397f000000000000000000000000000000000000000000000000000000000000000081565b61037461040c36600461173e565b61128d565b61023961041f3660046116cf565b600460209081526000928352604080842090915290825290205481565b600080546104499061199f565b80601f01602080910402602001604051908101604052809291908181526020018280546104759061199f565b80156104c25780601f10610497576101008083540402835291602001916104c2565b820191906000526020600020905b8154815290600101906020018083116104a557829003601f168201915b505050505081565b3360008181526004602090815260408083206001600160a01b038716808552925280832085905551919290917f8c5be1e5ebec7d5bd14f71427d1e84f3dd0314c0f7b2291e5b200ac8c7c3b925906105259086815260200190565b60405180910390a350600192915050565b60007f00000000000000000000000000000000000000000000000000000000000000004210156105815760405162461bcd60e51b8152600401610578906118e0565b60405180910390fd5b604051632770a7eb60e21b8152336004820152602481018490527f00000000000000000000000000000000000000000000000000000000000000006001600160a01b031690639dc29fac90604401600060405180830381600087803b1580156105e957600080fd5b505af11580156105fd573d6000803e3d6000fd5b5050604051633af9e66960e01b8152306004820152600092507f00000000000000000000000000000000000000000000000000000000000000006001600160a01b03169150633af9e6699060240160206040518083038186803b15801561066357600080fd5b505afa158015610677573d6000803e3d6000fd5b505050506040513d601f19601f8201168201806040525081019061069b91906117fd565b6007549091506001600160801b0380821691600160801b90041660008284116106c55760006106cf565b6106cf8385611988565b90506000826106de8984611941565b6106e8919061191f565b90506000670de0b6b3a76400006107056509184e72a00084611941565b61070f919061191f565b6107199083611988565b90506107258985611988565b600780546001600160801b03928316600160801b0292169190911790556040516367caf87160e01b81526001600160a01b03898116600483015260248201849052604482018390526000917f0000000000000000000000000000000000000000000000000000000000000000909116906367caf871906064016040805180830381600087803b1580156107b757600080fd5b505af11580156107cb573d6000803e3d6000fd5b505050506040513d601f19601f820116820180604052508101906107ef9190611839565b509a9950505050505050505050565b6001600160a01b038316600090815260036020526040812054828110156108675760405162461bcd60e51b815260206004820152601b60248201527f45524332303a20696e73756666696369656e742d62616c616e636500000000006044820152606401610578565b6001600160a01b0385163314610925576001600160a01b0385166000908152600460209081526040808320338452909152902054600019811461092357838110156108f45760405162461bcd60e51b815260206004820152601d60248201527f45524332303a20696e73756666696369656e742d616c6c6f77616e63650000006044820152606401610578565b6108fe8482611988565b6001600160a01b03871660009081526004602090815260408083203384529091529020555b505b61092f8382611988565b6001600160a01b03808716600090815260036020526040808220939093559086168152205461095f908490611907565b6001600160a01b0380861660008181526003602052604090819020939093559151908716907fddf252ad1be2c89b69c2b068fc378daa952ba7f163c4a11628f55a4df523b3ef906109b39087815260200190565b60405180910390a3506001949350505050565b6040516323b872dd60e01b81523360048201526001600160a01b037f0000000000000000000000000000000000000000000000000000000000000000811660248301526044820184905260009182917f000000000000000000000000000000000000000000000000000000000000000016906323b872dd90606401602060405180830381600087803b158015610a5b57600080fd5b505af1158015610a6f573d6000803e3d6000fd5b505050506040513d601f19601f82011682018060405250810190610a9391906117db565b50610a9d83610c44565b915091509250929050565b60085415610ae75760405162461bcd60e51b815260206004820152600c60248201526b114e905b1c9958591e54d95d60a21b6044820152606401610578565b7f0000000000000000000000000000000000000000000000000000000000000000421015610b275760405162461bcd60e51b8152600401610578906118e0565b604051633af9e66960e01b81523060048201526000907f00000000000000000000000000000000000000000000000000000000000000006001600160a01b031690633af9e6699060240160206040518083038186803b158015610b8957600080fd5b505afa158015610b9d573d6000803e3d6000fd5b505050506040513d601f19601f82011682018060405250810190610bc191906117fd565b6007549091506001600160801b0316811015610c11576040514281527ff7f87880c827db1e5aaa7a648e710c6e9c3a608de27471889dbd94199232c31f9060200160405180910390a14260085550565b60405162461bcd60e51b8152602060048201526008602482015267453a4e6f4c6f737360c01b6044820152606401610578565b6000807f00000000000000000000000000000000000000000000000000000000000000004210610ca05760405162461bcd60e51b8152602060048201526007602482015266195e1c1a5c995960ca1b6044820152606401610578565b6040516310be8b9160e31b8152306004820152600090819081906001600160a01b037f000000000000000000000000000000000000000000000000000000000000000016906385f45c8890602401606060405180830381600087803b158015610d0857600080fd5b505af1158015610d1c573d6000803e3d6000fd5b505050506040513d601f19601f82011682018060405250810190610d40919061185d565b91945092509050600083610d548484611941565b610d5e919061191f565b6007549091506001600160801b0380821691600160801b900416610d83836002611907565b821115610dbe5760405162461bcd60e51b8152602060048201526009602482015268114e939151d7d2539560ba1b6044820152606401610578565b60008083118015610dce57508284115b15610e04578186610ddf8587611988565b610de99190611941565b610df3919061191f565b610dfd9087611988565b9050610e07565b50845b610e118184611907565b610e1b8784611907565b6001600160801b0319600160801b6001600160801b0392831602169116176007556040516340c10f1960e01b81526001600160a01b038b81166004830152602482018890527f000000000000000000000000000000000000000000000000000000000000000016906340c10f1990604401600060405180830381600087803b158015610ea657600080fd5b505af1158015610eba573d6000803e3d6000fd5b50505050610ec88a826115a5565b99949850939650505050505050565b60007f0000000000000000000000000000000000000000000000000000000000000000421015610f195760405162461bcd60e51b8152600401610578906118e0565b60085460075484906001600160801b0316821561103257604051633af9e66960e01b81523060048201526000907f00000000000000000000000000000000000000000000000000000000000000006001600160a01b031690633af9e6699060240160206040518083038186803b158015610f9257600080fd5b505afa158015610fa6573d6000803e3d6000fd5b505050506040513d601f19601f82011682018060405250810190610fca91906117fd565b9050818110156110305781610fdf8289611941565b610fe9919061191f565b925042610ff96202a30086611907565b106110305760405162461bcd60e51b8152602060048201526007602482015266453a4561726c7960c81b6044820152606401610578565b505b61103c3387611626565b6110468682611960565b600780546001600160801b0319166001600160801b03929092169190911790556040516370a0823160e01b81523060048201526000907f00000000000000000000000000000000000000000000000000000000000000006001600160a01b0316906370a082319060240160206040518083038186803b1580156110c857600080fd5b505afa1580156110dc573d6000803e3d6000fd5b505050506040513d601f19601f8201168201806040525081019061110091906117fd565b90506000670de0b6b3a764000061111d6509184e72a00086611941565b611127919061191f565b6111319085611988565b6040516367caf87160e01b81526001600160a01b038981166004830152602482018790526044820183905291925060009182917f0000000000000000000000000000000000000000000000000000000000000000909116906367caf871906064016040805180830381600087803b1580156111ab57600080fd5b505af11580156111bf573d6000803e3d6000fd5b505050506040513d601f19601f820116820180604052508101906111e39190611839565b90925090506000816111f58487611941565b6111ff919061191f565b90508581101561125d57876112425760405162461bcd60e51b8152602060048201526009602482015268114e939151d7d2539560ba1b6044820152606401610578565b426112506202a3008a611907565b1061125d5761125d6119f5565b50909998505050505050505050565b600180546104499061199f565b60006112863384846107fe565b9392505050565b6006546001600160a01b038881166000818152600560209081526040918290205482517f6e71edae12b1b97f4d1f60370fef10105fa2faae0126114a169c64845d6126c981840152808401859052948c166060860152608085018b905260a085015260c08085018a90528251808603909101815260e08501835280519082012061190160f01b6101008601526101028501959095526101228085019590955281518085039095018552610142909301905282519290910191909120906113955760405162461bcd60e51b815260206004820152601860248201527f45524332303a20696e76616c69642d616464726573732d3000000000000000006044820152606401610578565b60408051600081526020810180835283905260ff861691810191909152606081018490526080810183905260019060a0016020604051602081039080840390855afa1580156113e8573d6000803e3d6000fd5b505050602060405103516001600160a01b0316886001600160a01b03161461144a5760405162461bcd60e51b8152602060048201526015602482015274115490cc8c0e881a5b9d985b1a590b5c195c9b5a5d605a1b6044820152606401610578565b8415806114575750844211155b61149b5760405162461bcd60e51b8152602060048201526015602482015274115490cc8c0e881c195c9b5a5d0b595e1c1a5c9959605a1b6044820152606401610578565b7f7fffffffffffffffffffffffffffffff5d576e7357a4501ddfe92f46681b20a08211156115165760405162461bcd60e51b815260206004820152602260248201527f45524332303a20696e76616c6964207369676e6174757265202773272076616c604482015261756560f01b6064820152608401610578565b6001600160a01b038816600090815260056020526040812080549161153a836119da565b90915550506001600160a01b038881166000818152600460209081526040808320948c16808452948252918290208a905590518981527f8c5be1e5ebec7d5bd14f71427d1e84f3dd0314c0f7b2291e5b200ac8c7c3b925910160405180910390a35050505050505050565b6001600160a01b0382166000908152600360205260409020546115c9908290611907565b6001600160a01b0383166000818152600360205260408082209390935591519091907fddf252ad1be2c89b69c2b068fc378daa952ba7f163c4a11628f55a4df523b3ef9061161a9085815260200190565b60405180910390a35050565b6001600160a01b03821660009081526003602052604090205461164a908290611988565b6001600160a01b0383166000818152600360205260408082209390935591517fddf252ad1be2c89b69c2b068fc378daa952ba7f163c4a11628f55a4df523b3ef9061161a9085815260200190565b80356001600160a01b03811681146116af57600080fd5b919050565b6000602082840312156116c657600080fd5b61128682611698565b600080604083850312156116e257600080fd5b6116eb83611698565b91506116f960208401611698565b90509250929050565b60008060006060848603121561171757600080fd5b61172084611698565b925061172e60208501611698565b9150604084013590509250925092565b600080600080600080600060e0888a03121561175957600080fd5b61176288611698565b965061177060208901611698565b95506040880135945060608801359350608088013560ff8116811461179457600080fd5b9699959850939692959460a0840135945060c09093013592915050565b600080604083850312156117c457600080fd5b6117cd83611698565b946020939093013593505050565b6000602082840312156117ed57600080fd5b8151801515811461128657600080fd5b60006020828403121561180f57600080fd5b5051919050565b6000806040838503121561182957600080fd5b823591506116f960208401611698565b6000806040838503121561184c57600080fd5b505080516020909101519092909150565b60008060006060848603121561187257600080fd5b8351925060208401519150604084015190509250925092565b600060208083528351808285015260005b818110156118b85785810183015185820160400152820161189c565b818111156118ca576000604083870101525b50601f01601f1916929092016040019392505050565b6020808252600d908201526c114e939bdd08115e1c1a5c9959609a1b604082015260600190565b6000821982111561191a5761191a611a0b565b500190565b60008261193c57634e487b7160e01b600052601260045260246000fd5b500490565b600081600019048311821515161561195b5761195b611a0b565b500290565b60006001600160801b038381169083168181101561198057611980611a0b565b039392505050565b60008282101561199a5761199a611a0b565b500390565b600181811c908216806119b357607f821691505b602082108114156119d457634e487b7160e01b600052602260045260246000fd5b50919050565b60006000198214156119ee576119ee611a0b565b5060010190565b634e487b7160e01b600052600160045260246000fd5b634e487b7160e01b600052601160045260246000fdfea2646970667358221220d8f22a73bd26e5b1abfee110ec782f332019b6d4d1964e7a5975297122d2acf864736f6c63430008070033a2646970667358221220f2a945a94a3b61da84791f587c6495adc1993b85dcf7070b1e931a95744cad0064736f6c63430008070033",
  "immutableReferences": {
    "2586": [
      {
        "length": 32,
        "start": 928
      }
    ],
    "2603": [
      {
        "length": 32,
        "start": 147
      }
    ]
  },
  "source": "// SPDX-License-Identifier: Apache-2.0\r\n\r\nimport \"../Tranche.sol\";\r\nimport \"../interfaces/IWrappedPosition.sol\";\r\nimport \"../interfaces/IERC20.sol\";\r\nimport \"../interfaces/IInterestTokenFactory.sol\";\r\nimport \"../interfaces/IInterestToken.sol\";\r\n\r\npragma solidity ^0.8.0;\r\n\r\n/// @author Element Finance\r\n/// @title Tranche Factory\r\ncontract TrancheFactory {\r\n    /// @dev An event to track tranche creations\r\n    /// @param trancheAddress the address of the tranche contract\r\n    /// @param wpAddress the address of the wrapped position\r\n    /// @param expiration the expiration time of the tranche\r\n    event TrancheCreated(\r\n        address indexed trancheAddress,\r\n        address indexed wpAddress,\r\n        uint256 indexed expiration\r\n    );\r\n\r\n    IInterestTokenFactory internal immutable _interestTokenFactory;\r\n    address internal _tempWpAddress;\r\n    uint256 internal _tempExpiration;\r\n    IInterestToken internal _tempInterestToken;\r\n    bytes32 public constant TRANCHE_CREATION_HASH = keccak256(\r\n        type(Tranche).creationCode\r\n    );\r\n    // The address of our date library\r\n    address internal immutable _dateLibrary;\r\n\r\n    /// @notice Create a new Tranche.\r\n    /// @param _factory Address of the interest token factory.\r\n    constructor(address _factory, address dateLibrary) {\r\n        _interestTokenFactory = IInterestTokenFactory(_factory);\r\n        _dateLibrary = dateLibrary;\r\n    }\r\n\r\n    /// @notice Deploy a new Tranche contract.\r\n    /// @param _expiration The expiration timestamp for the tranche.\r\n    /// @param _wpAddress Address of the Wrapped Position contract the tranche will use.\r\n    /// @return The deployed Tranche contract.\r\n    function deployTranche(uint256 _expiration, address _wpAddress)\r\n        public\r\n        returns (Tranche)\r\n    {\r\n        _tempWpAddress = _wpAddress;\r\n        _tempExpiration = _expiration;\r\n\r\n        IWrappedPosition wpContract = IWrappedPosition(_wpAddress);\r\n        bytes32 salt = keccak256(abi.encodePacked(_wpAddress, _expiration));\r\n        string memory wpSymbol = wpContract.symbol();\r\n        IERC20 underlying = wpContract.token();\r\n        uint8 underlyingDecimals = underlying.decimals();\r\n\r\n        // derive the expected tranche address\r\n        address predictedAddress = address(\r\n            uint160(\r\n                uint256(\r\n                    keccak256(\r\n                        abi.encodePacked(\r\n                            bytes1(0xff),\r\n                            address(this),\r\n                            salt,\r\n                            TRANCHE_CREATION_HASH\r\n                        )\r\n                    )\r\n                )\r\n            )\r\n        );\r\n\r\n        _tempInterestToken = _interestTokenFactory.deployInterestToken(\r\n            predictedAddress,\r\n            wpSymbol,\r\n            _expiration,\r\n            underlyingDecimals\r\n        );\r\n\r\n        Tranche tranche = new Tranche{ salt: salt }();\r\n        emit TrancheCreated(address(tranche), _wpAddress, _expiration);\r\n        require(\r\n            address(tranche) == predictedAddress,\r\n            \"CREATE2 address mismatch\"\r\n        );\r\n\r\n        // set back to 0-value for some gas savings\r\n        delete _tempWpAddress;\r\n        delete _tempExpiration;\r\n        delete _tempInterestToken;\r\n\r\n        return tranche;\r\n    }\r\n\r\n    /// @notice Callback function called by the Tranche.\r\n    /// @dev This is called by the Tranche contract constructor.\r\n    /// The return data is used for Tranche initialization. Using this, the Tranche avoids\r\n    /// constructor arguments which can make the Tranche bytecode needed for create2 address\r\n    /// derivation non-constant.\r\n    /// @return Wrapped Position contract address, expiration timestamp, and interest token contract\r\n    function getData()\r\n        external\r\n        view\r\n        returns (\r\n            address,\r\n            uint256,\r\n            IInterestToken,\r\n            address\r\n        )\r\n    {\r\n        return (\r\n            _tempWpAddress,\r\n            _tempExpiration,\r\n            _tempInterestToken,\r\n            _dateLibrary\r\n        );\r\n    }\r\n}\r\n",
  "sourcePath": "/f/BlockChain/conflux/contract/Liberation-fi/contracts/factories/TrancheFactory.sol",
  "compiler": {
    "name": "solc",
    "version": "0.8.7+commit.e28d00a7.Linux.g++"
  },
  "schemaVersion": "3.3.4",
  "updatedAt": "2021-08-18T09:57:15.426Z",
  "devdoc": {
    "author": "Element Finance",
    "events": {
      "TrancheCreated(address,address,uint256)": {
        "details": "An event to track tranche creations",
        "params": {
          "expiration": "the expiration time of the tranche",
          "trancheAddress": "the address of the tranche contract",
          "wpAddress": "the address of the wrapped position"
        }
      }
    },
    "kind": "dev",
    "methods": {
      "constructor": {
        "params": {
          "_factory": "Address of the interest token factory."
        }
      },
      "deployTranche(uint256,address)": {
        "params": {
          "_expiration": "The expiration timestamp for the tranche.",
          "_wpAddress": "Address of the Wrapped Position contract the tranche will use."
        },
        "returns": {
          "_0": "The deployed Tranche contract."
        }
      },
      "getData()": {
        "details": "This is called by the Tranche contract constructor. The return data is used for Tranche initialization. Using this, the Tranche avoids constructor arguments which can make the Tranche bytecode needed for create2 address derivation non-constant.",
        "returns": {
          "_0": "Wrapped Position contract address, expiration timestamp, and interest token contract"
        }
      }
    },
    "title": "Tranche Factory",
    "version": 1
  },
  "userdoc": {
    "kind": "user",
    "methods": {
      "constructor": {
        "notice": "Create a new Tranche."
      },
      "deployTranche(uint256,address)": {
        "notice": "Deploy a new Tranche contract."
      },
      "getData()": {
        "notice": "Callback function called by the Tranche."
      }
    },
    "version": 1
  }
}