{
  "contractName": "TrancheFactory",
  "abi": [
    {
      "inputs": [
        {
          "internalType": "address",
          "name": "_factory",
          "type": "address"
        },
        {
          "internalType": "address",
          "name": "dateLibrary",
          "type": "address"
        }
      ],
      "stateMutability": "nonpayable",
      "type": "constructor"
    },
    {
      "anonymous": false,
      "inputs": [
        {
          "indexed": true,
          "internalType": "address",
          "name": "trancheAddress",
          "type": "address"
        },
        {
          "indexed": true,
          "internalType": "address",
          "name": "wpAddress",
          "type": "address"
        },
        {
          "indexed": true,
          "internalType": "uint256",
          "name": "expiration",
          "type": "uint256"
        }
      ],
      "name": "TrancheCreated",
      "type": "event"
    },
    {
      "inputs": [],
      "name": "TRANCHE_CREATION_HASH",
      "outputs": [
        {
          "internalType": "bytes32",
          "name": "",
          "type": "bytes32"
        }
      ],
      "stateMutability": "view",
      "type": "function"
    },
    {
      "inputs": [
        {
          "internalType": "uint256",
          "name": "_expiration",
          "type": "uint256"
        },
        {
          "internalType": "address",
          "name": "_wpAddress",
          "type": "address"
        }
      ],
      "name": "_salt2",
      "outputs": [
        {
          "internalType": "bytes",
          "name": "",
          "type": "bytes"
        }
      ],
      "stateMutability": "view",
      "type": "function"
    },
    {
      "inputs": [
        {
          "internalType": "uint256",
          "name": "_expiration",
          "type": "uint256"
        },
        {
          "internalType": "address",
          "name": "_wpAddress",
          "type": "address"
        }
      ],
      "name": "_salt",
      "outputs": [
        {
          "internalType": "bytes32",
          "name": "",
          "type": "bytes32"
        }
      ],
      "stateMutability": "view",
      "type": "function"
    },
    {
      "inputs": [
        {
          "internalType": "uint256",
          "name": "_expiration",
          "type": "uint256"
        },
        {
          "internalType": "address",
          "name": "_wpAddress",
          "type": "address"
        }
      ],
      "name": "deployTranche",
      "outputs": [
        {
          "internalType": "contract Tranche",
          "name": "",
          "type": "address"
        }
      ],
      "stateMutability": "nonpayable",
      "type": "function"
    },
    {
      "inputs": [],
      "name": "getData",
      "outputs": [
        {
          "internalType": "address",
          "name": "",
          "type": "address"
        },
        {
          "internalType": "uint256",
          "name": "",
          "type": "uint256"
        },
        {
          "internalType": "contract IInterestToken",
          "name": "",
          "type": "address"
        },
        {
          "internalType": "address",
          "name": "",
          "type": "address"
        }
      ],
      "stateMutability": "view",
      "type": "function"
    }
  ],
  "bytecode": "0x60c060405234801561001057600080fd5b506040516130bc3803806130bc83398101604081905261002f91610069565b6001600160601b0319606092831b8116608052911b1660a05261009b565b80516001600160a01b038116811461006457600080fd5b919050565b6000806040838503121561007b578182fd5b6100848361004d565b91506100926020840161004d565b90509250929050565b60805160601c60a05160601c612ff66100c6600039600061014b015260006104020152612ff66000f3fe60806040523480156200001157600080fd5b50600436106200005e5760003560e01c80631af3f31714620000635780633bc5de3014620000855780633e84842214620000a15780638e7ff0bd14620000c7578063a7825f7814620000ed575b600080fd5b6200006d62000104565b6040516200007c919062000801565b60405180910390f35b6200008f62000133565b6040516200007c9493929190620007d6565b620000b8620000b2366004620006b8565b62000170565b6040516200007c91906200080a565b620000de620000d8366004620006b8565b620001a1565b6040516200007c91906200081f565b6200006d620000fe366004620006b8565b6200059d565b6040516200011560208201620005d5565b6020820181038252601f19601f820116604052508051906020012081565b6000546001546002546001600160a01b0392831692167f000000000000000000000000000000000000000000000000000000000000000090919293565b606060008284604051602001620001899291906200073b565b60408051808303601f19018152919052949350505050565b600080546001600160a01b0319166001600160a01b038316178155600183905560405182908290620001da90839087906020016200073b565b6040516020818303038152906040528051906020012090506000826001600160a01b03166395d89b416040518163ffffffff1660e01b815260040160006040518083038186803b1580156200022e57600080fd5b505afa15801562000243573d6000803e3d6000fd5b505050506040513d6000823e601f3d908101601f191682016040526200026d919081019062000609565b90506000836001600160a01b031663fc0c546a6040518163ffffffff1660e01b815260040160206040518083038186803b158015620002ab57600080fd5b505afa158015620002c0573d6000803e3d6000fd5b505050506040513d601f19601f82011682018060405250810190620002e69190620005e3565b90506000816001600160a01b031663313ce5676040518163ffffffff1660e01b815260040160206040518083038186803b1580156200032457600080fd5b505afa15801562000339573d6000803e3d6000fd5b505050506040513d601f19601f820116820180604052508101906200035f9190620006ea565b9050600060ff60f81b3086604051806020016200037c90620005d5565b6020820181038252601f19601f8201166040525080519060200120604051602001620003ac94939291906200075d565b60408051601f19818403018152919052805160209091012090506000620003d86001609c1b83620008d5565b620003e8906001609f1b6200086a565b6040516334bc395960e01b81529091506001600160a01b037f000000000000000000000000000000000000000000000000000000000000000016906334bc3959906200043f90849089908f90899060040162000796565b602060405180830381600087803b1580156200045a57600080fd5b505af11580156200046f573d6000803e3d6000fd5b505050506040513d601f19601f82011682018060405250810190620004959190620005e3565b600260006101000a8154816001600160a01b0302191690836001600160a01b03160217905550600086604051620004cc90620005d5565b8190604051809103906000f5905080158015620004ed573d6000803e3d6000fd5b5090508a8a6001600160a01b0316826001600160a01b03167f86944ab3f9722712d06f9d63f492e9893c0c77cc40e512ca1c1f3aaaec6bf2d360405160405180910390a4816001600160a01b0316816001600160a01b0316146200056e5760405162461bcd60e51b8152600401620005659062000833565b60405180910390fd5b600080546001600160a01b031990811682556001919091556002805490911690559a9950505050505050505050565b6000808284604051602001620005b59291906200073b565b60408051808303601f190181529190528051602090910120949350505050565b612689806200093883390190565b600060208284031215620005f5578081fd5b815162000602816200091e565b9392505050565b6000602082840312156200061b578081fd5b815167ffffffffffffffff8082111562000633578283fd5b818401915084601f83011262000647578283fd5b8151818111156200065c576200065c62000908565b604051601f8201601f19168101602001838111828210171562000683576200068362000908565b6040528181528382016020018710156200069b578485fd5b620006ae826020830160208701620008a2565b9695505050505050565b60008060408385031215620006cb578081fd5b823591506020830135620006df816200091e565b809150509250929050565b600060208284031215620006fc578081fd5b815160ff8116811462000602578182fd5b6000815180845262000727816020860160208601620008a2565b601f01601f19169290920160200192915050565b60609290921b6bffffffffffffffffffffffff19168252601482015260340190565b6001600160f81b031994909416845260609290921b6bffffffffffffffffffffffff191660018401526015830152603582015260550190565b6001600160a01b0385168152608060208201819052600090620007bc908301866200070d565b905083604083015260ff8316606083015295945050505050565b6001600160a01b03948516815260208101939093529083166040830152909116606082015260800190565b90815260200190565b6000602082526200060260208301846200070d565b6001600160a01b0391909116815260200190565b60208082526018908201527f435245415445322061646472657373206d69736d617463680000000000000000604082015260600190565b60006001600160a01b038281168482168083038211156200089957634e487b7160e01b84526011600452602484fd5b01949350505050565b60005b83811015620008bf578181015183820152602001620008a5565b83811115620008cf576000848401525b50505050565b60006001600160a01b0383811680620008fc57634e487b7160e01b83526012600452602483fd5b92169190910692915050565b634e487b7160e01b600052604160045260246000fd5b6001600160a01b03811681146200093457600080fd5b5056fe6101206040523480156200001257600080fd5b50604080518082018252601b81527f4c696265726174696f6e205072696e636970616c20546f6b656e2000000000006020808301918252835180850190945260018452600760fc1b90840152815191929162000071916000916200063d565b508051620000879060019060208401906200063d565b506002805460ff1916601217905560036020526000197f3617319a054d772f909f7c479a2cebe5066e836a939412e32403c99029b92eff8190553060009081526040902055620000d662000383565b7f8b73c3c69bb8fe3d512ecc4cf759cc79239f7b179b0ffacaa9a75d522b39400f600060405162000108919062000853565b60408051918290038220828201825260018352603160f81b60209384015290516200015b93927fc89efdaa54c0f20c7adf612882df0950f5a951637e0307cdcb4c672f298b8bc6914691309101620008f8565b6040516020818303038152906040528051906020012060068190555050506000339050600080600080846001600160a01b0316633bc5de306040518163ffffffff1660e01b8152600401608060405180830381600087803b158015620001c057600080fd5b505af1158015620001d5573d6000803e3d6000fd5b505050506040513d601f19601f82011682018060405250810190620001fb9190620006e3565b6001600160601b0319606083811b821660805285901b1660a05261010083905260408051637e062a3560e11b81529051949850929650909450925085916000916001600160a01b0384169163fc0c546a91600480820192602092909190829003018186803b1580156200026d57600080fd5b505afa15801562000282573d6000803e3d6000fd5b505050506040513d601f19601f82011682018060405250810190620002a891906200073e565b9050806001600160a01b031660c0816001600160a01b031660601b815250506000816001600160a01b031663313ce5676040518163ffffffff1660e01b815260040160206040518083038186803b1580156200030357600080fd5b505afa15801562000318573d6000803e3d6000fd5b505050506040513d601f19601f820116820180604052508101906200033e919062000812565b7fff0000000000000000000000000000000000000000000000000000000000000060f882901b1660e0529050620003758162000627565b505050505050505062000a13565b6000339050600080600080846001600160a01b0316633bc5de306040518163ffffffff1660e01b8152600401608060405180830381600087803b158015620003ca57600080fd5b505af1158015620003df573d6000803e3d6000fd5b505050506040513d601f19601f82011682018060405250810190620004059190620006e3565b93509350935093506000846001600160a01b03166395d89b416040518163ffffffff1660e01b815260040160006040518083038186803b1580156200044957600080fd5b505afa1580156200045e573d6000803e3d6000fd5b505050506040513d6000823e601f3d908101601f1916820160405262000488919081019062000764565b60405190915060009060019082906001600160a01b03861690637a0674a360e11b90620004be9087908b90869060240162000924565b60408051601f198184030181529181526020820180516001600160e01b03166001600160e01b0319909416939093179092529051620004fe919062000835565b600060405180830381855af49150503d80600081146200053b576040519150601f19603f3d011682016040523d82523d6000602084013e62000540565b606091505b505090506000856001600160a01b031663f40ce94660e01b868a866040516024016200056f9392919062000924565b60408051601f198184030181529181526020820180516001600160e01b03166001600160e01b0319909416939093179092529051620005af919062000835565b600060405180830381855af49150503d8060008114620005ec576040519150601f19603f3d011682016040523d82523d6000602084013e620005f1565b606091505b50509050818015620006005750805b6200061b57634e487b7160e01b600052600160045260246000fd5b50505050505050505050565b6002805460ff191660ff92909216919091179055565b8280546200064b90620009a7565b90600052602060002090601f0160209004810192826200066f5760008555620006ba565b82601f106200068a57805160ff1916838001178555620006ba565b82800160010185558215620006ba579182015b82811115620006ba5782518255916020019190600101906200069d565b50620006c8929150620006cc565b5090565b5b80821115620006c85760008155600101620006cd565b60008060008060808587031215620006f9578384fd5b84516200070681620009fa565b6020860151604087015191955093506200072081620009fa565b60608601519092506200073381620009fa565b939692955090935050565b60006020828403121562000750578081fd5b81516200075d81620009fa565b9392505050565b60006020828403121562000776578081fd5b81516001600160401b03808211156200078d578283fd5b818401915084601f830112620007a1578283fd5b815181811115620007b657620007b6620009e4565b604051601f8201601f191681016020018381118282101715620007dd57620007dd620009e4565b604052818152838201602001871015620007f5578485fd5b6200080882602083016020870162000974565b9695505050505050565b60006020828403121562000824578081fd5b815160ff811681146200075d578182fd5b600082516200084981846020870162000974565b9190910192915050565b81546000908190600281046001808316806200087057607f831692505b60208084108214156200089157634e487b7160e01b87526022600452602487fd5b818015620008a85760018114620008ba57620008ea565b60ff19861689528489019650620008ea565b620008c58a62000968565b885b86811015620008e25781548b820152908501908301620008c7565b505084890196505b509498975050505050505050565b9485526020850193909352604084019190915260608301526001600160a01b0316608082015260a00190565b60006060825284518060608401526200094581608085016020890162000974565b60208301949094525060408101919091526080601f909201601f19160101919050565b60009081526020902090565b60005b838110156200099157818101518382015260200162000977565b83811115620009a1576000848401525b50505050565b600281046001821680620009bc57607f821691505b60208210811415620009de57634e487b7160e01b600052602260045260246000fd5b50919050565b634e487b7160e01b600052604160045260246000fd5b6001600160a01b038116811462000a1057600080fd5b50565b60805160601c60a05160601c60c05160601c60e05160f81c61010051611bbf62000aca6000396000818161045601528181610a2901528181610b8e01528181610df501526111a5015260005050600081816108d801526109af0152600081816103c6015281816105360152818161067d0152818161090801528181610a8101528181610bd201528181610e6401528181610f7d01526110680152600081816104b4015281816109e50152610d6f0152611bbf6000f3fe608060405234801561001057600080fd5b50600436106101735760003560e01c80636e553f65116100de57806385f45c8811610097578063a9059cbb11610071578063a9059cbb146102df578063aa082a9d146102f2578063d505accf146102fa578063dd62ed3e1461030d57610173565b806385f45c88146102b1578063884e17f3146102c457806395d89b41146102d757610173565b80636e553f65146102505780636f307dc31461027157806370a0823114610279578063764b666c1461028c5780637da081a2146102945780637ecebe001461029e57610173565b806323b872dd1161013057806323b872dd1461020857806330adf81f1461021b578063313ce567146102235780633644e51514610238578063421b15c11461024057806363cf7cdd1461024857610173565b8063041be7c21461017857806306fdde031461019657806309218e91146101ab578063095ea7b3146101c05780631210aac2146101e057806318160ddd14610200575b600080fd5b610180610320565b60405161018d9190611a57565b60405180910390f35b61019e610336565b60405161018d91906117eb565b6101b36103c4565b60405161018d9190611713565b6101d36101ce366004611625565b6103e8565b60405161018d9190611785565b6101f36101ee366004611686565b610452565b60405161018d9190611790565b6101f3610716565b6101d3610216366004611579565b610725565b6101f361088b565b61022b6108af565b60405161018d9190611a79565b6101f36108b8565b6101f36108be565b6101806108c4565b61026361025e366004611686565b6108d3565b60405161018d929190611a6b565b6101b36109ad565b6101f361028736600461152d565b6109d1565b6101b36109e3565b61029c610a07565b005b6101f36102ac36600461152d565b610b77565b6102636102bf36600461152d565b610b89565b6101f36102d2366004611686565b610df1565b61019e611182565b6101d36102ed366004611625565b61118f565b6101f36111a3565b61029c6103083660046115b4565b6111c7565b6101f361031b366004611547565b611405565b600754600160801b90046001600160801b031681565b6000805461034390611b1d565b80601f016020809104026020016040519081016040528092919081815260200182805461036f90611b1d565b80156103bc5780601f10610391576101008083540402835291602001916103bc565b820191906000526020600020905b81548152906001019060200180831161039f57829003601f168201915b505050505081565b7f000000000000000000000000000000000000000000000000000000000000000081565b3360008181526004602090815260408083206001600160a01b038716808552925280832085905551919290917f8c5be1e5ebec7d5bd14f71427d1e84f3dd0314c0f7b2291e5b200ac8c7c3b92590610441908690611790565b60405180910390a350600192915050565b60007f000000000000000000000000000000000000000000000000000000000000000042101561049d5760405162461bcd60e51b815260040161049490611930565b60405180910390fd5b604051632770a7eb60e21b81526001600160a01b037f00000000000000000000000000000000000000000000000000000000000000001690639dc29fac906104eb903390879060040161174b565b600060405180830381600087803b15801561050557600080fd5b505af1158015610519573d6000803e3d6000fd5b5050604051633af9e66960e01b8152600092506001600160a01b037f0000000000000000000000000000000000000000000000000000000000000000169150633af9e6699061056c903090600401611713565b60206040518083038186803b15801561058457600080fd5b505afa158015610598573d6000803e3d6000fd5b505050506040513d601f19601f820116820180604052508101906105bc919061166e565b6007549091506001600160801b0380821691600160801b90041660008284116105e65760006105f0565b6105f08385611b06565b90506000826105ff8984611abf565b6106099190611a9f565b90506000670de0b6b3a76400006106266509184e72a00084611abf565b6106309190611a9f565b61063a9083611b06565b90506106468985611b06565b600780546001600160801b03928316600160801b0292169190911790556040516367caf87160e01b81526000906001600160a01b037f000000000000000000000000000000000000000000000000000000000000000016906367caf871906106b6908c9087908790600401611764565b6040805180830381600087803b1580156106cf57600080fd5b505af11580156106e3573d6000803e3d6000fd5b505050506040513d601f19601f8201168201806040525081019061070791906116a8565b509a9950505050505050505050565b6007546001600160801b031690565b6001600160a01b0383166000908152600360205260408120548281101561075e5760405162461bcd60e51b815260040161049490611a20565b6001600160a01b03851633146107ec576001600160a01b038516600090815260046020908152604080832033845290915290205460001981146107ea57838110156107bb5760405162461bcd60e51b81526004016104949061183e565b6107c58482611b06565b6001600160a01b03871660009081526004602090815260408083203384529091529020555b505b6107f68382611b06565b6001600160a01b038087166000908152600360205260408082209390935590861681522054610826908490611a87565b6001600160a01b0380861660008181526003602052604090819020939093559151908716907fddf252ad1be2c89b69c2b068fc378daa952ba7f163c4a11628f55a4df523b3ef90610878908790611790565b60405180910390a3506001949350505050565b7f6e71edae12b1b97f4d1f60370fef10105fa2faae0126114a169c64845d6126c981565b60025460ff1681565b60065481565b60085481565b6007546001600160801b031681565b6000807f00000000000000000000000000000000000000000000000000000000000000006001600160a01b03166323b872dd337f0000000000000000000000000000000000000000000000000000000000000000876040518463ffffffff1660e01b815260040161094693929190611727565b602060405180830381600087803b15801561096057600080fd5b505af1158015610974573d6000803e3d6000fd5b505050506040513d601f19601f82011682018060405250810190610998919061164e565b506109a283610b89565b915091509250929050565b7f000000000000000000000000000000000000000000000000000000000000000081565b60036020526000908152604090205481565b7f000000000000000000000000000000000000000000000000000000000000000081565b60085415610a275760405162461bcd60e51b815260040161049490611986565b7f0000000000000000000000000000000000000000000000000000000000000000421015610a675760405162461bcd60e51b815260040161049490611930565b604051633af9e66960e01b81526000906001600160a01b037f00000000000000000000000000000000000000000000000000000000000000001690633af9e66990610ab6903090600401611713565b60206040518083038186803b158015610ace57600080fd5b505afa158015610ae2573d6000803e3d6000fd5b505050506040513d601f19601f82011682018060405250810190610b06919061166e565b6007549091506001600160801b0316811015610b5c577ff7f87880c827db1e5aaa7a648e710c6e9c3a608de27471889dbd94199232c31f42604051610b4b9190611790565b60405180910390a142600855610b74565b60405162461bcd60e51b8152600401610494906119fe565b50565b60056020526000908152604090205481565b6000807f00000000000000000000000000000000000000000000000000000000000000004210610bcb5760405162461bcd60e51b81526004016104949061190f565b60008060007f00000000000000000000000000000000000000000000000000000000000000006001600160a01b03166385f45c88306040518263ffffffff1660e01b8152600401610c1c9190611713565b606060405180830381600087803b158015610c3657600080fd5b505af1158015610c4a573d6000803e3d6000fd5b505050506040513d601f19601f82011682018060405250810190610c6e91906116cb565b91945092509050600083610c828484611abf565b610c8c9190611a9f565b6007549091506001600160801b0380821691600160801b900416610cb1836002611a87565b821115610cd05760405162461bcd60e51b8152600401610494906119db565b60008083118015610ce057508284115b15610d16578186610cf18587611b06565b610cfb9190611abf565b610d059190611a9f565b610d0f9087611b06565b9050610d19565b50845b610d238184611a87565b610d2d8784611a87565b600780546001600160801b03938416928416600160801b029316929092176001600160801b0319161790556040516340c10f1960e01b81526001600160a01b037f000000000000000000000000000000000000000000000000000000000000000016906340c10f1990610da6908d908a9060040161174b565b600060405180830381600087803b158015610dc057600080fd5b505af1158015610dd4573d6000803e3d6000fd5b50505050610de28a82611422565b97509395505050505050915091565b60007f0000000000000000000000000000000000000000000000000000000000000000421015610e335760405162461bcd60e51b815260040161049490611930565b60085460075484906001600160801b03168215610f3757604051633af9e66960e01b81526000906001600160a01b037f00000000000000000000000000000000000000000000000000000000000000001690633af9e66990610e99903090600401611713565b60206040518083038186803b158015610eb157600080fd5b505afa158015610ec5573d6000803e3d6000fd5b505050506040513d601f19601f82011682018060405250810190610ee9919061166e565b905081811015610f355781610efe8289611abf565b610f089190611a9f565b925042610f186202a30086611a87565b10610f355760405162461bcd60e51b815260040161049490611875565b505b610f4133876114a1565b610f4b8682611ade565b600780546001600160801b0319166001600160801b03929092169190911790556040516370a0823160e01b81526000907f00000000000000000000000000000000000000000000000000000000000000006001600160a01b0316906370a0823190610fba903090600401611713565b60206040518083038186803b158015610fd257600080fd5b505afa158015610fe6573d6000803e3d6000fd5b505050506040513d601f19601f8201168201806040525081019061100a919061166e565b905060006509184e72a000670de0b6b3a7640000816110298188611abf565b6110339190611abf565b61103d9190611a9f565b61104d6509184e72a00087611abf565b6110579190611b06565b6110619190611a9f565b90506000807f00000000000000000000000000000000000000000000000000000000000000006001600160a01b03166367caf8718a88866040518463ffffffff1660e01b81526004016110b693929190611764565b6040805180830381600087803b1580156110cf57600080fd5b505af11580156110e3573d6000803e3d6000fd5b505050506040513d601f19601f8201168201806040525081019061110791906116a8565b90925090506000816111198487611abf565b6111239190611a9f565b905085811015611173578761114a5760405162461bcd60e51b8152600401610494906119db565b426111586202a3008a611a87565b1061117357634e487b7160e01b600052600160045260246000fd5b50909998505050505050505050565b6001805461034390611b1d565b600061119c338484610725565b9392505050565b7f000000000000000000000000000000000000000000000000000000000000000081565b6006546001600160a01b0388166000908152600560209081526040808320549051929392611220927f6e71edae12b1b97f4d1f60370fef10105fa2faae0126114a169c64845d6126c9928d928d928d92918d9101611799565b604051602081830303815290604052805190602001206040516020016112479291906116f8565b60408051601f19818403018152919052805160209091012090506001600160a01b0388166112875760405162461bcd60e51b8152600401610494906118d8565b600181858585604051600081526020016040526040516112aa94939291906117cd565b6020604051602081039080840390855afa1580156112cc573d6000803e3d6000fd5b505050602060405103516001600160a01b0316886001600160a01b0316146113065760405162461bcd60e51b815260040161049490611957565b8415806113135750844211155b61132f5760405162461bcd60e51b8152600401610494906119ac565b7f7fffffffffffffffffffffffffffffff5d576e7357a4501ddfe92f46681b20a082111561136f5760405162461bcd60e51b815260040161049490611896565b6001600160a01b038816600090815260056020526040812080549161139383611b58565b90915550506001600160a01b038089166000818152600460209081526040808320948c168084529490915290819020899055517f8c5be1e5ebec7d5bd14f71427d1e84f3dd0314c0f7b2291e5b200ac8c7c3b925906113f3908a90611790565b60405180910390a35050505050505050565b600460209081526000928352604080842090915290825290205481565b6001600160a01b038216600090815260036020526040902054611446908290611a87565b6001600160a01b0383166000818152600360205260408082209390935591519091907fddf252ad1be2c89b69c2b068fc378daa952ba7f163c4a11628f55a4df523b3ef90611495908590611790565b60405180910390a35050565b6001600160a01b0382166000908152600360205260409020546114c5908290611b06565b6001600160a01b0383166000818152600360205260408082209390935591517fddf252ad1be2c89b69c2b068fc378daa952ba7f163c4a11628f55a4df523b3ef90611495908590611790565b80356001600160a01b038116811461152857600080fd5b919050565b60006020828403121561153e578081fd5b61119c82611511565b60008060408385031215611559578081fd5b61156283611511565b915061157060208401611511565b90509250929050565b60008060006060848603121561158d578081fd5b61159684611511565b92506115a460208501611511565b9150604084013590509250925092565b600080600080600080600060e0888a0312156115ce578283fd5b6115d788611511565b96506115e560208901611511565b95506040880135945060608801359350608088013560ff81168114611608578384fd5b9699959850939692959460a0840135945060c09093013592915050565b60008060408385031215611637578182fd5b61164083611511565b946020939093013593505050565b60006020828403121561165f578081fd5b8151801515811461119c578182fd5b60006020828403121561167f578081fd5b5051919050565b60008060408385031215611698578182fd5b8235915061157060208401611511565b600080604083850312156116ba578182fd5b505080516020909101519092909150565b6000806000606084860312156116df578283fd5b8351925060208401519150604084015190509250925092565b61190160f01b81526002810192909252602282015260420190565b6001600160a01b0391909116815260200190565b6001600160a01b039384168152919092166020820152604081019190915260600190565b6001600160a01b03929092168252602082015260400190565b6001600160a01b039390931683526020830191909152604082015260600190565b901515815260200190565b90815260200190565b9586526001600160a01b0394851660208701529290931660408501526060840152608083019190915260a082015260c00190565b93845260ff9290921660208401526040830152606082015260800190565b6000602080835283518082850152825b81811015611817578581018301518582016040015282016117fb565b818111156118285783604083870101525b50601f01601f1916929092016040019392505050565b6020808252601d908201527f45524332303a20696e73756666696369656e742d616c6c6f77616e6365000000604082015260600190565b602080825260079082015266453a4561726c7960c81b604082015260600190565b60208082526022908201527f45524332303a20696e76616c6964207369676e6174757265202773272076616c604082015261756560f01b606082015260800190565b60208082526018908201527f45524332303a20696e76616c69642d616464726573732d300000000000000000604082015260600190565b602080825260079082015266195e1c1a5c995960ca1b604082015260600190565b6020808252600d908201526c114e939bdd08115e1c1a5c9959609a1b604082015260600190565b602080825260159082015274115490cc8c0e881a5b9d985b1a590b5c195c9b5a5d605a1b604082015260600190565b6020808252600c908201526b114e905b1c9958591e54d95d60a21b604082015260600190565b602080825260159082015274115490cc8c0e881c195c9b5a5d0b595e1c1a5c9959605a1b604082015260600190565b602080825260099082015268114e939151d7d2539560ba1b604082015260600190565b602080825260089082015267453a4e6f4c6f737360c01b604082015260600190565b6020808252601b908201527f45524332303a20696e73756666696369656e742d62616c616e63650000000000604082015260600190565b6001600160801b0391909116815260200190565b918252602082015260400190565b60ff91909116815260200190565b60008219821115611a9a57611a9a611b73565b500190565b600082611aba57634e487b7160e01b81526012600452602481fd5b500490565b6000816000190483118215151615611ad957611ad9611b73565b500290565b60006001600160801b0383811690831681811015611afe57611afe611b73565b039392505050565b600082821015611b1857611b18611b73565b500390565b600281046001821680611b3157607f821691505b60208210811415611b5257634e487b7160e01b600052602260045260246000fd5b50919050565b6000600019821415611b6c57611b6c611b73565b5060010190565b634e487b7160e01b600052601160045260246000fdfea264697066735822122099e067126d5ef833580eda30b5fcc7b073721931226982c7c3520538159e01ef64736f6c63430008000033a2646970667358221220ee2b54e0c476e8a571fe3bb5b911234a01d8f9a5c647ffcd3aa803c383db5a0564736f6c63430008000033",
  "immutableReferences": {
    "958": [
      {
        "length": 32,
        "start": 1026
      }
    ],
    "975": [
      {
        "length": 32,
        "start": 331
      }
    ]
  },
  "source": "// SPDX-License-Identifier: Apache-2.0\r\n\r\nimport \"../Tranche.sol\";\r\nimport \"../interfaces/IWrappedPosition.sol\";\r\nimport \"../interfaces/IERC20.sol\";\r\nimport \"../interfaces/IInterestTokenFactory.sol\";\r\nimport \"../interfaces/IInterestToken.sol\";\r\n\r\npragma solidity ^0.8.0;\r\n\r\n/// @author WontonData\r\n/// @title Tranche Factory\r\ncontract TrancheFactory {\r\n    /// @dev An event to track tranche creations\r\n    /// @param trancheAddress the address of the tranche contract\r\n    /// @param wpAddress the address of the wrapped position\r\n    /// @param expiration the expiration time of the tranche\r\n    event TrancheCreated(\r\n        address indexed trancheAddress,\r\n        address indexed wpAddress,\r\n        uint256 indexed expiration\r\n    );\r\n\r\n    IInterestTokenFactory internal immutable _interestTokenFactory;\r\n    address internal _tempWpAddress;\r\n    uint256 internal _tempExpiration;\r\n    IInterestToken internal _tempInterestToken;\r\n    bytes32 public constant TRANCHE_CREATION_HASH = keccak256(\r\n        type(Tranche).creationCode\r\n    );\r\n    // The address of our date library\r\n    address internal immutable _dateLibrary;\r\n\r\n    /// @notice Create a new Tranche.\r\n    /// @param _factory Address of the interest token factory.\r\n    constructor(address _factory, address dateLibrary) {\r\n        _interestTokenFactory = IInterestTokenFactory(_factory);\r\n        _dateLibrary = dateLibrary;\r\n    }\r\n    function  _salt2(uint256 _expiration, address _wpAddress)public view returns(bytes memory){\r\n        \r\n        bytes memory salt = abi.encodePacked(_wpAddress, _expiration);\r\n        return salt;\r\n    }\r\n    function _salt(uint256 _expiration, address _wpAddress)public view returns(bytes32){\r\n        \r\n        bytes32 salt = keccak256(abi.encodePacked(_wpAddress, _expiration));\r\n        return salt;\r\n    }\r\n\r\n    /// @notice Deploy a new Tranche contract.\r\n    /// @param _expiration The expiration timestamp for the tranche.\r\n    /// @param _wpAddress Address of the Wrapped Position contract the tranche will use.\r\n    /// @return The deployed Tranche contract.\r\n    function deployTranche(uint256 _expiration, address _wpAddress)\r\n        public\r\n        returns (Tranche)\r\n    {\r\n        _tempWpAddress = _wpAddress;\r\n        _tempExpiration = _expiration;\r\n\r\n        IWrappedPosition wpContract = IWrappedPosition(_wpAddress);\r\n        bytes32 salt = keccak256(abi.encodePacked(_wpAddress, _expiration));\r\n        string memory wpSymbol = wpContract.symbol();\r\n        IERC20 underlying = wpContract.token();\r\n        uint8 underlyingDecimals = underlying.decimals();\r\n\r\n        // derive the expected tranche address\r\n        uint160 addressUint =  uint160(\r\n            uint256(\r\n                keccak256(\r\n                    abi.encodePacked(\r\n                        bytes1(0xff),\r\n                        address(this),\r\n                        salt,\r\n                        TRANCHE_CREATION_HASH\r\n                    )\r\n                )\r\n            )\r\n        );\r\n        // 8 * 16 * 39 + num % ( 16 ** 39 )\r\n        address predictedAddress = address(\r\n            uint160(730750818665451459101842416358141509827966271488 + addressUint % (91343852333181432387730302044767688728495783936))\r\n        );\r\n\r\n        _tempInterestToken = _interestTokenFactory.deployInterestToken(\r\n            predictedAddress,\r\n            wpSymbol,\r\n            _expiration,\r\n            underlyingDecimals\r\n        );\r\n\r\n        Tranche tranche = new Tranche{ salt: salt }();\r\n        emit TrancheCreated(address(tranche), _wpAddress, _expiration);\r\n        require(\r\n            address(tranche) == predictedAddress,\r\n            \"CREATE2 address mismatch\"\r\n        );\r\n\r\n        // set back to 0-value for some gas savings\r\n        delete _tempWpAddress;\r\n        delete _tempExpiration;\r\n        delete _tempInterestToken;\r\n\r\n        return tranche;\r\n    }\r\n\r\n    /// @notice Callback function called by the Tranche.\r\n    /// @dev This is called by the Tranche contract constructor.\r\n    /// The return data is used for Tranche initialization. Using this, the Tranche avoids\r\n    /// constructor arguments which can make the Tranche bytecode needed for create2 address\r\n    /// derivation non-constant.\r\n    /// @return Wrapped Position contract address, expiration timestamp, and interest token contract\r\n    function getData()\r\n        external\r\n        view\r\n        returns (\r\n            address,\r\n            uint256,\r\n            IInterestToken,\r\n            address\r\n        )\r\n    {\r\n        return (\r\n            _tempWpAddress,\r\n            _tempExpiration,\r\n            _tempInterestToken,\r\n            _dateLibrary\r\n        );\r\n    }\r\n}\r\n",
  "sourcePath": "/f/BlockChain/conflux/contract/Liberation-fi/contracts/factories/TrancheFactory.sol",
  "compiler": {
    "name": "solc",
    "version": "0.8.0+commit.c7dfd78e.Emscripten.clang"
  },
  "schemaVersion": "3.3.4",
  "updatedAt": "2021-09-11T11:57:14.042Z",
  "devdoc": {
    "author": "WontonData",
    "events": {
      "TrancheCreated(address,address,uint256)": {
        "details": "An event to track tranche creations",
        "params": {
          "expiration": "the expiration time of the tranche",
          "trancheAddress": "the address of the tranche contract",
          "wpAddress": "the address of the wrapped position"
        }
      }
    },
    "kind": "dev",
    "methods": {
      "constructor": {
        "params": {
          "_factory": "Address of the interest token factory."
        }
      },
      "deployTranche(uint256,address)": {
        "params": {
          "_expiration": "The expiration timestamp for the tranche.",
          "_wpAddress": "Address of the Wrapped Position contract the tranche will use."
        },
        "returns": {
          "_0": "The deployed Tranche contract."
        }
      },
      "getData()": {
        "details": "This is called by the Tranche contract constructor. The return data is used for Tranche initialization. Using this, the Tranche avoids constructor arguments which can make the Tranche bytecode needed for create2 address derivation non-constant.",
        "returns": {
          "_0": "Wrapped Position contract address, expiration timestamp, and interest token contract"
        }
      }
    },
    "title": "Tranche Factory",
    "version": 1
  },
  "userdoc": {
    "kind": "user",
    "methods": {
      "constructor": {
        "notice": "Create a new Tranche."
      },
      "deployTranche(uint256,address)": {
        "notice": "Deploy a new Tranche contract."
      },
      "getData()": {
        "notice": "Callback function called by the Tranche."
      }
    },
    "version": 1
  }
}