{
  "contractName": "TrancheFactory",
  "abi": [
    {
      "inputs": [
        {
          "internalType": "address",
          "name": "_factory",
          "type": "address"
        },
        {
          "internalType": "address",
          "name": "dateLibrary",
          "type": "address"
        }
      ],
      "stateMutability": "nonpayable",
      "type": "constructor"
    },
    {
      "anonymous": false,
      "inputs": [
        {
          "indexed": true,
          "internalType": "address",
          "name": "trancheAddress",
          "type": "address"
        },
        {
          "indexed": true,
          "internalType": "address",
          "name": "wpAddress",
          "type": "address"
        },
        {
          "indexed": true,
          "internalType": "uint256",
          "name": "expiration",
          "type": "uint256"
        }
      ],
      "name": "TrancheCreated",
      "type": "event"
    },
    {
      "inputs": [],
      "name": "TRANCHE_CREATION_HASH",
      "outputs": [
        {
          "internalType": "bytes32",
          "name": "",
          "type": "bytes32"
        }
      ],
      "stateMutability": "view",
      "type": "function"
    },
    {
      "inputs": [
        {
          "internalType": "uint256",
          "name": "_expiration",
          "type": "uint256"
        },
        {
          "internalType": "address",
          "name": "_wpAddress",
          "type": "address"
        }
      ],
      "name": "_salt2",
      "outputs": [
        {
          "internalType": "bytes",
          "name": "",
          "type": "bytes"
        }
      ],
      "stateMutability": "view",
      "type": "function"
    },
    {
      "inputs": [
        {
          "internalType": "uint256",
          "name": "_expiration",
          "type": "uint256"
        },
        {
          "internalType": "address",
          "name": "_wpAddress",
          "type": "address"
        }
      ],
      "name": "_salt",
      "outputs": [
        {
          "internalType": "bytes32",
          "name": "",
          "type": "bytes32"
        }
      ],
      "stateMutability": "view",
      "type": "function"
    },
    {
      "inputs": [
        {
          "internalType": "uint256",
          "name": "_expiration",
          "type": "uint256"
        },
        {
          "internalType": "address",
          "name": "_wpAddress",
          "type": "address"
        }
      ],
      "name": "deployTranche",
      "outputs": [
        {
          "internalType": "contract Tranche",
          "name": "",
          "type": "address"
        }
      ],
      "stateMutability": "nonpayable",
      "type": "function"
    },
    {
      "inputs": [],
      "name": "getData",
      "outputs": [
        {
          "internalType": "address",
          "name": "",
          "type": "address"
        },
        {
          "internalType": "uint256",
          "name": "",
          "type": "uint256"
        },
        {
          "internalType": "contract IInterestToken",
          "name": "",
          "type": "address"
        },
        {
          "internalType": "address",
          "name": "",
          "type": "address"
        }
      ],
      "stateMutability": "view",
      "type": "function"
    }
  ],
  "bytecode": "0x60c060405234801561001057600080fd5b5060405161321238038061321283398101604081905261002f91610069565b6001600160601b0319606092831b8116608052911b1660a05261009b565b80516001600160a01b038116811461006457600080fd5b919050565b6000806040838503121561007b578182fd5b6100848361004d565b91506100926020840161004d565b90509250929050565b60805160601c60a05160601c61314c6100c6600039600061014b01526000610402015261314c6000f3fe60806040523480156200001157600080fd5b50600436106200005e5760003560e01c80631af3f31714620000635780633bc5de3014620000855780633e84842214620000a15780638e7ff0bd14620000c7578063a7825f7814620000ed575b600080fd5b6200006d62000104565b6040516200007c919062000801565b60405180910390f35b6200008f62000133565b6040516200007c9493929190620007d6565b620000b8620000b2366004620006b8565b62000170565b6040516200007c91906200080a565b620000de620000d8366004620006b8565b620001a1565b6040516200007c91906200081f565b6200006d620000fe366004620006b8565b6200059d565b6040516200011560208201620005d5565b6020820181038252601f19601f820116604052508051906020012081565b6000546001546002546001600160a01b0392831692167f000000000000000000000000000000000000000000000000000000000000000090919293565b606060008284604051602001620001899291906200073b565b60408051808303601f19018152919052949350505050565b600080546001600160a01b0319166001600160a01b038316178155600183905560405182908290620001da90839087906020016200073b565b6040516020818303038152906040528051906020012090506000826001600160a01b03166395d89b416040518163ffffffff1660e01b815260040160006040518083038186803b1580156200022e57600080fd5b505afa15801562000243573d6000803e3d6000fd5b505050506040513d6000823e601f3d908101601f191682016040526200026d919081019062000609565b90506000836001600160a01b031663fc0c546a6040518163ffffffff1660e01b815260040160206040518083038186803b158015620002ab57600080fd5b505afa158015620002c0573d6000803e3d6000fd5b505050506040513d601f19601f82011682018060405250810190620002e69190620005e3565b90506000816001600160a01b031663313ce5676040518163ffffffff1660e01b815260040160206040518083038186803b1580156200032457600080fd5b505afa15801562000339573d6000803e3d6000fd5b505050506040513d601f19601f820116820180604052508101906200035f9190620006ea565b9050600060ff60f81b3086604051806020016200037c90620005d5565b6020820181038252601f19601f8201166040525080519060200120604051602001620003ac94939291906200075d565b60408051601f19818403018152919052805160209091012090506000620003d86001609c1b83620008d5565b620003e8906001609f1b6200086a565b6040516334bc395960e01b81529091506001600160a01b037f000000000000000000000000000000000000000000000000000000000000000016906334bc3959906200043f90849089908f90899060040162000796565b602060405180830381600087803b1580156200045a57600080fd5b505af11580156200046f573d6000803e3d6000fd5b505050506040513d601f19601f82011682018060405250810190620004959190620005e3565b600260006101000a8154816001600160a01b0302191690836001600160a01b03160217905550600086604051620004cc90620005d5565b8190604051809103906000f5905080158015620004ed573d6000803e3d6000fd5b5090508a8a6001600160a01b0316826001600160a01b03167f86944ab3f9722712d06f9d63f492e9893c0c77cc40e512ca1c1f3aaaec6bf2d360405160405180910390a4816001600160a01b0316816001600160a01b0316146200056e5760405162461bcd60e51b8152600401620005659062000833565b60405180910390fd5b600080546001600160a01b031990811682556001919091556002805490911690559a9950505050505050505050565b6000808284604051602001620005b59291906200073b565b60408051808303601f190181529190528051602090910120949350505050565b6127df806200093883390190565b600060208284031215620005f5578081fd5b815162000602816200091e565b9392505050565b6000602082840312156200061b578081fd5b815167ffffffffffffffff8082111562000633578283fd5b818401915084601f83011262000647578283fd5b8151818111156200065c576200065c62000908565b604051601f8201601f19168101602001838111828210171562000683576200068362000908565b6040528181528382016020018710156200069b578485fd5b620006ae826020830160208701620008a2565b9695505050505050565b60008060408385031215620006cb578081fd5b823591506020830135620006df816200091e565b809150509250929050565b600060208284031215620006fc578081fd5b815160ff8116811462000602578182fd5b6000815180845262000727816020860160208601620008a2565b601f01601f19169290920160200192915050565b60609290921b6bffffffffffffffffffffffff19168252601482015260340190565b6001600160f81b031994909416845260609290921b6bffffffffffffffffffffffff191660018401526015830152603582015260550190565b6001600160a01b0385168152608060208201819052600090620007bc908301866200070d565b905083604083015260ff8316606083015295945050505050565b6001600160a01b03948516815260208101939093529083166040830152909116606082015260800190565b90815260200190565b6000602082526200060260208301846200070d565b6001600160a01b0391909116815260200190565b60208082526018908201527f435245415445322061646472657373206d69736d617463680000000000000000604082015260600190565b60006001600160a01b038281168482168083038211156200089957634e487b7160e01b84526011600452602484fd5b01949350505050565b60005b83811015620008bf578181015183820152602001620008a5565b83811115620008cf576000848401525b50505050565b60006001600160a01b0383811680620008fc57634e487b7160e01b83526012600452602483fd5b92169190910692915050565b634e487b7160e01b600052604160045260246000fd5b6001600160a01b03811681146200093457600080fd5b5056fe6101206040523480156200001257600080fd5b50604080518082018252601b81527f4c696265726174696f6e205072696e636970616c20546f6b656e2000000000006020808301918252835180850190945260018452600760fc1b908401528151919291620000719160009162000709565b5080516200008790600190602084019062000709565b506002805460ff1916601217905560036020526000197f3617319a054d772f909f7c479a2cebe5066e836a939412e32403c99029b92eff8190553060009081526040902055620000d66200044f565b7f8b73c3c69bb8fe3d512ecc4cf759cc79239f7b179b0ffacaa9a75d522b39400f60006040516200010891906200091f565b60408051918290038220828201825260018352603160f81b60209384015290516200015b93927fc89efdaa54c0f20c7adf612882df0950f5a951637e0307cdcb4c672f298b8bc691469130910162000a13565b6040516020818303038152906040528051906020012060068190555050506000339050600080600080846001600160a01b0316633bc5de306040518163ffffffff1660e01b8152600401608060405180830381600087803b158015620001c057600080fd5b505af1158015620001d5573d6000803e3d6000fd5b505050506040513d601f19601f82011682018060405250810190620001fb9190620007af565b6001600160601b0319606083811b821660805285901b1660a05261010083905260408051637e062a3560e11b81529051949850929650909450925085916000916001600160a01b0384169163fc0c546a91600480820192602092909190829003018186803b1580156200026d57600080fd5b505afa15801562000282573d6000803e3d6000fd5b505050506040513d601f19601f82011682018060405250810190620002a891906200080a565b9050806001600160a01b031660c0816001600160a01b031660601b815250506000816001600160a01b031663313ce5676040518163ffffffff1660e01b815260040160206040518083038186803b1580156200030357600080fd5b505afa15801562000318573d6000803e3d6000fd5b505050506040513d601f19601f820116820180604052508101906200033e9190620008de565b7fff0000000000000000000000000000000000000000000000000000000000000060f882901b1660e05290506200037581620006f3565b60408051600180825281830190925260009160208083019080368337019050509050600081600081518110620003bb57634e487b7160e01b600052603260045260246000fd5b6001600160a01b0390921660209283029190910190910152604051630809469f60e11b8152730888000000000000000000000000000000000001906310128d3e906200040c908490600401620009c4565b600060405180830381600087803b1580156200042757600080fd5b505af11580156200043c573d6000803e3d6000fd5b5050505050505050505050505062000b2e565b6000339050600080600080846001600160a01b0316633bc5de306040518163ffffffff1660e01b8152600401608060405180830381600087803b1580156200049657600080fd5b505af1158015620004ab573d6000803e3d6000fd5b505050506040513d601f19601f82011682018060405250810190620004d19190620007af565b93509350935093506000846001600160a01b03166395d89b416040518163ffffffff1660e01b815260040160006040518083038186803b1580156200051557600080fd5b505afa1580156200052a573d6000803e3d6000fd5b505050506040513d6000823e601f3d908101601f1916820160405262000554919081019062000830565b60405190915060009060019082906001600160a01b03861690637a0674a360e11b906200058a9087908b90869060240162000a3f565b60408051601f198184030181529181526020820180516001600160e01b03166001600160e01b0319909416939093179092529051620005ca919062000901565b600060405180830381855af49150503d806000811462000607576040519150601f19603f3d011682016040523d82523d6000602084013e6200060c565b606091505b505090506000856001600160a01b031663f40ce94660e01b868a866040516024016200063b9392919062000a3f565b60408051601f198184030181529181526020820180516001600160e01b03166001600160e01b03199094169390931790925290516200067b919062000901565b600060405180830381855af49150503d8060008114620006b8576040519150601f19603f3d011682016040523d82523d6000602084013e620006bd565b606091505b50509050818015620006cc5750805b620006e757634e487b7160e01b600052600160045260246000fd5b50505050505050505050565b6002805460ff191660ff92909216919091179055565b828054620007179062000ac2565b90600052602060002090601f0160209004810192826200073b576000855562000786565b82601f106200075657805160ff191683800117855562000786565b8280016001018555821562000786579182015b828111156200078657825182559160200191906001019062000769565b506200079492915062000798565b5090565b5b8082111562000794576000815560010162000799565b60008060008060808587031215620007c5578384fd5b8451620007d28162000b15565b602086015160408701519195509350620007ec8162000b15565b6060860151909250620007ff8162000b15565b939692955090935050565b6000602082840312156200081c578081fd5b8151620008298162000b15565b9392505050565b60006020828403121562000842578081fd5b81516001600160401b038082111562000859578283fd5b818401915084601f8301126200086d578283fd5b81518181111562000882576200088262000aff565b604051601f8201601f191681016020018381118282101715620008a957620008a962000aff565b604052818152838201602001871015620008c1578485fd5b620008d482602083016020870162000a8f565b9695505050505050565b600060208284031215620008f0578081fd5b815160ff8116811462000829578182fd5b600082516200091581846020870162000a8f565b9190910192915050565b81546000908190600281046001808316806200093c57607f831692505b60208084108214156200095d57634e487b7160e01b87526022600452602487fd5b8180156200097457600181146200098657620009b6565b60ff19861689528489019650620009b6565b620009918a62000a83565b885b86811015620009ae5781548b82015290850190830162000993565b505084890196505b509498975050505050505050565b6020808252825182820181905260009190848201906040850190845b8181101562000a075783516001600160a01b031683529284019291840191600101620009e0565b50909695505050505050565b9485526020850193909352604084019190915260608301526001600160a01b0316608082015260a00190565b600060608252845180606084015262000a6081608085016020890162000a8f565b60208301949094525060408101919091526080601f909201601f19160101919050565b60009081526020902090565b60005b8381101562000aac57818101518382015260200162000a92565b8381111562000abc576000848401525b50505050565b60028104600182168062000ad757607f821691505b6020821081141562000af957634e487b7160e01b600052602260045260246000fd5b50919050565b634e487b7160e01b600052604160045260246000fd5b6001600160a01b038116811462000b2b57600080fd5b50565b60805160601c60a05160601c60c05160601c60e05160f81c61010051611bfa62000be56000396000818161047901528181610a6401528181610bc901528181610e3001526111e00152600050506000818161091301526109ea0152600081816103e901528181610559015281816106a00152818161094301528181610abc01528181610c0d01528181610e9f01528181610fb801526110a30152600081816104d701528181610a200152610daa0152611bfa6000f3fe608060405234801561001057600080fd5b506004361061018e5760003560e01c80636e553f65116100de57806385f45c8811610097578063a9059cbb11610071578063a9059cbb14610302578063aa082a9d14610315578063d505accf1461031d578063dd62ed3e146103305761018e565b806385f45c88146102d4578063884e17f3146102e757806395d89b41146102fa5761018e565b80636e553f65146102735780636f307dc31461029457806370a082311461029c578063764b666c146102af5780637da081a2146102b75780637ecebe00146102c15761018e565b80631d073a7a1161014b578063313ce56711610125578063313ce567146102465780633644e5151461025b578063421b15c11461026357806363cf7cdd1461026b5761018e565b80631d073a7a1461022357806323b872dd1461022b57806330adf81f1461023e5761018e565b8063041be7c21461019357806306fdde03146101b157806309218e91146101c6578063095ea7b3146101db5780631210aac2146101fb57806318160ddd1461021b575b600080fd5b61019b610343565b6040516101a89190611a92565b60405180910390f35b6101b9610359565b6040516101a89190611826565b6101ce6103e7565b6040516101a8919061174e565b6101ee6101e9366004611660565b61040b565b6040516101a891906117c0565b61020e6102093660046116c1565b610475565b6040516101a891906117cb565b61020e610739565b6101ce610748565b6101ee6102393660046115b4565b610760565b61020e6108c6565b61024e6108ea565b6040516101a89190611ab4565b61020e6108f3565b61020e6108f9565b61019b6108ff565b6102866102813660046116c1565b61090e565b6040516101a8929190611aa6565b6101ce6109e8565b61020e6102aa366004611568565b610a0c565b6101ce610a1e565b6102bf610a42565b005b61020e6102cf366004611568565b610bb2565b6102866102e2366004611568565b610bc4565b61020e6102f53660046116c1565b610e2c565b6101b96111bd565b6101ee610310366004611660565b6111ca565b61020e6111de565b6102bf61032b3660046115ef565b611202565b61020e61033e366004611582565b611440565b600754600160801b90046001600160801b031681565b6000805461036690611b58565b80601f016020809104026020016040519081016040528092919081815260200182805461039290611b58565b80156103df5780601f106103b4576101008083540402835291602001916103df565b820191906000526020600020905b8154815290600101906020018083116103c257829003601f168201915b505050505081565b7f000000000000000000000000000000000000000000000000000000000000000081565b3360008181526004602090815260408083206001600160a01b038716808552925280832085905551919290917f8c5be1e5ebec7d5bd14f71427d1e84f3dd0314c0f7b2291e5b200ac8c7c3b925906104649086906117cb565b60405180910390a350600192915050565b60007f00000000000000000000000000000000000000000000000000000000000000004210156104c05760405162461bcd60e51b81526004016104b79061196b565b60405180910390fd5b604051632770a7eb60e21b81526001600160a01b037f00000000000000000000000000000000000000000000000000000000000000001690639dc29fac9061050e9033908790600401611786565b600060405180830381600087803b15801561052857600080fd5b505af115801561053c573d6000803e3d6000fd5b5050604051633af9e66960e01b8152600092506001600160a01b037f0000000000000000000000000000000000000000000000000000000000000000169150633af9e6699061058f90309060040161174e565b60206040518083038186803b1580156105a757600080fd5b505afa1580156105bb573d6000803e3d6000fd5b505050506040513d601f19601f820116820180604052508101906105df91906116a9565b6007549091506001600160801b0380821691600160801b9004166000828411610609576000610613565b6106138385611b41565b90506000826106228984611afa565b61062c9190611ada565b90506000670de0b6b3a76400006106496509184e72a00084611afa565b6106539190611ada565b61065d9083611b41565b90506106698985611b41565b600780546001600160801b03928316600160801b0292169190911790556040516367caf87160e01b81526000906001600160a01b037f000000000000000000000000000000000000000000000000000000000000000016906367caf871906106d9908c908790879060040161179f565b6040805180830381600087803b1580156106f257600080fd5b505af1158015610706573d6000803e3d6000fd5b505050506040513d601f19601f8201168201806040525081019061072a91906116e3565b509a9950505050505050505050565b6007546001600160801b031690565b73088800000000000000000000000000000000000181565b6001600160a01b038316600090815260036020526040812054828110156107995760405162461bcd60e51b81526004016104b790611a5b565b6001600160a01b0385163314610827576001600160a01b0385166000908152600460209081526040808320338452909152902054600019811461082557838110156107f65760405162461bcd60e51b81526004016104b790611879565b6108008482611b41565b6001600160a01b03871660009081526004602090815260408083203384529091529020555b505b6108318382611b41565b6001600160a01b038087166000908152600360205260408082209390935590861681522054610861908490611ac2565b6001600160a01b0380861660008181526003602052604090819020939093559151908716907fddf252ad1be2c89b69c2b068fc378daa952ba7f163c4a11628f55a4df523b3ef906108b39087906117cb565b60405180910390a3506001949350505050565b7f6e71edae12b1b97f4d1f60370fef10105fa2faae0126114a169c64845d6126c981565b60025460ff1681565b60065481565b60085481565b6007546001600160801b031681565b6000807f00000000000000000000000000000000000000000000000000000000000000006001600160a01b03166323b872dd337f0000000000000000000000000000000000000000000000000000000000000000876040518463ffffffff1660e01b815260040161098193929190611762565b602060405180830381600087803b15801561099b57600080fd5b505af11580156109af573d6000803e3d6000fd5b505050506040513d601f19601f820116820180604052508101906109d39190611689565b506109dd83610bc4565b915091509250929050565b7f000000000000000000000000000000000000000000000000000000000000000081565b60036020526000908152604090205481565b7f000000000000000000000000000000000000000000000000000000000000000081565b60085415610a625760405162461bcd60e51b81526004016104b7906119c1565b7f0000000000000000000000000000000000000000000000000000000000000000421015610aa25760405162461bcd60e51b81526004016104b79061196b565b604051633af9e66960e01b81526000906001600160a01b037f00000000000000000000000000000000000000000000000000000000000000001690633af9e66990610af190309060040161174e565b60206040518083038186803b158015610b0957600080fd5b505afa158015610b1d573d6000803e3d6000fd5b505050506040513d601f19601f82011682018060405250810190610b4191906116a9565b6007549091506001600160801b0316811015610b97577ff7f87880c827db1e5aaa7a648e710c6e9c3a608de27471889dbd94199232c31f42604051610b8691906117cb565b60405180910390a142600855610baf565b60405162461bcd60e51b81526004016104b790611a39565b50565b60056020526000908152604090205481565b6000807f00000000000000000000000000000000000000000000000000000000000000004210610c065760405162461bcd60e51b81526004016104b79061194a565b60008060007f00000000000000000000000000000000000000000000000000000000000000006001600160a01b03166385f45c88306040518263ffffffff1660e01b8152600401610c57919061174e565b606060405180830381600087803b158015610c7157600080fd5b505af1158015610c85573d6000803e3d6000fd5b505050506040513d601f19601f82011682018060405250810190610ca99190611706565b91945092509050600083610cbd8484611afa565b610cc79190611ada565b6007549091506001600160801b0380821691600160801b900416610cec836002611ac2565b821115610d0b5760405162461bcd60e51b81526004016104b790611a16565b60008083118015610d1b57508284115b15610d51578186610d2c8587611b41565b610d369190611afa565b610d409190611ada565b610d4a9087611b41565b9050610d54565b50845b610d5e8184611ac2565b610d688784611ac2565b600780546001600160801b03938416928416600160801b029316929092176001600160801b0319161790556040516340c10f1960e01b81526001600160a01b037f000000000000000000000000000000000000000000000000000000000000000016906340c10f1990610de1908d908a90600401611786565b600060405180830381600087803b158015610dfb57600080fd5b505af1158015610e0f573d6000803e3d6000fd5b50505050610e1d8a8261145d565b97509395505050505050915091565b60007f0000000000000000000000000000000000000000000000000000000000000000421015610e6e5760405162461bcd60e51b81526004016104b79061196b565b60085460075484906001600160801b03168215610f7257604051633af9e66960e01b81526000906001600160a01b037f00000000000000000000000000000000000000000000000000000000000000001690633af9e66990610ed490309060040161174e565b60206040518083038186803b158015610eec57600080fd5b505afa158015610f00573d6000803e3d6000fd5b505050506040513d601f19601f82011682018060405250810190610f2491906116a9565b905081811015610f705781610f398289611afa565b610f439190611ada565b925042610f536202a30086611ac2565b10610f705760405162461bcd60e51b81526004016104b7906118b0565b505b610f7c33876114dc565b610f868682611b19565b600780546001600160801b0319166001600160801b03929092169190911790556040516370a0823160e01b81526000907f00000000000000000000000000000000000000000000000000000000000000006001600160a01b0316906370a0823190610ff590309060040161174e565b60206040518083038186803b15801561100d57600080fd5b505afa158015611021573d6000803e3d6000fd5b505050506040513d601f19601f8201168201806040525081019061104591906116a9565b905060006509184e72a000670de0b6b3a7640000816110648188611afa565b61106e9190611afa565b6110789190611ada565b6110886509184e72a00087611afa565b6110929190611b41565b61109c9190611ada565b90506000807f00000000000000000000000000000000000000000000000000000000000000006001600160a01b03166367caf8718a88866040518463ffffffff1660e01b81526004016110f19392919061179f565b6040805180830381600087803b15801561110a57600080fd5b505af115801561111e573d6000803e3d6000fd5b505050506040513d601f19601f8201168201806040525081019061114291906116e3565b90925090506000816111548487611afa565b61115e9190611ada565b9050858110156111ae57876111855760405162461bcd60e51b81526004016104b790611a16565b426111936202a3008a611ac2565b106111ae57634e487b7160e01b600052600160045260246000fd5b50909998505050505050505050565b6001805461036690611b58565b60006111d7338484610760565b9392505050565b7f000000000000000000000000000000000000000000000000000000000000000081565b6006546001600160a01b038816600090815260056020908152604080832054905192939261125b927f6e71edae12b1b97f4d1f60370fef10105fa2faae0126114a169c64845d6126c9928d928d928d92918d91016117d4565b60405160208183030381529060405280519060200120604051602001611282929190611733565b60408051601f19818403018152919052805160209091012090506001600160a01b0388166112c25760405162461bcd60e51b81526004016104b790611913565b600181858585604051600081526020016040526040516112e59493929190611808565b6020604051602081039080840390855afa158015611307573d6000803e3d6000fd5b505050602060405103516001600160a01b0316886001600160a01b0316146113415760405162461bcd60e51b81526004016104b790611992565b84158061134e5750844211155b61136a5760405162461bcd60e51b81526004016104b7906119e7565b7f7fffffffffffffffffffffffffffffff5d576e7357a4501ddfe92f46681b20a08211156113aa5760405162461bcd60e51b81526004016104b7906118d1565b6001600160a01b03881660009081526005602052604081208054916113ce83611b93565b90915550506001600160a01b038089166000818152600460209081526040808320948c168084529490915290819020899055517f8c5be1e5ebec7d5bd14f71427d1e84f3dd0314c0f7b2291e5b200ac8c7c3b9259061142e908a906117cb565b60405180910390a35050505050505050565b600460209081526000928352604080842090915290825290205481565b6001600160a01b038216600090815260036020526040902054611481908290611ac2565b6001600160a01b0383166000818152600360205260408082209390935591519091907fddf252ad1be2c89b69c2b068fc378daa952ba7f163c4a11628f55a4df523b3ef906114d09085906117cb565b60405180910390a35050565b6001600160a01b038216600090815260036020526040902054611500908290611b41565b6001600160a01b0383166000818152600360205260408082209390935591517fddf252ad1be2c89b69c2b068fc378daa952ba7f163c4a11628f55a4df523b3ef906114d09085906117cb565b80356001600160a01b038116811461156357600080fd5b919050565b600060208284031215611579578081fd5b6111d78261154c565b60008060408385031215611594578081fd5b61159d8361154c565b91506115ab6020840161154c565b90509250929050565b6000806000606084860312156115c8578081fd5b6115d18461154c565b92506115df6020850161154c565b9150604084013590509250925092565b600080600080600080600060e0888a031215611609578283fd5b6116128861154c565b96506116206020890161154c565b95506040880135945060608801359350608088013560ff81168114611643578384fd5b9699959850939692959460a0840135945060c09093013592915050565b60008060408385031215611672578182fd5b61167b8361154c565b946020939093013593505050565b60006020828403121561169a578081fd5b815180151581146111d7578182fd5b6000602082840312156116ba578081fd5b5051919050565b600080604083850312156116d3578182fd5b823591506115ab6020840161154c565b600080604083850312156116f5578182fd5b505080516020909101519092909150565b60008060006060848603121561171a578283fd5b8351925060208401519150604084015190509250925092565b61190160f01b81526002810192909252602282015260420190565b6001600160a01b0391909116815260200190565b6001600160a01b039384168152919092166020820152604081019190915260600190565b6001600160a01b03929092168252602082015260400190565b6001600160a01b039390931683526020830191909152604082015260600190565b901515815260200190565b90815260200190565b9586526001600160a01b0394851660208701529290931660408501526060840152608083019190915260a082015260c00190565b93845260ff9290921660208401526040830152606082015260800190565b6000602080835283518082850152825b8181101561185257858101830151858201604001528201611836565b818111156118635783604083870101525b50601f01601f1916929092016040019392505050565b6020808252601d908201527f45524332303a20696e73756666696369656e742d616c6c6f77616e6365000000604082015260600190565b602080825260079082015266453a4561726c7960c81b604082015260600190565b60208082526022908201527f45524332303a20696e76616c6964207369676e6174757265202773272076616c604082015261756560f01b606082015260800190565b60208082526018908201527f45524332303a20696e76616c69642d616464726573732d300000000000000000604082015260600190565b602080825260079082015266195e1c1a5c995960ca1b604082015260600190565b6020808252600d908201526c114e939bdd08115e1c1a5c9959609a1b604082015260600190565b602080825260159082015274115490cc8c0e881a5b9d985b1a590b5c195c9b5a5d605a1b604082015260600190565b6020808252600c908201526b114e905b1c9958591e54d95d60a21b604082015260600190565b602080825260159082015274115490cc8c0e881c195c9b5a5d0b595e1c1a5c9959605a1b604082015260600190565b602080825260099082015268114e939151d7d2539560ba1b604082015260600190565b602080825260089082015267453a4e6f4c6f737360c01b604082015260600190565b6020808252601b908201527f45524332303a20696e73756666696369656e742d62616c616e63650000000000604082015260600190565b6001600160801b0391909116815260200190565b918252602082015260400190565b60ff91909116815260200190565b60008219821115611ad557611ad5611bae565b500190565b600082611af557634e487b7160e01b81526012600452602481fd5b500490565b6000816000190483118215151615611b1457611b14611bae565b500290565b60006001600160801b0383811690831681811015611b3957611b39611bae565b039392505050565b600082821015611b5357611b53611bae565b500390565b600281046001821680611b6c57607f821691505b60208210811415611b8d57634e487b7160e01b600052602260045260246000fd5b50919050565b6000600019821415611ba757611ba7611bae565b5060010190565b634e487b7160e01b600052601160045260246000fdfea2646970667358221220b0e894556602d4477a04907d23eba6091592e513460a3945ec6431744b5a826d64736f6c63430008000033a2646970667358221220fb140feb5e0e1a2e940595e4906412505235caa76c15d34236914ecaed18876364736f6c63430008000033",
  "immutableReferences": {
    "940": [
      {
        "length": 32,
        "start": 1026
      }
    ],
    "957": [
      {
        "length": 32,
        "start": 331
      }
    ]
  },
  "source": "// SPDX-License-Identifier: Apache-2.0\r\n\r\nimport \"../Tranche.sol\";\r\nimport \"../interfaces/IWrappedPosition.sol\";\r\nimport \"../interfaces/IERC20.sol\";\r\nimport \"../interfaces/IInterestTokenFactory.sol\";\r\nimport \"../interfaces/IInterestToken.sol\";\r\n\r\npragma solidity ^0.8.0;\r\n\r\n/// @author WontonData\r\n/// @title Tranche Factory\r\ncontract TrancheFactory {\r\n    /// @dev An event to track tranche creations\r\n    /// @param trancheAddress the address of the tranche contract\r\n    /// @param wpAddress the address of the wrapped position\r\n    /// @param expiration the expiration time of the tranche\r\n    event TrancheCreated(\r\n        address indexed trancheAddress,\r\n        address indexed wpAddress,\r\n        uint256 indexed expiration\r\n    );\r\n\r\n    IInterestTokenFactory internal immutable _interestTokenFactory;\r\n    address internal _tempWpAddress;\r\n    uint256 internal _tempExpiration;\r\n    IInterestToken internal _tempInterestToken;\r\n    bytes32 public constant TRANCHE_CREATION_HASH = keccak256(\r\n        type(Tranche).creationCode\r\n    );\r\n    // The address of our date library\r\n    address internal immutable _dateLibrary;\r\n\r\n    /// @notice Create a new Tranche.\r\n    /// @param _factory Address of the interest token factory.\r\n    constructor(address _factory, address dateLibrary) {\r\n        _interestTokenFactory = IInterestTokenFactory(_factory);\r\n        _dateLibrary = dateLibrary;\r\n    }\r\n    function  _salt2(uint256 _expiration, address _wpAddress)public view returns(bytes memory){\r\n        \r\n        bytes memory salt = abi.encodePacked(_wpAddress, _expiration);\r\n        return salt;\r\n    }\r\n    function _salt(uint256 _expiration, address _wpAddress)public view returns(bytes32){\r\n        \r\n        bytes32 salt = keccak256(abi.encodePacked(_wpAddress, _expiration));\r\n        return salt;\r\n    }\r\n\r\n    /// @notice Deploy a new Tranche contract.\r\n    /// @param _expiration The expiration timestamp for the tranche.\r\n    /// @param _wpAddress Address of the Wrapped Position contract the tranche will use.\r\n    /// @return The deployed Tranche contract.\r\n    function deployTranche(uint256 _expiration, address _wpAddress)\r\n        public\r\n        returns (Tranche)\r\n    {\r\n        _tempWpAddress = _wpAddress;\r\n        _tempExpiration = _expiration;\r\n\r\n        IWrappedPosition wpContract = IWrappedPosition(_wpAddress);\r\n        bytes32 salt = keccak256(abi.encodePacked(_wpAddress, _expiration));\r\n        string memory wpSymbol = wpContract.symbol();\r\n        IERC20 underlying = wpContract.token();\r\n        uint8 underlyingDecimals = underlying.decimals();\r\n\r\n        // derive the expected tranche address\r\n        uint160 addressUint =  uint160(\r\n            uint256(\r\n                keccak256(\r\n                    abi.encodePacked(\r\n                        bytes1(0xff),\r\n                        address(this),\r\n                        salt,\r\n                        TRANCHE_CREATION_HASH\r\n                    )\r\n                )\r\n            )\r\n        );\r\n        // 8 * 16 * 39 + num % ( 16 ** 39 )\r\n        address predictedAddress = address(\r\n            uint160(730750818665451459101842416358141509827966271488 + addressUint % (91343852333181432387730302044767688728495783936))\r\n        );\r\n\r\n        _tempInterestToken = _interestTokenFactory.deployInterestToken(\r\n            predictedAddress,\r\n            wpSymbol,\r\n            _expiration,\r\n            underlyingDecimals\r\n        );\r\n\r\n        Tranche tranche = new Tranche{ salt: salt }();\r\n        emit TrancheCreated(address(tranche), _wpAddress, _expiration);\r\n        require(\r\n            address(tranche) == predictedAddress,\r\n            \"CREATE2 address mismatch\"\r\n        );\r\n\r\n        // set back to 0-value for some gas savings\r\n        delete _tempWpAddress;\r\n        delete _tempExpiration;\r\n        delete _tempInterestToken;\r\n\r\n        return tranche;\r\n    }\r\n\r\n    /// @notice Callback function called by the Tranche.\r\n    /// @dev This is called by the Tranche contract constructor.\r\n    /// The return data is used for Tranche initialization. Using this, the Tranche avoids\r\n    /// constructor arguments which can make the Tranche bytecode needed for create2 address\r\n    /// derivation non-constant.\r\n    /// @return Wrapped Position contract address, expiration timestamp, and interest token contract\r\n    function getData()\r\n        external\r\n        view\r\n        returns (\r\n            address,\r\n            uint256,\r\n            IInterestToken,\r\n            address\r\n        )\r\n    {\r\n        return (\r\n            _tempWpAddress,\r\n            _tempExpiration,\r\n            _tempInterestToken,\r\n            _dateLibrary\r\n        );\r\n    }\r\n}\r\n",
  "sourcePath": "/f/BlockChain/conflux/contract/Liberation-fi/contracts/factories/TrancheFactory.sol",
  "compiler": {
    "name": "solc",
    "version": "0.8.0+commit.c7dfd78e.Emscripten.clang"
  },
  "schemaVersion": "3.3.4",
  "updatedAt": "2021-09-11T14:16:38.232Z",
  "devdoc": {
    "author": "WontonData",
    "events": {
      "TrancheCreated(address,address,uint256)": {
        "details": "An event to track tranche creations",
        "params": {
          "expiration": "the expiration time of the tranche",
          "trancheAddress": "the address of the tranche contract",
          "wpAddress": "the address of the wrapped position"
        }
      }
    },
    "kind": "dev",
    "methods": {
      "constructor": {
        "params": {
          "_factory": "Address of the interest token factory."
        }
      },
      "deployTranche(uint256,address)": {
        "params": {
          "_expiration": "The expiration timestamp for the tranche.",
          "_wpAddress": "Address of the Wrapped Position contract the tranche will use."
        },
        "returns": {
          "_0": "The deployed Tranche contract."
        }
      },
      "getData()": {
        "details": "This is called by the Tranche contract constructor. The return data is used for Tranche initialization. Using this, the Tranche avoids constructor arguments which can make the Tranche bytecode needed for create2 address derivation non-constant.",
        "returns": {
          "_0": "Wrapped Position contract address, expiration timestamp, and interest token contract"
        }
      }
    },
    "title": "Tranche Factory",
    "version": 1
  },
  "userdoc": {
    "kind": "user",
    "methods": {
      "constructor": {
        "notice": "Create a new Tranche."
      },
      "deployTranche(uint256,address)": {
        "notice": "Deploy a new Tranche contract."
      },
      "getData()": {
        "notice": "Callback function called by the Tranche."
      }
    },
    "version": 1
  }
}