{
  "contractName": "UserProxy",
  "abi": [
    {
      "inputs": [
        {
          "internalType": "contract IWETH",
          "name": "_weth",
          "type": "address"
        },
        {
          "internalType": "address",
          "name": "__trancheFactory",
          "type": "address"
        },
        {
          "internalType": "bytes32",
          "name": "__trancheBytecodeHash",
          "type": "bytes32"
        }
      ],
      "stateMutability": "nonpayable",
      "type": "constructor"
    },
    {
      "inputs": [],
      "name": "SPONSOR",
      "outputs": [
        {
          "internalType": "contract SponsorWhitelistControl",
          "name": "",
          "type": "address"
        }
      ],
      "stateMutability": "view",
      "type": "function"
    },
    {
      "inputs": [
        {
          "internalType": "address",
          "name": "who",
          "type": "address"
        }
      ],
      "name": "authorize",
      "outputs": [],
      "stateMutability": "nonpayable",
      "type": "function"
    },
    {
      "inputs": [
        {
          "internalType": "address",
          "name": "",
          "type": "address"
        }
      ],
      "name": "authorized",
      "outputs": [
        {
          "internalType": "bool",
          "name": "",
          "type": "bool"
        }
      ],
      "stateMutability": "view",
      "type": "function"
    },
    {
      "inputs": [
        {
          "internalType": "address",
          "name": "who",
          "type": "address"
        }
      ],
      "name": "deauthorize",
      "outputs": [],
      "stateMutability": "nonpayable",
      "type": "function"
    },
    {
      "inputs": [
        {
          "internalType": "address",
          "name": "who",
          "type": "address"
        }
      ],
      "name": "isAuthorized",
      "outputs": [
        {
          "internalType": "bool",
          "name": "",
          "type": "bool"
        }
      ],
      "stateMutability": "view",
      "type": "function"
    },
    {
      "inputs": [],
      "name": "isFrozen",
      "outputs": [
        {
          "internalType": "bool",
          "name": "",
          "type": "bool"
        }
      ],
      "stateMutability": "view",
      "type": "function"
    },
    {
      "inputs": [],
      "name": "owner",
      "outputs": [
        {
          "internalType": "address",
          "name": "",
          "type": "address"
        }
      ],
      "stateMutability": "view",
      "type": "function"
    },
    {
      "inputs": [
        {
          "internalType": "address",
          "name": "who",
          "type": "address"
        }
      ],
      "name": "setOwner",
      "outputs": [],
      "stateMutability": "nonpayable",
      "type": "function"
    },
    {
      "inputs": [],
      "name": "weth",
      "outputs": [
        {
          "internalType": "contract IWETH",
          "name": "",
          "type": "address"
        }
      ],
      "stateMutability": "view",
      "type": "function"
    },
    {
      "stateMutability": "payable",
      "type": "receive"
    },
    {
      "inputs": [
        {
          "internalType": "bool",
          "name": "_newState",
          "type": "bool"
        }
      ],
      "name": "setIsFrozen",
      "outputs": [],
      "stateMutability": "nonpayable",
      "type": "function"
    },
    {
      "inputs": [
        {
          "internalType": "uint256",
          "name": "_amount",
          "type": "uint256"
        },
        {
          "internalType": "contract IERC20",
          "name": "_underlying",
          "type": "address"
        },
        {
          "internalType": "uint256",
          "name": "_expiration",
          "type": "uint256"
        },
        {
          "internalType": "address",
          "name": "_position",
          "type": "address"
        },
        {
          "components": [
            {
              "internalType": "contract IERC20Permit",
              "name": "tokenContract",
              "type": "address"
            },
            {
              "internalType": "address",
              "name": "who",
              "type": "address"
            },
            {
              "internalType": "uint256",
              "name": "amount",
              "type": "uint256"
            },
            {
              "internalType": "uint256",
              "name": "expiration",
              "type": "uint256"
            },
            {
              "internalType": "bytes32",
              "name": "r",
              "type": "bytes32"
            },
            {
              "internalType": "bytes32",
              "name": "s",
              "type": "bytes32"
            },
            {
              "internalType": "uint8",
              "name": "v",
              "type": "uint8"
            }
          ],
          "internalType": "struct UserProxy.PermitData[]",
          "name": "_permitCallData",
          "type": "tuple[]"
        }
      ],
      "name": "mint",
      "outputs": [
        {
          "internalType": "uint256",
          "name": "",
          "type": "uint256"
        },
        {
          "internalType": "uint256",
          "name": "",
          "type": "uint256"
        }
      ],
      "stateMutability": "payable",
      "type": "function"
    },
    {
      "inputs": [
        {
          "internalType": "uint256",
          "name": "_expiration",
          "type": "uint256"
        },
        {
          "internalType": "address",
          "name": "_position",
          "type": "address"
        },
        {
          "internalType": "uint256",
          "name": "_amountPT",
          "type": "uint256"
        },
        {
          "internalType": "uint256",
          "name": "_amountYT",
          "type": "uint256"
        },
        {
          "components": [
            {
              "internalType": "contract IERC20Permit",
              "name": "tokenContract",
              "type": "address"
            },
            {
              "internalType": "address",
              "name": "who",
              "type": "address"
            },
            {
              "internalType": "uint256",
              "name": "amount",
              "type": "uint256"
            },
            {
              "internalType": "uint256",
              "name": "expiration",
              "type": "uint256"
            },
            {
              "internalType": "bytes32",
              "name": "r",
              "type": "bytes32"
            },
            {
              "internalType": "bytes32",
              "name": "s",
              "type": "bytes32"
            },
            {
              "internalType": "uint8",
              "name": "v",
              "type": "uint8"
            }
          ],
          "internalType": "struct UserProxy.PermitData[]",
          "name": "_permitCallData",
          "type": "tuple[]"
        }
      ],
      "name": "withdrawWeth",
      "outputs": [],
      "stateMutability": "nonpayable",
      "type": "function"
    },
    {
      "inputs": [],
      "name": "deprecate",
      "outputs": [],
      "stateMutability": "nonpayable",
      "type": "function"
    }
  ],
  "bytecode": "0x60e06040526002805460ff191690553480156200001b57600080fd5b5060405162001733380380620017338339810160408190526200003e9162000179565b600080546001600160a01b031916339081179091556200005e9062000152565b6001600160601b0319606084811b821660805283901b1660a05260c081905260408051600180825281830190925260009160208083019080368337019050509050600081600081518110620000c357634e487b7160e01b600052603260045260246000fd5b6001600160a01b0390921660209283029190910190910152604051630809469f60e11b8152730888000000000000000000000000000000000001906310128d3e9062000114908490600401620001c0565b600060405180830381600087803b1580156200012f57600080fd5b505af115801562000144573d6000803e3d6000fd5b505050505050505062000228565b6001600160a01b03166000908152600160208190526040909120805460ff19169091179055565b6000806000606084860312156200018e578283fd5b83516200019b816200020f565b6020850151909350620001ae816200020f565b80925050604084015190509250925092565b6020808252825182820181905260009190848201906040850190845b81811015620002035783516001600160a01b031683529284019291840191600101620001dc565b50909695505050505050565b6001600160a01b03811681146200022557600080fd5b50565b60805160601c60a05160601c60c0516114b3620002806000396000610dbf01526000610d9b01526000818160d601528181610384015281816104af0152818161088701528181610a9c0152610b2201526114b36000f3fe6080604052600436106100c65760003560e01c806364eda74b1161007f578063b6a5d7de11610059578063b6a5d7de14610213578063b841d2d214610233578063b918161114610254578063fe9fbb801461027457610102565b806364eda74b146101be5780636f1ea24c146101de5780638da5cb5b146101fe57610102565b80630fcc0c281461010757806313af40351461011c5780631d073a7a1461013c57806327c97fa51461016757806333eeb147146101875780633fc8cef3146101a957610102565b3661010257336001600160a01b037f0000000000000000000000000000000000000000000000000000000000000000161461010057600080fd5b005b600080fd5b34801561011357600080fd5b50610100610294565b34801561012857600080fd5b50610100610137366004610f28565b6102ca565b34801561014857600080fd5b50610151610316565b60405161015e91906111a1565b60405180910390f35b34801561017357600080fd5b50610100610182366004610f28565b61032e565b34801561019357600080fd5b5061019c610379565b60405161015e9190611233565b3480156101b557600080fd5b50610151610382565b3480156101ca57600080fd5b506101006101d9366004610f4b565b6103a6565b3480156101ea57600080fd5b506101006101f9366004611056565b6103de565b34801561020a57600080fd5b5061015161094a565b34801561021f57600080fd5b5061010061022e366004610f28565b610959565b6102466102413660046110c7565b61098f565b60405161015e929190611403565b34801561026057600080fd5b5061019c61026f366004610f28565b610c97565b34801561028057600080fd5b5061019c61028f366004610f28565b610cac565b6000546001600160a01b031633146102c75760405162461bcd60e51b81526004016102be90611263565b60405180910390fd5b33ff5b6000546001600160a01b031633146102f45760405162461bcd60e51b81526004016102be90611263565b600080546001600160a01b0319166001600160a01b0392909216919091179055565b73088800000000000000000000000000000000000181565b6000546001600160a01b031633146103585760405162461bcd60e51b81526004016102be90611263565b6001600160a01b03166000908152600160205260409020805460ff19169055565b60025460ff1681565b7f000000000000000000000000000000000000000000000000000000000000000081565b6103af33610cac565b6103cb5760405162461bcd60e51b81526004016102be9061128d565b6002805460ff1916911515919091179055565b60025460ff16156104015760405162461bcd60e51b81526004016102be906113ba565b8181808060200260200160405190810160405280939291908181526020016000905b8282101561044f5761044060e08302860136819003810190610f9f565b81526020019060010190610423565b505050505080516000146104ad5760005b81518110156104ab5761049982828151811061048c57634e487b7160e01b600052603260045260246000fd5b6020026020010151610cce565b806104a381611429565b915050610460565b505b7f00000000000000000000000000000000000000000000000000000000000000006001600160a01b0316866001600160a01b031663fc0c546a6040518163ffffffff1660e01b815260040160206040518083038186803b15801561051057600080fd5b505afa158015610524573d6000803e3d6000fd5b505050506040513d601f19601f820116820180604052508101906105489190610f83565b6001600160a01b03161461056e5760405162461bcd60e51b81526004016102be906112e6565b8415158061057b57508315155b6105975760405162461bcd60e51b81526004016102be906112bc565b60006105a38789610d57565b905060008087156106b4576040516323b872dd60e01b81526001600160a01b038416906323b872dd906105de90339030908d906004016111b5565b602060405180830381600087803b1580156105f857600080fd5b505af115801561060c573d6000803e3d6000fd5b505050506040513d601f19601f820116820180604052508101906106309190610f67565b5060405163884e17f360e01b81526001600160a01b0384169063884e17f39061065f908b9030906004016113ec565b602060405180830381600087803b15801561067957600080fd5b505af115801561068d573d6000803e3d6000fd5b505050506040513d601f19601f820116820180604052508101906106b1919061103e565b91505b8615610837576000836001600160a01b031663764b666c6040518163ffffffff1660e01b815260040160206040518083038186803b1580156106f557600080fd5b505afa158015610709573d6000803e3d6000fd5b505050506040513d601f19601f8201168201806040525081019061072d9190610f83565b6040516323b872dd60e01b81529091506001600160a01b038216906323b872dd9061076090339030908d906004016111b5565b602060405180830381600087803b15801561077a57600080fd5b505af115801561078e573d6000803e3d6000fd5b505050506040513d601f19601f820116820180604052508101906107b29190610f67565b50604051630908556160e11b81526001600160a01b03851690631210aac2906107e1908b9030906004016113ec565b602060405180830381600087803b1580156107fb57600080fd5b505af115801561080f573d6000803e3d6000fd5b505050506040513d601f19601f82011682018060405250810190610833919061103e565b9150505b871561085a578161085a5760405162461bcd60e51b81526004016102be9061130e565b861561087d578061087d5760405162461bcd60e51b81526004016102be9061132e565b6001600160a01b037f000000000000000000000000000000000000000000000000000000000000000016632e1a7d4d6108b68385611411565b6040518263ffffffff1660e01b81526004016108d291906113e3565b600060405180830381600087803b1580156108ec57600080fd5b505af1158015610900573d6000803e3d6000fd5b503392506108fc915061091590508385611411565b6040518115909202916000818181858888f1935050505015801561093d573d6000803e3d6000fd5b5050505050505050505050565b6000546001600160a01b031681565b6000546001600160a01b031633146109835760405162461bcd60e51b81526004016102be90611263565b61098c81610e06565b50565b600254600090819060ff16156109b75760405162461bcd60e51b81526004016102be906113ba565b8383808060200260200160405190810160405280939291908181526020016000905b82821015610a05576109f660e08302860136819003810190610f9f565b815260200190600101906109d9565b50505050508051600014610a565760005b8151811015610a5457610a4282828151811061048c57634e487b7160e01b600052603260045260246000fd5b80610a4c81611429565b915050610a16565b505b6001600160a01b03881673eeeeeeeeeeeeeeeeeeeeeeeeeeeeeeeeeeeeeeee1415610bb457883414610a9a5760405162461bcd60e51b81526004016102be90611383565b7f00000000000000000000000000000000000000000000000000000000000000006001600160a01b031663d0e30db0346040518263ffffffff1660e01b81526004016000604051808303818588803b158015610af557600080fd5b505af1158015610b09573d6000803e3d6000fd5b505060405163a9059cbb60e01b81526001600160a01b037f000000000000000000000000000000000000000000000000000000000000000016935063a9059cbb9250610b5c915089908d9060040161121a565b602060405180830381600087803b158015610b7657600080fd5b505af1158015610b8a573d6000803e3d6000fd5b505050506040513d601f19601f82011682018060405250810190610bae9190610f67565b50610c56565b3415610bd25760405162461bcd60e51b81526004016102be9061123e565b6040516323b872dd60e01b81526001600160a01b038916906323b872dd90610c029033908a908e906004016111b5565b602060405180830381600087803b158015610c1c57600080fd5b505af1158015610c30573d6000803e3d6000fd5b505050506040513d601f19601f82011682018060405250810190610c549190610f67565b505b600080610c638989610e2d565b915091508a811015610c875760405162461bcd60e51b81526004016102be90611358565b909a909950975050505050505050565b60016020526000908152604090205460ff1681565b6001600160a01b03811660009081526001602052604090205460ff165b919050565b80600001516001600160a01b031663d505accf338360200151846040015185606001518660c0015187608001518860a001516040518863ffffffff1660e01b8152600401610d2297969594939291906111d9565b600060405180830381600087803b158015610d3c57600080fd5b505af1158015610d50573d6000803e3d6000fd5b5050505050565b6000808383604051602001610d6d929190611146565b60408051601f198184030181529082905280516020918201209250600091610de5916001600160f81b0319917f00000000000000000000000000000000000000000000000000000000000000009186917f00000000000000000000000000000000000000000000000000000000000000009101611168565b60408051808303601f19018152919052805160209091012095945050505050565b6001600160a01b03166000908152600160208190526040909120805460ff19169091179055565b6000806000610e3c8486610d57565b6040516310be8b9160e31b81529091506001600160a01b038216906385f45c8890610e6b9033906004016111a1565b6040805180830381600087803b158015610e8457600080fd5b505af1158015610e98573d6000803e3d6000fd5b505050506040513d601f19601f82011682018060405250810190610ebc9190611123565b92509250505b9250929050565b8035610cc98161145a565b60008083601f840112610ee5578182fd5b50813567ffffffffffffffff811115610efc578182fd5b60208301915083602060e083028501011115610ec257600080fd5b803560ff81168114610cc957600080fd5b600060208284031215610f39578081fd5b8135610f448161145a565b9392505050565b600060208284031215610f5c578081fd5b8135610f448161146f565b600060208284031215610f78578081fd5b8151610f448161146f565b600060208284031215610f94578081fd5b8151610f448161145a565b600060e08284031215610fb0578081fd5b60405160e0810181811067ffffffffffffffff82111715610fdf57634e487b7160e01b83526041600452602483fd5b604052610feb83610ec9565b8152610ff960208401610ec9565b602082015260408301356040820152606083013560608201526080830135608082015260a083013560a082015261103260c08401610f17565b60c08201529392505050565b60006020828403121561104f578081fd5b5051919050565b60008060008060008060a0878903121561106e578182fd5b8635955060208701356110808161145a565b94506040870135935060608701359250608087013567ffffffffffffffff8111156110a9578283fd5b6110b589828a01610ed4565b979a9699509497509295939492505050565b60008060008060008060a087890312156110df578182fd5b8635955060208701356110f18161145a565b94506040870135935060608701356111088161145a565b9250608087013567ffffffffffffffff8111156110a9578283fd5b60008060408385031215611135578182fd5b505080516020909101519092909150565b60609290921b6bffffffffffffffffffffffff19168252601482015260340190565b6001600160f81b031994909416845260609290921b6bffffffffffffffffffffffff191660018401526015830152603582015260550190565b6001600160a01b0391909116815260200190565b6001600160a01b039384168152919092166020820152604081019190915260600190565b6001600160a01b0397881681529590961660208601526040850193909352606084019190915260ff16608083015260a082015260c081019190915260e00190565b6001600160a01b03929092168252602082015260400190565b901515815260200190565b6020808252600b908201526a4e6f6e2070617961626c6560a81b604082015260600190565b60208082526010908201526f29b2b73232b9103737ba1037bbb732b960811b604082015260600190565b60208082526015908201527414d95b99195c881b9bdd08105d5d1a1bdc9a5e9959605a1b604082015260600190565b60208082526010908201526f496e76616c696420776974686472617760801b604082015260600190565b6020808252600e908201526d2737b7103bb2ba34103a37b5b2b760911b604082015260600190565b602080825260069082015265149d59d9d95960d21b604082015260600190565b60208082526010908201526f139bc81e5a595b19081858d8dc9d595960821b604082015260600190565b602080825260119082015270139bdd08195b9bdd59da081b5a5b9d1959607a1b604082015260600190565b60208082526019908201527f496e636f727265637420616d6f756e742070726f766964656400000000000000604082015260600190565b6020808252600f908201526e21b7b73a3930b1ba10333937bd32b760891b604082015260600190565b90815260200190565b9182526001600160a01b0316602082015260400190565b918252602082015260400190565b6000821982111561142457611424611444565b500190565b600060001982141561143d5761143d611444565b5060010190565b634e487b7160e01b600052601160045260246000fd5b6001600160a01b038116811461098c57600080fd5b801515811461098c57600080fdfea2646970667358221220cd8f63386ec3b0b860d1c5b71de21ada4cfa2d41ced1de0d7b7645147d3bd57964736f6c63430008000033",
  "immutableReferences": {
    "866": [
      {
        "length": 32,
        "start": 214
      },
      {
        "length": 32,
        "start": 900
      },
      {
        "length": 32,
        "start": 1199
      },
      {
        "length": 32,
        "start": 2183
      },
      {
        "length": 32,
        "start": 2716
      },
      {
        "length": 32,
        "start": 2850
      }
    ],
    "868": [
      {
        "length": 32,
        "start": 3483
      }
    ],
    "870": [
      {
        "length": 32,
        "start": 3519
      }
    ]
  },
  "source": "// SPDX-License-Identifier: Apache-2.0\r\npragma solidity ^0.8.0;\r\n\r\nimport \"./interfaces/IERC20.sol\";\r\nimport \"./interfaces/IERC20Permit.sol\";\r\nimport \"./interfaces/ITranche.sol\";\r\nimport \"./interfaces/IWETH.sol\";\r\nimport \"./interfaces/IWrappedPosition.sol\";\r\nimport \"./libraries/Authorizable.sol\";\r\nimport \"./libraries/SponsorWhitelistControl.sol\";\r\n\r\n/// @author Element Finance\r\n/// @title User Proxy\r\ncontract UserProxy is Authorizable {\r\n    // This contract is a convenience library to consolidate\r\n    // the actions needed to create interest or principal tokens to one call.\r\n    // It will hold user allowances, and can be disabled by authorized addresses\r\n    // for security.\r\n    // If frozen users still control their own tokens so can manually redeem them.\r\n\r\n    // Store the accessibility state of the contract\r\n    bool public isFrozen = false;\r\n    // Constant wrapped ether address\r\n    IWETH public immutable weth;\r\n    // Tranche factory address for Tranche contract address derivation\r\n    address internal immutable _trancheFactory;\r\n    // Tranche bytecode hash for Tranche contract address derivation.\r\n    // This is constant as long as Tranche does not implement non-constant constructor arguments.\r\n    bytes32 internal immutable _trancheBytecodeHash;\r\n    // A constant which represents ether\r\n    address internal constant _ETH_CONSTANT = address(\r\n        0xEeeeeEeeeEeEeeEeEeEeeEEEeeeeEeeeeeeeEEeE\r\n    );\r\n      // \r\n    SponsorWhitelistControl constant public SPONSOR = SponsorWhitelistControl(0x0888000000000000000000000000000000000001);\r\n\r\n    /// @dev Marks the msg.sender as authorized and sets them\r\n    ///      as the owner in authorization library\r\n    /// @param _weth The constant weth contract address\r\n    /// @param __trancheFactory Address of the TrancheFactory contract\r\n    /// @param __trancheBytecodeHash Hash of the Tranche bytecode.\r\n    constructor(\r\n        IWETH _weth,\r\n        address __trancheFactory,\r\n        bytes32 __trancheBytecodeHash\r\n    ) Authorizable() {\r\n        _authorize(msg.sender);\r\n        weth = _weth;\r\n        _trancheFactory = __trancheFactory;\r\n        _trancheBytecodeHash = __trancheBytecodeHash;\r\n        \r\n        address[] memory users = new address[](1);\r\n        users[0] = address(0);\r\n        SPONSOR.addPrivilege(users);\r\n    }\r\n\r\n    /// @dev Requires that the contract is not frozen\r\n    modifier notFrozen() {\r\n        require(!isFrozen, \"Contract frozen\");\r\n        _;\r\n    }\r\n\r\n    /// @dev Allows an authorized address to freeze or unfreeze this contract\r\n    /// @param _newState True for frozen and false for unfrozen\r\n    function setIsFrozen(bool _newState) external onlyAuthorized() {\r\n        isFrozen = _newState;\r\n    }\r\n\r\n    // Memory encoding of the permit data\r\n    struct PermitData {\r\n        IERC20Permit tokenContract;\r\n        address who;\r\n        uint256 amount;\r\n        uint256 expiration;\r\n        bytes32 r;\r\n        bytes32 s;\r\n        uint8 v;\r\n    }\r\n\r\n    /// @dev Takes the input permit calls and executes them\r\n    /// @param data The array which encodes the set of permit calls to make\r\n    modifier preApproval(PermitData[] memory data) {\r\n        // If permit calls are provided we make try to make them\r\n        if (data.length != 0) {\r\n            // We make permit calls for each indicated call\r\n            for (uint256 i = 0; i < data.length; i++) {\r\n                _permitCall(data[i]);\r\n            }\r\n        }\r\n        _;\r\n    }\r\n\r\n    /// @dev Makes permit calls indicated by a struct\r\n    /// @param data the struct which has the permit calldata\r\n    function _permitCall(PermitData memory data) internal {\r\n        // Make the permit call to the token in the data field using\r\n        // the fields provided.\r\n        // Security note - This fairly open call is safe because it cannot\r\n        // call 'transferFrom' or other sensitive methods despite the open\r\n        // scope. Do not make more general without security review.\r\n        data.tokenContract.permit(\r\n            msg.sender,\r\n            data.who,\r\n            data.amount,\r\n            data.expiration,\r\n            data.v,\r\n            data.r,\r\n            data.s\r\n        );\r\n    }\r\n\r\n    /// @notice Mints a Principal/Interest token pair from either underlying token or Eth\r\n    ///      then returns the tokens to the caller.\r\n    /// @dev This function assumes that it already has an allowance for the token in question.\r\n    /// @param _amount The amount of underlying to turn into tokens\r\n    /// @param _underlying Either (1) The underlying ERC20 token contract\r\n    ///                   or (2) the _ETH_CONSTANT to indicate the user has sent eth.\r\n    ///                   This token should revert in the event of a transfer failure.\r\n    /// @param _expiration The expiration time of the Tranche contract\r\n    /// @param _position The contract which manages pooled deposits\r\n    /// @param _permitCallData Encoded array of permit calls to make prior to minting\r\n    ///                        the data should be encoded with abi.encode(data, \"PermitData[]\")\r\n    ///                        each PermitData struct provided will be executed as a call.\r\n    ///                        An example use of this is if using a token with permit like USDC\r\n    ///                        to encode a permit which gives this contract allowance before minting.\r\n    /// @return returns the minted amounts of PT and YT\r\n    // NOTE - It is critical that the notFrozen modifier is listed first so it gets called first.\r\n    function mint(\r\n        uint256 _amount,\r\n        IERC20 _underlying,\r\n        uint256 _expiration,\r\n        address _position,\r\n        PermitData[] calldata _permitCallData\r\n    )\r\n        external\r\n        payable\r\n        notFrozen()\r\n        preApproval(_permitCallData)\r\n        returns (uint256, uint256)\r\n    {\r\n        // If the underlying token matches this predefined 'ETH token'\r\n        // then we create weth for the user and go from there\r\n        if (address(_underlying) == _ETH_CONSTANT) {\r\n            // Check that the amount matches the amount provided\r\n            require(msg.value == _amount, \"Incorrect amount provided\");\r\n            // Create weth from the provided eth\r\n            weth.deposit{ value: msg.value }();\r\n            weth.transfer(address(_position), _amount);\r\n        } else {\r\n            // Check for the fact that this branch should not be payable\r\n            require(msg.value == 0, \"Non payable\");\r\n            // Move the user's funds to the wrapped position contract\r\n            _underlying.transferFrom(msg.sender, address(_position), _amount);\r\n        }\r\n\r\n        // Proceed to internal minting steps\r\n        (uint256 ptMinted, uint256 ytMinted) = _mint(_expiration, _position);\r\n        // This sanity check ensure that at least as much was minted as was transferred\r\n        require(ytMinted >= _amount, \"Not enough minted\");\r\n        return (ptMinted, ytMinted);\r\n    }\r\n\r\n    /// @dev Allows a user to withdraw and unwrap weth in the same transaction\r\n    ///      likely quite a bit more expensive than direct unwrapping but useful\r\n    ///      for those who want to do one tx instead of two\r\n    /// @param _expiration The tranche expiration time\r\n    /// @param _position The contract which interacts with the yield bearing strategy\r\n    /// @param _amountPT The amount of principal token to withdraw\r\n    /// @param _amountYT The amount of yield token to withdraw.\r\n    /// @param _permitCallData Encoded array of permit calls to make prior to withdrawing,\r\n    ///                        should be used to get allowances for PT and YT\r\n    // NOTE - It is critical that the notFrozen modifier is listed first so it gets called first.\r\n    function withdrawWeth(\r\n        uint256 _expiration,\r\n        address _position,\r\n        uint256 _amountPT,\r\n        uint256 _amountYT,\r\n        PermitData[] calldata _permitCallData\r\n    ) external notFrozen() preApproval(_permitCallData) {\r\n        // Post the Berlin hardfork this call warms the address so only cost ~100 gas overall\r\n        require(IWrappedPosition(_position).token() == weth, \"Non weth token\");\r\n        // Only allow access if the user is actually attempting to withdraw\r\n        require(((_amountPT != 0) || (_amountYT != 0)), \"Invalid withdraw\");\r\n        // Because of create2 we know this code is exactly what is expected.\r\n        ITranche derivedTranche = _deriveTranche(_position, _expiration);\r\n\r\n        uint256 wethReceivedPt = 0;\r\n        uint256 wethReceivedYt = 0;\r\n        // Check if we need to withdraw principal token\r\n        if (_amountPT != 0) {\r\n            // If we have to withdraw PT first transfer it to this contract\r\n            derivedTranche.transferFrom(msg.sender, address(this), _amountPT);\r\n            // Then we withdraw that PT with the resulting weth going to this address\r\n            wethReceivedPt = derivedTranche.withdrawPrincipal(\r\n                _amountPT,\r\n                address(this)\r\n            );\r\n        }\r\n        // Check if we need to withdraw yield token\r\n        if (_amountYT != 0) {\r\n            // Post Berlin this lookup only costs 100 gas overall as well\r\n            IERC20Permit yieldToken = derivedTranche.interestToken();\r\n            // Transfer the YT to this contract\r\n            yieldToken.transferFrom(msg.sender, address(this), _amountYT);\r\n            // Withdraw that YT\r\n            wethReceivedYt = derivedTranche.withdrawInterest(\r\n                _amountYT,\r\n                address(this)\r\n            );\r\n        }\r\n\r\n        // A sanity check that some value was withdrawn\r\n        if (_amountPT != 0) {\r\n            require((wethReceivedPt != 0), \"Rugged\");\r\n        }\r\n        if (_amountYT != 0) {\r\n            require((wethReceivedYt != 0), \"No yield accrued\");\r\n        }\r\n        // Withdraw the ether from weth\r\n        weth.withdraw(wethReceivedPt + wethReceivedYt);\r\n        // Send the withdrawn eth to the caller\r\n        payable(msg.sender).transfer(wethReceivedPt + wethReceivedYt);\r\n    }\r\n\r\n    /// @dev The receive function allows WETH and only WETH to send\r\n    ///      eth directly to this contract. Note - It Cannot be assumed\r\n    ///      that this will prevent this contract from having an ETH balance\r\n    receive() external payable {\r\n        require(msg.sender == address(weth));\r\n    }\r\n\r\n    /// @dev This internal mint function performs the core minting logic after\r\n    ///      the contract has already transferred to WrappedPosition contract\r\n    /// @param _expiration The tranche expiration time\r\n    /// @param _position The contract which interacts with the yield bearing strategy\r\n    /// @return the principal token yield token returned\r\n    function _mint(uint256 _expiration, address _position)\r\n        internal\r\n        returns (uint256, uint256)\r\n    {\r\n        // Use create2 to derive the tranche contract\r\n        ITranche tranche = _deriveTranche(address(_position), _expiration);\r\n        // Move funds into the Tranche contract\r\n        // it will credit the msg.sender with the new tokens\r\n        return tranche.prefundedDeposit(msg.sender);\r\n    }\r\n\r\n    /// @dev This internal function produces the deterministic create2\r\n    ///      address of the Tranche contract from a wrapped position contract and expiration\r\n    /// @param _position The wrapped position contract address\r\n    /// @param _expiration The expiration time of the tranche\r\n    /// @return The derived Tranche contract\r\n    function _deriveTranche(address _position, uint256 _expiration)\r\n        internal\r\n        virtual\r\n        view\r\n        returns (ITranche)\r\n    {\r\n        bytes32 salt = keccak256(abi.encodePacked(_position, _expiration));\r\n        bytes32 addressBytes = keccak256(\r\n            abi.encodePacked(\r\n                bytes1(0xff),\r\n                _trancheFactory,\r\n                salt,\r\n                _trancheBytecodeHash\r\n            )\r\n        );\r\n        return ITranche(address(uint160(uint256(addressBytes))));\r\n    }\r\n\r\n    /// @dev This contract holds a number of allowances for addresses so if it is deprecated\r\n    ///      it should be removed so that users do not have to remove allowances.\r\n    ///      Note - onlyOwner is a stronger check than onlyAuthorized, many addresses can be\r\n    ///      authorized to freeze or unfreeze the contract but only the owner address can kill\r\n    function deprecate() external onlyOwner() {\r\n        selfdestruct(payable(msg.sender));\r\n    }\r\n}\r\n",
  "sourcePath": "/f/BlockChain/conflux/contract/Liberation-fi/contracts/UserProxy.sol",
  "compiler": {
    "name": "solc",
    "version": "0.8.0+commit.c7dfd78e.Emscripten.clang"
  },
  "schemaVersion": "3.3.4",
  "updatedAt": "2021-08-29T16:25:51.885Z",
  "devdoc": {
    "author": "Element Finance",
    "kind": "dev",
    "methods": {
      "authorize(address)": {
        "details": "Privileged function authorize an address",
        "params": {
          "who": "the address to authorize"
        }
      },
      "constructor": {
        "details": "Marks the msg.sender as authorized and sets them      as the owner in authorization library",
        "params": {
          "__trancheBytecodeHash": "Hash of the Tranche bytecode.",
          "__trancheFactory": "Address of the TrancheFactory contract",
          "_weth": "The constant weth contract address"
        }
      },
      "deauthorize(address)": {
        "details": "Privileged function to de authorize an address",
        "params": {
          "who": "The address to remove authorization from"
        }
      },
      "deprecate()": {
        "details": "This contract holds a number of allowances for addresses so if it is deprecated      it should be removed so that users do not have to remove allowances.      Note - onlyOwner is a stronger check than onlyAuthorized, many addresses can be      authorized to freeze or unfreeze the contract but only the owner address can kill"
      },
      "isAuthorized(address)": {
        "details": "Returns true if an address is authorized",
        "params": {
          "who": "the address to check"
        },
        "returns": {
          "_0": "true if authorized false if not"
        }
      },
      "mint(uint256,address,uint256,address,(address,address,uint256,uint256,bytes32,bytes32,uint8)[])": {
        "details": "This function assumes that it already has an allowance for the token in question.",
        "params": {
          "_amount": "The amount of underlying to turn into tokens",
          "_expiration": "The expiration time of the Tranche contract",
          "_permitCallData": "Encoded array of permit calls to make prior to minting                        the data should be encoded with abi.encode(data, \"PermitData[]\")                        each PermitData struct provided will be executed as a call.                        An example use of this is if using a token with permit like USDC                        to encode a permit which gives this contract allowance before minting.",
          "_position": "The contract which manages pooled deposits",
          "_underlying": "Either (1) The underlying ERC20 token contract                   or (2) the _ETH_CONSTANT to indicate the user has sent eth.                   This token should revert in the event of a transfer failure."
        },
        "returns": {
          "_0": "returns the minted amounts of PT and YT"
        }
      },
      "setIsFrozen(bool)": {
        "details": "Allows an authorized address to freeze or unfreeze this contract",
        "params": {
          "_newState": "True for frozen and false for unfrozen"
        }
      },
      "setOwner(address)": {
        "details": "Function to change owner",
        "params": {
          "who": "The new owner address"
        }
      },
      "withdrawWeth(uint256,address,uint256,uint256,(address,address,uint256,uint256,bytes32,bytes32,uint8)[])": {
        "details": "Allows a user to withdraw and unwrap weth in the same transaction      likely quite a bit more expensive than direct unwrapping but useful      for those who want to do one tx instead of two",
        "params": {
          "_amountPT": "The amount of principal token to withdraw",
          "_amountYT": "The amount of yield token to withdraw.",
          "_expiration": "The tranche expiration time",
          "_permitCallData": "Encoded array of permit calls to make prior to withdrawing,                        should be used to get allowances for PT and YT",
          "_position": "The contract which interacts with the yield bearing strategy"
        }
      }
    },
    "title": "User Proxy",
    "version": 1
  },
  "userdoc": {
    "kind": "user",
    "methods": {
      "mint(uint256,address,uint256,address,(address,address,uint256,uint256,bytes32,bytes32,uint8)[])": {
        "notice": "Mints a Principal/Interest token pair from either underlying token or Eth      then returns the tokens to the caller."
      }
    },
    "version": 1
  }
}