{
  "contractName": "UserProxy",
  "abi": [
    {
      "inputs": [
        {
          "internalType": "contract IWETH",
          "name": "_weth",
          "type": "address"
        },
        {
          "internalType": "address",
          "name": "__trancheFactory",
          "type": "address"
        },
        {
          "internalType": "bytes32",
          "name": "__trancheBytecodeHash",
          "type": "bytes32"
        }
      ],
      "stateMutability": "nonpayable",
      "type": "constructor"
    },
    {
      "inputs": [
        {
          "internalType": "address",
          "name": "who",
          "type": "address"
        }
      ],
      "name": "authorize",
      "outputs": [],
      "stateMutability": "nonpayable",
      "type": "function"
    },
    {
      "inputs": [
        {
          "internalType": "address",
          "name": "",
          "type": "address"
        }
      ],
      "name": "authorized",
      "outputs": [
        {
          "internalType": "bool",
          "name": "",
          "type": "bool"
        }
      ],
      "stateMutability": "view",
      "type": "function"
    },
    {
      "inputs": [
        {
          "internalType": "address",
          "name": "who",
          "type": "address"
        }
      ],
      "name": "deauthorize",
      "outputs": [],
      "stateMutability": "nonpayable",
      "type": "function"
    },
    {
      "inputs": [
        {
          "internalType": "address",
          "name": "who",
          "type": "address"
        }
      ],
      "name": "isAuthorized",
      "outputs": [
        {
          "internalType": "bool",
          "name": "",
          "type": "bool"
        }
      ],
      "stateMutability": "view",
      "type": "function"
    },
    {
      "inputs": [],
      "name": "isFrozen",
      "outputs": [
        {
          "internalType": "bool",
          "name": "",
          "type": "bool"
        }
      ],
      "stateMutability": "view",
      "type": "function"
    },
    {
      "inputs": [],
      "name": "owner",
      "outputs": [
        {
          "internalType": "address",
          "name": "",
          "type": "address"
        }
      ],
      "stateMutability": "view",
      "type": "function"
    },
    {
      "inputs": [
        {
          "internalType": "address",
          "name": "who",
          "type": "address"
        }
      ],
      "name": "setOwner",
      "outputs": [],
      "stateMutability": "nonpayable",
      "type": "function"
    },
    {
      "inputs": [],
      "name": "weth",
      "outputs": [
        {
          "internalType": "contract IWETH",
          "name": "",
          "type": "address"
        }
      ],
      "stateMutability": "view",
      "type": "function"
    },
    {
      "stateMutability": "payable",
      "type": "receive"
    },
    {
      "inputs": [
        {
          "internalType": "bool",
          "name": "_newState",
          "type": "bool"
        }
      ],
      "name": "setIsFrozen",
      "outputs": [],
      "stateMutability": "nonpayable",
      "type": "function"
    },
    {
      "inputs": [
        {
          "internalType": "uint256",
          "name": "_amount",
          "type": "uint256"
        },
        {
          "internalType": "contract IERC20",
          "name": "_underlying",
          "type": "address"
        },
        {
          "internalType": "uint256",
          "name": "_expiration",
          "type": "uint256"
        },
        {
          "internalType": "address",
          "name": "_position",
          "type": "address"
        },
        {
          "components": [
            {
              "internalType": "contract IERC20Permit",
              "name": "tokenContract",
              "type": "address"
            },
            {
              "internalType": "address",
              "name": "who",
              "type": "address"
            },
            {
              "internalType": "uint256",
              "name": "amount",
              "type": "uint256"
            },
            {
              "internalType": "uint256",
              "name": "expiration",
              "type": "uint256"
            },
            {
              "internalType": "bytes32",
              "name": "r",
              "type": "bytes32"
            },
            {
              "internalType": "bytes32",
              "name": "s",
              "type": "bytes32"
            },
            {
              "internalType": "uint8",
              "name": "v",
              "type": "uint8"
            }
          ],
          "internalType": "struct UserProxy.PermitData[]",
          "name": "_permitCallData",
          "type": "tuple[]"
        }
      ],
      "name": "mint",
      "outputs": [
        {
          "internalType": "uint256",
          "name": "",
          "type": "uint256"
        },
        {
          "internalType": "uint256",
          "name": "",
          "type": "uint256"
        }
      ],
      "stateMutability": "payable",
      "type": "function"
    },
    {
      "inputs": [
        {
          "internalType": "uint256",
          "name": "_expiration",
          "type": "uint256"
        },
        {
          "internalType": "address",
          "name": "_position",
          "type": "address"
        },
        {
          "internalType": "uint256",
          "name": "_amountPT",
          "type": "uint256"
        },
        {
          "internalType": "uint256",
          "name": "_amountYT",
          "type": "uint256"
        },
        {
          "components": [
            {
              "internalType": "contract IERC20Permit",
              "name": "tokenContract",
              "type": "address"
            },
            {
              "internalType": "address",
              "name": "who",
              "type": "address"
            },
            {
              "internalType": "uint256",
              "name": "amount",
              "type": "uint256"
            },
            {
              "internalType": "uint256",
              "name": "expiration",
              "type": "uint256"
            },
            {
              "internalType": "bytes32",
              "name": "r",
              "type": "bytes32"
            },
            {
              "internalType": "bytes32",
              "name": "s",
              "type": "bytes32"
            },
            {
              "internalType": "uint8",
              "name": "v",
              "type": "uint8"
            }
          ],
          "internalType": "struct UserProxy.PermitData[]",
          "name": "_permitCallData",
          "type": "tuple[]"
        }
      ],
      "name": "withdrawWeth",
      "outputs": [],
      "stateMutability": "nonpayable",
      "type": "function"
    },
    {
      "inputs": [],
      "name": "deprecate",
      "outputs": [],
      "stateMutability": "nonpayable",
      "type": "function"
    }
  ],
  "bytecode": "0x60e06040526002805460ff191690553480156200001b57600080fd5b50604051620015cc380380620015cc8339810160408190526200003e91620000a9565b600080546001600160a01b031916339081179091556200005e9062000082565b6001600160601b0319606093841b81166080529190921b1660a05260c05262000109565b6001600160a01b03166000908152600160208190526040909120805460ff19169091179055565b600080600060608486031215620000be578283fd5b8351620000cb81620000f0565b6020850151909350620000de81620000f0565b80925050604084015190509250925092565b6001600160a01b03811681146200010657600080fd5b50565b60805160601c60a05160601c60c05161146b620001616000396000610d7701526000610d5301526000818160bb0152818161033c015281816104670152818161083f01528181610a540152610ada015261146b6000f3fe6080604052600436106100ab5760003560e01c80636f1ea24c116100645780636f1ea24c146101ae5780638da5cb5b146101ce578063b6a5d7de146101e3578063b841d2d214610203578063b918161114610224578063fe9fbb8014610244576100e7565b80630fcc0c28146100ec57806313af40351461010157806327c97fa51461012157806333eeb147146101415780633fc8cef31461016c57806364eda74b1461018e576100e7565b366100e757336001600160a01b037f000000000000000000000000000000000000000000000000000000000000000016146100e557600080fd5b005b600080fd5b3480156100f857600080fd5b506100e5610264565b34801561010d57600080fd5b506100e561011c366004610ee0565b61029a565b34801561012d57600080fd5b506100e561013c366004610ee0565b6102e6565b34801561014d57600080fd5b50610156610331565b60405161016391906111eb565b60405180910390f35b34801561017857600080fd5b5061018161033a565b6040516101639190611159565b34801561019a57600080fd5b506100e56101a9366004610f03565b61035e565b3480156101ba57600080fd5b506100e56101c936600461100e565b610396565b3480156101da57600080fd5b50610181610902565b3480156101ef57600080fd5b506100e56101fe366004610ee0565b610911565b61021661021136600461107f565b610947565b6040516101639291906113bb565b34801561023057600080fd5b5061015661023f366004610ee0565b610c4f565b34801561025057600080fd5b5061015661025f366004610ee0565b610c64565b6000546001600160a01b031633146102975760405162461bcd60e51b815260040161028e9061121b565b60405180910390fd5b33ff5b6000546001600160a01b031633146102c45760405162461bcd60e51b815260040161028e9061121b565b600080546001600160a01b0319166001600160a01b0392909216919091179055565b6000546001600160a01b031633146103105760405162461bcd60e51b815260040161028e9061121b565b6001600160a01b03166000908152600160205260409020805460ff19169055565b60025460ff1681565b7f000000000000000000000000000000000000000000000000000000000000000081565b61036733610c64565b6103835760405162461bcd60e51b815260040161028e90611245565b6002805460ff1916911515919091179055565b60025460ff16156103b95760405162461bcd60e51b815260040161028e90611372565b8181808060200260200160405190810160405280939291908181526020016000905b82821015610407576103f860e08302860136819003810190610f57565b815260200190600101906103db565b505050505080516000146104655760005b81518110156104635761045182828151811061044457634e487b7160e01b600052603260045260246000fd5b6020026020010151610c86565b8061045b816113e1565b915050610418565b505b7f00000000000000000000000000000000000000000000000000000000000000006001600160a01b0316866001600160a01b031663fc0c546a6040518163ffffffff1660e01b815260040160206040518083038186803b1580156104c857600080fd5b505afa1580156104dc573d6000803e3d6000fd5b505050506040513d601f19601f820116820180604052508101906105009190610f3b565b6001600160a01b0316146105265760405162461bcd60e51b815260040161028e9061129e565b8415158061053357508315155b61054f5760405162461bcd60e51b815260040161028e90611274565b600061055b8789610d0f565b9050600080871561066c576040516323b872dd60e01b81526001600160a01b038416906323b872dd9061059690339030908d9060040161116d565b602060405180830381600087803b1580156105b057600080fd5b505af11580156105c4573d6000803e3d6000fd5b505050506040513d601f19601f820116820180604052508101906105e89190610f1f565b5060405163884e17f360e01b81526001600160a01b0384169063884e17f390610617908b9030906004016113a4565b602060405180830381600087803b15801561063157600080fd5b505af1158015610645573d6000803e3d6000fd5b505050506040513d601f19601f820116820180604052508101906106699190610ff6565b91505b86156107ef576000836001600160a01b031663764b666c6040518163ffffffff1660e01b815260040160206040518083038186803b1580156106ad57600080fd5b505afa1580156106c1573d6000803e3d6000fd5b505050506040513d601f19601f820116820180604052508101906106e59190610f3b565b6040516323b872dd60e01b81529091506001600160a01b038216906323b872dd9061071890339030908d9060040161116d565b602060405180830381600087803b15801561073257600080fd5b505af1158015610746573d6000803e3d6000fd5b505050506040513d601f19601f8201168201806040525081019061076a9190610f1f565b50604051630908556160e11b81526001600160a01b03851690631210aac290610799908b9030906004016113a4565b602060405180830381600087803b1580156107b357600080fd5b505af11580156107c7573d6000803e3d6000fd5b505050506040513d601f19601f820116820180604052508101906107eb9190610ff6565b9150505b871561081257816108125760405162461bcd60e51b815260040161028e906112c6565b861561083557806108355760405162461bcd60e51b815260040161028e906112e6565b6001600160a01b037f000000000000000000000000000000000000000000000000000000000000000016632e1a7d4d61086e83856113c9565b6040518263ffffffff1660e01b815260040161088a919061139b565b600060405180830381600087803b1580156108a457600080fd5b505af11580156108b8573d6000803e3d6000fd5b503392506108fc91506108cd905083856113c9565b6040518115909202916000818181858888f193505050501580156108f5573d6000803e3d6000fd5b5050505050505050505050565b6000546001600160a01b031681565b6000546001600160a01b0316331461093b5760405162461bcd60e51b815260040161028e9061121b565b61094481610dbe565b50565b600254600090819060ff161561096f5760405162461bcd60e51b815260040161028e90611372565b8383808060200260200160405190810160405280939291908181526020016000905b828210156109bd576109ae60e08302860136819003810190610f57565b81526020019060010190610991565b50505050508051600014610a0e5760005b8151811015610a0c576109fa82828151811061044457634e487b7160e01b600052603260045260246000fd5b80610a04816113e1565b9150506109ce565b505b6001600160a01b03881673eeeeeeeeeeeeeeeeeeeeeeeeeeeeeeeeeeeeeeee1415610b6c57883414610a525760405162461bcd60e51b815260040161028e9061133b565b7f00000000000000000000000000000000000000000000000000000000000000006001600160a01b031663d0e30db0346040518263ffffffff1660e01b81526004016000604051808303818588803b158015610aad57600080fd5b505af1158015610ac1573d6000803e3d6000fd5b505060405163a9059cbb60e01b81526001600160a01b037f000000000000000000000000000000000000000000000000000000000000000016935063a9059cbb9250610b14915089908d906004016111d2565b602060405180830381600087803b158015610b2e57600080fd5b505af1158015610b42573d6000803e3d6000fd5b505050506040513d601f19601f82011682018060405250810190610b669190610f1f565b50610c0e565b3415610b8a5760405162461bcd60e51b815260040161028e906111f6565b6040516323b872dd60e01b81526001600160a01b038916906323b872dd90610bba9033908a908e9060040161116d565b602060405180830381600087803b158015610bd457600080fd5b505af1158015610be8573d6000803e3d6000fd5b505050506040513d601f19601f82011682018060405250810190610c0c9190610f1f565b505b600080610c1b8989610de5565b915091508a811015610c3f5760405162461bcd60e51b815260040161028e90611310565b909a909950975050505050505050565b60016020526000908152604090205460ff1681565b6001600160a01b03811660009081526001602052604090205460ff165b919050565b80600001516001600160a01b031663d505accf338360200151846040015185606001518660c0015187608001518860a001516040518863ffffffff1660e01b8152600401610cda9796959493929190611191565b600060405180830381600087803b158015610cf457600080fd5b505af1158015610d08573d6000803e3d6000fd5b5050505050565b6000808383604051602001610d259291906110fe565b60408051601f198184030181529082905280516020918201209250600091610d9d916001600160f81b0319917f00000000000000000000000000000000000000000000000000000000000000009186917f00000000000000000000000000000000000000000000000000000000000000009101611120565b60408051808303601f19018152919052805160209091012095945050505050565b6001600160a01b03166000908152600160208190526040909120805460ff19169091179055565b6000806000610df48486610d0f565b6040516310be8b9160e31b81529091506001600160a01b038216906385f45c8890610e23903390600401611159565b6040805180830381600087803b158015610e3c57600080fd5b505af1158015610e50573d6000803e3d6000fd5b505050506040513d601f19601f82011682018060405250810190610e7491906110db565b92509250505b9250929050565b8035610c8181611412565b60008083601f840112610e9d578182fd5b50813567ffffffffffffffff811115610eb4578182fd5b60208301915083602060e083028501011115610e7a57600080fd5b803560ff81168114610c8157600080fd5b600060208284031215610ef1578081fd5b8135610efc81611412565b9392505050565b600060208284031215610f14578081fd5b8135610efc81611427565b600060208284031215610f30578081fd5b8151610efc81611427565b600060208284031215610f4c578081fd5b8151610efc81611412565b600060e08284031215610f68578081fd5b60405160e0810181811067ffffffffffffffff82111715610f9757634e487b7160e01b83526041600452602483fd5b604052610fa383610e81565b8152610fb160208401610e81565b602082015260408301356040820152606083013560608201526080830135608082015260a083013560a0820152610fea60c08401610ecf565b60c08201529392505050565b600060208284031215611007578081fd5b5051919050565b60008060008060008060a08789031215611026578182fd5b86359550602087013561103881611412565b94506040870135935060608701359250608087013567ffffffffffffffff811115611061578283fd5b61106d89828a01610e8c565b979a9699509497509295939492505050565b60008060008060008060a08789031215611097578182fd5b8635955060208701356110a981611412565b94506040870135935060608701356110c081611412565b9250608087013567ffffffffffffffff811115611061578283fd5b600080604083850312156110ed578182fd5b505080516020909101519092909150565b60609290921b6bffffffffffffffffffffffff19168252601482015260340190565b6001600160f81b031994909416845260609290921b6bffffffffffffffffffffffff191660018401526015830152603582015260550190565b6001600160a01b0391909116815260200190565b6001600160a01b039384168152919092166020820152604081019190915260600190565b6001600160a01b0397881681529590961660208601526040850193909352606084019190915260ff16608083015260a082015260c081019190915260e00190565b6001600160a01b03929092168252602082015260400190565b901515815260200190565b6020808252600b908201526a4e6f6e2070617961626c6560a81b604082015260600190565b60208082526010908201526f29b2b73232b9103737ba1037bbb732b960811b604082015260600190565b60208082526015908201527414d95b99195c881b9bdd08105d5d1a1bdc9a5e9959605a1b604082015260600190565b60208082526010908201526f496e76616c696420776974686472617760801b604082015260600190565b6020808252600e908201526d2737b7103bb2ba34103a37b5b2b760911b604082015260600190565b602080825260069082015265149d59d9d95960d21b604082015260600190565b60208082526010908201526f139bc81e5a595b19081858d8dc9d595960821b604082015260600190565b602080825260119082015270139bdd08195b9bdd59da081b5a5b9d1959607a1b604082015260600190565b60208082526019908201527f496e636f727265637420616d6f756e742070726f766964656400000000000000604082015260600190565b6020808252600f908201526e21b7b73a3930b1ba10333937bd32b760891b604082015260600190565b90815260200190565b9182526001600160a01b0316602082015260400190565b918252602082015260400190565b600082198211156113dc576113dc6113fc565b500190565b60006000198214156113f5576113f56113fc565b5060010190565b634e487b7160e01b600052601160045260246000fd5b6001600160a01b038116811461094457600080fd5b801515811461094457600080fdfea2646970667358221220e2440e57306c549605c5d6b00b44a12453fcc9dc2be7f0b7008b0c3ee95efcc064736f6c63430008000033",
  "immutableReferences": {
    "16": [
      {
        "length": 32,
        "start": 187
      },
      {
        "length": 32,
        "start": 828
      },
      {
        "length": 32,
        "start": 1127
      },
      {
        "length": 32,
        "start": 2111
      },
      {
        "length": 32,
        "start": 2644
      },
      {
        "length": 32,
        "start": 2778
      }
    ],
    "18": [
      {
        "length": 32,
        "start": 3411
      }
    ],
    "20": [
      {
        "length": 32,
        "start": 3447
      }
    ]
  },
  "source": "// SPDX-License-Identifier: Apache-2.0\r\npragma solidity ^0.8.0;\r\n\r\nimport \"./interfaces/IERC20.sol\";\r\nimport \"./interfaces/IERC20Permit.sol\";\r\nimport \"./interfaces/ITranche.sol\";\r\nimport \"./interfaces/IWETH.sol\";\r\nimport \"./interfaces/IWrappedPosition.sol\";\r\nimport \"./libraries/Authorizable.sol\";\r\n\r\n/// @author Element Finance\r\n/// @title User Proxy\r\ncontract UserProxy is Authorizable {\r\n    // This contract is a convenience library to consolidate\r\n    // the actions needed to create interest or principal tokens to one call.\r\n    // It will hold user allowances, and can be disabled by authorized addresses\r\n    // for security.\r\n    // If frozen users still control their own tokens so can manually redeem them.\r\n\r\n    // Store the accessibility state of the contract\r\n    bool public isFrozen = false;\r\n    // Constant wrapped ether address\r\n    IWETH public immutable weth;\r\n    // Tranche factory address for Tranche contract address derivation\r\n    address internal immutable _trancheFactory;\r\n    // Tranche bytecode hash for Tranche contract address derivation.\r\n    // This is constant as long as Tranche does not implement non-constant constructor arguments.\r\n    bytes32 internal immutable _trancheBytecodeHash;\r\n    // A constant which represents ether\r\n    address internal constant _ETH_CONSTANT = address(\r\n        0xEeeeeEeeeEeEeeEeEeEeeEEEeeeeEeeeeeeeEEeE\r\n    );\r\n\r\n    /// @dev Marks the msg.sender as authorized and sets them\r\n    ///      as the owner in authorization library\r\n    /// @param _weth The constant weth contract address\r\n    /// @param __trancheFactory Address of the TrancheFactory contract\r\n    /// @param __trancheBytecodeHash Hash of the Tranche bytecode.\r\n    constructor(\r\n        IWETH _weth,\r\n        address __trancheFactory,\r\n        bytes32 __trancheBytecodeHash\r\n    ) Authorizable() {\r\n        _authorize(msg.sender);\r\n        weth = _weth;\r\n        _trancheFactory = __trancheFactory;\r\n        _trancheBytecodeHash = __trancheBytecodeHash;\r\n    }\r\n\r\n    /// @dev Requires that the contract is not frozen\r\n    modifier notFrozen() {\r\n        require(!isFrozen, \"Contract frozen\");\r\n        _;\r\n    }\r\n\r\n    /// @dev Allows an authorized address to freeze or unfreeze this contract\r\n    /// @param _newState True for frozen and false for unfrozen\r\n    function setIsFrozen(bool _newState) external onlyAuthorized() {\r\n        isFrozen = _newState;\r\n    }\r\n\r\n    // Memory encoding of the permit data\r\n    struct PermitData {\r\n        IERC20Permit tokenContract;\r\n        address who;\r\n        uint256 amount;\r\n        uint256 expiration;\r\n        bytes32 r;\r\n        bytes32 s;\r\n        uint8 v;\r\n    }\r\n\r\n    /// @dev Takes the input permit calls and executes them\r\n    /// @param data The array which encodes the set of permit calls to make\r\n    modifier preApproval(PermitData[] memory data) {\r\n        // If permit calls are provided we make try to make them\r\n        if (data.length != 0) {\r\n            // We make permit calls for each indicated call\r\n            for (uint256 i = 0; i < data.length; i++) {\r\n                _permitCall(data[i]);\r\n            }\r\n        }\r\n        _;\r\n    }\r\n\r\n    /// @dev Makes permit calls indicated by a struct\r\n    /// @param data the struct which has the permit calldata\r\n    function _permitCall(PermitData memory data) internal {\r\n        // Make the permit call to the token in the data field using\r\n        // the fields provided.\r\n        // Security note - This fairly open call is safe because it cannot\r\n        // call 'transferFrom' or other sensitive methods despite the open\r\n        // scope. Do not make more general without security review.\r\n        data.tokenContract.permit(\r\n            msg.sender,\r\n            data.who,\r\n            data.amount,\r\n            data.expiration,\r\n            data.v,\r\n            data.r,\r\n            data.s\r\n        );\r\n    }\r\n\r\n    /// @notice Mints a Principal/Interest token pair from either underlying token or Eth\r\n    ///      then returns the tokens to the caller.\r\n    /// @dev This function assumes that it already has an allowance for the token in question.\r\n    /// @param _amount The amount of underlying to turn into tokens\r\n    /// @param _underlying Either (1) The underlying ERC20 token contract\r\n    ///                   or (2) the _ETH_CONSTANT to indicate the user has sent eth.\r\n    ///                   This token should revert in the event of a transfer failure.\r\n    /// @param _expiration The expiration time of the Tranche contract\r\n    /// @param _position The contract which manages pooled deposits\r\n    /// @param _permitCallData Encoded array of permit calls to make prior to minting\r\n    ///                        the data should be encoded with abi.encode(data, \"PermitData[]\")\r\n    ///                        each PermitData struct provided will be executed as a call.\r\n    ///                        An example use of this is if using a token with permit like USDC\r\n    ///                        to encode a permit which gives this contract allowance before minting.\r\n    /// @return returns the minted amounts of PT and YT\r\n    // NOTE - It is critical that the notFrozen modifier is listed first so it gets called first.\r\n    function mint(\r\n        uint256 _amount,\r\n        IERC20 _underlying,\r\n        uint256 _expiration,\r\n        address _position,\r\n        PermitData[] calldata _permitCallData\r\n    )\r\n        external\r\n        payable\r\n        notFrozen()\r\n        preApproval(_permitCallData)\r\n        returns (uint256, uint256)\r\n    {\r\n        // If the underlying token matches this predefined 'ETH token'\r\n        // then we create weth for the user and go from there\r\n        if (address(_underlying) == _ETH_CONSTANT) {\r\n            // Check that the amount matches the amount provided\r\n            require(msg.value == _amount, \"Incorrect amount provided\");\r\n            // Create weth from the provided eth\r\n            weth.deposit{ value: msg.value }();\r\n            weth.transfer(address(_position), _amount);\r\n        } else {\r\n            // Check for the fact that this branch should not be payable\r\n            require(msg.value == 0, \"Non payable\");\r\n            // Move the user's funds to the wrapped position contract\r\n            _underlying.transferFrom(msg.sender, address(_position), _amount);\r\n        }\r\n\r\n        // Proceed to internal minting steps\r\n        (uint256 ptMinted, uint256 ytMinted) = _mint(_expiration, _position);\r\n        // This sanity check ensure that at least as much was minted as was transferred\r\n        require(ytMinted >= _amount, \"Not enough minted\");\r\n        return (ptMinted, ytMinted);\r\n    }\r\n\r\n    /// @dev Allows a user to withdraw and unwrap weth in the same transaction\r\n    ///      likely quite a bit more expensive than direct unwrapping but useful\r\n    ///      for those who want to do one tx instead of two\r\n    /// @param _expiration The tranche expiration time\r\n    /// @param _position The contract which interacts with the yield bearing strategy\r\n    /// @param _amountPT The amount of principal token to withdraw\r\n    /// @param _amountYT The amount of yield token to withdraw.\r\n    /// @param _permitCallData Encoded array of permit calls to make prior to withdrawing,\r\n    ///                        should be used to get allowances for PT and YT\r\n    // NOTE - It is critical that the notFrozen modifier is listed first so it gets called first.\r\n    function withdrawWeth(\r\n        uint256 _expiration,\r\n        address _position,\r\n        uint256 _amountPT,\r\n        uint256 _amountYT,\r\n        PermitData[] calldata _permitCallData\r\n    ) external notFrozen() preApproval(_permitCallData) {\r\n        // Post the Berlin hardfork this call warms the address so only cost ~100 gas overall\r\n        require(IWrappedPosition(_position).token() == weth, \"Non weth token\");\r\n        // Only allow access if the user is actually attempting to withdraw\r\n        require(((_amountPT != 0) || (_amountYT != 0)), \"Invalid withdraw\");\r\n        // Because of create2 we know this code is exactly what is expected.\r\n        ITranche derivedTranche = _deriveTranche(_position, _expiration);\r\n\r\n        uint256 wethReceivedPt = 0;\r\n        uint256 wethReceivedYt = 0;\r\n        // Check if we need to withdraw principal token\r\n        if (_amountPT != 0) {\r\n            // If we have to withdraw PT first transfer it to this contract\r\n            derivedTranche.transferFrom(msg.sender, address(this), _amountPT);\r\n            // Then we withdraw that PT with the resulting weth going to this address\r\n            wethReceivedPt = derivedTranche.withdrawPrincipal(\r\n                _amountPT,\r\n                address(this)\r\n            );\r\n        }\r\n        // Check if we need to withdraw yield token\r\n        if (_amountYT != 0) {\r\n            // Post Berlin this lookup only costs 100 gas overall as well\r\n            IERC20Permit yieldToken = derivedTranche.interestToken();\r\n            // Transfer the YT to this contract\r\n            yieldToken.transferFrom(msg.sender, address(this), _amountYT);\r\n            // Withdraw that YT\r\n            wethReceivedYt = derivedTranche.withdrawInterest(\r\n                _amountYT,\r\n                address(this)\r\n            );\r\n        }\r\n\r\n        // A sanity check that some value was withdrawn\r\n        if (_amountPT != 0) {\r\n            require((wethReceivedPt != 0), \"Rugged\");\r\n        }\r\n        if (_amountYT != 0) {\r\n            require((wethReceivedYt != 0), \"No yield accrued\");\r\n        }\r\n        // Withdraw the ether from weth\r\n        weth.withdraw(wethReceivedPt + wethReceivedYt);\r\n        // Send the withdrawn eth to the caller\r\n        payable(msg.sender).transfer(wethReceivedPt + wethReceivedYt);\r\n    }\r\n\r\n    /// @dev The receive function allows WETH and only WETH to send\r\n    ///      eth directly to this contract. Note - It Cannot be assumed\r\n    ///      that this will prevent this contract from having an ETH balance\r\n    receive() external payable {\r\n        require(msg.sender == address(weth));\r\n    }\r\n\r\n    /// @dev This internal mint function performs the core minting logic after\r\n    ///      the contract has already transferred to WrappedPosition contract\r\n    /// @param _expiration The tranche expiration time\r\n    /// @param _position The contract which interacts with the yield bearing strategy\r\n    /// @return the principal token yield token returned\r\n    function _mint(uint256 _expiration, address _position)\r\n        internal\r\n        returns (uint256, uint256)\r\n    {\r\n        // Use create2 to derive the tranche contract\r\n        ITranche tranche = _deriveTranche(address(_position), _expiration);\r\n        // Move funds into the Tranche contract\r\n        // it will credit the msg.sender with the new tokens\r\n        return tranche.prefundedDeposit(msg.sender);\r\n    }\r\n\r\n    /// @dev This internal function produces the deterministic create2\r\n    ///      address of the Tranche contract from a wrapped position contract and expiration\r\n    /// @param _position The wrapped position contract address\r\n    /// @param _expiration The expiration time of the tranche\r\n    /// @return The derived Tranche contract\r\n    function _deriveTranche(address _position, uint256 _expiration)\r\n        internal\r\n        virtual\r\n        view\r\n        returns (ITranche)\r\n    {\r\n        bytes32 salt = keccak256(abi.encodePacked(_position, _expiration));\r\n        bytes32 addressBytes = keccak256(\r\n            abi.encodePacked(\r\n                bytes1(0xff),\r\n                _trancheFactory,\r\n                salt,\r\n                _trancheBytecodeHash\r\n            )\r\n        );\r\n        return ITranche(address(uint160(uint256(addressBytes))));\r\n    }\r\n\r\n    /// @dev This contract holds a number of allowances for addresses so if it is deprecated\r\n    ///      it should be removed so that users do not have to remove allowances.\r\n    ///      Note - onlyOwner is a stronger check than onlyAuthorized, many addresses can be\r\n    ///      authorized to freeze or unfreeze the contract but only the owner address can kill\r\n    function deprecate() external onlyOwner() {\r\n        selfdestruct(payable(msg.sender));\r\n    }\r\n}\r\n",
  "sourcePath": "/d/Code/Conflux-UMA/element-demo/contracts/UserProxy.sol",
  "compiler": {
    "name": "solc",
    "version": "0.8.0+commit.c7dfd78e.Emscripten.clang"
  },
  "schemaVersion": "3.3.4",
  "updatedAt": "2021-08-12T12:22:02.900Z",
  "devdoc": {
    "author": "Element Finance",
    "kind": "dev",
    "methods": {
      "authorize(address)": {
        "details": "Privileged function authorize an address",
        "params": {
          "who": "the address to authorize"
        }
      },
      "constructor": {
        "details": "Marks the msg.sender as authorized and sets them      as the owner in authorization library",
        "params": {
          "__trancheBytecodeHash": "Hash of the Tranche bytecode.",
          "__trancheFactory": "Address of the TrancheFactory contract",
          "_weth": "The constant weth contract address"
        }
      },
      "deauthorize(address)": {
        "details": "Privileged function to de authorize an address",
        "params": {
          "who": "The address to remove authorization from"
        }
      },
      "deprecate()": {
        "details": "This contract holds a number of allowances for addresses so if it is deprecated      it should be removed so that users do not have to remove allowances.      Note - onlyOwner is a stronger check than onlyAuthorized, many addresses can be      authorized to freeze or unfreeze the contract but only the owner address can kill"
      },
      "isAuthorized(address)": {
        "details": "Returns true if an address is authorized",
        "params": {
          "who": "the address to check"
        },
        "returns": {
          "_0": "true if authorized false if not"
        }
      },
      "mint(uint256,address,uint256,address,(address,address,uint256,uint256,bytes32,bytes32,uint8)[])": {
        "details": "This function assumes that it already has an allowance for the token in question.",
        "params": {
          "_amount": "The amount of underlying to turn into tokens",
          "_expiration": "The expiration time of the Tranche contract",
          "_permitCallData": "Encoded array of permit calls to make prior to minting                        the data should be encoded with abi.encode(data, \"PermitData[]\")                        each PermitData struct provided will be executed as a call.                        An example use of this is if using a token with permit like USDC                        to encode a permit which gives this contract allowance before minting.",
          "_position": "The contract which manages pooled deposits",
          "_underlying": "Either (1) The underlying ERC20 token contract                   or (2) the _ETH_CONSTANT to indicate the user has sent eth.                   This token should revert in the event of a transfer failure."
        },
        "returns": {
          "_0": "returns the minted amounts of PT and YT"
        }
      },
      "setIsFrozen(bool)": {
        "details": "Allows an authorized address to freeze or unfreeze this contract",
        "params": {
          "_newState": "True for frozen and false for unfrozen"
        }
      },
      "setOwner(address)": {
        "details": "Function to change owner",
        "params": {
          "who": "The new owner address"
        }
      },
      "withdrawWeth(uint256,address,uint256,uint256,(address,address,uint256,uint256,bytes32,bytes32,uint8)[])": {
        "details": "Allows a user to withdraw and unwrap weth in the same transaction      likely quite a bit more expensive than direct unwrapping but useful      for those who want to do one tx instead of two",
        "params": {
          "_amountPT": "The amount of principal token to withdraw",
          "_amountYT": "The amount of yield token to withdraw.",
          "_expiration": "The tranche expiration time",
          "_permitCallData": "Encoded array of permit calls to make prior to withdrawing,                        should be used to get allowances for PT and YT",
          "_position": "The contract which interacts with the yield bearing strategy"
        }
      }
    },
    "title": "User Proxy",
    "version": 1
  },
  "userdoc": {
    "kind": "user",
    "methods": {
      "mint(uint256,address,uint256,address,(address,address,uint256,uint256,bytes32,bytes32,uint8)[])": {
        "notice": "Mints a Principal/Interest token pair from either underlying token or Eth      then returns the tokens to the caller."
      }
    },
    "version": 1
  }
}