{
  "contractName": "UserProxy",
  "abi": [
    {
      "inputs": [
        {
          "internalType": "contract IWETH",
          "name": "_weth",
          "type": "address"
        },
        {
          "internalType": "address",
          "name": "__trancheFactory",
          "type": "address"
        },
        {
          "internalType": "bytes32",
          "name": "__trancheBytecodeHash",
          "type": "bytes32"
        }
      ],
      "stateMutability": "nonpayable",
      "type": "constructor"
    },
    {
      "inputs": [],
      "name": "SPONSOR",
      "outputs": [
        {
          "internalType": "contract SponsorWhitelistControl",
          "name": "",
          "type": "address"
        }
      ],
      "stateMutability": "view",
      "type": "function"
    },
    {
      "inputs": [
        {
          "internalType": "address",
          "name": "who",
          "type": "address"
        }
      ],
      "name": "authorize",
      "outputs": [],
      "stateMutability": "nonpayable",
      "type": "function"
    },
    {
      "inputs": [
        {
          "internalType": "address",
          "name": "",
          "type": "address"
        }
      ],
      "name": "authorized",
      "outputs": [
        {
          "internalType": "bool",
          "name": "",
          "type": "bool"
        }
      ],
      "stateMutability": "view",
      "type": "function"
    },
    {
      "inputs": [
        {
          "internalType": "address",
          "name": "who",
          "type": "address"
        }
      ],
      "name": "deauthorize",
      "outputs": [],
      "stateMutability": "nonpayable",
      "type": "function"
    },
    {
      "inputs": [
        {
          "internalType": "address",
          "name": "who",
          "type": "address"
        }
      ],
      "name": "isAuthorized",
      "outputs": [
        {
          "internalType": "bool",
          "name": "",
          "type": "bool"
        }
      ],
      "stateMutability": "view",
      "type": "function"
    },
    {
      "inputs": [],
      "name": "isFrozen",
      "outputs": [
        {
          "internalType": "bool",
          "name": "",
          "type": "bool"
        }
      ],
      "stateMutability": "view",
      "type": "function"
    },
    {
      "inputs": [],
      "name": "owner",
      "outputs": [
        {
          "internalType": "address",
          "name": "",
          "type": "address"
        }
      ],
      "stateMutability": "view",
      "type": "function"
    },
    {
      "inputs": [
        {
          "internalType": "address",
          "name": "who",
          "type": "address"
        }
      ],
      "name": "setOwner",
      "outputs": [],
      "stateMutability": "nonpayable",
      "type": "function"
    },
    {
      "inputs": [],
      "name": "weth",
      "outputs": [
        {
          "internalType": "contract IWETH",
          "name": "",
          "type": "address"
        }
      ],
      "stateMutability": "view",
      "type": "function"
    },
    {
      "stateMutability": "payable",
      "type": "receive"
    },
    {
      "inputs": [
        {
          "internalType": "bool",
          "name": "_newState",
          "type": "bool"
        }
      ],
      "name": "setIsFrozen",
      "outputs": [],
      "stateMutability": "nonpayable",
      "type": "function"
    },
    {
      "inputs": [
        {
          "internalType": "uint256",
          "name": "_amount",
          "type": "uint256"
        },
        {
          "internalType": "contract IERC20",
          "name": "_underlying",
          "type": "address"
        },
        {
          "internalType": "uint256",
          "name": "_expiration",
          "type": "uint256"
        },
        {
          "internalType": "address",
          "name": "_position",
          "type": "address"
        },
        {
          "components": [
            {
              "internalType": "contract IERC20Permit",
              "name": "tokenContract",
              "type": "address"
            },
            {
              "internalType": "address",
              "name": "who",
              "type": "address"
            },
            {
              "internalType": "uint256",
              "name": "amount",
              "type": "uint256"
            },
            {
              "internalType": "uint256",
              "name": "expiration",
              "type": "uint256"
            },
            {
              "internalType": "bytes32",
              "name": "r",
              "type": "bytes32"
            },
            {
              "internalType": "bytes32",
              "name": "s",
              "type": "bytes32"
            },
            {
              "internalType": "uint8",
              "name": "v",
              "type": "uint8"
            }
          ],
          "internalType": "struct UserProxy.PermitData[]",
          "name": "_permitCallData",
          "type": "tuple[]"
        }
      ],
      "name": "mint",
      "outputs": [
        {
          "internalType": "uint256",
          "name": "",
          "type": "uint256"
        },
        {
          "internalType": "uint256",
          "name": "",
          "type": "uint256"
        }
      ],
      "stateMutability": "payable",
      "type": "function"
    },
    {
      "inputs": [
        {
          "internalType": "uint256",
          "name": "_expiration",
          "type": "uint256"
        },
        {
          "internalType": "address",
          "name": "_position",
          "type": "address"
        },
        {
          "internalType": "uint256",
          "name": "_amountPT",
          "type": "uint256"
        },
        {
          "internalType": "uint256",
          "name": "_amountYT",
          "type": "uint256"
        },
        {
          "components": [
            {
              "internalType": "contract IERC20Permit",
              "name": "tokenContract",
              "type": "address"
            },
            {
              "internalType": "address",
              "name": "who",
              "type": "address"
            },
            {
              "internalType": "uint256",
              "name": "amount",
              "type": "uint256"
            },
            {
              "internalType": "uint256",
              "name": "expiration",
              "type": "uint256"
            },
            {
              "internalType": "bytes32",
              "name": "r",
              "type": "bytes32"
            },
            {
              "internalType": "bytes32",
              "name": "s",
              "type": "bytes32"
            },
            {
              "internalType": "uint8",
              "name": "v",
              "type": "uint8"
            }
          ],
          "internalType": "struct UserProxy.PermitData[]",
          "name": "_permitCallData",
          "type": "tuple[]"
        }
      ],
      "name": "withdrawWeth",
      "outputs": [],
      "stateMutability": "nonpayable",
      "type": "function"
    },
    {
      "inputs": [],
      "name": "deprecate",
      "outputs": [],
      "stateMutability": "nonpayable",
      "type": "function"
    }
  ],
  "bytecode": "0x60e06040526002805460ff191690553480156200001b57600080fd5b5060405162001623380380620016238339810160408190526200003e916200014b565b600080546001600160a01b0319163390811782558152600160208181526040808420805460ff1916841790556001600160601b0319606088811b821660805287901b1660a05260c0859052805183815280820190915291908281019080368337019050509050600081600081518110620000bc57620000bc620001e2565b6001600160a01b0390921660209283029190910190910152604051630809469f60e11b8152730888000000000000000000000000000000000001906310128d3e906200010d90849060040162000193565b600060405180830381600087803b1580156200012857600080fd5b505af11580156200013d573d6000803e3d6000fd5b505050505050505062000211565b6000806000606084860312156200016157600080fd5b83516200016e81620001f8565b60208501519093506200018181620001f8565b80925050604084015190509250925092565b6020808252825182820181905260009190848201906040850190845b81811015620001d65783516001600160a01b031683529284019291840191600101620001af565b50909695505050505050565b634e487b7160e01b600052603260045260246000fd5b6001600160a01b03811681146200020e57600080fd5b50565b60805160601c60a05160601c60c0516113ba620002696000396000610f6f01526000610f3d01526000818160d6015281816101dd0152818161052c0152818161098c01528181610bfa0152610c8f01526113ba6000f3fe6080604052600436106100c65760003560e01c806364eda74b1161007f578063b6a5d7de11610059578063b6a5d7de1461025f578063b841d2d21461027f578063b9181611146102a7578063fe9fbb80146102d757600080fd5b806364eda74b146101ff5780636f1ea24c1461021f5780638da5cb5b1461023f57600080fd5b80630fcc0c281461010757806313af40351461011c5780631d073a7a1461013c57806327c97fa51461018157806333eeb147146101a15780633fc8cef3146101cb57600080fd5b3661010257336001600160a01b037f0000000000000000000000000000000000000000000000000000000000000000161461010057600080fd5b005b600080fd5b34801561011357600080fd5b50610100610310565b34801561012857600080fd5b506101006101373660046110ad565b610346565b34801561014857600080fd5b5061016473088800000000000000000000000000000000000181565b6040516001600160a01b0390911681526020015b60405180910390f35b34801561018d57600080fd5b5061010061019c3660046110ad565b610392565b3480156101ad57600080fd5b506002546101bb9060ff1681565b6040519015158152602001610178565b3480156101d757600080fd5b506101647f000000000000000000000000000000000000000000000000000000000000000081565b34801561020b57600080fd5b5061010061021a3660046110d1565b6103dd565b34801561022b57600080fd5b5061010061023a3660046111e3565b610447565b34801561024b57600080fd5b50600054610164906001600160a01b031681565b34801561026b57600080fd5b5061010061027a3660046110ad565b610a51565b61029261028d366004611256565b610aa9565b60408051928352602083019190915201610178565b3480156102b357600080fd5b506101bb6102c23660046110ad565b60016020526000908152604090205460ff1681565b3480156102e357600080fd5b506101bb6102f23660046110ad565b6001600160a01b031660009081526001602052604090205460ff1690565b6000546001600160a01b031633146103435760405162461bcd60e51b815260040161033a906112d8565b60405180910390fd5b33ff5b6000546001600160a01b031633146103705760405162461bcd60e51b815260040161033a906112d8565b600080546001600160a01b0319166001600160a01b0392909216919091179055565b6000546001600160a01b031633146103bc5760405162461bcd60e51b815260040161033a906112d8565b6001600160a01b03166000908152600160205260409020805460ff19169055565b3360009081526001602052604090205460ff166104345760405162461bcd60e51b815260206004820152601560248201527414d95b99195c881b9bdd08105d5d1a1bdc9a5e9959605a1b604482015260640161033a565b6002805460ff1916911515919091179055565b60025460ff161561048c5760405162461bcd60e51b815260206004820152600f60248201526e21b7b73a3930b1ba10333937bd32b760891b604482015260640161033a565b8181808060200260200160405190810160405280939291908181526020016000905b828210156104da576104cb60e08302860136819003810190611128565b815260200190600101906104ae565b5050505050805160001461052a5760005b8151811015610528576105168282815181106105095761050961134b565b6020026020010151610e40565b806105208161131a565b9150506104eb565b505b7f00000000000000000000000000000000000000000000000000000000000000006001600160a01b0316866001600160a01b031663fc0c546a6040518163ffffffff1660e01b815260040160206040518083038186803b15801561058d57600080fd5b505afa1580156105a1573d6000803e3d6000fd5b505050506040513d601f19601f820116820180604052508101906105c5919061110b565b6001600160a01b03161461060c5760405162461bcd60e51b815260206004820152600e60248201526d2737b7103bb2ba34103a37b5b2b760911b604482015260640161033a565b8415158061061957508315155b6106585760405162461bcd60e51b815260206004820152601060248201526f496e76616c696420776974686472617760801b604482015260640161033a565b60006106648789610ee9565b90506000808715610779576040516323b872dd60e01b8152336004820152306024820152604481018990526001600160a01b038416906323b872dd90606401602060405180830381600087803b1580156106bd57600080fd5b505af11580156106d1573d6000803e3d6000fd5b505050506040513d601f19601f820116820180604052508101906106f591906110ee565b5060405163884e17f360e01b8152600481018990523060248201526001600160a01b0384169063884e17f390604401602060405180830381600087803b15801561073e57600080fd5b505af1158015610752573d6000803e3d6000fd5b505050506040513d601f19601f8201168201806040525081019061077691906111ca565b91505b8615610900576000836001600160a01b031663764b666c6040518163ffffffff1660e01b815260040160206040518083038186803b1580156107ba57600080fd5b505afa1580156107ce573d6000803e3d6000fd5b505050506040513d601f19601f820116820180604052508101906107f2919061110b565b6040516323b872dd60e01b8152336004820152306024820152604481018a90529091506001600160a01b038216906323b872dd90606401602060405180830381600087803b15801561084357600080fd5b505af1158015610857573d6000803e3d6000fd5b505050506040513d601f19601f8201168201806040525081019061087b91906110ee565b50604051630908556160e11b8152600481018990523060248201526001600160a01b03851690631210aac290604401602060405180830381600087803b1580156108c457600080fd5b505af11580156108d8573d6000803e3d6000fd5b505050506040513d601f19601f820116820180604052508101906108fc91906111ca565b9150505b871561093c578161093c5760405162461bcd60e51b8152602060048201526006602482015265149d59d9d95960d21b604482015260640161033a565b861561098257806109825760405162461bcd60e51b815260206004820152601060248201526f139bc81e5a595b19081858d8dc9d595960821b604482015260640161033a565b6001600160a01b037f000000000000000000000000000000000000000000000000000000000000000016632e1a7d4d6109bb8385611302565b6040518263ffffffff1660e01b81526004016109d991815260200190565b600060405180830381600087803b1580156109f357600080fd5b505af1158015610a07573d6000803e3d6000fd5b503392506108fc9150610a1c90508385611302565b6040518115909202916000818181858888f19350505050158015610a44573d6000803e3d6000fd5b5050505050505050505050565b6000546001600160a01b03163314610a7b5760405162461bcd60e51b815260040161033a906112d8565b610aa6816001600160a01b03166000908152600160208190526040909120805460ff19169091179055565b50565b600254600090819060ff1615610af35760405162461bcd60e51b815260206004820152600f60248201526e21b7b73a3930b1ba10333937bd32b760891b604482015260640161033a565b8383808060200260200160405190810160405280939291908181526020016000905b82821015610b4157610b3260e08302860136819003810190611128565b81526020019060010190610b15565b50505050508051600014610b845760005b8151811015610b8257610b708282815181106105095761050961134b565b80610b7a8161131a565b915050610b52565b505b6001600160a01b03881673eeeeeeeeeeeeeeeeeeeeeeeeeeeeeeeeeeeeeeee1415610d1557883414610bf85760405162461bcd60e51b815260206004820152601960248201527f496e636f727265637420616d6f756e742070726f766964656400000000000000604482015260640161033a565b7f00000000000000000000000000000000000000000000000000000000000000006001600160a01b031663d0e30db0346040518263ffffffff1660e01b81526004016000604051808303818588803b158015610c5357600080fd5b505af1158015610c67573d6000803e3d6000fd5b505060405163a9059cbb60e01b81526001600160a01b038a81166004830152602482018e90527f000000000000000000000000000000000000000000000000000000000000000016935063a9059cbb92506044019050602060405180830381600087803b158015610cd757600080fd5b505af1158015610ceb573d6000803e3d6000fd5b505050506040513d601f19601f82011682018060405250810190610d0f91906110ee565b50610ddb565b3415610d515760405162461bcd60e51b815260206004820152600b60248201526a4e6f6e2070617961626c6560a81b604482015260640161033a565b6040516323b872dd60e01b81523360048201526001600160a01b038781166024830152604482018b90528916906323b872dd90606401602060405180830381600087803b158015610da157600080fd5b505af1158015610db5573d6000803e3d6000fd5b505050506040513d601f19601f82011682018060405250810190610dd991906110ee565b505b600080610de88989610fb0565b915091508a811015610e305760405162461bcd60e51b8152602060048201526011602482015270139bdd08195b9bdd59da081b5a5b9d1959607a1b604482015260640161033a565b909a909950975050505050505050565b80516020820151604080840151606085015160c0860151608087015160a0880151945163d505accf60e01b81523360048201526001600160a01b0396871660248201526044810194909452606484019290925260ff16608483015260a482015260c481019190915291169063d505accf9060e401600060405180830381600087803b158015610ece57600080fd5b505af1158015610ee2573d6000803e3d6000fd5b5050505050565b604080516bffffffffffffffffffffffff19606094851b8116602080840191909152603480840195909552835180840390950185526054830184528451948101949094206001600160f81b031960748401527f000000000000000000000000000000000000000000000000000000000000000090951b16607582015260898101939093527f000000000000000000000000000000000000000000000000000000000000000060a9808501919091528151808503909101815260c99093019052815191012090565b6000806000610fbf8486610ee9565b6040516310be8b9160e31b81523360048201529091506001600160a01b038216906385f45c88906024016040805180830381600087803b15801561100257600080fd5b505af1158015611016573d6000803e3d6000fd5b505050506040513d601f19601f8201168201806040525081019061103a91906112b4565b92509250505b9250929050565b803561105281611361565b919050565b60008083601f84011261106957600080fd5b50813567ffffffffffffffff81111561108157600080fd5b60208301915083602060e08302850101111561104057600080fd5b803560ff8116811461105257600080fd5b6000602082840312156110bf57600080fd5b81356110ca81611361565b9392505050565b6000602082840312156110e357600080fd5b81356110ca81611376565b60006020828403121561110057600080fd5b81516110ca81611376565b60006020828403121561111d57600080fd5b81516110ca81611361565b600060e0828403121561113a57600080fd5b60405160e0810181811067ffffffffffffffff8211171561116b57634e487b7160e01b600052604160045260246000fd5b60405261117783611047565b815261118560208401611047565b602082015260408301356040820152606083013560608201526080830135608082015260a083013560a08201526111be60c0840161109c565b60c08201529392505050565b6000602082840312156111dc57600080fd5b5051919050565b60008060008060008060a087890312156111fc57600080fd5b86359550602087013561120e81611361565b94506040870135935060608701359250608087013567ffffffffffffffff81111561123857600080fd5b61124489828a01611057565b979a9699509497509295939492505050565b60008060008060008060a0878903121561126f57600080fd5b86359550602087013561128181611361565b945060408701359350606087013561129881611361565b9250608087013567ffffffffffffffff81111561123857600080fd5b600080604083850312156112c757600080fd5b505080516020909101519092909150565b60208082526010908201526f29b2b73232b9103737ba1037bbb732b960811b604082015260600190565b6000821982111561131557611315611335565b500190565b600060001982141561132e5761132e611335565b5060010190565b634e487b7160e01b600052601160045260246000fd5b634e487b7160e01b600052603260045260246000fd5b6001600160a01b0381168114610aa657600080fd5b8015158114610aa657600080fdfea264697066735822122039758ae6e89f06449a0100c6e3cfa2436a801d7cee8e56f8e2e6f0e7a72f85f864736f6c63430008070033",
  "immutableReferences": {
    "866": [
      {
        "length": 32,
        "start": 214
      },
      {
        "length": 32,
        "start": 477
      },
      {
        "length": 32,
        "start": 1324
      },
      {
        "length": 32,
        "start": 2444
      },
      {
        "length": 32,
        "start": 3066
      },
      {
        "length": 32,
        "start": 3215
      }
    ],
    "868": [
      {
        "length": 32,
        "start": 3901
      }
    ],
    "870": [
      {
        "length": 32,
        "start": 3951
      }
    ]
  },
  "source": "// SPDX-License-Identifier: Apache-2.0\r\npragma solidity ^0.8.0;\r\n\r\nimport \"./interfaces/IERC20.sol\";\r\nimport \"./interfaces/IERC20Permit.sol\";\r\nimport \"./interfaces/ITranche.sol\";\r\nimport \"./interfaces/IWETH.sol\";\r\nimport \"./interfaces/IWrappedPosition.sol\";\r\nimport \"./libraries/Authorizable.sol\";\r\nimport \"./libraries/SponsorWhitelistControl.sol\";\r\n\r\n/// @author Element Finance\r\n/// @title User Proxy\r\ncontract UserProxy is Authorizable {\r\n    // This contract is a convenience library to consolidate\r\n    // the actions needed to create interest or principal tokens to one call.\r\n    // It will hold user allowances, and can be disabled by authorized addresses\r\n    // for security.\r\n    // If frozen users still control their own tokens so can manually redeem them.\r\n\r\n    // Store the accessibility state of the contract\r\n    bool public isFrozen = false;\r\n    // Constant wrapped ether address\r\n    IWETH public immutable weth;\r\n    // Tranche factory address for Tranche contract address derivation\r\n    address internal immutable _trancheFactory;\r\n    // Tranche bytecode hash for Tranche contract address derivation.\r\n    // This is constant as long as Tranche does not implement non-constant constructor arguments.\r\n    bytes32 internal immutable _trancheBytecodeHash;\r\n    // A constant which represents ether\r\n    address internal constant _ETH_CONSTANT = address(\r\n        0xEeeeeEeeeEeEeeEeEeEeeEEEeeeeEeeeeeeeEEeE\r\n    );\r\n      // \r\n    SponsorWhitelistControl constant public SPONSOR = SponsorWhitelistControl(0x0888000000000000000000000000000000000001);\r\n\r\n    /// @dev Marks the msg.sender as authorized and sets them\r\n    ///      as the owner in authorization library\r\n    /// @param _weth The constant weth contract address\r\n    /// @param __trancheFactory Address of the TrancheFactory contract\r\n    /// @param __trancheBytecodeHash Hash of the Tranche bytecode.\r\n    constructor(\r\n        IWETH _weth,\r\n        address __trancheFactory,\r\n        bytes32 __trancheBytecodeHash\r\n    ) Authorizable() {\r\n        _authorize(msg.sender);\r\n        weth = _weth;\r\n        _trancheFactory = __trancheFactory;\r\n        _trancheBytecodeHash = __trancheBytecodeHash;\r\n        \r\n        address[] memory users = new address[](1);\r\n        users[0] = address(0);\r\n        SPONSOR.addPrivilege(users);\r\n    }\r\n\r\n    /// @dev Requires that the contract is not frozen\r\n    modifier notFrozen() {\r\n        require(!isFrozen, \"Contract frozen\");\r\n        _;\r\n    }\r\n\r\n    /// @dev Allows an authorized address to freeze or unfreeze this contract\r\n    /// @param _newState True for frozen and false for unfrozen\r\n    function setIsFrozen(bool _newState) external onlyAuthorized() {\r\n        isFrozen = _newState;\r\n    }\r\n\r\n    // Memory encoding of the permit data\r\n    struct PermitData {\r\n        IERC20Permit tokenContract;\r\n        address who;\r\n        uint256 amount;\r\n        uint256 expiration;\r\n        bytes32 r;\r\n        bytes32 s;\r\n        uint8 v;\r\n    }\r\n\r\n    /// @dev Takes the input permit calls and executes them\r\n    /// @param data The array which encodes the set of permit calls to make\r\n    modifier preApproval(PermitData[] memory data) {\r\n        // If permit calls are provided we make try to make them\r\n        if (data.length != 0) {\r\n            // We make permit calls for each indicated call\r\n            for (uint256 i = 0; i < data.length; i++) {\r\n                _permitCall(data[i]);\r\n            }\r\n        }\r\n        _;\r\n    }\r\n\r\n    /// @dev Makes permit calls indicated by a struct\r\n    /// @param data the struct which has the permit calldata\r\n    function _permitCall(PermitData memory data) internal {\r\n        // Make the permit call to the token in the data field using\r\n        // the fields provided.\r\n        // Security note - This fairly open call is safe because it cannot\r\n        // call 'transferFrom' or other sensitive methods despite the open\r\n        // scope. Do not make more general without security review.\r\n        data.tokenContract.permit(\r\n            msg.sender,\r\n            data.who,\r\n            data.amount,\r\n            data.expiration,\r\n            data.v,\r\n            data.r,\r\n            data.s\r\n        );\r\n    }\r\n\r\n    /// @notice Mints a Principal/Interest token pair from either underlying token or Eth\r\n    ///      then returns the tokens to the caller.\r\n    /// @dev This function assumes that it already has an allowance for the token in question.\r\n    /// @param _amount The amount of underlying to turn into tokens\r\n    /// @param _underlying Either (1) The underlying ERC20 token contract\r\n    ///                   or (2) the _ETH_CONSTANT to indicate the user has sent eth.\r\n    ///                   This token should revert in the event of a transfer failure.\r\n    /// @param _expiration The expiration time of the Tranche contract\r\n    /// @param _position The contract which manages pooled deposits\r\n    /// @param _permitCallData Encoded array of permit calls to make prior to minting\r\n    ///                        the data should be encoded with abi.encode(data, \"PermitData[]\")\r\n    ///                        each PermitData struct provided will be executed as a call.\r\n    ///                        An example use of this is if using a token with permit like USDC\r\n    ///                        to encode a permit which gives this contract allowance before minting.\r\n    /// @return returns the minted amounts of PT and YT\r\n    // NOTE - It is critical that the notFrozen modifier is listed first so it gets called first.\r\n    function mint(\r\n        uint256 _amount,\r\n        IERC20 _underlying,\r\n        uint256 _expiration,\r\n        address _position,\r\n        PermitData[] calldata _permitCallData\r\n    )\r\n        external\r\n        payable\r\n        notFrozen()\r\n        preApproval(_permitCallData)\r\n        returns (uint256, uint256)\r\n    {\r\n        // If the underlying token matches this predefined 'ETH token'\r\n        // then we create weth for the user and go from there\r\n        if (address(_underlying) == _ETH_CONSTANT) {\r\n            // Check that the amount matches the amount provided\r\n            require(msg.value == _amount, \"Incorrect amount provided\");\r\n            // Create weth from the provided eth\r\n            weth.deposit{ value: msg.value }();\r\n            weth.transfer(address(_position), _amount);\r\n        } else {\r\n            // Check for the fact that this branch should not be payable\r\n            require(msg.value == 0, \"Non payable\");\r\n            // Move the user's funds to the wrapped position contract\r\n            _underlying.transferFrom(msg.sender, address(_position), _amount);\r\n        }\r\n\r\n        // Proceed to internal minting steps\r\n        (uint256 ptMinted, uint256 ytMinted) = _mint(_expiration, _position);\r\n        // This sanity check ensure that at least as much was minted as was transferred\r\n        require(ytMinted >= _amount, \"Not enough minted\");\r\n        return (ptMinted, ytMinted);\r\n    }\r\n\r\n    /// @dev Allows a user to withdraw and unwrap weth in the same transaction\r\n    ///      likely quite a bit more expensive than direct unwrapping but useful\r\n    ///      for those who want to do one tx instead of two\r\n    /// @param _expiration The tranche expiration time\r\n    /// @param _position The contract which interacts with the yield bearing strategy\r\n    /// @param _amountPT The amount of principal token to withdraw\r\n    /// @param _amountYT The amount of yield token to withdraw.\r\n    /// @param _permitCallData Encoded array of permit calls to make prior to withdrawing,\r\n    ///                        should be used to get allowances for PT and YT\r\n    // NOTE - It is critical that the notFrozen modifier is listed first so it gets called first.\r\n    function withdrawWeth(\r\n        uint256 _expiration,\r\n        address _position,\r\n        uint256 _amountPT,\r\n        uint256 _amountYT,\r\n        PermitData[] calldata _permitCallData\r\n    ) external notFrozen() preApproval(_permitCallData) {\r\n        // Post the Berlin hardfork this call warms the address so only cost ~100 gas overall\r\n        require(IWrappedPosition(_position).token() == weth, \"Non weth token\");\r\n        // Only allow access if the user is actually attempting to withdraw\r\n        require(((_amountPT != 0) || (_amountYT != 0)), \"Invalid withdraw\");\r\n        // Because of create2 we know this code is exactly what is expected.\r\n        ITranche derivedTranche = _deriveTranche(_position, _expiration);\r\n\r\n        uint256 wethReceivedPt = 0;\r\n        uint256 wethReceivedYt = 0;\r\n        // Check if we need to withdraw principal token\r\n        if (_amountPT != 0) {\r\n            // If we have to withdraw PT first transfer it to this contract\r\n            derivedTranche.transferFrom(msg.sender, address(this), _amountPT);\r\n            // Then we withdraw that PT with the resulting weth going to this address\r\n            wethReceivedPt = derivedTranche.withdrawPrincipal(\r\n                _amountPT,\r\n                address(this)\r\n            );\r\n        }\r\n        // Check if we need to withdraw yield token\r\n        if (_amountYT != 0) {\r\n            // Post Berlin this lookup only costs 100 gas overall as well\r\n            IERC20Permit yieldToken = derivedTranche.interestToken();\r\n            // Transfer the YT to this contract\r\n            yieldToken.transferFrom(msg.sender, address(this), _amountYT);\r\n            // Withdraw that YT\r\n            wethReceivedYt = derivedTranche.withdrawInterest(\r\n                _amountYT,\r\n                address(this)\r\n            );\r\n        }\r\n\r\n        // A sanity check that some value was withdrawn\r\n        if (_amountPT != 0) {\r\n            require((wethReceivedPt != 0), \"Rugged\");\r\n        }\r\n        if (_amountYT != 0) {\r\n            require((wethReceivedYt != 0), \"No yield accrued\");\r\n        }\r\n        // Withdraw the ether from weth\r\n        weth.withdraw(wethReceivedPt + wethReceivedYt);\r\n        // Send the withdrawn eth to the caller\r\n        payable(msg.sender).transfer(wethReceivedPt + wethReceivedYt);\r\n    }\r\n\r\n    /// @dev The receive function allows WETH and only WETH to send\r\n    ///      eth directly to this contract. Note - It Cannot be assumed\r\n    ///      that this will prevent this contract from having an ETH balance\r\n    receive() external payable {\r\n        require(msg.sender == address(weth));\r\n    }\r\n\r\n    /// @dev This internal mint function performs the core minting logic after\r\n    ///      the contract has already transferred to WrappedPosition contract\r\n    /// @param _expiration The tranche expiration time\r\n    /// @param _position The contract which interacts with the yield bearing strategy\r\n    /// @return the principal token yield token returned\r\n    function _mint(uint256 _expiration, address _position)\r\n        internal\r\n        returns (uint256, uint256)\r\n    {\r\n        // Use create2 to derive the tranche contract\r\n        ITranche tranche = _deriveTranche(address(_position), _expiration);\r\n        // Move funds into the Tranche contract\r\n        // it will credit the msg.sender with the new tokens\r\n        return tranche.prefundedDeposit(msg.sender);\r\n    }\r\n\r\n    /// @dev This internal function produces the deterministic create2\r\n    ///      address of the Tranche contract from a wrapped position contract and expiration\r\n    /// @param _position The wrapped position contract address\r\n    /// @param _expiration The expiration time of the tranche\r\n    /// @return The derived Tranche contract\r\n    function _deriveTranche(address _position, uint256 _expiration)\r\n        internal\r\n        virtual\r\n        view\r\n        returns (ITranche)\r\n    {\r\n        bytes32 salt = keccak256(abi.encodePacked(_position, _expiration));\r\n        bytes32 addressBytes = keccak256(\r\n            abi.encodePacked(\r\n                bytes1(0xff),\r\n                _trancheFactory,\r\n                salt,\r\n                _trancheBytecodeHash\r\n            )\r\n        );\r\n        return ITranche(address(uint160(uint256(addressBytes))));\r\n    }\r\n\r\n    /// @dev This contract holds a number of allowances for addresses so if it is deprecated\r\n    ///      it should be removed so that users do not have to remove allowances.\r\n    ///      Note - onlyOwner is a stronger check than onlyAuthorized, many addresses can be\r\n    ///      authorized to freeze or unfreeze the contract but only the owner address can kill\r\n    function deprecate() external onlyOwner() {\r\n        selfdestruct(payable(msg.sender));\r\n    }\r\n}\r\n",
  "sourcePath": "/f/BlockChain/conflux/contract/Liberation-fi/contracts/UserProxy.sol",
  "compiler": {
    "name": "solc",
    "version": "0.8.7+commit.e28d00a7.Linux.g++"
  },
  "schemaVersion": "3.3.4",
  "updatedAt": "2021-08-18T09:57:14.847Z",
  "devdoc": {
    "author": "Element Finance",
    "kind": "dev",
    "methods": {
      "authorize(address)": {
        "details": "Privileged function authorize an address",
        "params": {
          "who": "the address to authorize"
        }
      },
      "constructor": {
        "details": "Marks the msg.sender as authorized and sets them      as the owner in authorization library",
        "params": {
          "__trancheBytecodeHash": "Hash of the Tranche bytecode.",
          "__trancheFactory": "Address of the TrancheFactory contract",
          "_weth": "The constant weth contract address"
        }
      },
      "deauthorize(address)": {
        "details": "Privileged function to de authorize an address",
        "params": {
          "who": "The address to remove authorization from"
        }
      },
      "deprecate()": {
        "details": "This contract holds a number of allowances for addresses so if it is deprecated      it should be removed so that users do not have to remove allowances.      Note - onlyOwner is a stronger check than onlyAuthorized, many addresses can be      authorized to freeze or unfreeze the contract but only the owner address can kill"
      },
      "isAuthorized(address)": {
        "details": "Returns true if an address is authorized",
        "params": {
          "who": "the address to check"
        },
        "returns": {
          "_0": "true if authorized false if not"
        }
      },
      "mint(uint256,address,uint256,address,(address,address,uint256,uint256,bytes32,bytes32,uint8)[])": {
        "details": "This function assumes that it already has an allowance for the token in question.",
        "params": {
          "_amount": "The amount of underlying to turn into tokens",
          "_expiration": "The expiration time of the Tranche contract",
          "_permitCallData": "Encoded array of permit calls to make prior to minting                        the data should be encoded with abi.encode(data, \"PermitData[]\")                        each PermitData struct provided will be executed as a call.                        An example use of this is if using a token with permit like USDC                        to encode a permit which gives this contract allowance before minting.",
          "_position": "The contract which manages pooled deposits",
          "_underlying": "Either (1) The underlying ERC20 token contract                   or (2) the _ETH_CONSTANT to indicate the user has sent eth.                   This token should revert in the event of a transfer failure."
        },
        "returns": {
          "_0": "returns the minted amounts of PT and YT"
        }
      },
      "setIsFrozen(bool)": {
        "details": "Allows an authorized address to freeze or unfreeze this contract",
        "params": {
          "_newState": "True for frozen and false for unfrozen"
        }
      },
      "setOwner(address)": {
        "details": "Function to change owner",
        "params": {
          "who": "The new owner address"
        }
      },
      "withdrawWeth(uint256,address,uint256,uint256,(address,address,uint256,uint256,bytes32,bytes32,uint8)[])": {
        "details": "Allows a user to withdraw and unwrap weth in the same transaction      likely quite a bit more expensive than direct unwrapping but useful      for those who want to do one tx instead of two",
        "params": {
          "_amountPT": "The amount of principal token to withdraw",
          "_amountYT": "The amount of yield token to withdraw.",
          "_expiration": "The tranche expiration time",
          "_permitCallData": "Encoded array of permit calls to make prior to withdrawing,                        should be used to get allowances for PT and YT",
          "_position": "The contract which interacts with the yield bearing strategy"
        }
      }
    },
    "title": "User Proxy",
    "version": 1
  },
  "userdoc": {
    "kind": "user",
    "methods": {
      "mint(uint256,address,uint256,address,(address,address,uint256,uint256,bytes32,bytes32,uint8)[])": {
        "notice": "Mints a Principal/Interest token pair from either underlying token or Eth      then returns the tokens to the caller."
      }
    },
    "version": 1
  }
}