{
  "contractName": "YVaultAssetProxy",
  "abi": [
    {
      "inputs": [
        {
          "internalType": "address",
          "name": "vault_",
          "type": "address"
        },
        {
          "internalType": "contract IERC20",
          "name": "_token",
          "type": "address"
        },
        {
          "internalType": "string",
          "name": "_name",
          "type": "string"
        },
        {
          "internalType": "string",
          "name": "_symbol",
          "type": "string"
        }
      ],
      "stateMutability": "nonpayable",
      "type": "constructor"
    },
    {
      "anonymous": false,
      "inputs": [
        {
          "indexed": true,
          "internalType": "address",
          "name": "owner",
          "type": "address"
        },
        {
          "indexed": true,
          "internalType": "address",
          "name": "spender",
          "type": "address"
        },
        {
          "indexed": false,
          "internalType": "uint256",
          "name": "value",
          "type": "uint256"
        }
      ],
      "name": "Approval",
      "type": "event"
    },
    {
      "anonymous": false,
      "inputs": [
        {
          "indexed": true,
          "internalType": "address",
          "name": "from",
          "type": "address"
        },
        {
          "indexed": true,
          "internalType": "address",
          "name": "to",
          "type": "address"
        },
        {
          "indexed": false,
          "internalType": "uint256",
          "name": "value",
          "type": "uint256"
        }
      ],
      "name": "Transfer",
      "type": "event"
    },
    {
      "inputs": [],
      "name": "DOMAIN_SEPARATOR",
      "outputs": [
        {
          "internalType": "bytes32",
          "name": "",
          "type": "bytes32"
        }
      ],
      "stateMutability": "view",
      "type": "function"
    },
    {
      "inputs": [],
      "name": "PERMIT_TYPEHASH",
      "outputs": [
        {
          "internalType": "bytes32",
          "name": "",
          "type": "bytes32"
        }
      ],
      "stateMutability": "view",
      "type": "function"
    },
    {
      "inputs": [
        {
          "internalType": "address",
          "name": "",
          "type": "address"
        },
        {
          "internalType": "address",
          "name": "",
          "type": "address"
        }
      ],
      "name": "allowance",
      "outputs": [
        {
          "internalType": "uint256",
          "name": "",
          "type": "uint256"
        }
      ],
      "stateMutability": "view",
      "type": "function"
    },
    {
      "inputs": [
        {
          "internalType": "address",
          "name": "",
          "type": "address"
        }
      ],
      "name": "balanceOf",
      "outputs": [
        {
          "internalType": "uint256",
          "name": "",
          "type": "uint256"
        }
      ],
      "stateMutability": "view",
      "type": "function"
    },
    {
      "inputs": [
        {
          "internalType": "address",
          "name": "_who",
          "type": "address"
        }
      ],
      "name": "balanceOfUnderlying",
      "outputs": [
        {
          "internalType": "uint256",
          "name": "",
          "type": "uint256"
        }
      ],
      "stateMutability": "view",
      "type": "function"
    },
    {
      "inputs": [],
      "name": "decimals",
      "outputs": [
        {
          "internalType": "uint8",
          "name": "",
          "type": "uint8"
        }
      ],
      "stateMutability": "view",
      "type": "function"
    },
    {
      "inputs": [
        {
          "internalType": "address",
          "name": "_destination",
          "type": "address"
        },
        {
          "internalType": "uint256",
          "name": "_amount",
          "type": "uint256"
        }
      ],
      "name": "deposit",
      "outputs": [
        {
          "internalType": "uint256",
          "name": "",
          "type": "uint256"
        }
      ],
      "stateMutability": "nonpayable",
      "type": "function"
    },
    {
      "inputs": [
        {
          "internalType": "uint256",
          "name": "_shares",
          "type": "uint256"
        }
      ],
      "name": "getSharesToUnderlying",
      "outputs": [
        {
          "internalType": "uint256",
          "name": "",
          "type": "uint256"
        }
      ],
      "stateMutability": "view",
      "type": "function"
    },
    {
      "inputs": [],
      "name": "name",
      "outputs": [
        {
          "internalType": "string",
          "name": "",
          "type": "string"
        }
      ],
      "stateMutability": "view",
      "type": "function"
    },
    {
      "inputs": [
        {
          "internalType": "address",
          "name": "",
          "type": "address"
        }
      ],
      "name": "nonces",
      "outputs": [
        {
          "internalType": "uint256",
          "name": "",
          "type": "uint256"
        }
      ],
      "stateMutability": "view",
      "type": "function"
    },
    {
      "inputs": [
        {
          "internalType": "address",
          "name": "owner",
          "type": "address"
        },
        {
          "internalType": "address",
          "name": "spender",
          "type": "address"
        },
        {
          "internalType": "uint256",
          "name": "value",
          "type": "uint256"
        },
        {
          "internalType": "uint256",
          "name": "deadline",
          "type": "uint256"
        },
        {
          "internalType": "uint8",
          "name": "v",
          "type": "uint8"
        },
        {
          "internalType": "bytes32",
          "name": "r",
          "type": "bytes32"
        },
        {
          "internalType": "bytes32",
          "name": "s",
          "type": "bytes32"
        }
      ],
      "name": "permit",
      "outputs": [],
      "stateMutability": "nonpayable",
      "type": "function"
    },
    {
      "inputs": [
        {
          "internalType": "address",
          "name": "_destination",
          "type": "address"
        }
      ],
      "name": "prefundedDeposit",
      "outputs": [
        {
          "internalType": "uint256",
          "name": "",
          "type": "uint256"
        },
        {
          "internalType": "uint256",
          "name": "",
          "type": "uint256"
        },
        {
          "internalType": "uint256",
          "name": "",
          "type": "uint256"
        }
      ],
      "stateMutability": "nonpayable",
      "type": "function"
    },
    {
      "inputs": [
        {
          "internalType": "address",
          "name": "",
          "type": "address"
        }
      ],
      "name": "reserveBalances",
      "outputs": [
        {
          "internalType": "uint256",
          "name": "",
          "type": "uint256"
        }
      ],
      "stateMutability": "view",
      "type": "function"
    },
    {
      "inputs": [],
      "name": "reserveShares",
      "outputs": [
        {
          "internalType": "uint128",
          "name": "",
          "type": "uint128"
        }
      ],
      "stateMutability": "view",
      "type": "function"
    },
    {
      "inputs": [],
      "name": "reserveSupply",
      "outputs": [
        {
          "internalType": "uint256",
          "name": "",
          "type": "uint256"
        }
      ],
      "stateMutability": "view",
      "type": "function"
    },
    {
      "inputs": [],
      "name": "reserveUnderlying",
      "outputs": [
        {
          "internalType": "uint128",
          "name": "",
          "type": "uint128"
        }
      ],
      "stateMutability": "view",
      "type": "function"
    },
    {
      "inputs": [],
      "name": "symbol",
      "outputs": [
        {
          "internalType": "string",
          "name": "",
          "type": "string"
        }
      ],
      "stateMutability": "view",
      "type": "function"
    },
    {
      "inputs": [],
      "name": "token",
      "outputs": [
        {
          "internalType": "contract IERC20",
          "name": "",
          "type": "address"
        }
      ],
      "stateMutability": "view",
      "type": "function"
    },
    {
      "inputs": [
        {
          "internalType": "address",
          "name": "recipient",
          "type": "address"
        },
        {
          "internalType": "uint256",
          "name": "amount",
          "type": "uint256"
        }
      ],
      "name": "transfer",
      "outputs": [
        {
          "internalType": "bool",
          "name": "",
          "type": "bool"
        }
      ],
      "stateMutability": "nonpayable",
      "type": "function"
    },
    {
      "inputs": [
        {
          "internalType": "address",
          "name": "spender",
          "type": "address"
        },
        {
          "internalType": "address",
          "name": "recipient",
          "type": "address"
        },
        {
          "internalType": "uint256",
          "name": "amount",
          "type": "uint256"
        }
      ],
      "name": "transferFrom",
      "outputs": [
        {
          "internalType": "bool",
          "name": "",
          "type": "bool"
        }
      ],
      "stateMutability": "nonpayable",
      "type": "function"
    },
    {
      "inputs": [],
      "name": "vault",
      "outputs": [
        {
          "internalType": "contract IYearnVault",
          "name": "",
          "type": "address"
        }
      ],
      "stateMutability": "view",
      "type": "function"
    },
    {
      "inputs": [],
      "name": "vaultDecimals",
      "outputs": [
        {
          "internalType": "uint8",
          "name": "",
          "type": "uint8"
        }
      ],
      "stateMutability": "view",
      "type": "function"
    },
    {
      "inputs": [
        {
          "internalType": "address",
          "name": "_destination",
          "type": "address"
        },
        {
          "internalType": "uint256",
          "name": "_shares",
          "type": "uint256"
        },
        {
          "internalType": "uint256",
          "name": "_minUnderlying",
          "type": "uint256"
        }
      ],
      "name": "withdraw",
      "outputs": [
        {
          "internalType": "uint256",
          "name": "",
          "type": "uint256"
        }
      ],
      "stateMutability": "nonpayable",
      "type": "function"
    },
    {
      "inputs": [
        {
          "internalType": "address",
          "name": "_destination",
          "type": "address"
        },
        {
          "internalType": "uint256",
          "name": "_amount",
          "type": "uint256"
        },
        {
          "internalType": "uint256",
          "name": "_minUnderlying",
          "type": "uint256"
        }
      ],
      "name": "withdrawUnderlying",
      "outputs": [
        {
          "internalType": "uint256",
          "name": "",
          "type": "uint256"
        },
        {
          "internalType": "uint256",
          "name": "",
          "type": "uint256"
        }
      ],
      "stateMutability": "nonpayable",
      "type": "function"
    },
    {
      "inputs": [
        {
          "internalType": "uint256",
          "name": "_amount",
          "type": "uint256"
        }
      ],
      "name": "reserveDeposit",
      "outputs": [],
      "stateMutability": "nonpayable",
      "type": "function"
    },
    {
      "inputs": [
        {
          "internalType": "uint256",
          "name": "_amount",
          "type": "uint256"
        }
      ],
      "name": "reserveWithdraw",
      "outputs": [],
      "stateMutability": "nonpayable",
      "type": "function"
    },
    {
      "inputs": [
        {
          "internalType": "address",
          "name": "account",
          "type": "address"
        },
        {
          "internalType": "uint256",
          "name": "amount",
          "type": "uint256"
        }
      ],
      "name": "approve",
      "outputs": [
        {
          "internalType": "bool",
          "name": "",
          "type": "bool"
        }
      ],
      "stateMutability": "nonpayable",
      "type": "function"
    },
    {
      "inputs": [],
      "name": "approve",
      "outputs": [],
      "stateMutability": "nonpayable",
      "type": "function"
    }
  ],
  "bytecode": "0x60e06040523480156200001157600080fd5b5060405162002957380380620029578339810160408190526200003491620007b5565b82828281818160009080519060200190620000519291906200067e565b508051620000679060019060208401906200067e565b506002805460ff1916601217905560036020526000197f3617319a054d772f909f7c479a2cebe5066e836a939412e32403c99029b92eff81905530600090815260409020557f8b73c3c69bb8fe3d512ecc4cf759cc79239f7b179b0ffacaa9a75d522b39400f6000604051620000de9190620008da565b60408051918290038220828201825260018352603160f81b6020938401528151928301939093528101919091527fc89efdaa54c0f20c7adf612882df0950f5a951637e0307cdcb4c672f298b8bc660608201524660808201523060a082015260c00160408051601f1981840301815282825280516020918201206006556001600160601b0319606089901b1660805263313ce56760e01b83529051620001ff94506001600160a01b038816935063313ce567926004808201939291829003018186803b158015620001ae57600080fd5b505afa158015620001c3573d6000803e3d6000fd5b505050506040513d601f19601f82011682018060405250810190620001e99190620008b5565b6002805460ff191660ff92909216919091179055565b505050606084901b6001600160601b03191660a05260405163095ea7b360e01b81526001600160a01b038086166004830152600019602483015284169063095ea7b390604401602060405180830381600087803b1580156200026057600080fd5b505af115801562000275573d6000803e3d6000fd5b505050506040513d601f19601f820116820180604052508101906200029b91906200084a565b506000846001600160a01b031663313ce5676040518163ffffffff1660e01b815260040160206040518083038186803b158015620002d857600080fd5b505afa158015620002ed573d6000803e3d6000fd5b505050506040513d601f19601f82011682018060405250810190620003139190620008b5565b90508060ff1660c08160ff1660f81b815250508060ff16846001600160a01b031663313ce5676040518163ffffffff1660e01b815260040160206040518083038186803b1580156200036457600080fd5b505afa15801562000379573d6000803e3d6000fd5b505050506040513d601f19601f820116820180604052508101906200039f9190620008b5565b60ff1614620003f55760405162461bcd60e51b815260206004820152601560248201527f496e636f6e73697374656e7420646563696d616c73000000000000000000000060448201526064015b60405180910390fd5b62000400856200040b565b505050505062000a3b565b6000816001600160a01b031663258294106040518163ffffffff1660e01b815260040160006040518083038186803b1580156200044757600080fd5b505afa1580156200045c573d6000803e3d6000fd5b505050506040513d6000823e601f3d908101601f1916820160405262000486919081019062000875565b9050620004b781604051806040016040528060058152602001640302e332e360dc1b8152506200061760201b60201c565b80620004ed5750620004ed8160405180604001604052806005815260200164302e332e3160d81b8152506200061760201b60201c565b80620005235750620005238160405180604001604052806005815260200164181719971960d91b8152506200061760201b60201c565b80620005595750620005598160405180604001604052806005815260200164302e332e3360d81b8152506200061760201b60201c565b806200058f57506200058f81604051806040016040528060058152602001640c0b8ccb8d60da1b8152506200061760201b60201c565b80620005c55750620005c58160405180604001604052806005815260200164302e332e3560d81b8152506200061760201b60201c565b620006135760405162461bcd60e51b815260206004820152601360248201527f556e737570706f727465642056657273696f6e000000000000000000000000006044820152606401620003ec565b5050565b600080836040516020016200062d91906200097e565b6040516020818303038152906040528051906020012090506000836040516020016200065a91906200097e565b60408051601f19818403018152919052805160209091012091909114949350505050565b8280546200068c90620009cf565b90600052602060002090601f016020900481019282620006b05760008555620006fb565b82601f10620006cb57805160ff1916838001178555620006fb565b82800160010185558215620006fb579182015b82811115620006fb578251825591602001919060010190620006de565b50620007099291506200070d565b5090565b5b808211156200070957600081556001016200070e565b600082601f8301126200073657600080fd5b81516001600160401b038082111562000753576200075362000a0c565b604051601f8301601f19908116603f011681019082821181831017156200077e576200077e62000a0c565b816040528381528660208588010111156200079857600080fd5b620007ab8460208301602089016200099c565b9695505050505050565b60008060008060808587031215620007cc57600080fd5b8451620007d98162000a22565b6020860151909450620007ec8162000a22565b60408601519093506001600160401b03808211156200080a57600080fd5b620008188883890162000724565b935060608701519150808211156200082f57600080fd5b506200083e8782880162000724565b91505092959194509250565b6000602082840312156200085d57600080fd5b815180151581146200086e57600080fd5b9392505050565b6000602082840312156200088857600080fd5b81516001600160401b038111156200089f57600080fd5b620008ad8482850162000724565b949350505050565b600060208284031215620008c857600080fd5b815160ff811681146200086e57600080fd5b600080835481600182811c915080831680620008f757607f831692505b60208084108214156200091857634e487b7160e01b86526022600452602486fd5b8180156200092f5760018114620009415762000970565b60ff1986168952848901965062000970565b60008a81526020902060005b86811015620009685781548b8201529085019083016200094d565b505084890196505b509498975050505050505050565b60008251620009928184602087016200099c565b9190910192915050565b60005b83811015620009b95781810151838201526020016200099f565b83811115620009c9576000848401525b50505050565b600181811c90821680620009e457607f821691505b6020821081141562000a0657634e487b7160e01b600052602260045260246000fd5b50919050565b634e487b7160e01b600052604160045260246000fd5b6001600160a01b038116811462000a3857600080fd5b50565b60805160601c60a05160601c60c05160f81c611e6562000af2600039600081816103b601528181611311015261178301526000818161047a015281816107660152818161082901528181610fff015281816111b50152818161124a0152818161147201528181611654015261189f0152600081816104b9015281816104fd015281816107950152818161085901528181610aee015281816110dd015281816113880152818161180c01526119bd0152611e656000f3fe608060405234801561001057600080fd5b50600436106101c35760003560e01c80637e2fb9f4116100f9578063d505accf11610097578063e613deb211610071578063e613deb21461044f578063ec5e5e7d14610462578063fbfa77cf14610475578063fc0c546a146104b457600080fd5b8063d505accf146103fe578063d6b1aaaf14610411578063dd62ed3e1461042457600080fd5b806395d89b41116100d357806395d89b41146103a95780639d6179c3146103b1578063a9059cbb146103d8578063b5c5f672146103eb57600080fd5b80637e2fb9f41461033b5780637ecebe001461035b57806385f45c881461037b57600080fd5b8063313ce5671161016657806347e7ef241161014057806347e7ef24146102ae57806358c7aa0f146102c157806367caf871146102f357806370a082311461031b57600080fd5b8063313ce567146102735780633644e515146102925780633af9e6691461029b57600080fd5b8063095ea7b3116101a2578063095ea7b31461020e57806312424e3f1461023157806323b872dd1461023957806330adf81f1461024c57600080fd5b806291a446146101c857806303d41eb6146101dd57806306fdde03146101f9575b600080fd5b6101db6101d6366004611bde565b6104db565b005b6101e660095481565b6040519081526020015b60405180910390f35b610201610654565b6040516101f09190611c10565b61022161021c366004611b5f565b6106e2565b60405190151581526020016101f0565b6101db61074f565b610221610247366004611ab0565b6108d8565b6101e67f6e71edae12b1b97f4d1f60370fef10105fa2faae0126114a169c64845d6126c981565b6002546102809060ff1681565b60405160ff90911681526020016101f0565b6101e660065481565b6101e66102a9366004611a62565b610aa7565b6101e66102bc366004611b5f565b610ac9565b6008546102db90600160801b90046001600160801b031681565b6040516001600160801b0390911681526020016101f0565b610306610301366004611b89565b610b8a565b604080519283526020830191909152016101f0565b6101e6610329366004611a62565b60036020526000908152604090205481565b6101e6610349366004611a62565b60076020526000908152604090205481565b6101e6610369366004611a62565b60056020526000908152604090205481565b61038e610389366004611a62565b610be7565b604080519384526020840192909252908201526060016101f0565b610201610c2c565b6102807f000000000000000000000000000000000000000000000000000000000000000081565b6102216103e6366004611b5f565b610c39565b6101e66103f9366004611b89565b610c46565b6101db61040c366004611aec565b610c5d565b6008546102db906001600160801b031681565b6101e6610432366004611a7d565b600460209081526000928352604080842090915290825290205481565b6101e661045d366004611bde565b610f75565b6101db610470366004611bde565b610f80565b61049c7f000000000000000000000000000000000000000000000000000000000000000081565b6040516001600160a01b0390911681526020016101f0565b61049c7f000000000000000000000000000000000000000000000000000000000000000081565b6040516323b872dd60e01b8152336004820152306024820152604481018290527f00000000000000000000000000000000000000000000000000000000000000006001600160a01b0316906323b872dd90606401602060405180830381600087803b15801561054957600080fd5b505af115801561055d573d6000803e3d6000fd5b505050506040513d601f19601f820116820180604052508101906105819190611bbc565b5060008061058d611195565b90925090508161059e8260016111b0565b6105a89082611c65565b6009549091506000816105bc5750846105d4565b826105c78784611d8d565b6105d19190611c7d565b90505b841580156105e0575083155b156105f3576105f0600187611dac565b95505b61061a6106008787611c65565b856001600160801b03908116600160801b02911617600855565b3360009081526007602052604081208054839290610639908490611c65565b9091555061064990508183611c65565b600955505050505050565b6000805461066190611dc3565b80601f016020809104026020016040519081016040528092919081815260200182805461068d90611dc3565b80156106da5780601f106106af576101008083540402835291602001916106da565b820191906000526020600020905b8154815290600101906020018083116106bd57829003601f168201915b505050505081565b3360008181526004602090815260408083206001600160a01b038716808552925280832085905551919290917f8c5be1e5ebec7d5bd14f71427d1e84f3dd0314c0f7b2291e5b200ac8c7c3b9259061073d9086815260200190565b60405180910390a35060015b92915050565b60405163095ea7b360e01b81526001600160a01b037f000000000000000000000000000000000000000000000000000000000000000081166004830152600060248301527f0000000000000000000000000000000000000000000000000000000000000000169063095ea7b390604401602060405180830381600087803b1580156107d957600080fd5b505af11580156107ed573d6000803e3d6000fd5b505050506040513d601f19601f820116820180604052508101906108119190611bbc565b5060405163095ea7b360e01b81526001600160a01b037f00000000000000000000000000000000000000000000000000000000000000008116600483015260001960248301527f0000000000000000000000000000000000000000000000000000000000000000169063095ea7b390604401602060405180830381600087803b15801561089d57600080fd5b505af11580156108b1573d6000803e3d6000fd5b505050506040513d601f19601f820116820180604052508101906108d59190611bbc565b50565b6001600160a01b038316600090815260036020526040812054828110156109465760405162461bcd60e51b815260206004820152601b60248201527f45524332303a20696e73756666696369656e742d62616c616e6365000000000060448201526064015b60405180910390fd5b6001600160a01b0385163314610a04576001600160a01b03851660009081526004602090815260408083203384529091529020546000198114610a0257838110156109d35760405162461bcd60e51b815260206004820152601d60248201527f45524332303a20696e73756666696369656e742d616c6c6f77616e6365000000604482015260640161093d565b6109dd8482611dac565b6001600160a01b03871660009081526004602090815260408083203384529091529020555b505b610a0e8382611dac565b6001600160a01b038087166000908152600360205260408082209390935590861681522054610a3e908490611c65565b6001600160a01b0380861660008181526003602052604090819020939093559151908716907fddf252ad1be2c89b69c2b068fc378daa952ba7f163c4a11628f55a4df523b3ef90610a929087815260200190565b60405180910390a360019150505b9392505050565b6001600160a01b0381166000908152600360205260408120546107499061130a565b6040516323b872dd60e01b8152336004820152306024820152604481018290526000907f00000000000000000000000000000000000000000000000000000000000000006001600160a01b0316906323b872dd90606401602060405180830381600087803b158015610b3a57600080fd5b505af1158015610b4e573d6000803e3d6000fd5b505050506040513d601f19601f82011682018060405250810190610b729190611bbc565b506000610b7d611353565b509050610aa08482611563565b60025460009081908190610ba29060ff16600a611ce2565b90506000610baf8261130a565b9050600081610bbe8489611d8d565b610bc89190611c7d565b90506000610bd8898389866115e4565b99919850909650505050505050565b6000806000806000610bf7611353565b6001600160a01b0388166000908152600360205260409020549193509150610c1f8784611563565b9196909550909350915050565b6001805461066190611dc3565b6000610aa03384846108d8565b6000610c5584848460006115e4565b949350505050565b6006546001600160a01b038881166000818152600560209081526040918290205482517f6e71edae12b1b97f4d1f60370fef10105fa2faae0126114a169c64845d6126c981840152808401859052948c166060860152608085018b905260a085015260c08085018a90528251808603909101815260e08501835280519082012061190160f01b610100860152610102850195909552610122808501959095528151808503909501855261014290930190528251929091019190912090610d655760405162461bcd60e51b815260206004820152601860248201527f45524332303a20696e76616c69642d616464726573732d300000000000000000604482015260640161093d565b60408051600081526020810180835283905260ff861691810191909152606081018490526080810183905260019060a0016020604051602081039080840390855afa158015610db8573d6000803e3d6000fd5b505050602060405103516001600160a01b0316886001600160a01b031614610e1a5760405162461bcd60e51b8152602060048201526015602482015274115490cc8c0e881a5b9d985b1a590b5c195c9b5a5d605a1b604482015260640161093d565b841580610e275750844211155b610e6b5760405162461bcd60e51b8152602060048201526015602482015274115490cc8c0e881c195c9b5a5d0b595e1c1a5c9959605a1b604482015260640161093d565b7f7fffffffffffffffffffffffffffffff5d576e7357a4501ddfe92f46681b20a0821115610ee65760405162461bcd60e51b815260206004820152602260248201527f45524332303a20696e76616c6964207369676e6174757265202773272076616c604482015261756560f01b606482015260840161093d565b6001600160a01b0388166000908152600560205260408120805491610f0a83611dfe565b90915550506001600160a01b038881166000818152600460209081526040808320948c16808452948252918290208a905590518981527f8c5be1e5ebec7d5bd14f71427d1e84f3dd0314c0f7b2291e5b200ac8c7c3b925910160405180910390a35050505050505050565b60006107498261130a565b3360009081526007602052604081208054839290610f9f908490611dac565b909155506000905080610fb0611195565b6009549193509150600081610fc58685611d8d565b610fcf9190611c7d565b604051631cc6d2f960e31b8152600481018290523060248201526000604482018190529192506001600160a01b037f0000000000000000000000000000000000000000000000000000000000000000169063e63697c890606401602060405180830381600087803b15801561104357600080fd5b505af1158015611057573d6000803e3d6000fd5b505050506040513d601f19601f8201168201806040525081019061107b9190611bf7565b905060008361108a8888611d8d565b6110949190611c7d565b90506110c66110a38288611dac565b6110ad8588611dac565b6001600160801b03908116600160801b02911617600855565b6110d08785611dac565b6009556001600160a01b037f00000000000000000000000000000000000000000000000000000000000000001663a9059cbb3361110d8486611c65565b6040516001600160e01b031960e085901b1681526001600160a01b0390921660048301526024820152604401602060405180830381600087803b15801561115357600080fd5b505af1158015611167573d6000803e3d6000fd5b505050506040513d601f19601f8201168201806040525081019061118b9190611bbc565b5050505050505050565b6008546001600160801b0380821692600160801b9092041690565b6000807f00000000000000000000000000000000000000000000000000000000000000006001600160a01b03166318160ddd6040518163ffffffff1660e01b815260040160206040518083038186803b15801561120c57600080fd5b505afa158015611220573d6000803e3d6000fd5b505050506040513d601f19601f820116820180604052508101906112449190611bf7565b905060007f00000000000000000000000000000000000000000000000000000000000000006001600160a01b03166301e1d1146040518163ffffffff1660e01b815260040160206040518083038186803b1580156112a157600080fd5b505afa1580156112b5573d6000803e3d6000fd5b505050506040513d601f19601f820116820180604052508101906112d99190611bf7565b905083156112ff57816112ec8683611d8d565b6112f69190611c7d565b92505050610749565b806112ec8684611d8d565b60006113377f0000000000000000000000000000000000000000000000000000000000000000600a611ce2565b61133f611650565b6113499084611d8d565b6107499190611c7d565b600080600080611361611195565b6040516370a0823160e01b8152306004820152919350915060009083906001600160a01b037f000000000000000000000000000000000000000000000000000000000000000016906370a082319060240160206040518083038186803b1580156113ca57600080fd5b505afa1580156113de573d6000803e3d6000fd5b505050506040513d601f19601f820116820180604052508101906114029190611bf7565b61140c9190611dac565b90508215158061141b57508115155b1561142e5761142b600182611dac565b90505b600061143b8260006111b0565b9050808311156114665761145c6114528386611c65565b6110ad8386611dac565b9590945092505050565b60006001600160a01b037f000000000000000000000000000000000000000000000000000000000000000016636e553f656114a18588611c65565b6040516001600160e01b031960e084901b1681526004810191909152306024820152604401602060405180830381600087803b1580156114e057600080fd5b505af11580156114f4573d6000803e3d6000fd5b505050506040513d601f19601f820116820180604052508101906115189190611bf7565b905060006115268487611c65565b6115308386611d8d565b61153a9190611c7d565b905061155660008261154c8589611c65565b6110ad9190611dac565b9792965091945050505050565b6001600160a01b038216600090815260036020526040902054611587908290611c65565b6001600160a01b0383166000818152600360205260408082209390935591519091907fddf252ad1be2c89b69c2b068fc378daa952ba7f163c4a11628f55a4df523b3ef906115d89085815260200190565b60405180910390a35050565b60006115f033856116e8565b60006115fd85878561175a565b9050838110156116475760405162461bcd60e51b81526020600482015260156024820152744e6f7420656e6f75676820756e6465726c79696e6760581b604482015260640161093d565b95945050505050565b60007f00000000000000000000000000000000000000000000000000000000000000006001600160a01b03166399530b066040518163ffffffff1660e01b815260040160206040518083038186803b1580156116ab57600080fd5b505afa1580156116bf573d6000803e3d6000fd5b505050506040513d601f19601f820116820180604052508101906116e39190611bf7565b905090565b6001600160a01b03821660009081526003602052604090205461170c908290611dac565b6001600160a01b0383166000818152600360205260408082209390935591517fddf252ad1be2c89b69c2b068fc378daa952ba7f163c4a11628f55a4df523b3ef906115d89085815260200190565b60008161176c57611769611650565b91505b600080611777611195565b909250905060006117a97f0000000000000000000000000000000000000000000000000000000000000000600a611ce2565b6117b1611650565b6117bb9089611d8d565b6117c59190611c7d565b905082811015611893576117e66117dc8285611dac565b6110ad8985611c65565b60405163a9059cbb60e01b81526001600160a01b038781166004830152602482018390527f0000000000000000000000000000000000000000000000000000000000000000169063a9059cbb90604401602060405180830381600087803b15801561185057600080fd5b505af1158015611864573d6000803e3d6000fd5b505050506040513d601f19601f820116820180604052508101906118889190611bbc565b509250610aa0915050565b60006001600160a01b037f00000000000000000000000000000000000000000000000000000000000000001663e63697c86118ce858b611c65565b6040516001600160e01b031960e084901b16815260048101919091523060248201526127106044820152606401602060405180830381600087803b15801561191557600080fd5b505af1158015611929573d6000803e3d6000fd5b505050506040513d601f19601f8201168201806040525081019061194d9190611bf7565b9050600061195b8985611c65565b611965838b611d8d565b61196f9190611c7d565b90506119978161197f8488611c65565b6119899190611dac565b6001600160801b0316600855565b60405163a9059cbb60e01b81526001600160a01b038981166004830152602482018390527f0000000000000000000000000000000000000000000000000000000000000000169063a9059cbb90604401602060405180830381600087803b158015611a0157600080fd5b505af1158015611a15573d6000803e3d6000fd5b505050506040513d601f19601f82011682018060405250810190611a399190611bbc565b5098975050505050505050565b80356001600160a01b0381168114611a5d57600080fd5b919050565b600060208284031215611a7457600080fd5b610aa082611a46565b60008060408385031215611a9057600080fd5b611a9983611a46565b9150611aa760208401611a46565b90509250929050565b600080600060608486031215611ac557600080fd5b611ace84611a46565b9250611adc60208501611a46565b9150604084013590509250925092565b600080600080600080600060e0888a031215611b0757600080fd5b611b1088611a46565b9650611b1e60208901611a46565b95506040880135945060608801359350608088013560ff81168114611b4257600080fd5b9699959850939692959460a0840135945060c09093013592915050565b60008060408385031215611b7257600080fd5b611b7b83611a46565b946020939093013593505050565b600080600060608486031215611b9e57600080fd5b611ba784611a46565b95602085013595506040909401359392505050565b600060208284031215611bce57600080fd5b81518015158114610aa057600080fd5b600060208284031215611bf057600080fd5b5035919050565b600060208284031215611c0957600080fd5b5051919050565b600060208083528351808285015260005b81811015611c3d57858101830151858201604001528201611c21565b81811115611c4f576000604083870101525b50601f01601f1916929092016040019392505050565b60008219821115611c7857611c78611e19565b500190565b600082611c9a57634e487b7160e01b600052601260045260246000fd5b500490565b600181815b80851115611cda578160001904821115611cc057611cc0611e19565b80851615611ccd57918102915b93841c9390800290611ca4565b509250929050565b6000610aa060ff841683600082611cfb57506001610749565b81611d0857506000610749565b8160018114611d1e5760028114611d2857611d44565b6001915050610749565b60ff841115611d3957611d39611e19565b50506001821b610749565b5060208310610133831016604e8410600b8410161715611d67575081810a610749565b611d718383611c9f565b8060001904821115611d8557611d85611e19565b029392505050565b6000816000190483118215151615611da757611da7611e19565b500290565b600082821015611dbe57611dbe611e19565b500390565b600181811c90821680611dd757607f821691505b60208210811415611df857634e487b7160e01b600052602260045260246000fd5b50919050565b6000600019821415611e1257611e12611e19565b5060010190565b634e487b7160e01b600052601160045260246000fdfea2646970667358221220038f9bd7ed40265b760d560caedc03e872f233dd39a3f675eab17176d7b9a85a64736f6c63430008070033",
  "immutableReferences": {
    "1441": [
      {
        "length": 32,
        "start": 1209
      },
      {
        "length": 32,
        "start": 1277
      },
      {
        "length": 32,
        "start": 1941
      },
      {
        "length": 32,
        "start": 2137
      },
      {
        "length": 32,
        "start": 2798
      },
      {
        "length": 32,
        "start": 4317
      },
      {
        "length": 32,
        "start": 5000
      },
      {
        "length": 32,
        "start": 6156
      },
      {
        "length": 32,
        "start": 6589
      }
    ],
    "1719": [
      {
        "length": 32,
        "start": 1146
      },
      {
        "length": 32,
        "start": 1894
      },
      {
        "length": 32,
        "start": 2089
      },
      {
        "length": 32,
        "start": 4095
      },
      {
        "length": 32,
        "start": 4533
      },
      {
        "length": 32,
        "start": 4682
      },
      {
        "length": 32,
        "start": 5234
      },
      {
        "length": 32,
        "start": 5716
      },
      {
        "length": 32,
        "start": 6303
      }
    ],
    "1721": [
      {
        "length": 32,
        "start": 950
      },
      {
        "length": 32,
        "start": 4881
      },
      {
        "length": 32,
        "start": 6019
      }
    ]
  },
  "source": "// SPDX-License-Identifier: Apache-2.0\r\n// WARNING: This has been validated for yearn vaults up to version 0.2.11.\r\n// Using this code with any later version can be unsafe.\r\npragma solidity ^0.8.0;\r\n\r\nimport \"./interfaces/IERC20.sol\";\r\nimport \"./interfaces/IYearnVault.sol\";\r\nimport \"./WrappedPosition.sol\";\r\n\r\n/// @author Element Finance\r\n/// @title Yearn Vault v1 Asset Proxy\r\ncontract YVaultAssetProxy is WrappedPosition {\r\n    IYearnVault public immutable vault;\r\n    uint8 public immutable vaultDecimals;\r\n\r\n    // This contract allows deposits to a reserve which can\r\n    // be used to short circuit the deposit process and save gas\r\n\r\n    // The following mapping tracks those non-transferable deposits\r\n    mapping(address => uint256) public reserveBalances;\r\n    // These variables store the token balances of this contract and\r\n    // should be packed by solidity into a single slot.\r\n    uint128 public reserveUnderlying;\r\n    uint128 public reserveShares;\r\n    // This is the total amount of reserve deposits\r\n    uint256 public reserveSupply;\r\n\r\n    /// @notice Constructs this contract and stores needed data\r\n    /// @param vault_ The yearn v2 vault\r\n    /// @param _token The underlying token.\r\n    ///               This token should revert in the event of a transfer failure.\r\n    /// @param _name The name of the token created\r\n    /// @param _symbol The symbol of the token created\r\n    constructor(\r\n        address vault_,\r\n        IERC20 _token,\r\n        string memory _name,\r\n        string memory _symbol\r\n    ) WrappedPosition(_token, _name, _symbol) {\r\n        vault = IYearnVault(vault_);\r\n        _token.approve(vault_, type(uint256).max);\r\n        uint8 localVaultDecimals = IERC20(vault_).decimals();\r\n        vaultDecimals = localVaultDecimals;\r\n        require(\r\n            uint8(_token.decimals()) == localVaultDecimals,\r\n            \"Inconsistent decimals\"\r\n        );\r\n        // We check that this is a compatible yearn version\r\n        _versionCheck(IYearnVault(vault_));\r\n    }\r\n\r\n    /// @notice An override-able version checking function, reverts if the vault has the wrong version\r\n    /// @param _vault The yearn vault address\r\n    /// @dev This function can be overridden by an inheriting upgrade contract\r\n    function _versionCheck(IYearnVault _vault) internal virtual view {\r\n        string memory apiVersion = _vault.apiVersion();\r\n        require(\r\n            _stringEq(apiVersion, \"0.3.0\") ||\r\n                _stringEq(apiVersion, \"0.3.1\") ||\r\n                _stringEq(apiVersion, \"0.3.2\") ||\r\n                _stringEq(apiVersion, \"0.3.3\") ||\r\n                _stringEq(apiVersion, \"0.3.4\") ||\r\n                _stringEq(apiVersion, \"0.3.5\"),\r\n            \"Unsupported Version\"\r\n        );\r\n    }\r\n\r\n    /// @notice checks if two strings are equal\r\n    /// @param s1 string one\r\n    /// @param s2 string two\r\n    /// @return bool whether they are equal\r\n    function _stringEq(string memory s1, string memory s2)\r\n        internal\r\n        pure\r\n        returns (bool)\r\n    {\r\n        bytes32 h1 = keccak256(abi.encodePacked(s1));\r\n        bytes32 h2 = keccak256(abi.encodePacked(s2));\r\n        return (h1 == h2);\r\n    }\r\n\r\n    /// @notice This function allows a user to deposit to the reserve\r\n    ///      Note - there's no incentive to do so. You could earn some\r\n    ///      interest but less interest than yearn. All deposits use\r\n    ///      the underlying token.\r\n    /// @param _amount The amount of underlying to deposit\r\n    function reserveDeposit(uint256 _amount) external {\r\n        // Transfer from user, note variable 'token' is the immutable\r\n        // inherited from the abstract WrappedPosition contract.\r\n        token.transferFrom(msg.sender, address(this), _amount);\r\n        // Load the reserves\r\n        (uint256 localUnderlying, uint256 localShares) = _getReserves();\r\n        // Calculate the total reserve value\r\n        uint256 totalValue = localUnderlying;\r\n        totalValue += _yearnDepositConverter(localShares, true);\r\n        // If this is the first deposit we need different logic\r\n        uint256 localReserveSupply = reserveSupply;\r\n        uint256 mintAmount;\r\n        if (localReserveSupply == 0) {\r\n            // If this is the first mint the tokens are exactly the supplied underlying\r\n            mintAmount = _amount;\r\n        } else {\r\n            // Otherwise we mint the proportion that this increases the value held by this contract\r\n            mintAmount = (localReserveSupply * _amount) / totalValue;\r\n        }\r\n\r\n        // This hack means that the contract will never have zero balance of underlying\r\n        // which levels the gas expenditure of the transfer to this contract. Permanently locks\r\n        // the smallest possible unit of the underlying.\r\n        if (localUnderlying == 0 && localShares == 0) {\r\n            _amount -= 1;\r\n        }\r\n        // Set the reserves that this contract has more underlying\r\n        _setReserves(localUnderlying + _amount, localShares);\r\n        // Note that the sender has deposited and increase reserveSupply\r\n        reserveBalances[msg.sender] += mintAmount;\r\n        reserveSupply = localReserveSupply + mintAmount;\r\n    }\r\n\r\n    /// @notice This function allows a holder of reserve balance to withdraw their share\r\n    /// @param _amount The number of reserve shares to withdraw\r\n    function reserveWithdraw(uint256 _amount) external {\r\n        // Remove 'amount' from the balances of the sender. Because this is 8.0 it will revert on underflow\r\n        reserveBalances[msg.sender] -= _amount;\r\n        // We load the reserves\r\n        (uint256 localUnderlying, uint256 localShares) = _getReserves();\r\n        uint256 localReserveSupply = reserveSupply;\r\n        // Then we calculate the proportion of the shares to redeem\r\n        uint256 userShares = (localShares * _amount) / localReserveSupply;\r\n        // First we withdraw the proportion of shares tokens belonging to the caller\r\n        uint256 freedUnderlying = vault.withdraw(userShares, address(this), 0);\r\n        // We calculate the amount of underlying to send\r\n        uint256 userUnderlying = (localUnderlying * _amount) /\r\n            localReserveSupply;\r\n\r\n        // We then store the updated reserve amounts\r\n        _setReserves(\r\n            localUnderlying - userUnderlying,\r\n            localShares - userShares\r\n        );\r\n        // We note a reduction in local supply\r\n        reserveSupply = localReserveSupply - _amount;\r\n\r\n        // We send the redemption underlying to the caller\r\n        // Note 'token' is an immutable from shares\r\n        token.transfer(msg.sender, freedUnderlying + userUnderlying);\r\n    }\r\n\r\n    /// @notice Makes the actual deposit into the yearn vault\r\n    ///         Tries to use the local balances before depositing\r\n    /// @return Tuple (the shares minted, amount underlying used)\r\n    function _deposit() internal override returns (uint256, uint256) {\r\n        //Load reserves\r\n        (uint256 localUnderlying, uint256 localShares) = _getReserves();\r\n        // Get the amount deposited\r\n        uint256 amount = token.balanceOf(address(this)) - localUnderlying;\r\n        // fixing for the fact there's an extra underlying\r\n        if (localUnderlying != 0 || localShares != 0) {\r\n            amount -= 1;\r\n        }\r\n        // Calculate the amount of shares the amount deposited is worth\r\n        uint256 neededShares = _yearnDepositConverter(amount, false);\r\n\r\n        // If we have enough in local reserves we don't call out for deposits\r\n        if (localShares > neededShares) {\r\n            // We set the reserves\r\n            _setReserves(localUnderlying + amount, localShares - neededShares);\r\n            // And then we short circuit execution and return\r\n            return (neededShares, amount);\r\n        }\r\n        // Deposit and get the shares that were minted to this\r\n        uint256 shares = vault.deposit(localUnderlying + amount, address(this));\r\n\r\n        // calculate the user share\r\n        uint256 userShare = (amount * shares) / (localUnderlying + amount);\r\n\r\n        // We set the reserves\r\n        _setReserves(0, localShares + shares - userShare);\r\n        // Return the amount of shares the user has produced, and the amount used for it.\r\n        return (userShare, amount);\r\n    }\r\n\r\n    /// @notice Withdraw the number of shares and will short circuit if it can\r\n    /// @param _shares The number of shares to withdraw\r\n    /// @param _destination The address to send the output funds\r\n    /// @param _underlyingPerShare The possibly precomputed underlying per share\r\n    function _withdraw(\r\n        uint256 _shares,\r\n        address _destination,\r\n        uint256 _underlyingPerShare\r\n    ) internal override returns (uint256) {\r\n        // If we do not have it we load the price per share\r\n        if (_underlyingPerShare == 0) {\r\n            _underlyingPerShare = _pricePerShare();\r\n        }\r\n        // We load the reserves\r\n        (uint256 localUnderlying, uint256 localShares) = _getReserves();\r\n        // Calculate the amount of shares the amount deposited is worth\r\n        uint256 needed = (_shares * _pricePerShare()) / (10**vaultDecimals);\r\n        // If we have enough underlying we don't have to actually withdraw\r\n        if (needed < localUnderlying) {\r\n            // We set the reserves to be the new reserves\r\n            _setReserves(localUnderlying - needed, localShares + _shares);\r\n            // Then transfer needed underlying to the destination\r\n            // 'token' is an immutable in WrappedPosition\r\n            token.transfer(_destination, needed);\r\n            // Short circuit and return\r\n            return (needed);\r\n        }\r\n        // If we don't have enough local reserves we do the actual withdraw\r\n        // Withdraws shares from the vault. Max loss is set at 100% as\r\n        // the minimum output value is enforced by the calling\r\n        // function in the WrappedPosition contract.\r\n        uint256 amountReceived = vault.withdraw(\r\n            _shares + localShares,\r\n            address(this),\r\n            10000\r\n        );\r\n\r\n        // calculate the user share\r\n        uint256 userShare = (_shares * amountReceived) /\r\n            (localShares + _shares);\r\n\r\n        _setReserves(localUnderlying + amountReceived - userShare, 0);\r\n        // Transfer the underlying to the destination 'token' is an immutable in WrappedPosition\r\n        token.transfer(_destination, userShare);\r\n        // Return the amount of underlying\r\n        return userShare;\r\n    }\r\n\r\n    /// @notice Get the underlying amount of tokens per shares given\r\n    /// @param _amount The amount of shares you want to know the value of\r\n    /// @return Value of shares in underlying token\r\n    function _underlying(uint256 _amount)\r\n        internal\r\n        override\r\n        view\r\n        returns (uint256)\r\n    {\r\n        return (_amount * _pricePerShare()) / (10**vaultDecimals);\r\n    }\r\n\r\n    /// @notice Get the price per share in the vault\r\n    /// @return The price per share in units of underlying;\r\n    function _pricePerShare() internal view returns (uint256) {\r\n        return vault.pricePerShare();\r\n    }\r\n\r\n    /// @notice Function to reset approvals for the proxy\r\n    function approve() external {\r\n        token.approve(address(vault), 0);\r\n        token.approve(address(vault), type(uint256).max);\r\n    }\r\n\r\n    /// @notice Helper to get the reserves with one sload\r\n    /// @return Tuple (reserve underlying, reserve shares)\r\n    function _getReserves() internal view returns (uint256, uint256) {\r\n        return (uint256(reserveUnderlying), uint256(reserveShares));\r\n    }\r\n\r\n    /// @notice Helper to set reserves using one sstore\r\n    /// @param _newReserveUnderlying The new reserve of underlying\r\n    /// @param _newReserveShares The new reserve of wrapped position shares\r\n    function _setReserves(\r\n        uint256 _newReserveUnderlying,\r\n        uint256 _newReserveShares\r\n    ) internal {\r\n        reserveUnderlying = uint128(_newReserveUnderlying);\r\n        reserveShares = uint128(_newReserveShares);\r\n    }\r\n\r\n    /// @notice Converts an input of shares to it's output of underlying or an input\r\n    ///      of underlying to an output of shares, using yearn 's deposit pricing\r\n    /// @param amount the amount of input, shares if 'sharesIn == true' underlying if not\r\n    /// @param sharesIn true to convert from yearn shares to underlying, false to convert from\r\n    ///                 underlying to yearn shares\r\n    /// @dev WARNING - In yearn 0.3.1 - 0.3.5 this is an exact match for deposit logic\r\n    ///                but not withdraw logic in versions 0.3.2-0.3.5. In versions 0.4.0+\r\n    ///                it is not a match for yearn deposit ratios.\r\n    /// @return The converted output of either underlying or yearn shares\r\n    function _yearnDepositConverter(uint256 amount, bool sharesIn)\r\n        internal\r\n        virtual\r\n        view\r\n        returns (uint256)\r\n    {\r\n        // Load the yearn total supply and assets\r\n        uint256 yearnTotalSupply = vault.totalSupply();\r\n        uint256 yearnTotalAssets = vault.totalAssets();\r\n        // If we are converted shares to underlying\r\n        if (sharesIn) {\r\n            // then we get the fraction of yearn shares this is and multiply by assets\r\n            return (yearnTotalAssets * amount) / yearnTotalSupply;\r\n        } else {\r\n            // otherwise we figure out the faction of yearn assets this is and see how\r\n            // many assets we get out.\r\n            return (yearnTotalSupply * amount) / yearnTotalAssets;\r\n        }\r\n    }\r\n}\r\n",
  "sourcePath": "/f/BlockChain/conflux/contract/Liberation-fi/contracts/YVaultAssetProxy.sol",
  "compiler": {
    "name": "solc",
    "version": "0.8.7+commit.e28d00a7.Linux.g++"
  },
  "schemaVersion": "3.3.4",
  "updatedAt": "2021-08-18T09:57:15.076Z",
  "devdoc": {
    "author": "Element Finance",
    "kind": "dev",
    "methods": {
      "approve(address,uint256)": {
        "params": {
          "account": "The account which will be approve to transfer tokens",
          "amount": "The approval amount, if set to uint256.max the allowance does not go down on transfers."
        },
        "returns": {
          "_0": "returns true for compatibility with the ERC20 standard"
        }
      },
      "balanceOfUnderlying(address)": {
        "params": {
          "_who": "The address to query"
        },
        "returns": {
          "_0": "The underlying token balance of the address"
        }
      },
      "constructor": {
        "params": {
          "_name": "The name of the token created",
          "_symbol": "The symbol of the token created",
          "_token": "The underlying token.               This token should revert in the event of a transfer failure.",
          "vault_": "The yearn v2 vault"
        }
      },
      "deposit(address,uint256)": {
        "params": {
          "_amount": "The amount of underlying tokens to deposit",
          "_destination": "The address to mint to"
        },
        "returns": {
          "_0": "Returns the number of Wrapped Position tokens minted"
        }
      },
      "getSharesToUnderlying(uint256)": {
        "params": {
          "_shares": "Shares to calculate underlying value for"
        },
        "returns": {
          "_0": "The value of underlying assets for the given shares"
        }
      },
      "permit(address,address,uint256,uint256,uint8,bytes32,bytes32)": {
        "details": "The signature for this function follows EIP 712 standard and should be generated with the      eth_signTypedData JSON RPC call instead of the eth_sign JSON RPC call. If using out of date      parity signing libraries the v component may need to be adjusted. Also it is very rare but possible      for v to be other values, those values are not supported.",
        "params": {
          "deadline": "the timestamp which the signature must be submitted by to be valid",
          "owner": "the owner of the account which is having the new approval set",
          "r": "The r component of the ECDSA signature",
          "s": "The s component of the ECDSA signature",
          "spender": "the address which will be allowed to spend owner's tokens",
          "v": "Extra ECDSA data which allows public key recovery from signature assumed to be 27 or 28",
          "value": "the new allowance value"
        }
      },
      "prefundedDeposit(address)": {
        "details": "WARNING - The call which funds this method MUST be in the same transaction",
        "params": {
          "_destination": "the destination of this deposit"
        },
        "returns": {
          "_0": "Returns (WP tokens minted, used underlying,                  senders WP balance before mint)"
        }
      },
      "reserveDeposit(uint256)": {
        "params": {
          "_amount": "The amount of underlying to deposit"
        }
      },
      "reserveWithdraw(uint256)": {
        "params": {
          "_amount": "The number of reserve shares to withdraw"
        }
      },
      "transfer(address,uint256)": {
        "details": "transfers to this contract address or 0 will fail",
        "params": {
          "amount": "The amount user token to send",
          "recipient": "The address which will be credited with the tokens"
        },
        "returns": {
          "_0": "returns true on success, reverts on failure so cannot return false."
        }
      },
      "transferFrom(address,address,uint256)": {
        "details": "will fail transfers which send funds to this contract or 0",
        "params": {
          "amount": "the number of tokens to send",
          "recipient": "The destination of the ERC20 tokens",
          "spender": "The source of the ERC20 tokens"
        },
        "returns": {
          "_0": "returns true on success and reverts on failure"
        }
      },
      "withdraw(address,uint256,uint256)": {
        "params": {
          "_destination": "The address which is credited with tokens",
          "_minUnderlying": "The min output the caller expects",
          "_shares": "The amount of shares the user is burning to withdraw underlying"
        },
        "returns": {
          "_0": "The amount of underlying transferred to the destination"
        }
      },
      "withdrawUnderlying(address,uint256,uint256)": {
        "params": {
          "_amount": "The amount of underlying to try to redeem for",
          "_destination": "The address to send the output to",
          "_minUnderlying": "The minium underlying to receive"
        },
        "returns": {
          "_0": "The amount of underlying released, and shares used"
        }
      }
    },
    "title": "Yearn Vault v1 Asset Proxy",
    "version": 1
  },
  "userdoc": {
    "kind": "user",
    "methods": {
      "approve()": {
        "notice": "Function to reset approvals for the proxy"
      },
      "approve(address,uint256)": {
        "notice": "This function allows a user to approve an account which can transfer         tokens on their behalf."
      },
      "balanceOfUnderlying(address)": {
        "notice": "Get the underlying balance of an address"
      },
      "constructor": {
        "notice": "Constructs this contract and stores needed data"
      },
      "deposit(address,uint256)": {
        "notice": "Entry point to deposit tokens into the Wrapped Position contract         Transfers tokens on behalf of caller so the caller must set         allowance on the contract prior to call."
      },
      "getSharesToUnderlying(uint256)": {
        "notice": "Returns the amount of the underlying asset a certain amount of shares is worth"
      },
      "permit(address,address,uint256,uint256,uint8,bytes32,bytes32)": {
        "notice": "This function allows a caller who is not the owner of an account to execute the functionality of 'approve' with the owners signature."
      },
      "prefundedDeposit(address)": {
        "notice": "Entry point to deposit tokens into the Wrapped Position contract         Assumes the tokens were transferred before this was called"
      },
      "reserveDeposit(uint256)": {
        "notice": "This function allows a user to deposit to the reserve      Note - there's no incentive to do so. You could earn some      interest but less interest than yearn. All deposits use      the underlying token."
      },
      "reserveWithdraw(uint256)": {
        "notice": "This function allows a holder of reserve balance to withdraw their share"
      },
      "transfer(address,uint256)": {
        "notice": "Allows a token owner to send tokens to another address"
      },
      "transferFrom(address,address,uint256)": {
        "notice": "Transfers an amount of erc20 from a spender to a receipt"
      },
      "withdraw(address,uint256,uint256)": {
        "notice": "Exit point to withdraw tokens from the Wrapped Position contract"
      },
      "withdrawUnderlying(address,uint256,uint256)": {
        "notice": "This function burns enough tokens from the sender to send _amount          of underlying to the _destination."
      }
    },
    "version": 1
  }
}