{
  "contractName": "YVaultV4AssetProxy",
  "abi": [
    {
      "inputs": [
        {
          "internalType": "address",
          "name": "vault_",
          "type": "address"
        },
        {
          "internalType": "contract IERC20",
          "name": "_token",
          "type": "address"
        },
        {
          "internalType": "string",
          "name": "_name",
          "type": "string"
        },
        {
          "internalType": "string",
          "name": "_symbol",
          "type": "string"
        }
      ],
      "stateMutability": "nonpayable",
      "type": "constructor"
    },
    {
      "anonymous": false,
      "inputs": [
        {
          "indexed": true,
          "internalType": "address",
          "name": "owner",
          "type": "address"
        },
        {
          "indexed": true,
          "internalType": "address",
          "name": "spender",
          "type": "address"
        },
        {
          "indexed": false,
          "internalType": "uint256",
          "name": "value",
          "type": "uint256"
        }
      ],
      "name": "Approval",
      "type": "event"
    },
    {
      "anonymous": false,
      "inputs": [
        {
          "indexed": true,
          "internalType": "address",
          "name": "from",
          "type": "address"
        },
        {
          "indexed": true,
          "internalType": "address",
          "name": "to",
          "type": "address"
        },
        {
          "indexed": false,
          "internalType": "uint256",
          "name": "value",
          "type": "uint256"
        }
      ],
      "name": "Transfer",
      "type": "event"
    },
    {
      "inputs": [],
      "name": "DOMAIN_SEPARATOR",
      "outputs": [
        {
          "internalType": "bytes32",
          "name": "",
          "type": "bytes32"
        }
      ],
      "stateMutability": "view",
      "type": "function"
    },
    {
      "inputs": [],
      "name": "PERMIT_TYPEHASH",
      "outputs": [
        {
          "internalType": "bytes32",
          "name": "",
          "type": "bytes32"
        }
      ],
      "stateMutability": "view",
      "type": "function"
    },
    {
      "inputs": [
        {
          "internalType": "address",
          "name": "",
          "type": "address"
        },
        {
          "internalType": "address",
          "name": "",
          "type": "address"
        }
      ],
      "name": "allowance",
      "outputs": [
        {
          "internalType": "uint256",
          "name": "",
          "type": "uint256"
        }
      ],
      "stateMutability": "view",
      "type": "function"
    },
    {
      "inputs": [
        {
          "internalType": "address",
          "name": "account",
          "type": "address"
        },
        {
          "internalType": "uint256",
          "name": "amount",
          "type": "uint256"
        }
      ],
      "name": "approve",
      "outputs": [
        {
          "internalType": "bool",
          "name": "",
          "type": "bool"
        }
      ],
      "stateMutability": "nonpayable",
      "type": "function"
    },
    {
      "inputs": [],
      "name": "approve",
      "outputs": [],
      "stateMutability": "nonpayable",
      "type": "function"
    },
    {
      "inputs": [
        {
          "internalType": "address",
          "name": "",
          "type": "address"
        }
      ],
      "name": "balanceOf",
      "outputs": [
        {
          "internalType": "uint256",
          "name": "",
          "type": "uint256"
        }
      ],
      "stateMutability": "view",
      "type": "function"
    },
    {
      "inputs": [
        {
          "internalType": "address",
          "name": "_who",
          "type": "address"
        }
      ],
      "name": "balanceOfUnderlying",
      "outputs": [
        {
          "internalType": "uint256",
          "name": "",
          "type": "uint256"
        }
      ],
      "stateMutability": "view",
      "type": "function"
    },
    {
      "inputs": [],
      "name": "decimals",
      "outputs": [
        {
          "internalType": "uint8",
          "name": "",
          "type": "uint8"
        }
      ],
      "stateMutability": "view",
      "type": "function"
    },
    {
      "inputs": [
        {
          "internalType": "address",
          "name": "_destination",
          "type": "address"
        },
        {
          "internalType": "uint256",
          "name": "_amount",
          "type": "uint256"
        }
      ],
      "name": "deposit",
      "outputs": [
        {
          "internalType": "uint256",
          "name": "",
          "type": "uint256"
        }
      ],
      "stateMutability": "nonpayable",
      "type": "function"
    },
    {
      "inputs": [
        {
          "internalType": "uint256",
          "name": "_shares",
          "type": "uint256"
        }
      ],
      "name": "getSharesToUnderlying",
      "outputs": [
        {
          "internalType": "uint256",
          "name": "",
          "type": "uint256"
        }
      ],
      "stateMutability": "view",
      "type": "function"
    },
    {
      "inputs": [],
      "name": "name",
      "outputs": [
        {
          "internalType": "string",
          "name": "",
          "type": "string"
        }
      ],
      "stateMutability": "view",
      "type": "function"
    },
    {
      "inputs": [
        {
          "internalType": "address",
          "name": "",
          "type": "address"
        }
      ],
      "name": "nonces",
      "outputs": [
        {
          "internalType": "uint256",
          "name": "",
          "type": "uint256"
        }
      ],
      "stateMutability": "view",
      "type": "function"
    },
    {
      "inputs": [
        {
          "internalType": "address",
          "name": "owner",
          "type": "address"
        },
        {
          "internalType": "address",
          "name": "spender",
          "type": "address"
        },
        {
          "internalType": "uint256",
          "name": "value",
          "type": "uint256"
        },
        {
          "internalType": "uint256",
          "name": "deadline",
          "type": "uint256"
        },
        {
          "internalType": "uint8",
          "name": "v",
          "type": "uint8"
        },
        {
          "internalType": "bytes32",
          "name": "r",
          "type": "bytes32"
        },
        {
          "internalType": "bytes32",
          "name": "s",
          "type": "bytes32"
        }
      ],
      "name": "permit",
      "outputs": [],
      "stateMutability": "nonpayable",
      "type": "function"
    },
    {
      "inputs": [
        {
          "internalType": "address",
          "name": "_destination",
          "type": "address"
        }
      ],
      "name": "prefundedDeposit",
      "outputs": [
        {
          "internalType": "uint256",
          "name": "",
          "type": "uint256"
        },
        {
          "internalType": "uint256",
          "name": "",
          "type": "uint256"
        },
        {
          "internalType": "uint256",
          "name": "",
          "type": "uint256"
        }
      ],
      "stateMutability": "nonpayable",
      "type": "function"
    },
    {
      "inputs": [
        {
          "internalType": "address",
          "name": "",
          "type": "address"
        }
      ],
      "name": "reserveBalances",
      "outputs": [
        {
          "internalType": "uint256",
          "name": "",
          "type": "uint256"
        }
      ],
      "stateMutability": "view",
      "type": "function"
    },
    {
      "inputs": [
        {
          "internalType": "uint256",
          "name": "_amount",
          "type": "uint256"
        }
      ],
      "name": "reserveDeposit",
      "outputs": [],
      "stateMutability": "nonpayable",
      "type": "function"
    },
    {
      "inputs": [],
      "name": "reserveShares",
      "outputs": [
        {
          "internalType": "uint128",
          "name": "",
          "type": "uint128"
        }
      ],
      "stateMutability": "view",
      "type": "function"
    },
    {
      "inputs": [],
      "name": "reserveSupply",
      "outputs": [
        {
          "internalType": "uint256",
          "name": "",
          "type": "uint256"
        }
      ],
      "stateMutability": "view",
      "type": "function"
    },
    {
      "inputs": [],
      "name": "reserveUnderlying",
      "outputs": [
        {
          "internalType": "uint128",
          "name": "",
          "type": "uint128"
        }
      ],
      "stateMutability": "view",
      "type": "function"
    },
    {
      "inputs": [
        {
          "internalType": "uint256",
          "name": "_amount",
          "type": "uint256"
        }
      ],
      "name": "reserveWithdraw",
      "outputs": [],
      "stateMutability": "nonpayable",
      "type": "function"
    },
    {
      "inputs": [],
      "name": "symbol",
      "outputs": [
        {
          "internalType": "string",
          "name": "",
          "type": "string"
        }
      ],
      "stateMutability": "view",
      "type": "function"
    },
    {
      "inputs": [],
      "name": "token",
      "outputs": [
        {
          "internalType": "contract IERC20",
          "name": "",
          "type": "address"
        }
      ],
      "stateMutability": "view",
      "type": "function"
    },
    {
      "inputs": [
        {
          "internalType": "address",
          "name": "recipient",
          "type": "address"
        },
        {
          "internalType": "uint256",
          "name": "amount",
          "type": "uint256"
        }
      ],
      "name": "transfer",
      "outputs": [
        {
          "internalType": "bool",
          "name": "",
          "type": "bool"
        }
      ],
      "stateMutability": "nonpayable",
      "type": "function"
    },
    {
      "inputs": [
        {
          "internalType": "address",
          "name": "spender",
          "type": "address"
        },
        {
          "internalType": "address",
          "name": "recipient",
          "type": "address"
        },
        {
          "internalType": "uint256",
          "name": "amount",
          "type": "uint256"
        }
      ],
      "name": "transferFrom",
      "outputs": [
        {
          "internalType": "bool",
          "name": "",
          "type": "bool"
        }
      ],
      "stateMutability": "nonpayable",
      "type": "function"
    },
    {
      "inputs": [],
      "name": "vault",
      "outputs": [
        {
          "internalType": "contract IYearnVault",
          "name": "",
          "type": "address"
        }
      ],
      "stateMutability": "view",
      "type": "function"
    },
    {
      "inputs": [],
      "name": "vaultDecimals",
      "outputs": [
        {
          "internalType": "uint8",
          "name": "",
          "type": "uint8"
        }
      ],
      "stateMutability": "view",
      "type": "function"
    },
    {
      "inputs": [
        {
          "internalType": "address",
          "name": "_destination",
          "type": "address"
        },
        {
          "internalType": "uint256",
          "name": "_shares",
          "type": "uint256"
        },
        {
          "internalType": "uint256",
          "name": "_minUnderlying",
          "type": "uint256"
        }
      ],
      "name": "withdraw",
      "outputs": [
        {
          "internalType": "uint256",
          "name": "",
          "type": "uint256"
        }
      ],
      "stateMutability": "nonpayable",
      "type": "function"
    },
    {
      "inputs": [
        {
          "internalType": "address",
          "name": "_destination",
          "type": "address"
        },
        {
          "internalType": "uint256",
          "name": "_amount",
          "type": "uint256"
        },
        {
          "internalType": "uint256",
          "name": "_minUnderlying",
          "type": "uint256"
        }
      ],
      "name": "withdrawUnderlying",
      "outputs": [
        {
          "internalType": "uint256",
          "name": "",
          "type": "uint256"
        },
        {
          "internalType": "uint256",
          "name": "",
          "type": "uint256"
        }
      ],
      "stateMutability": "nonpayable",
      "type": "function"
    }
  ],
  "bytecode": "0x60e06040523480156200001157600080fd5b5060405162002a5638038062002a56833981016040819052620000349162000688565b83838383828282818181600090805190602001906200005592919062000559565b5080516200006b90600190602084019062000559565b506002805460ff1916601217905560036020526000197f3617319a054d772f909f7c479a2cebe5066e836a939412e32403c99029b92eff8190553060009081526040902055620000ba620003d5565b7f8b73c3c69bb8fe3d512ecc4cf759cc79239f7b179b0ffacaa9a75d522b39400f6000604051620000ec9190620007a4565b60408051918290038220828201825260018352603160f81b60209384015290516200013f93927fc89efdaa54c0f20c7adf612882df0950f5a951637e0307cdcb4c672f298b8bc691469130910162000880565b60408051601f1981840301815282825280516020918201206006556001600160601b0319606089901b1660805263313ce56760e01b83529051620001ee94506001600160a01b038816935063313ce567926004808201939291829003018186803b158015620001ad57600080fd5b505afa158015620001c2573d6000803e3d6000fd5b505050506040513d601f19601f82011682018060405250810190620001e8919062000781565b620003d7565b5050506001600160601b0319606085901b1660a05260405163095ea7b360e01b81526001600160a01b0384169063095ea7b390620002359087906000199060040162000867565b602060405180830381600087803b1580156200025057600080fd5b505af115801562000265573d6000803e3d6000fd5b505050506040513d601f19601f820116820180604052508101906200028b91906200071a565b506000846001600160a01b031663313ce5676040518163ffffffff1660e01b815260040160206040518083038186803b158015620002c857600080fd5b505afa158015620002dd573d6000803e3d6000fd5b505050506040513d601f19601f8201168201806040525081019062000303919062000781565b90508060ff1660c08160ff1660f81b815250508060ff16846001600160a01b031663313ce5676040518163ffffffff1660e01b815260040160206040518083038186803b1580156200035457600080fd5b505afa15801562000369573d6000803e3d6000fd5b505050506040513d601f19601f820116820180604052508101906200038f919062000781565b60ff1614620003bb5760405162461bcd60e51b8152600401620003b290620008ac565b60405180910390fd5b620003c685620003ed565b505050505050505050620009c5565b565b6002805460ff191660ff92909216919091179055565b6000816001600160a01b031663258294106040518163ffffffff1660e01b815260040160006040518083038186803b1580156200042957600080fd5b505afa1580156200043e573d6000803e3d6000fd5b505050506040513d6000823e601f3d908101601f1916820160405262000468919081019062000743565b905062000499816040518060400160405280600581526020016418171a171960d91b815250620004f260201b60201c565b80620004cf5750620004cf8160405180604001604052806005815260200164302e342e3360d81b815250620004f260201b60201c565b620004ee5760405162461bcd60e51b8152600401620003b290620008e3565b5050565b6000808360405160200162000508919062000849565b60405160208183030381529060405280519060200120905060008360405160200162000535919062000849565b60408051601f19818403018152919052805160209091012091909114949350505050565b828054620005679062000959565b90600052602060002090601f0160209004810192826200058b5760008555620005d6565b82601f10620005a657805160ff1916838001178555620005d6565b82800160010185558215620005d6579182015b82811115620005d6578251825591602001919060010190620005b9565b50620005e4929150620005e8565b5090565b5b80821115620005e45760008155600101620005e9565b600082601f83011262000610578081fd5b81516001600160401b03808211156200062d576200062d62000996565b604051601f8301601f19168101602001828111828210171562000654576200065462000996565b6040528281528483016020018610156200066c578384fd5b6200067f83602083016020880162000926565b95945050505050565b600080600080608085870312156200069e578384fd5b8451620006ab81620009ac565b6020860151909450620006be81620009ac565b60408601519093506001600160401b0380821115620006db578384fd5b620006e988838901620005ff565b93506060870151915080821115620006ff578283fd5b506200070e87828801620005ff565b91505092959194509250565b6000602082840312156200072c578081fd5b815180151581146200073c578182fd5b9392505050565b60006020828403121562000755578081fd5b81516001600160401b038111156200076b578182fd5b6200077984828501620005ff565b949350505050565b60006020828403121562000793578081fd5b815160ff811681146200073c578182fd5b8154600090819060028104600180831680620007c157607f831692505b6020808410821415620007e257634e487b7160e01b87526022600452602487fd5b818015620007f957600181146200080b576200083b565b60ff198616895284890196506200083b565b620008168a6200091a565b885b86811015620008335781548b82015290850190830162000818565b505084890196505b509498975050505050505050565b600082516200085d81846020870162000926565b9190910192915050565b6001600160a01b03929092168252602082015260400190565b9485526020850193909352604084019190915260608301526001600160a01b0316608082015260a00190565b60208082526015908201527f496e636f6e73697374656e7420646563696d616c730000000000000000000000604082015260600190565b60208082526013908201527f556e737570706f727465642056657273696f6e00000000000000000000000000604082015260600190565b60009081526020902090565b60005b838110156200094357818101518382015260200162000929565b8381111562000953576000848401525b50505050565b6002810460018216806200096e57607f821691505b602082108114156200099057634e487b7160e01b600052602260045260246000fd5b50919050565b634e487b7160e01b600052604160045260246000fd5b6001600160a01b0381168114620009c257600080fd5b50565b60805160601c60a05160601c60c05160f81c611fd362000a8360003960008181610b51015281816110fe01528181611150015281816111c001526116300152600081816106720152818161073401528181610e6101528181610ffb015281816110620152818161132501528181611503015261174a0152600081816103e501528181610645015281816107070152818161099d01528181610f500152818161101f01528181611219015281816116aa01526118470152611fd36000f3fe608060405234801561001057600080fd5b50600436106101c35760003560e01c80637e2fb9f4116100f9578063d505accf11610097578063e613deb211610071578063e613deb21461038b578063ec5e5e7d1461039e578063fbfa77cf146103b1578063fc0c546a146103c6576101c3565b8063d505accf1461035d578063d6b1aaaf14610370578063dd62ed3e14610378576101c3565b806395d89b41116100d357806395d89b41146103275780639d6179c31461032f578063a9059cbb14610337578063b5c5f6721461034a576101c3565b80637e2fb9f4146102df5780637ecebe00146102f257806385f45c8814610305576101c3565b8063313ce5671161016657806347e7ef241161014057806347e7ef241461028357806358c7aa0f1461029657806367caf871146102ab57806370a08231146102cc576101c3565b8063313ce567146102535780633644e515146102685780633af9e66914610270576101c3565b8063095ea7b3116101a2578063095ea7b31461021057806312424e3f1461023057806323b872dd1461023857806330adf81f1461024b576101c3565b806291a446146101c857806303d41eb6146101dd57806306fdde03146101fb575b600080fd5b6101db6101d6366004611a67565b6103ce565b005b6101e561052f565b6040516101f29190611b0e565b60405180910390f35b610203610535565b6040516101f29190611b69565b61022361021e3660046119ec565b6105c3565b6040516101f29190611b03565b6101db61062e565b610223610246366004611940565b6107b5565b6101e5610926565b61025b61094a565b6040516101f29190611d9e565b6101e5610953565b6101e561027e3660046118f4565b610959565b6101e56102913660046119ec565b610983565b61029e610a40565b6040516101f29190611d30565b6102be6102b9366004611a15565b610a56565b6040516101f2929190611d7a565b6101e56102da3660046118f4565b610ac7565b6101e56102ed3660046118f4565b610ad9565b6101e56103003660046118f4565b610aeb565b6103186103133660046118f4565b610afd565b6040516101f293929190611d88565b610203610b42565b61025b610b4f565b6102236103453660046119ec565b610b73565b6101e5610358366004611a15565b610b80565b6101db61036b36600461197b565b610b97565b61029e610dd5565b6101e561038636600461190e565b610de4565b6101e5610399366004611a67565b610e01565b6101db6103ac366004611a67565b610e0c565b6103b9610ff9565b6040516101f29190611ab2565b6103b961101d565b6040516323b872dd60e01b81526001600160a01b037f000000000000000000000000000000000000000000000000000000000000000016906323b872dd9061041e90339030908690600401611ac6565b602060405180830381600087803b15801561043857600080fd5b505af115801561044c573d6000803e3d6000fd5b505050506040513d601f19601f820116820180604052508101906104709190611a47565b5060008061047c611041565b90925090508161048d82600161105d565b6104979082611dac565b6009549091506000816104ab5750846104c3565b826104b68784611efb565b6104c09190611dc4565b90505b841580156104cf575083155b156104e2576104df600187611f1a565b95505b6104f56104ef8787611dac565b85611180565b3360009081526007602052604081208054839290610514908490611dac565b9091555061052490508183611dac565b600955505050505050565b60095481565b6000805461054290611f31565b80601f016020809104026020016040519081016040528092919081815260200182805461056e90611f31565b80156105bb5780601f10610590576101008083540402835291602001916105bb565b820191906000526020600020905b81548152906001019060200180831161059e57829003601f168201915b505050505081565b3360008181526004602090815260408083206001600160a01b038716808552925280832085905551919290917f8c5be1e5ebec7d5bd14f71427d1e84f3dd0314c0f7b2291e5b200ac8c7c3b9259061061c908690611b0e565b60405180910390a35060015b92915050565b60405163095ea7b360e01b81526001600160a01b037f0000000000000000000000000000000000000000000000000000000000000000169063095ea7b39061069d907f000000000000000000000000000000000000000000000000000000000000000090600090600401611aea565b602060405180830381600087803b1580156106b757600080fd5b505af11580156106cb573d6000803e3d6000fd5b505050506040513d601f19601f820116820180604052508101906106ef9190611a47565b5060405163095ea7b360e01b81526001600160a01b037f0000000000000000000000000000000000000000000000000000000000000000169063095ea7b390610760907f00000000000000000000000000000000000000000000000000000000000000009060001990600401611aea565b602060405180830381600087803b15801561077a57600080fd5b505af115801561078e573d6000803e3d6000fd5b505050506040513d601f19601f820116820180604052508101906107b29190611a47565b50565b6001600160a01b038316600090815260036020526040812054828110156107f75760405162461bcd60e51b81526004016107ee90611cf9565b60405180910390fd5b6001600160a01b0385163314610885576001600160a01b0385166000908152600460209081526040808320338452909152902054600019811461088357838110156108545760405162461bcd60e51b81526004016107ee90611bbc565b61085e8482611f1a565b6001600160a01b03871660009081526004602090815260408083203384529091529020555b505b61088f8382611f1a565b6001600160a01b0380871660009081526003602052604080822093909355908616815220546108bf908490611dac565b6001600160a01b0380861660008181526003602052604090819020939093559151908716907fddf252ad1be2c89b69c2b068fc378daa952ba7f163c4a11628f55a4df523b3ef90610911908790611b0e565b60405180910390a360019150505b9392505050565b7f6e71edae12b1b97f4d1f60370fef10105fa2faae0126114a169c64845d6126c981565b60025460ff1681565b60065481565b6001600160a01b03811660009081526003602052604081205461097b906111b9565b90505b919050565b6040516323b872dd60e01b81526000906001600160a01b037f000000000000000000000000000000000000000000000000000000000000000016906323b872dd906109d690339030908790600401611ac6565b602060405180830381600087803b1580156109f057600080fd5b505af1158015610a04573d6000803e3d6000fd5b505050506040513d601f19601f82011682018060405250810190610a289190611a47565b506000610a33611202565b50905061091f848261140f565b600854600160801b90046001600160801b031681565b60025460009081908190610a6e9060ff16600a611e2a565b90506000610a7b826111b9565b6002549091506000908290610a949060ff16600a611e2a565b610a9e9089611efb565b610aa89190611dc4565b90506000610ab88989898661148e565b99919850909650505050505050565b60036020526000908152604090205481565b60076020526000908152604090205481565b60056020526000908152604090205481565b6000806000806000610b0d611202565b6001600160a01b0388166000908152600360205260409020549193509150610b35878461140f565b9196909550909350915050565b6001805461054290611f31565b7f000000000000000000000000000000000000000000000000000000000000000081565b600061091f3384846107b5565b6000610b8f848484600061148e565b949350505050565b6006546001600160a01b0388166000908152600560209081526040808320549051929392610bf0927f6e71edae12b1b97f4d1f60370fef10105fa2faae0126114a169c64845d6126c9928d928d928d92918d9101611b17565b60405160208183030381529060405280519060200120604051602001610c17929190611a97565b60408051601f19818403018152919052805160209091012090506001600160a01b038816610c575760405162461bcd60e51b81526004016107ee90611c35565b60018185858560405160008152602001604052604051610c7a9493929190611b4b565b6020604051602081039080840390855afa158015610c9c573d6000803e3d6000fd5b505050602060405103516001600160a01b0316886001600160a01b031614610cd65760405162461bcd60e51b81526004016107ee90611c6c565b841580610ce35750844211155b610cff5760405162461bcd60e51b81526004016107ee90611cca565b7f7fffffffffffffffffffffffffffffff5d576e7357a4501ddfe92f46681b20a0821115610d3f5760405162461bcd60e51b81526004016107ee90611bf3565b6001600160a01b0388166000908152600560205260408120805491610d6383611f6c565b90915550506001600160a01b038089166000818152600460209081526040808320948c168084529490915290819020899055517f8c5be1e5ebec7d5bd14f71427d1e84f3dd0314c0f7b2291e5b200ac8c7c3b92590610dc3908a90611b0e565b60405180910390a35050505050505050565b6008546001600160801b031681565b600460209081526000928352604080842090915290825290205481565b600061097b826111b9565b3360009081526007602052604081208054839290610e2b908490611f1a565b909155506000905080610e3c611041565b6009549193509150600081610e518685611efb565b610e5b9190611dc4565b905060007f00000000000000000000000000000000000000000000000000000000000000006001600160a01b031663e63697c8833060006040518463ffffffff1660e01b8152600401610eb093929190611d5b565b602060405180830381600087803b158015610eca57600080fd5b505af1158015610ede573d6000803e3d6000fd5b505050506040513d601f19601f82011682018060405250810190610f029190611a7f565b9050600083610f118888611efb565b610f1b9190611dc4565b9050610f39610f2a8288611f1a565b610f348588611f1a565b611180565b610f438785611f1a565b6009556001600160a01b037f00000000000000000000000000000000000000000000000000000000000000001663a9059cbb33610f808486611dac565b6040518363ffffffff1660e01b8152600401610f9d929190611aea565b602060405180830381600087803b158015610fb757600080fd5b505af1158015610fcb573d6000803e3d6000fd5b505050506040513d601f19601f82011682018060405250810190610fef9190611a47565b5050505050505050565b7f000000000000000000000000000000000000000000000000000000000000000081565b7f000000000000000000000000000000000000000000000000000000000000000081565b6008546001600160801b0380821691600160801b9004165b9091565b6000807f00000000000000000000000000000000000000000000000000000000000000006001600160a01b03166399530b066040518163ffffffff1660e01b815260040160206040518083038186803b1580156110b957600080fd5b505afa1580156110cd573d6000803e3d6000fd5b505050506040513d601f19601f820116820180604052508101906110f19190611a7f565b90508215611140576111247f0000000000000000000000000000000000000000000000000000000000000000600a611e2a565b61112e8583611efb565b6111389190611dc4565b915050610628565b61114b816001611dac565b6111767f0000000000000000000000000000000000000000000000000000000000000000600a611e2a565b61112e9086611efb565b600880546001600160801b03928316600160801b029383166fffffffffffffffffffffffffffffffff1990911617909116919091179055565b60006111e67f0000000000000000000000000000000000000000000000000000000000000000600a611e2a565b6111ee6114ff565b6111f89084611efb565b61097b9190611dc4565b600080600080611210611041565b915091506000827f00000000000000000000000000000000000000000000000000000000000000006001600160a01b03166370a08231306040518263ffffffff1660e01b81526004016112639190611ab2565b60206040518083038186803b15801561127b57600080fd5b505afa15801561128f573d6000803e3d6000fd5b505050506040513d601f19601f820116820180604052508101906112b39190611a7f565b6112bd9190611f1a565b9050821515806112cc57508115155b156112df576112dc600182611f1a565b90505b60006112ec82600061105d565b9050808311156113195761130d6113038386611dac565b610f348386611f1a565b94509250611059915050565b60006001600160a01b037f000000000000000000000000000000000000000000000000000000000000000016636e553f656113548588611dac565b306040518363ffffffff1660e01b8152600401611372929190611d44565b602060405180830381600087803b15801561138c57600080fd5b505af11580156113a0573d6000803e3d6000fd5b505050506040513d601f19601f820116820180604052508101906113c49190611a7f565b905060006113d28487611dac565b6113dc8386611efb565b6113e69190611dc4565b90506114026000826113f88589611dac565b610f349190611f1a565b9650919450505050509091565b6001600160a01b038216600090815260036020526040902054611433908290611dac565b6001600160a01b0383166000818152600360205260408082209390935591519091907fddf252ad1be2c89b69c2b068fc378daa952ba7f163c4a11628f55a4df523b3ef90611482908590611b0e565b60405180910390a35050565b600254600090819083906114a69060ff16600a611e2a565b6114b09087611efb565b6114ba9190611dc4565b90506114c63382611597565b60006114d3868886611607565b9050848110156114f55760405162461bcd60e51b81526004016107ee90611c9b565b9695505050505050565b60007f00000000000000000000000000000000000000000000000000000000000000006001600160a01b03166399530b066040518163ffffffff1660e01b815260040160206040518083038186803b15801561155a57600080fd5b505afa15801561156e573d6000803e3d6000fd5b505050506040513d601f19601f820116820180604052508101906115929190611a7f565b905090565b6001600160a01b0382166000908152600360205260409020546115bb908290611f1a565b6001600160a01b0383166000818152600360205260408082209390935591517fddf252ad1be2c89b69c2b068fc378daa952ba7f163c4a11628f55a4df523b3ef90611482908590611b0e565b600081611619576116166114ff565b91505b600080611624611041565b909250905060006116567f0000000000000000000000000000000000000000000000000000000000000000600a611e2a565b61165e6114ff565b6116689089611efb565b6116729190611dc4565b90508281101561173e576116936116898285611f1a565b610f348985611dac565b60405163a9059cbb60e01b81526001600160a01b037f0000000000000000000000000000000000000000000000000000000000000000169063a9059cbb906116e19089908590600401611aea565b602060405180830381600087803b1580156116fb57600080fd5b505af115801561170f573d6000803e3d6000fd5b505050506040513d601f19601f820116820180604052508101906117339190611a47565b50925061091f915050565b60006001600160a01b037f00000000000000000000000000000000000000000000000000000000000000001663e63697c8611779858b611dac565b306127106040518463ffffffff1660e01b815260040161179b93929190611d5b565b602060405180830381600087803b1580156117b557600080fd5b505af11580156117c9573d6000803e3d6000fd5b505050506040513d601f19601f820116820180604052508101906117ed9190611a7f565b905060006117fb8985611dac565b611805838b611efb565b61180f9190611dc4565b90506118308161181f8488611dac565b6118299190611f1a565b6000611180565b60405163a9059cbb60e01b81526001600160a01b037f0000000000000000000000000000000000000000000000000000000000000000169063a9059cbb9061187e908b908590600401611aea565b602060405180830381600087803b15801561189857600080fd5b505af11580156118ac573d6000803e3d6000fd5b505050506040513d601f19601f820116820180604052508101906118d09190611a47565b5098975050505050505050565b80356001600160a01b038116811461097e57600080fd5b600060208284031215611905578081fd5b61091f826118dd565b60008060408385031215611920578081fd5b611929836118dd565b9150611937602084016118dd565b90509250929050565b600080600060608486031215611954578081fd5b61195d846118dd565b925061196b602085016118dd565b9150604084013590509250925092565b600080600080600080600060e0888a031215611995578283fd5b61199e886118dd565b96506119ac602089016118dd565b95506040880135945060608801359350608088013560ff811681146119cf578384fd5b9699959850939692959460a0840135945060c09093013592915050565b600080604083850312156119fe578182fd5b611a07836118dd565b946020939093013593505050565b600080600060608486031215611a29578283fd5b611a32846118dd565b95602085013595506040909401359392505050565b600060208284031215611a58578081fd5b8151801515811461091f578182fd5b600060208284031215611a78578081fd5b5035919050565b600060208284031215611a90578081fd5b5051919050565b61190160f01b81526002810192909252602282015260420190565b6001600160a01b0391909116815260200190565b6001600160a01b039384168152919092166020820152604081019190915260600190565b6001600160a01b03929092168252602082015260400190565b901515815260200190565b90815260200190565b9586526001600160a01b0394851660208701529290931660408501526060840152608083019190915260a082015260c00190565b93845260ff9290921660208401526040830152606082015260800190565b6000602080835283518082850152825b81811015611b9557858101830151858201604001528201611b79565b81811115611ba65783604083870101525b50601f01601f1916929092016040019392505050565b6020808252601d908201527f45524332303a20696e73756666696369656e742d616c6c6f77616e6365000000604082015260600190565b60208082526022908201527f45524332303a20696e76616c6964207369676e6174757265202773272076616c604082015261756560f01b606082015260800190565b60208082526018908201527f45524332303a20696e76616c69642d616464726573732d300000000000000000604082015260600190565b602080825260159082015274115490cc8c0e881a5b9d985b1a590b5c195c9b5a5d605a1b604082015260600190565b6020808252601590820152744e6f7420656e6f75676820756e6465726c79696e6760581b604082015260600190565b602080825260159082015274115490cc8c0e881c195c9b5a5d0b595e1c1a5c9959605a1b604082015260600190565b6020808252601b908201527f45524332303a20696e73756666696369656e742d62616c616e63650000000000604082015260600190565b6001600160801b0391909116815260200190565b9182526001600160a01b0316602082015260400190565b9283526001600160a01b03919091166020830152604082015260600190565b918252602082015260400190565b9283526020830191909152604082015260600190565b60ff91909116815260200190565b60008219821115611dbf57611dbf611f87565b500190565b600082611ddf57634e487b7160e01b81526012600452602481fd5b500490565b80825b6001808611611df65750611e21565b818704821115611e0857611e08611f87565b80861615611e1557918102915b9490941c938002611de7565b94509492505050565b600061091f60001960ff851684600082611e465750600161091f565b81611e535750600061091f565b8160018114611e695760028114611e7357611ea0565b600191505061091f565b60ff841115611e8457611e84611f87565b6001841b915084821115611e9a57611e9a611f87565b5061091f565b5060208310610133831016604e8410600b8410161715611ed3575081810a83811115611ece57611ece611f87565b61091f565b611ee08484846001611de4565b808604821115611ef257611ef2611f87565b02949350505050565b6000816000190483118215151615611f1557611f15611f87565b500290565b600082821015611f2c57611f2c611f87565b500390565b600281046001821680611f4557607f821691505b60208210811415611f6657634e487b7160e01b600052602260045260246000fd5b50919050565b6000600019821415611f8057611f80611f87565b5060010190565b634e487b7160e01b600052601160045260246000fdfea2646970667358221220a82a12ab6d7556df43774b40b961b525345bfd0ea1e93a0d3c9a09dd00c7f5ab64736f6c63430008000033",
  "immutableReferences": {
    "1372": [
      {
        "length": 32,
        "start": 997
      },
      {
        "length": 32,
        "start": 1605
      },
      {
        "length": 32,
        "start": 1799
      },
      {
        "length": 32,
        "start": 2461
      },
      {
        "length": 32,
        "start": 3920
      },
      {
        "length": 32,
        "start": 4127
      },
      {
        "length": 32,
        "start": 4633
      },
      {
        "length": 32,
        "start": 5802
      },
      {
        "length": 32,
        "start": 6215
      }
    ],
    "1663": [
      {
        "length": 32,
        "start": 1650
      },
      {
        "length": 32,
        "start": 1844
      },
      {
        "length": 32,
        "start": 3681
      },
      {
        "length": 32,
        "start": 4091
      },
      {
        "length": 32,
        "start": 4194
      },
      {
        "length": 32,
        "start": 4901
      },
      {
        "length": 32,
        "start": 5379
      },
      {
        "length": 32,
        "start": 5962
      }
    ],
    "1665": [
      {
        "length": 32,
        "start": 2897
      },
      {
        "length": 32,
        "start": 4350
      },
      {
        "length": 32,
        "start": 4432
      },
      {
        "length": 32,
        "start": 4544
      },
      {
        "length": 32,
        "start": 5680
      }
    ]
  },
  "source": "// SPDX-License-Identifier: Apache-2.0\r\n// WARNING: This has been validated for yearn vaults version 4.2, do not use for lower or higher\r\n//          versions without review\r\npragma solidity ^0.8.0;\r\n\r\nimport \"./interfaces/IERC20.sol\";\r\nimport \"./interfaces/IYearnVault.sol\";\r\nimport \"./YVaultAssetProxy.sol\";\r\n\r\n/// @author Element Finance\r\n/// @title Yearn Vault Asset Proxy\r\ncontract YVaultV4AssetProxy is YVaultAssetProxy {\r\n    /// @notice Constructs this contract by calling into the super constructor\r\n    /// @param vault_ The yearn v2 vault, must be version 0.4.2\r\n    /// @param _token The underlying token.\r\n    ///               This token should revert in the event of a transfer failure.\r\n    /// @param _name The name of the token created\r\n    /// @param _symbol The symbol of the token created\r\n    constructor(\r\n        address vault_,\r\n        IERC20 _token,\r\n        string memory _name,\r\n        string memory _symbol\r\n    ) YVaultAssetProxy(vault_, _token, _name, _symbol) {}\r\n\r\n    /// @notice Overrides the version checking to check for 0.4.2 instead\r\n    /// @param _vault The yearn vault address\r\n    /// @dev This function can be overridden by an inheriting upgrade contract\r\n    function _versionCheck(IYearnVault _vault) internal override view {\r\n        string memory apiVersion = _vault.apiVersion();\r\n        require(\r\n            _stringEq(apiVersion, \"0.4.2\") || _stringEq(apiVersion, \"0.4.3\"),\r\n            \"Unsupported Version\"\r\n        );\r\n    }\r\n\r\n    /// @notice Converts an input of shares to it's output of underlying or an input\r\n    ///      of underlying to an output of shares, using yearn 's deposit pricing\r\n    /// @param amount the amount of input, shares if 'sharesIn == true' underlying if not\r\n    /// @param sharesIn true to convert from yearn shares to underlying, false to convert from\r\n    ///                 underlying to yearn shares\r\n    /// @dev WARNING - Fails for 0.3.2-0.3.5, please only use with 0.4.2\r\n    /// @return The converted output of either underlying or yearn shares\r\n    function _yearnDepositConverter(uint256 amount, bool sharesIn)\r\n        internal\r\n        override\r\n        view\r\n        returns (uint256)\r\n    {\r\n        // Load the yearn price per share\r\n        uint256 pricePerShare = vault.pricePerShare();\r\n        // If we are converted shares to underlying\r\n        if (sharesIn) {\r\n            // If the input is shares we multiply by the price per share\r\n            return (pricePerShare * amount) / 10**vaultDecimals;\r\n        } else {\r\n            // If the input is in underlying we divide by price per share\r\n            return (amount * 10**vaultDecimals) / (pricePerShare + 1);\r\n        }\r\n    }\r\n}\r\n",
  "sourcePath": "/f/BlockChain/conflux/contract/Liberation-fi/contracts/YVaultV4AssetProxy.sol",
  "compiler": {
    "name": "solc",
    "version": "0.8.0+commit.c7dfd78e.Emscripten.clang"
  },
  "schemaVersion": "3.3.4",
  "updatedAt": "2021-09-11T13:23:34.568Z",
  "devdoc": {
    "author": "Element Finance",
    "kind": "dev",
    "methods": {
      "approve(address,uint256)": {
        "params": {
          "account": "The account which will be approve to transfer tokens",
          "amount": "The approval amount, if set to uint256.max the allowance does not go down on transfers."
        },
        "returns": {
          "_0": "returns true for compatibility with the ERC20 standard"
        }
      },
      "balanceOfUnderlying(address)": {
        "params": {
          "_who": "The address to query"
        },
        "returns": {
          "_0": "The underlying token balance of the address"
        }
      },
      "constructor": {
        "params": {
          "_name": "The name of the token created",
          "_symbol": "The symbol of the token created",
          "_token": "The underlying token.               This token should revert in the event of a transfer failure.",
          "vault_": "The yearn v2 vault, must be version 0.4.2"
        }
      },
      "deposit(address,uint256)": {
        "params": {
          "_amount": "The amount of underlying tokens to deposit",
          "_destination": "The address to mint to"
        },
        "returns": {
          "_0": "Returns the number of Wrapped Position tokens minted"
        }
      },
      "getSharesToUnderlying(uint256)": {
        "params": {
          "_shares": "Shares to calculate underlying value for"
        },
        "returns": {
          "_0": "The value of underlying assets for the given shares"
        }
      },
      "permit(address,address,uint256,uint256,uint8,bytes32,bytes32)": {
        "details": "The signature for this function follows EIP 712 standard and should be generated with the      eth_signTypedData JSON RPC call instead of the eth_sign JSON RPC call. If using out of date      parity signing libraries the v component may need to be adjusted. Also it is very rare but possible      for v to be other values, those values are not supported.",
        "params": {
          "deadline": "the timestamp which the signature must be submitted by to be valid",
          "owner": "the owner of the account which is having the new approval set",
          "r": "The r component of the ECDSA signature",
          "s": "The s component of the ECDSA signature",
          "spender": "the address which will be allowed to spend owner's tokens",
          "v": "Extra ECDSA data which allows public key recovery from signature assumed to be 27 or 28",
          "value": "the new allowance value"
        }
      },
      "prefundedDeposit(address)": {
        "details": "WARNING - The call which funds this method MUST be in the same transaction",
        "params": {
          "_destination": "the destination of this deposit"
        },
        "returns": {
          "_0": "Returns (WP tokens minted, used underlying,                  senders WP balance before mint)"
        }
      },
      "reserveDeposit(uint256)": {
        "params": {
          "_amount": "The amount of underlying to deposit"
        }
      },
      "reserveWithdraw(uint256)": {
        "params": {
          "_amount": "The number of reserve shares to withdraw"
        }
      },
      "transfer(address,uint256)": {
        "details": "transfers to this contract address or 0 will fail",
        "params": {
          "amount": "The amount user token to send",
          "recipient": "The address which will be credited with the tokens"
        },
        "returns": {
          "_0": "returns true on success, reverts on failure so cannot return false."
        }
      },
      "transferFrom(address,address,uint256)": {
        "details": "will fail transfers which send funds to this contract or 0",
        "params": {
          "amount": "the number of tokens to send",
          "recipient": "The destination of the ERC20 tokens",
          "spender": "The source of the ERC20 tokens"
        },
        "returns": {
          "_0": "returns true on success and reverts on failure"
        }
      },
      "withdraw(address,uint256,uint256)": {
        "params": {
          "_destination": "The address which is credited with tokens",
          "_minUnderlying": "The min output the caller expects",
          "_shares": "The amount of shares the user is burning to withdraw underlying"
        },
        "returns": {
          "_0": "The amount of underlying transferred to the destination"
        }
      },
      "withdrawUnderlying(address,uint256,uint256)": {
        "params": {
          "_amount": "The amount of underlying to try to redeem for",
          "_destination": "The address to send the output to",
          "_minUnderlying": "The minium underlying to receive"
        },
        "returns": {
          "_0": "The amount of underlying released, and shares used"
        }
      }
    },
    "title": "Yearn Vault Asset Proxy",
    "version": 1
  },
  "userdoc": {
    "kind": "user",
    "methods": {
      "approve()": {
        "notice": "Function to reset approvals for the proxy"
      },
      "approve(address,uint256)": {
        "notice": "This function allows a user to approve an account which can transfer         tokens on their behalf."
      },
      "balanceOfUnderlying(address)": {
        "notice": "Get the underlying balance of an address"
      },
      "constructor": {
        "notice": "Constructs this contract by calling into the super constructor"
      },
      "deposit(address,uint256)": {
        "notice": "Entry point to deposit tokens into the Wrapped Position contract         Transfers tokens on behalf of caller so the caller must set         allowance on the contract prior to call."
      },
      "getSharesToUnderlying(uint256)": {
        "notice": "Returns the amount of the underlying asset a certain amount of shares is worth"
      },
      "permit(address,address,uint256,uint256,uint8,bytes32,bytes32)": {
        "notice": "This function allows a caller who is not the owner of an account to execute the functionality of 'approve' with the owners signature."
      },
      "prefundedDeposit(address)": {
        "notice": "Entry point to deposit tokens into the Wrapped Position contract         Assumes the tokens were transferred before this was called"
      },
      "reserveDeposit(uint256)": {
        "notice": "This function allows a user to deposit to the reserve      Note - there's no incentive to do so. You could earn some      interest but less interest than yearn. All deposits use      the underlying token."
      },
      "reserveWithdraw(uint256)": {
        "notice": "This function allows a holder of reserve balance to withdraw their share"
      },
      "transfer(address,uint256)": {
        "notice": "Allows a token owner to send tokens to another address"
      },
      "transferFrom(address,address,uint256)": {
        "notice": "Transfers an amount of erc20 from a spender to a receipt"
      },
      "withdraw(address,uint256,uint256)": {
        "notice": "Exit point to withdraw tokens from the Wrapped Position contract"
      },
      "withdrawUnderlying(address,uint256,uint256)": {
        "notice": "This function burns enough tokens from the sender to send _amount          of underlying to the _destination."
      }
    },
    "version": 1
  }
}