{
  "contractName": "ZapTrancheHop",
  "abi": [
    {
      "inputs": [
        {
          "internalType": "address",
          "name": "__trancheFactory",
          "type": "address"
        },
        {
          "internalType": "bytes32",
          "name": "__trancheBytecodeHash",
          "type": "bytes32"
        }
      ],
      "stateMutability": "nonpayable",
      "type": "constructor"
    },
    {
      "inputs": [
        {
          "internalType": "address",
          "name": "who",
          "type": "address"
        }
      ],
      "name": "authorize",
      "outputs": [],
      "stateMutability": "nonpayable",
      "type": "function"
    },
    {
      "inputs": [
        {
          "internalType": "address",
          "name": "",
          "type": "address"
        }
      ],
      "name": "authorized",
      "outputs": [
        {
          "internalType": "bool",
          "name": "",
          "type": "bool"
        }
      ],
      "stateMutability": "view",
      "type": "function"
    },
    {
      "inputs": [
        {
          "internalType": "address",
          "name": "who",
          "type": "address"
        }
      ],
      "name": "deauthorize",
      "outputs": [],
      "stateMutability": "nonpayable",
      "type": "function"
    },
    {
      "inputs": [
        {
          "internalType": "address",
          "name": "who",
          "type": "address"
        }
      ],
      "name": "isAuthorized",
      "outputs": [
        {
          "internalType": "bool",
          "name": "",
          "type": "bool"
        }
      ],
      "stateMutability": "view",
      "type": "function"
    },
    {
      "inputs": [],
      "name": "isFrozen",
      "outputs": [
        {
          "internalType": "bool",
          "name": "",
          "type": "bool"
        }
      ],
      "stateMutability": "view",
      "type": "function"
    },
    {
      "inputs": [],
      "name": "owner",
      "outputs": [
        {
          "internalType": "address",
          "name": "",
          "type": "address"
        }
      ],
      "stateMutability": "view",
      "type": "function"
    },
    {
      "inputs": [
        {
          "internalType": "address",
          "name": "who",
          "type": "address"
        }
      ],
      "name": "setOwner",
      "outputs": [],
      "stateMutability": "nonpayable",
      "type": "function"
    },
    {
      "inputs": [
        {
          "internalType": "bool",
          "name": "_newState",
          "type": "bool"
        }
      ],
      "name": "setIsFrozen",
      "outputs": [],
      "stateMutability": "nonpayable",
      "type": "function"
    },
    {
      "inputs": [
        {
          "internalType": "contract IERC20",
          "name": "_underlying",
          "type": "address"
        },
        {
          "internalType": "address",
          "name": "_positionFrom",
          "type": "address"
        },
        {
          "internalType": "uint256",
          "name": "_expirationFrom",
          "type": "uint256"
        },
        {
          "internalType": "address",
          "name": "_positionTo",
          "type": "address"
        },
        {
          "internalType": "uint256",
          "name": "_expirationTo",
          "type": "uint256"
        },
        {
          "internalType": "uint256",
          "name": "_amountPt",
          "type": "uint256"
        },
        {
          "internalType": "uint256",
          "name": "_amountYt",
          "type": "uint256"
        },
        {
          "internalType": "uint256",
          "name": "_ptExpected",
          "type": "uint256"
        },
        {
          "internalType": "uint256",
          "name": "_ytExpected",
          "type": "uint256"
        }
      ],
      "name": "hopToTranche",
      "outputs": [
        {
          "internalType": "uint256",
          "name": "",
          "type": "uint256"
        },
        {
          "internalType": "uint256",
          "name": "",
          "type": "uint256"
        }
      ],
      "stateMutability": "nonpayable",
      "type": "function"
    },
    {
      "inputs": [
        {
          "internalType": "address",
          "name": "token",
          "type": "address"
        },
        {
          "internalType": "uint256",
          "name": "amount",
          "type": "uint256"
        }
      ],
      "name": "rescueTokens",
      "outputs": [],
      "stateMutability": "nonpayable",
      "type": "function"
    }
  ],
  "bytecode": "0x60c06040526002805460ff1916905534801561001a57600080fd5b50604051610cba380380610cba83398101604081905261003991610099565b600080546001600160a01b0319163390811790915561005790610072565b60609190911b6001600160601b03191660805260a0526100d1565b6001600160a01b03166000908152600160208190526040909120805460ff19169091179055565b600080604083850312156100ab578182fd5b82516001600160a01b03811681146100c1578283fd5b6020939093015192949293505050565b60805160601c60a051610bc16100f960003960006107e6015260006107c20152610bc16000f3fe608060405234801561001057600080fd5b506004361061009e5760003560e01c80638da5cb5b116100665780638da5cb5b1461010f578063b6a5d7de14610124578063b918161114610137578063f5019c4f1461014a578063fe9fbb801461016b5761009e565b806313af4035146100a357806327c97fa5146100b857806333eeb147146100cb57806357376198146100e957806364eda74b146100fc575b600080fd5b6100b66100b136600461082d565b61017e565b005b6100b66100c636600461082d565b6101d3565b6100d361021e565b6040516100e09190610a36565b60405180910390f35b6100b66100f7366004610850565b610227565b6100b661010a36600461087b565b6102d9565b610117610311565b6040516100e091906109e5565b6100b661013236600461082d565b610320565b6100d361014536600461082d565b610356565b61015d6101583660046108b3565b61036b565b6040516100e0929190610b36565b6100d361017936600461082d565b610739565b6000546001600160a01b031633146101b15760405162461bcd60e51b81526004016101a890610a41565b60405180910390fd5b600080546001600160a01b0319166001600160a01b0392909216919091179055565b6000546001600160a01b031633146101fd5760405162461bcd60e51b81526004016101a890610a41565b6001600160a01b03166000908152600160205260409020805460ff19169055565b60025460ff1681565b6000546001600160a01b031633146102515760405162461bcd60e51b81526004016101a890610a41565b60405163a9059cbb60e01b815282906001600160a01b0382169063a9059cbb906102819033908690600401610a1d565b602060405180830381600087803b15801561029b57600080fd5b505af11580156102af573d6000803e3d6000fd5b505050506040513d601f19601f820116820180604052508101906102d39190610897565b50505050565b6102e233610739565b6102fe5760405162461bcd60e51b81526004016101a890610a6b565b6002805460ff1916911515919091179055565b6000546001600160a01b031681565b6000546001600160a01b0316331461034a5760405162461bcd60e51b81526004016101a890610a41565b61035381610757565b50565b60016020526000908152604090205460ff1681565b600254600090819060ff16156103935760405162461bcd60e51b81526004016101a890610ac8565b600061039f8b8b61077e565b905060006103ad8a8a61077e565b9050600088156104c7576040516323b872dd60e01b81526001600160a01b038416906323b872dd906103e790339030908e906004016109f9565b602060405180830381600087803b15801561040157600080fd5b505af1158015610415573d6000803e3d6000fd5b505050506040513d601f19601f820116820180604052508101906104399190610897565b5060405163884e17f360e01b81526001600160a01b0384169063884e17f390610468908c908f90600401610b1f565b602060405180830381600087803b15801561048257600080fd5b505af1158015610496573d6000803e3d6000fd5b505050506040513d601f19601f820116820180604052508101906104ba919061094f565b6104c49082610b44565b90505b8715610654576000836001600160a01b031663764b666c6040518163ffffffff1660e01b815260040160206040518083038186803b15801561050857600080fd5b505afa15801561051c573d6000803e3d6000fd5b505050506040513d601f19601f820116820180604052508101906105409190610933565b6040516323b872dd60e01b81529091506001600160a01b038216906323b872dd9061057390339030908e906004016109f9565b602060405180830381600087803b15801561058d57600080fd5b505af11580156105a1573d6000803e3d6000fd5b505050506040513d601f19601f820116820180604052508101906105c59190610897565b50836001600160a01b0316631210aac28a8e6040518363ffffffff1660e01b81526004016105f4929190610b1f565b602060405180830381600087803b15801561060e57600080fd5b505af1158015610622573d6000803e3d6000fd5b505050506040513d601f19601f82011682018060405250810190610646919061094f565b6106509083610b44565b9150505b600080836001600160a01b03166385f45c88336040518263ffffffff1660e01b815260040161068391906109e5565b6040805180830381600087803b15801561069c57600080fd5b505af11580156106b0573d6000803e3d6000fd5b505050506040513d601f19601f820116820180604052508101906106d49190610967565b915091508281101580156106e85750878110155b6107045760405162461bcd60e51b81526004016101a890610af1565b888210156107245760405162461bcd60e51b81526004016101a890610a9a565b909f909e509c50505050505050505050505050565b6001600160a01b031660009081526001602052604090205460ff1690565b6001600160a01b03166000908152600160208190526040909120805460ff19169091179055565b600080838360405160200161079492919061098a565b60408051601f19818403018152908290528051602091820120925060009161080c916001600160f81b0319917f00000000000000000000000000000000000000000000000000000000000000009186917f000000000000000000000000000000000000000000000000000000000000000091016109ac565b60408051808303601f19018152919052805160209091012095945050505050565b60006020828403121561083e578081fd5b813561084981610b68565b9392505050565b60008060408385031215610862578081fd5b823561086d81610b68565b946020939093013593505050565b60006020828403121561088c578081fd5b813561084981610b7d565b6000602082840312156108a8578081fd5b815161084981610b7d565b60008060008060008060008060006101208a8c0312156108d1578485fd5b89356108dc81610b68565b985060208a01356108ec81610b68565b975060408a0135965060608a013561090381610b68565b989b979a50959860808101359760a0820135975060c0820135965060e08201359550610100909101359350915050565b600060208284031215610944578081fd5b815161084981610b68565b600060208284031215610960578081fd5b5051919050565b60008060408385031215610979578182fd5b505080516020909101519092909150565b60609290921b6bffffffffffffffffffffffff19168252601482015260340190565b6001600160f81b031994909416845260609290921b6bffffffffffffffffffffffff191660018401526015830152603582015260550190565b6001600160a01b0391909116815260200190565b6001600160a01b039384168152919092166020820152604081019190915260600190565b6001600160a01b03929092168252602082015260400190565b901515815260200190565b60208082526010908201526f29b2b73232b9103737ba1037bbb732b960811b604082015260600190565b60208082526015908201527414d95b99195c881b9bdd08105d5d1a1bdc9a5e9959605a1b604082015260600190565b602080825260149082015273139bdd08195b9bdd59da081415081b5a5b9d195960621b604082015260600190565b6020808252600f908201526e21b7b73a3930b1ba10333937bd32b760891b604082015260600190565b602080825260149082015273139bdd08195b9bdd59da081655081b5a5b9d195960621b604082015260600190565b9182526001600160a01b0316602082015260400190565b918252602082015260400190565b60008219821115610b6357634e487b7160e01b81526011600452602481fd5b500190565b6001600160a01b038116811461035357600080fd5b801515811461035357600080fdfea26469706673582212207ae7525b30d6b4e2f6bb5fd6fab3910643e6191131b757c7223a67316ec95e3864736f6c63430008000033",
  "immutableReferences": {
    "4510": [
      {
        "length": 32,
        "start": 1986
      }
    ],
    "4512": [
      {
        "length": 32,
        "start": 2022
      }
    ]
  },
  "source": "// SPDX-License-Identifier: Apache-2.0\r\npragma solidity ^0.8.0;\r\n\r\nimport \"../interfaces/IYearnVault.sol\";\r\nimport \"../libraries/Authorizable.sol\";\r\nimport \"../interfaces/IERC20.sol\";\r\nimport \"../interfaces/ITranche.sol\";\r\n\r\ncontract ZapTrancheHop is Authorizable {\r\n    // Store the accessibility state of the contract\r\n    bool public isFrozen = false;\r\n    // Tranche factory address for Tranche contract address derivation\r\n    address internal immutable _trancheFactory;\r\n    // Tranche bytecode hash for Tranche contract address derivation.\r\n    // This is constant as long as Tranche does not implement non-constant constructor arguments.\r\n    bytes32 internal immutable _trancheBytecodeHash;\r\n\r\n    /// @param __trancheFactory Address of the TrancheFactory contract\r\n    /// @param __trancheBytecodeHash Hash of the Tranche bytecode.\r\n    constructor(address __trancheFactory, bytes32 __trancheBytecodeHash)\r\n        Authorizable()\r\n    {\r\n        _authorize(msg.sender);\r\n        _trancheFactory = __trancheFactory;\r\n        _trancheBytecodeHash = __trancheBytecodeHash;\r\n    }\r\n\r\n    /// @dev Requires that the contract is not frozen\r\n    modifier notFrozen() {\r\n        require(!isFrozen, \"Contract frozen\");\r\n        _;\r\n    }\r\n\r\n    /// @dev Allows an authorized address to freeze or unfreeze this contract\r\n    /// @param _newState True for frozen and false for unfrozen\r\n    function setIsFrozen(bool _newState) external onlyAuthorized() {\r\n        isFrozen = _newState;\r\n    }\r\n\r\n    /// @notice Redeems Principal and Yield tokens and deposits the underlying assets received into\r\n    /// a new tranche. The target tranche must use the same underlying asset.\r\n    /// @param _underlying The underlying ERC20 token contract of the yearn vault.\r\n    /// @param _positionFrom The wrapped position of the originating tranche.\r\n    /// @param _expirationFrom The expiration timestamp of the originating tranche.\r\n    /// @param _positionTo The wrapped position of the target tranche.\r\n    /// @param _expirationTo The expiration timestamp of the target tranche.\r\n    /// @param _amountPt Amount of principal tokens to redeem and deposit into the new tranche.\r\n    /// @param _amountYt Amount of yield tokens to redeem and deposit into the new tranche.\r\n    /// @param _ptExpected The minimum amount of principal tokens to mint.\r\n    /// @param _ytExpected The minimum amount of yield tokens to mint.\r\n    /// @return returns the minted amounts of principal and yield tokens (PT and YT)\r\n    function hopToTranche(\r\n        IERC20 _underlying,\r\n        address _positionFrom,\r\n        uint256 _expirationFrom,\r\n        address _positionTo,\r\n        uint256 _expirationTo,\r\n        uint256 _amountPt,\r\n        uint256 _amountYt,\r\n        uint256 _ptExpected,\r\n        uint256 _ytExpected\r\n    ) public notFrozen returns (uint256, uint256) {\r\n        ITranche trancheFrom = _deriveTranche(\r\n            address(_positionFrom),\r\n            _expirationFrom\r\n        );\r\n        ITranche trancheTo = _deriveTranche(\r\n            address(_positionTo),\r\n            _expirationTo\r\n        );\r\n\r\n        uint256 balance;\r\n        if (_amountPt > 0) {\r\n            trancheFrom.transferFrom(msg.sender, address(this), _amountPt);\r\n            balance += trancheFrom.withdrawPrincipal(_amountPt, _positionTo);\r\n        }\r\n\r\n        if (_amountYt > 0) {\r\n            IERC20 yt = IERC20(trancheFrom.interestToken());\r\n            yt.transferFrom(msg.sender, address(this), _amountYt);\r\n            balance += trancheFrom.withdrawInterest(_amountYt, _positionTo);\r\n        }\r\n\r\n        (uint256 ptMinted, uint256 ytMinted) = trancheTo.prefundedDeposit(\r\n            msg.sender\r\n        );\r\n\r\n        require(\r\n            ytMinted >= balance && ytMinted >= _ytExpected,\r\n            \"Not enough YT minted\"\r\n        );\r\n        require(ptMinted >= _ptExpected, \"Not enough PT minted\");\r\n        return (ptMinted, ytMinted);\r\n    }\r\n\r\n    /// @notice There should never be any tokens in this contract.\r\n    /// This function can rescue any possible ERC20 tokens.\r\n    /// @dev This function does not rescue ETH. There is no fallback function so getting\r\n    /// ETH stuck here would be a very deliberate act.\r\n    /// @param token The token to rescue.\r\n    /// @param amount The amount to rescue.\r\n    function rescueTokens(address token, uint256 amount) external onlyOwner {\r\n        IERC20 want = IERC20(token);\r\n        want.transfer(msg.sender, amount);\r\n    }\r\n\r\n    /// @dev This internal function produces the deterministic create2\r\n    ///      address of the Tranche contract from a wrapped position contract and expiration\r\n    /// @param _position The wrapped position contract address\r\n    /// @param _expiration The expiration time of the tranche\r\n    /// @return The derived Tranche contract\r\n    function _deriveTranche(address _position, uint256 _expiration)\r\n        internal\r\n        virtual\r\n        view\r\n        returns (ITranche)\r\n    {\r\n        bytes32 salt = keccak256(abi.encodePacked(_position, _expiration));\r\n        bytes32 addressBytes = keccak256(\r\n            abi.encodePacked(\r\n                bytes1(0xff),\r\n                _trancheFactory,\r\n                salt,\r\n                _trancheBytecodeHash\r\n            )\r\n        );\r\n        return ITranche(address(uint160(uint256(addressBytes))));\r\n    }\r\n}\r\n",
  "sourcePath": "/f/BlockChain/conflux/contract/Liberation-fi/contracts/zaps/ZapTrancheHop.sol",
  "compiler": {
    "name": "solc",
    "version": "0.8.0+commit.c7dfd78e.Emscripten.clang"
  },
  "schemaVersion": "3.3.4",
  "updatedAt": "2021-08-29T16:25:52.219Z",
  "devdoc": {
    "kind": "dev",
    "methods": {
      "authorize(address)": {
        "details": "Privileged function authorize an address",
        "params": {
          "who": "the address to authorize"
        }
      },
      "constructor": {
        "params": {
          "__trancheBytecodeHash": "Hash of the Tranche bytecode.",
          "__trancheFactory": "Address of the TrancheFactory contract"
        }
      },
      "deauthorize(address)": {
        "details": "Privileged function to de authorize an address",
        "params": {
          "who": "The address to remove authorization from"
        }
      },
      "hopToTranche(address,address,uint256,address,uint256,uint256,uint256,uint256,uint256)": {
        "params": {
          "_amountPt": "Amount of principal tokens to redeem and deposit into the new tranche.",
          "_amountYt": "Amount of yield tokens to redeem and deposit into the new tranche.",
          "_expirationFrom": "The expiration timestamp of the originating tranche.",
          "_expirationTo": "The expiration timestamp of the target tranche.",
          "_positionFrom": "The wrapped position of the originating tranche.",
          "_positionTo": "The wrapped position of the target tranche.",
          "_ptExpected": "The minimum amount of principal tokens to mint.",
          "_underlying": "The underlying ERC20 token contract of the yearn vault.",
          "_ytExpected": "The minimum amount of yield tokens to mint."
        },
        "returns": {
          "_0": "returns the minted amounts of principal and yield tokens (PT and YT)"
        }
      },
      "isAuthorized(address)": {
        "details": "Returns true if an address is authorized",
        "params": {
          "who": "the address to check"
        },
        "returns": {
          "_0": "true if authorized false if not"
        }
      },
      "rescueTokens(address,uint256)": {
        "details": "This function does not rescue ETH. There is no fallback function so getting ETH stuck here would be a very deliberate act.",
        "params": {
          "amount": "The amount to rescue.",
          "token": "The token to rescue."
        }
      },
      "setIsFrozen(bool)": {
        "details": "Allows an authorized address to freeze or unfreeze this contract",
        "params": {
          "_newState": "True for frozen and false for unfrozen"
        }
      },
      "setOwner(address)": {
        "details": "Function to change owner",
        "params": {
          "who": "The new owner address"
        }
      }
    },
    "version": 1
  },
  "userdoc": {
    "kind": "user",
    "methods": {
      "hopToTranche(address,address,uint256,address,uint256,uint256,uint256,uint256,uint256)": {
        "notice": "Redeems Principal and Yield tokens and deposits the underlying assets received into a new tranche. The target tranche must use the same underlying asset."
      },
      "rescueTokens(address,uint256)": {
        "notice": "There should never be any tokens in this contract. This function can rescue any possible ERC20 tokens."
      }
    },
    "version": 1
  }
}