{
  "contractName": "ZapTrancheHop",
  "abi": [
    {
      "inputs": [
        {
          "internalType": "address",
          "name": "__trancheFactory",
          "type": "address"
        },
        {
          "internalType": "bytes32",
          "name": "__trancheBytecodeHash",
          "type": "bytes32"
        }
      ],
      "stateMutability": "nonpayable",
      "type": "constructor"
    },
    {
      "inputs": [
        {
          "internalType": "address",
          "name": "who",
          "type": "address"
        }
      ],
      "name": "authorize",
      "outputs": [],
      "stateMutability": "nonpayable",
      "type": "function"
    },
    {
      "inputs": [
        {
          "internalType": "address",
          "name": "",
          "type": "address"
        }
      ],
      "name": "authorized",
      "outputs": [
        {
          "internalType": "bool",
          "name": "",
          "type": "bool"
        }
      ],
      "stateMutability": "view",
      "type": "function"
    },
    {
      "inputs": [
        {
          "internalType": "address",
          "name": "who",
          "type": "address"
        }
      ],
      "name": "deauthorize",
      "outputs": [],
      "stateMutability": "nonpayable",
      "type": "function"
    },
    {
      "inputs": [
        {
          "internalType": "address",
          "name": "who",
          "type": "address"
        }
      ],
      "name": "isAuthorized",
      "outputs": [
        {
          "internalType": "bool",
          "name": "",
          "type": "bool"
        }
      ],
      "stateMutability": "view",
      "type": "function"
    },
    {
      "inputs": [],
      "name": "isFrozen",
      "outputs": [
        {
          "internalType": "bool",
          "name": "",
          "type": "bool"
        }
      ],
      "stateMutability": "view",
      "type": "function"
    },
    {
      "inputs": [],
      "name": "owner",
      "outputs": [
        {
          "internalType": "address",
          "name": "",
          "type": "address"
        }
      ],
      "stateMutability": "view",
      "type": "function"
    },
    {
      "inputs": [
        {
          "internalType": "address",
          "name": "who",
          "type": "address"
        }
      ],
      "name": "setOwner",
      "outputs": [],
      "stateMutability": "nonpayable",
      "type": "function"
    },
    {
      "inputs": [
        {
          "internalType": "bool",
          "name": "_newState",
          "type": "bool"
        }
      ],
      "name": "setIsFrozen",
      "outputs": [],
      "stateMutability": "nonpayable",
      "type": "function"
    },
    {
      "inputs": [
        {
          "internalType": "contract IERC20",
          "name": "_underlying",
          "type": "address"
        },
        {
          "internalType": "address",
          "name": "_positionFrom",
          "type": "address"
        },
        {
          "internalType": "uint256",
          "name": "_expirationFrom",
          "type": "uint256"
        },
        {
          "internalType": "address",
          "name": "_positionTo",
          "type": "address"
        },
        {
          "internalType": "uint256",
          "name": "_expirationTo",
          "type": "uint256"
        },
        {
          "internalType": "uint256",
          "name": "_amountPt",
          "type": "uint256"
        },
        {
          "internalType": "uint256",
          "name": "_amountYt",
          "type": "uint256"
        },
        {
          "internalType": "uint256",
          "name": "_ptExpected",
          "type": "uint256"
        },
        {
          "internalType": "uint256",
          "name": "_ytExpected",
          "type": "uint256"
        }
      ],
      "name": "hopToTranche",
      "outputs": [
        {
          "internalType": "uint256",
          "name": "",
          "type": "uint256"
        },
        {
          "internalType": "uint256",
          "name": "",
          "type": "uint256"
        }
      ],
      "stateMutability": "nonpayable",
      "type": "function"
    },
    {
      "inputs": [
        {
          "internalType": "address",
          "name": "token",
          "type": "address"
        },
        {
          "internalType": "uint256",
          "name": "amount",
          "type": "uint256"
        }
      ],
      "name": "rescueTokens",
      "outputs": [],
      "stateMutability": "nonpayable",
      "type": "function"
    }
  ],
  "bytecode": "0x60c06040526002805460ff1916905534801561001a57600080fd5b50604051610bdb380380610bdb83398101604081905261003991610081565b600080546001600160a01b0319163390811782558152600160208190526040909120805460ff1916909117905560609190911b6001600160601b03191660805260a0526100bb565b6000806040838503121561009457600080fd5b82516001600160a01b03811681146100ab57600080fd5b6020939093015192949293505050565b60805160601c60a051610af86100e360003960006108a9015260006108770152610af86000f3fe608060405234801561001057600080fd5b506004361061009e5760003560e01c80638da5cb5b116100665780638da5cb5b14610113578063b6a5d7de1461013e578063b918161114610151578063f5019c4f14610174578063fe9fbb801461019c57600080fd5b806313af4035146100a357806327c97fa5146100b857806333eeb147146100cb57806357376198146100ed57806364eda74b14610100575b600080fd5b6100b66100b13660046108ea565b6101c8565b005b6100b66100c63660046108ea565b61021d565b6002546100d89060ff1681565b60405190151581526020015b60405180910390f35b6100b66100fb36600461090e565b610268565b6100b661010e36600461093a565b61031a565b600054610126906001600160a01b031681565b6040516001600160a01b0390911681526020016100e4565b6100b661014c3660046108ea565b610384565b6100d861015f3660046108ea565b60016020526000908152604090205460ff1681565b610187610182366004610974565b6103dc565b604080519283526020830191909152016100e4565b6100d86101aa3660046108ea565b6001600160a01b031660009081526001602052604090205460ff1690565b6000546001600160a01b031633146101fb5760405162461bcd60e51b81526004016101f290610a4f565b60405180910390fd5b600080546001600160a01b0319166001600160a01b0392909216919091179055565b6000546001600160a01b031633146102475760405162461bcd60e51b81526004016101f290610a4f565b6001600160a01b03166000908152600160205260409020805460ff19169055565b6000546001600160a01b031633146102925760405162461bcd60e51b81526004016101f290610a4f565b60405163a9059cbb60e01b81523360048201526024810182905282906001600160a01b0382169063a9059cbb90604401602060405180830381600087803b1580156102dc57600080fd5b505af11580156102f0573d6000803e3d6000fd5b505050506040513d601f19601f820116820180604052508101906103149190610957565b50505050565b3360009081526001602052604090205460ff166103715760405162461bcd60e51b815260206004820152601560248201527414d95b99195c881b9bdd08105d5d1a1bdc9a5e9959605a1b60448201526064016101f2565b6002805460ff1916911515919091179055565b6000546001600160a01b031633146103ae5760405162461bcd60e51b81526004016101f290610a4f565b6103d9816001600160a01b03166000908152600160208190526040909120805460ff19169091179055565b50565b600254600090819060ff16156104265760405162461bcd60e51b815260206004820152600f60248201526e21b7b73a3930b1ba10333937bd32b760891b60448201526064016101f2565b60006104328b8b610823565b905060006104408a8a610823565b905060008815610560576040516323b872dd60e01b8152336004820152306024820152604481018a90526001600160a01b038416906323b872dd90606401602060405180830381600087803b15801561049857600080fd5b505af11580156104ac573d6000803e3d6000fd5b505050506040513d601f19601f820116820180604052508101906104d09190610957565b5060405163884e17f360e01b8152600481018a90526001600160a01b038c8116602483015284169063884e17f390604401602060405180830381600087803b15801561051b57600080fd5b505af115801561052f573d6000803e3d6000fd5b505050506040513d601f19601f820116820180604052508101906105539190610a12565b61055d9082610a79565b90505b87156106f3576000836001600160a01b031663764b666c6040518163ffffffff1660e01b815260040160206040518083038186803b1580156105a157600080fd5b505afa1580156105b5573d6000803e3d6000fd5b505050506040513d601f19601f820116820180604052508101906105d991906109f5565b6040516323b872dd60e01b8152336004820152306024820152604481018b90529091506001600160a01b038216906323b872dd90606401602060405180830381600087803b15801561062a57600080fd5b505af115801561063e573d6000803e3d6000fd5b505050506040513d601f19601f820116820180604052508101906106629190610957565b50604051630908556160e11b8152600481018a90526001600160a01b038d81166024830152851690631210aac290604401602060405180830381600087803b1580156106ad57600080fd5b505af11580156106c1573d6000803e3d6000fd5b505050506040513d601f19601f820116820180604052508101906106e59190610a12565b6106ef9083610a79565b9150505b6040516310be8b9160e31b815233600482015260009081906001600160a01b038516906385f45c88906024016040805180830381600087803b15801561073857600080fd5b505af115801561074c573d6000803e3d6000fd5b505050506040513d601f19601f820116820180604052508101906107709190610a2b565b915091508281101580156107845750878110155b6107c75760405162461bcd60e51b8152602060048201526014602482015273139bdd08195b9bdd59da081655081b5a5b9d195960621b60448201526064016101f2565b8882101561080e5760405162461bcd60e51b8152602060048201526014602482015273139bdd08195b9bdd59da081415081b5a5b9d195960621b60448201526064016101f2565b909f909e509c50505050505050505050505050565b604080516bffffffffffffffffffffffff19606094851b8116602080840191909152603480840195909552835180840390950185526054830184528451948101949094206001600160f81b031960748401527f000000000000000000000000000000000000000000000000000000000000000090951b16607582015260898101939093527f000000000000000000000000000000000000000000000000000000000000000060a9808501919091528151808503909101815260c99093019052815191012090565b6000602082840312156108fc57600080fd5b813561090781610a9f565b9392505050565b6000806040838503121561092157600080fd5b823561092c81610a9f565b946020939093013593505050565b60006020828403121561094c57600080fd5b813561090781610ab4565b60006020828403121561096957600080fd5b815161090781610ab4565b60008060008060008060008060006101208a8c03121561099357600080fd5b893561099e81610a9f565b985060208a01356109ae81610a9f565b975060408a0135965060608a01356109c581610a9f565b989b979a50959860808101359760a0820135975060c0820135965060e08201359550610100909101359350915050565b600060208284031215610a0757600080fd5b815161090781610a9f565b600060208284031215610a2457600080fd5b5051919050565b60008060408385031215610a3e57600080fd5b505080516020909101519092909150565b60208082526010908201526f29b2b73232b9103737ba1037bbb732b960811b604082015260600190565b60008219821115610a9a57634e487b7160e01b600052601160045260246000fd5b500190565b6001600160a01b03811681146103d957600080fd5b80151581146103d957600080fdfea2646970667358221220520bef6e09bfe5676ba0f55aa8dc329f576d091f8ae18e982b2abe0574603da364736f6c63430008070033",
  "immutableReferences": {
    "4509": [
      {
        "length": 32,
        "start": 2167
      }
    ],
    "4511": [
      {
        "length": 32,
        "start": 2217
      }
    ]
  },
  "source": "// SPDX-License-Identifier: Apache-2.0\r\npragma solidity ^0.8.0;\r\n\r\nimport \"../interfaces/IYearnVault.sol\";\r\nimport \"../libraries/Authorizable.sol\";\r\nimport \"../interfaces/IERC20.sol\";\r\nimport \"../interfaces/ITranche.sol\";\r\n\r\ncontract ZapTrancheHop is Authorizable {\r\n    // Store the accessibility state of the contract\r\n    bool public isFrozen = false;\r\n    // Tranche factory address for Tranche contract address derivation\r\n    address internal immutable _trancheFactory;\r\n    // Tranche bytecode hash for Tranche contract address derivation.\r\n    // This is constant as long as Tranche does not implement non-constant constructor arguments.\r\n    bytes32 internal immutable _trancheBytecodeHash;\r\n\r\n    /// @param __trancheFactory Address of the TrancheFactory contract\r\n    /// @param __trancheBytecodeHash Hash of the Tranche bytecode.\r\n    constructor(address __trancheFactory, bytes32 __trancheBytecodeHash)\r\n        Authorizable()\r\n    {\r\n        _authorize(msg.sender);\r\n        _trancheFactory = __trancheFactory;\r\n        _trancheBytecodeHash = __trancheBytecodeHash;\r\n    }\r\n\r\n    /// @dev Requires that the contract is not frozen\r\n    modifier notFrozen() {\r\n        require(!isFrozen, \"Contract frozen\");\r\n        _;\r\n    }\r\n\r\n    /// @dev Allows an authorized address to freeze or unfreeze this contract\r\n    /// @param _newState True for frozen and false for unfrozen\r\n    function setIsFrozen(bool _newState) external onlyAuthorized() {\r\n        isFrozen = _newState;\r\n    }\r\n\r\n    /// @notice Redeems Principal and Yield tokens and deposits the underlying assets received into\r\n    /// a new tranche. The target tranche must use the same underlying asset.\r\n    /// @param _underlying The underlying ERC20 token contract of the yearn vault.\r\n    /// @param _positionFrom The wrapped position of the originating tranche.\r\n    /// @param _expirationFrom The expiration timestamp of the originating tranche.\r\n    /// @param _positionTo The wrapped position of the target tranche.\r\n    /// @param _expirationTo The expiration timestamp of the target tranche.\r\n    /// @param _amountPt Amount of principal tokens to redeem and deposit into the new tranche.\r\n    /// @param _amountYt Amount of yield tokens to redeem and deposit into the new tranche.\r\n    /// @param _ptExpected The minimum amount of principal tokens to mint.\r\n    /// @param _ytExpected The minimum amount of yield tokens to mint.\r\n    /// @return returns the minted amounts of principal and yield tokens (PT and YT)\r\n    function hopToTranche(\r\n        IERC20 _underlying,\r\n        address _positionFrom,\r\n        uint256 _expirationFrom,\r\n        address _positionTo,\r\n        uint256 _expirationTo,\r\n        uint256 _amountPt,\r\n        uint256 _amountYt,\r\n        uint256 _ptExpected,\r\n        uint256 _ytExpected\r\n    ) public notFrozen returns (uint256, uint256) {\r\n        ITranche trancheFrom = _deriveTranche(\r\n            address(_positionFrom),\r\n            _expirationFrom\r\n        );\r\n        ITranche trancheTo = _deriveTranche(\r\n            address(_positionTo),\r\n            _expirationTo\r\n        );\r\n\r\n        uint256 balance;\r\n        if (_amountPt > 0) {\r\n            trancheFrom.transferFrom(msg.sender, address(this), _amountPt);\r\n            balance += trancheFrom.withdrawPrincipal(_amountPt, _positionTo);\r\n        }\r\n\r\n        if (_amountYt > 0) {\r\n            IERC20 yt = IERC20(trancheFrom.interestToken());\r\n            yt.transferFrom(msg.sender, address(this), _amountYt);\r\n            balance += trancheFrom.withdrawInterest(_amountYt, _positionTo);\r\n        }\r\n\r\n        (uint256 ptMinted, uint256 ytMinted) = trancheTo.prefundedDeposit(\r\n            msg.sender\r\n        );\r\n\r\n        require(\r\n            ytMinted >= balance && ytMinted >= _ytExpected,\r\n            \"Not enough YT minted\"\r\n        );\r\n        require(ptMinted >= _ptExpected, \"Not enough PT minted\");\r\n        return (ptMinted, ytMinted);\r\n    }\r\n\r\n    /// @notice There should never be any tokens in this contract.\r\n    /// This function can rescue any possible ERC20 tokens.\r\n    /// @dev This function does not rescue ETH. There is no fallback function so getting\r\n    /// ETH stuck here would be a very deliberate act.\r\n    /// @param token The token to rescue.\r\n    /// @param amount The amount to rescue.\r\n    function rescueTokens(address token, uint256 amount) external onlyOwner {\r\n        IERC20 want = IERC20(token);\r\n        want.transfer(msg.sender, amount);\r\n    }\r\n\r\n    /// @dev This internal function produces the deterministic create2\r\n    ///      address of the Tranche contract from a wrapped position contract and expiration\r\n    /// @param _position The wrapped position contract address\r\n    /// @param _expiration The expiration time of the tranche\r\n    /// @return The derived Tranche contract\r\n    function _deriveTranche(address _position, uint256 _expiration)\r\n        internal\r\n        virtual\r\n        view\r\n        returns (ITranche)\r\n    {\r\n        bytes32 salt = keccak256(abi.encodePacked(_position, _expiration));\r\n        bytes32 addressBytes = keccak256(\r\n            abi.encodePacked(\r\n                bytes1(0xff),\r\n                _trancheFactory,\r\n                salt,\r\n                _trancheBytecodeHash\r\n            )\r\n        );\r\n        return ITranche(address(uint160(uint256(addressBytes))));\r\n    }\r\n}\r\n",
  "sourcePath": "/f/BlockChain/conflux/contract/Liberation-fi/contracts/zaps/ZapTrancheHop.sol",
  "compiler": {
    "name": "solc",
    "version": "0.8.7+commit.e28d00a7.Linux.g++"
  },
  "schemaVersion": "3.3.4",
  "updatedAt": "2021-08-18T09:57:16.208Z",
  "devdoc": {
    "kind": "dev",
    "methods": {
      "authorize(address)": {
        "details": "Privileged function authorize an address",
        "params": {
          "who": "the address to authorize"
        }
      },
      "constructor": {
        "params": {
          "__trancheBytecodeHash": "Hash of the Tranche bytecode.",
          "__trancheFactory": "Address of the TrancheFactory contract"
        }
      },
      "deauthorize(address)": {
        "details": "Privileged function to de authorize an address",
        "params": {
          "who": "The address to remove authorization from"
        }
      },
      "hopToTranche(address,address,uint256,address,uint256,uint256,uint256,uint256,uint256)": {
        "params": {
          "_amountPt": "Amount of principal tokens to redeem and deposit into the new tranche.",
          "_amountYt": "Amount of yield tokens to redeem and deposit into the new tranche.",
          "_expirationFrom": "The expiration timestamp of the originating tranche.",
          "_expirationTo": "The expiration timestamp of the target tranche.",
          "_positionFrom": "The wrapped position of the originating tranche.",
          "_positionTo": "The wrapped position of the target tranche.",
          "_ptExpected": "The minimum amount of principal tokens to mint.",
          "_underlying": "The underlying ERC20 token contract of the yearn vault.",
          "_ytExpected": "The minimum amount of yield tokens to mint."
        },
        "returns": {
          "_0": "returns the minted amounts of principal and yield tokens (PT and YT)"
        }
      },
      "isAuthorized(address)": {
        "details": "Returns true if an address is authorized",
        "params": {
          "who": "the address to check"
        },
        "returns": {
          "_0": "true if authorized false if not"
        }
      },
      "rescueTokens(address,uint256)": {
        "details": "This function does not rescue ETH. There is no fallback function so getting ETH stuck here would be a very deliberate act.",
        "params": {
          "amount": "The amount to rescue.",
          "token": "The token to rescue."
        }
      },
      "setIsFrozen(bool)": {
        "details": "Allows an authorized address to freeze or unfreeze this contract",
        "params": {
          "_newState": "True for frozen and false for unfrozen"
        }
      },
      "setOwner(address)": {
        "details": "Function to change owner",
        "params": {
          "who": "The new owner address"
        }
      }
    },
    "version": 1
  },
  "userdoc": {
    "kind": "user",
    "methods": {
      "hopToTranche(address,address,uint256,address,uint256,uint256,uint256,uint256,uint256)": {
        "notice": "Redeems Principal and Yield tokens and deposits the underlying assets received into a new tranche. The target tranche must use the same underlying asset."
      },
      "rescueTokens(address,uint256)": {
        "notice": "There should never be any tokens in this contract. This function can rescue any possible ERC20 tokens."
      }
    },
    "version": 1
  }
}