{
  "contractName": "ZapYearnShares",
  "abi": [
    {
      "inputs": [
        {
          "internalType": "address",
          "name": "__trancheFactory",
          "type": "address"
        },
        {
          "internalType": "bytes32",
          "name": "__trancheBytecodeHash",
          "type": "bytes32"
        }
      ],
      "stateMutability": "nonpayable",
      "type": "constructor"
    },
    {
      "inputs": [
        {
          "internalType": "address",
          "name": "who",
          "type": "address"
        }
      ],
      "name": "authorize",
      "outputs": [],
      "stateMutability": "nonpayable",
      "type": "function"
    },
    {
      "inputs": [
        {
          "internalType": "address",
          "name": "",
          "type": "address"
        }
      ],
      "name": "authorized",
      "outputs": [
        {
          "internalType": "bool",
          "name": "",
          "type": "bool"
        }
      ],
      "stateMutability": "view",
      "type": "function"
    },
    {
      "inputs": [
        {
          "internalType": "address",
          "name": "who",
          "type": "address"
        }
      ],
      "name": "deauthorize",
      "outputs": [],
      "stateMutability": "nonpayable",
      "type": "function"
    },
    {
      "inputs": [
        {
          "internalType": "address",
          "name": "who",
          "type": "address"
        }
      ],
      "name": "isAuthorized",
      "outputs": [
        {
          "internalType": "bool",
          "name": "",
          "type": "bool"
        }
      ],
      "stateMutability": "view",
      "type": "function"
    },
    {
      "inputs": [],
      "name": "isFrozen",
      "outputs": [
        {
          "internalType": "bool",
          "name": "",
          "type": "bool"
        }
      ],
      "stateMutability": "view",
      "type": "function"
    },
    {
      "inputs": [],
      "name": "owner",
      "outputs": [
        {
          "internalType": "address",
          "name": "",
          "type": "address"
        }
      ],
      "stateMutability": "view",
      "type": "function"
    },
    {
      "inputs": [
        {
          "internalType": "address",
          "name": "who",
          "type": "address"
        }
      ],
      "name": "setOwner",
      "outputs": [],
      "stateMutability": "nonpayable",
      "type": "function"
    },
    {
      "inputs": [
        {
          "internalType": "bool",
          "name": "_newState",
          "type": "bool"
        }
      ],
      "name": "setIsFrozen",
      "outputs": [],
      "stateMutability": "nonpayable",
      "type": "function"
    },
    {
      "inputs": [
        {
          "internalType": "contract IERC20",
          "name": "_underlying",
          "type": "address"
        },
        {
          "internalType": "contract IYearnVault",
          "name": "_vault",
          "type": "address"
        },
        {
          "internalType": "uint256",
          "name": "_amount",
          "type": "uint256"
        },
        {
          "internalType": "uint256",
          "name": "_expiration",
          "type": "uint256"
        },
        {
          "internalType": "address",
          "name": "_position",
          "type": "address"
        },
        {
          "internalType": "uint256",
          "name": "_ptExpected",
          "type": "uint256"
        }
      ],
      "name": "zapSharesIn",
      "outputs": [
        {
          "internalType": "uint256",
          "name": "",
          "type": "uint256"
        },
        {
          "internalType": "uint256",
          "name": "",
          "type": "uint256"
        }
      ],
      "stateMutability": "nonpayable",
      "type": "function"
    },
    {
      "inputs": [],
      "name": "deprecate",
      "outputs": [],
      "stateMutability": "nonpayable",
      "type": "function"
    }
  ],
  "bytecode": "0x60c06040526002805460ff1916905534801561001a57600080fd5b50604051610a58380380610a5883398101604081905261003991610099565b600080546001600160a01b0319163390811790915561005790610072565b60609190911b6001600160601b03191660805260a0526100d1565b6001600160a01b03166000908152600160208190526040909120805460ff19169091179055565b600080604083850312156100ab578182fd5b82516001600160a01b03811681146100c1578283fd5b6020939093015192949293505050565b60805160601c60a05161095f6100f960003960006105f3015260006105cf015261095f6000f3fe608060405234801561001057600080fd5b506004361061009e5760003560e01c806364eda74b1161006657806364eda74b146101125780638da5cb5b14610125578063b6a5d7de1461013a578063b91816111461014d578063fe9fbb80146101605761009e565b80630fcc0c28146100a357806313af4035146100ad57806327c97fa5146100c057806333eeb147146100d357806349392386146100f1575b600080fd5b6100ab610173565b005b6100ab6100bb366004610661565b6101a9565b6100ab6100ce366004610661565b6101f5565b6100db610240565b6040516100e891906107f0565b60405180910390f35b6101046100ff3660046106bc565b610249565b6040516100e89291906108f8565b6100ab610120366004610684565b6104db565b61012d610513565b6040516100e891906107b8565b6100ab610148366004610661565b610522565b6100db61015b366004610661565b610558565b6100db61016e366004610661565b61056d565b6000546001600160a01b031633146101a65760405162461bcd60e51b815260040161019d906107fb565b60405180910390fd5b33ff5b6000546001600160a01b031633146101d35760405162461bcd60e51b815260040161019d906107fb565b600080546001600160a01b0319166001600160a01b0392909216919091179055565b6000546001600160a01b0316331461021f5760405162461bcd60e51b815260040161019d906107fb565b6001600160a01b03166000908152600160205260409020805460ff19169055565b60025460ff1681565b600254600090819060ff16156102715760405162461bcd60e51b815260040161019d90610882565b6040516323b872dd60e01b81526001600160a01b038816906323b872dd906102a190339030908b906004016107cc565b602060405180830381600087803b1580156102bb57600080fd5b505af11580156102cf573d6000803e3d6000fd5b505050506040513d601f19601f820116820180604052508101906102f391906106a0565b50604051631cc6d2f960e31b81526001600160a01b0388169063e63697c89061032590899088906000906004016108d9565b602060405180830381600087803b15801561033f57600080fd5b505af1158015610353573d6000803e3d6000fd5b505050506040513d601f19601f820116820180604052508101906103779190610722565b506000610384858761058b565b90506000896001600160a01b03166370a08231876040518263ffffffff1660e01b81526004016103b491906107b8565b60206040518083038186803b1580156103cc57600080fd5b505afa1580156103e0573d6000803e3d6000fd5b505050506040513d601f19601f820116820180604052508101906104049190610722565b9050600080836001600160a01b03166385f45c88336040518263ffffffff1660e01b815260040161043591906107b8565b6040805180830381600087803b15801561044e57600080fd5b505af1158015610462573d6000803e3d6000fd5b505050506040513d601f19601f82011682018060405250810190610486919061073a565b91509150828110156104aa5760405162461bcd60e51b815260040161019d906108ab565b868210156104ca5760405162461bcd60e51b815260040161019d90610854565b909b909a5098505050505050505050565b6104e43361056d565b6105005760405162461bcd60e51b815260040161019d90610825565b6002805460ff1916911515919091179055565b6000546001600160a01b031681565b6000546001600160a01b0316331461054c5760405162461bcd60e51b815260040161019d906107fb565b6105558161063a565b50565b60016020526000908152604090205460ff1681565b6001600160a01b031660009081526001602052604090205460ff1690565b60008083836040516020016105a192919061075d565b60408051601f198184030181529082905280516020918201209250600091610619916001600160f81b0319917f00000000000000000000000000000000000000000000000000000000000000009186917f0000000000000000000000000000000000000000000000000000000000000000910161077f565b60408051808303601f19018152919052805160209091012095945050505050565b6001600160a01b03166000908152600160208190526040909120805460ff19169091179055565b600060208284031215610672578081fd5b813561067d81610906565b9392505050565b600060208284031215610695578081fd5b813561067d8161091b565b6000602082840312156106b1578081fd5b815161067d8161091b565b60008060008060008060c087890312156106d4578182fd5b86356106df81610906565b955060208701356106ef81610906565b94506040870135935060608701359250608087013561070d81610906565b8092505060a087013590509295509295509295565b600060208284031215610733578081fd5b5051919050565b6000806040838503121561074c578182fd5b505080516020909101519092909150565b60609290921b6bffffffffffffffffffffffff19168252601482015260340190565b6001600160f81b031994909416845260609290921b6bffffffffffffffffffffffff191660018401526015830152603582015260550190565b6001600160a01b0391909116815260200190565b6001600160a01b039384168152919092166020820152604081019190915260600190565b901515815260200190565b60208082526010908201526f29b2b73232b9103737ba1037bbb732b960811b604082015260600190565b60208082526015908201527414d95b99195c881b9bdd08105d5d1a1bdc9a5e9959605a1b604082015260600190565b602080825260149082015273139bdd08195b9bdd59da081415081b5a5b9d195960621b604082015260600190565b6020808252600f908201526e21b7b73a3930b1ba10333937bd32b760891b604082015260600190565b602080825260149082015273139bdd08195b9bdd59da081655081b5a5b9d195960621b604082015260600190565b9283526001600160a01b03919091166020830152604082015260600190565b918252602082015260400190565b6001600160a01b038116811461055557600080fd5b801515811461055557600080fdfea2646970667358221220c78d6c08380e4c8899e001b07e087b438e40728f1605ae38aedd7b6360c0f3d164736f6c63430008000033",
  "immutableReferences": {
    "4796": [
      {
        "length": 32,
        "start": 1487
      }
    ],
    "4798": [
      {
        "length": 32,
        "start": 1523
      }
    ]
  },
  "source": "// SPDX-License-Identifier: Apache-2.0\r\npragma solidity ^0.8.0;\r\n\r\nimport \"../interfaces/IYearnVault.sol\";\r\nimport \"../libraries/Authorizable.sol\";\r\nimport \"../interfaces/IERC20.sol\";\r\nimport \"../interfaces/ITranche.sol\";\r\n\r\ncontract ZapYearnShares is Authorizable {\r\n    // Store the accessibility state of the contract\r\n    bool public isFrozen = false;\r\n    // Tranche factory address for Tranche contract address derivation\r\n    address internal immutable _trancheFactory;\r\n    // Tranche bytecode hash for Tranche contract address derivation.\r\n    // This is constant as long as Tranche does not implement non-constant constructor arguments.\r\n    bytes32 internal immutable _trancheBytecodeHash;\r\n\r\n    /// @param __trancheFactory Address of the TrancheFactory contract\r\n    /// @param __trancheBytecodeHash Hash of the Tranche bytecode.\r\n    constructor(address __trancheFactory, bytes32 __trancheBytecodeHash)\r\n        Authorizable()\r\n    {\r\n        _authorize(msg.sender);\r\n        _trancheFactory = __trancheFactory;\r\n        _trancheBytecodeHash = __trancheBytecodeHash;\r\n    }\r\n\r\n    /// @dev Requires that the contract is not frozen\r\n    modifier notFrozen() {\r\n        require(!isFrozen, \"Contract frozen\");\r\n        _;\r\n    }\r\n\r\n    /// @dev Allows an authorized address to freeze or unfreeze this contract\r\n    /// @param _newState True for frozen and false for unfrozen\r\n    function setIsFrozen(bool _newState) external onlyAuthorized() {\r\n        isFrozen = _newState;\r\n    }\r\n\r\n    /// @notice Mints a Principal/Interest token pair from yearn vault shares.\r\n    ///      then returns the tokens to the caller.\r\n    /// @param _underlying The underlying ERC20 token contract of the yearn vault.\r\n    /// @param _vault The address of the target yearn vault.\r\n    /// @param _amount The amount of yearn shares to turn into tokens\r\n    /// @param _expiration The expiration time of the Tranche contract.\r\n    /// @param _position The contract which manages pooled deposits.\r\n    /// @param _ptExpected The minimum amount of principal tokens to mint.\r\n    /// @return returns the minted amounts of principal and yield tokens (PT and YT)\r\n    function zapSharesIn(\r\n        IERC20 _underlying,\r\n        IYearnVault _vault,\r\n        uint256 _amount,\r\n        uint256 _expiration,\r\n        address _position,\r\n        uint256 _ptExpected\r\n    ) external notFrozen() returns (uint256, uint256) {\r\n        _vault.transferFrom(msg.sender, address(this), _amount);\r\n        _vault.withdraw(_amount, _position, 0);\r\n\r\n        ITranche tranche = _deriveTranche(address(_position), _expiration);\r\n        uint256 balance = _underlying.balanceOf(_position);\r\n\r\n        (uint256 ptMinted, uint256 ytMinted) = tranche.prefundedDeposit(\r\n            msg.sender\r\n        );\r\n        require(ytMinted >= balance, \"Not enough YT minted\");\r\n        require(ptMinted >= _ptExpected, \"Not enough PT minted\");\r\n        return (ptMinted, ytMinted);\r\n    }\r\n\r\n    /// @dev This internal function produces the deterministic create2\r\n    ///      address of the Tranche contract from a wrapped position contract and expiration\r\n    /// @param _position The wrapped position contract address\r\n    /// @param _expiration The expiration time of the tranche\r\n    /// @return The derived Tranche contract\r\n    function _deriveTranche(address _position, uint256 _expiration)\r\n        internal\r\n        virtual\r\n        view\r\n        returns (ITranche)\r\n    {\r\n        bytes32 salt = keccak256(abi.encodePacked(_position, _expiration));\r\n        bytes32 addressBytes = keccak256(\r\n            abi.encodePacked(\r\n                bytes1(0xff),\r\n                _trancheFactory,\r\n                salt,\r\n                _trancheBytecodeHash\r\n            )\r\n        );\r\n        return ITranche(address(uint160(uint256(addressBytes))));\r\n    }\r\n\r\n    /// @dev This contract can hold yearn vault share allowances for addresses so if it is deprecated\r\n    ///      it should be removed so that users do not have to remove allowances.\r\n    ///      Note - onlyOwner is a stronger check than onlyAuthorized, many addresses can be\r\n    ///      authorized to freeze or unfreeze the contract but only the owner address can kill\r\n    function deprecate() external onlyOwner() {\r\n        selfdestruct(payable(msg.sender));\r\n    }\r\n}\r\n",
  "sourcePath": "/f/BlockChain/conflux/contract/Liberation-fi/contracts/zaps/ZapYearnShares.sol",
  "compiler": {
    "name": "solc",
    "version": "0.8.0+commit.c7dfd78e.Emscripten.clang"
  },
  "schemaVersion": "3.3.4",
  "updatedAt": "2021-08-29T16:25:52.245Z",
  "devdoc": {
    "kind": "dev",
    "methods": {
      "authorize(address)": {
        "details": "Privileged function authorize an address",
        "params": {
          "who": "the address to authorize"
        }
      },
      "constructor": {
        "params": {
          "__trancheBytecodeHash": "Hash of the Tranche bytecode.",
          "__trancheFactory": "Address of the TrancheFactory contract"
        }
      },
      "deauthorize(address)": {
        "details": "Privileged function to de authorize an address",
        "params": {
          "who": "The address to remove authorization from"
        }
      },
      "deprecate()": {
        "details": "This contract can hold yearn vault share allowances for addresses so if it is deprecated      it should be removed so that users do not have to remove allowances.      Note - onlyOwner is a stronger check than onlyAuthorized, many addresses can be      authorized to freeze or unfreeze the contract but only the owner address can kill"
      },
      "isAuthorized(address)": {
        "details": "Returns true if an address is authorized",
        "params": {
          "who": "the address to check"
        },
        "returns": {
          "_0": "true if authorized false if not"
        }
      },
      "setIsFrozen(bool)": {
        "details": "Allows an authorized address to freeze or unfreeze this contract",
        "params": {
          "_newState": "True for frozen and false for unfrozen"
        }
      },
      "setOwner(address)": {
        "details": "Function to change owner",
        "params": {
          "who": "The new owner address"
        }
      },
      "zapSharesIn(address,address,uint256,uint256,address,uint256)": {
        "params": {
          "_amount": "The amount of yearn shares to turn into tokens",
          "_expiration": "The expiration time of the Tranche contract.",
          "_position": "The contract which manages pooled deposits.",
          "_ptExpected": "The minimum amount of principal tokens to mint.",
          "_underlying": "The underlying ERC20 token contract of the yearn vault.",
          "_vault": "The address of the target yearn vault."
        },
        "returns": {
          "_0": "returns the minted amounts of principal and yield tokens (PT and YT)"
        }
      }
    },
    "version": 1
  },
  "userdoc": {
    "kind": "user",
    "methods": {
      "zapSharesIn(address,address,uint256,uint256,address,uint256)": {
        "notice": "Mints a Principal/Interest token pair from yearn vault shares.      then returns the tokens to the caller."
      }
    },
    "version": 1
  }
}