{
  "contractName": "ZapYearnShares",
  "abi": [
    {
      "inputs": [
        {
          "internalType": "address",
          "name": "__trancheFactory",
          "type": "address"
        },
        {
          "internalType": "bytes32",
          "name": "__trancheBytecodeHash",
          "type": "bytes32"
        }
      ],
      "stateMutability": "nonpayable",
      "type": "constructor"
    },
    {
      "inputs": [
        {
          "internalType": "address",
          "name": "who",
          "type": "address"
        }
      ],
      "name": "authorize",
      "outputs": [],
      "stateMutability": "nonpayable",
      "type": "function"
    },
    {
      "inputs": [
        {
          "internalType": "address",
          "name": "",
          "type": "address"
        }
      ],
      "name": "authorized",
      "outputs": [
        {
          "internalType": "bool",
          "name": "",
          "type": "bool"
        }
      ],
      "stateMutability": "view",
      "type": "function"
    },
    {
      "inputs": [
        {
          "internalType": "address",
          "name": "who",
          "type": "address"
        }
      ],
      "name": "deauthorize",
      "outputs": [],
      "stateMutability": "nonpayable",
      "type": "function"
    },
    {
      "inputs": [
        {
          "internalType": "address",
          "name": "who",
          "type": "address"
        }
      ],
      "name": "isAuthorized",
      "outputs": [
        {
          "internalType": "bool",
          "name": "",
          "type": "bool"
        }
      ],
      "stateMutability": "view",
      "type": "function"
    },
    {
      "inputs": [],
      "name": "isFrozen",
      "outputs": [
        {
          "internalType": "bool",
          "name": "",
          "type": "bool"
        }
      ],
      "stateMutability": "view",
      "type": "function"
    },
    {
      "inputs": [],
      "name": "owner",
      "outputs": [
        {
          "internalType": "address",
          "name": "",
          "type": "address"
        }
      ],
      "stateMutability": "view",
      "type": "function"
    },
    {
      "inputs": [
        {
          "internalType": "address",
          "name": "who",
          "type": "address"
        }
      ],
      "name": "setOwner",
      "outputs": [],
      "stateMutability": "nonpayable",
      "type": "function"
    },
    {
      "inputs": [
        {
          "internalType": "bool",
          "name": "_newState",
          "type": "bool"
        }
      ],
      "name": "setIsFrozen",
      "outputs": [],
      "stateMutability": "nonpayable",
      "type": "function"
    },
    {
      "inputs": [
        {
          "internalType": "contract IERC20",
          "name": "_underlying",
          "type": "address"
        },
        {
          "internalType": "contract IYearnVault",
          "name": "_vault",
          "type": "address"
        },
        {
          "internalType": "uint256",
          "name": "_amount",
          "type": "uint256"
        },
        {
          "internalType": "uint256",
          "name": "_expiration",
          "type": "uint256"
        },
        {
          "internalType": "address",
          "name": "_position",
          "type": "address"
        },
        {
          "internalType": "uint256",
          "name": "_ptExpected",
          "type": "uint256"
        }
      ],
      "name": "zapSharesIn",
      "outputs": [
        {
          "internalType": "uint256",
          "name": "",
          "type": "uint256"
        },
        {
          "internalType": "uint256",
          "name": "",
          "type": "uint256"
        }
      ],
      "stateMutability": "nonpayable",
      "type": "function"
    },
    {
      "inputs": [],
      "name": "deprecate",
      "outputs": [],
      "stateMutability": "nonpayable",
      "type": "function"
    }
  ],
  "bytecode": "0x60c06040526002805460ff1916905534801561001a57600080fd5b5060405161097438038061097483398101604081905261003991610081565b600080546001600160a01b0319163390811782558152600160208190526040909120805460ff1916909117905560609190911b6001600160601b03191660805260a0526100bb565b6000806040838503121561009457600080fd5b82516001600160a01b03811681146100ab57600080fd5b6020939093015192949293505050565b60805160601c60a0516108916100e360003960006104660152600061043501526108916000f3fe608060405234801561001057600080fd5b506004361061009e5760003560e01c806364eda74b1161006657806364eda74b1461011d5780638da5cb5b14610130578063b6a5d7de1461015b578063b91816111461016e578063fe9fbb801461019157600080fd5b80630fcc0c28146100a357806313af4035146100ad57806327c97fa5146100c057806333eeb147146100d357806349392386146100f5575b600080fd5b6100ab6101bd565b005b6100ab6100bb36600461070c565b6101f3565b6100ab6100ce36600461070c565b61023f565b6002546100e09060ff1681565b60405190151581526020015b60405180910390f35b61010861010336600461076a565b61028a565b604080519283526020830191909152016100ec565b6100ab61012b366004610730565b61064a565b600054610143906001600160a01b031681565b6040516001600160a01b0390911681526020016100ec565b6100ab61016936600461070c565b6106b4565b6100e061017c36600461070c565b60016020526000908152604090205460ff1681565b6100e061019f36600461070c565b6001600160a01b031660009081526001602052604090205460ff1690565b6000546001600160a01b031633146101f05760405162461bcd60e51b81526004016101e79061080e565b60405180910390fd5b33ff5b6000546001600160a01b0316331461021d5760405162461bcd60e51b81526004016101e79061080e565b600080546001600160a01b0319166001600160a01b0392909216919091179055565b6000546001600160a01b031633146102695760405162461bcd60e51b81526004016101e79061080e565b6001600160a01b03166000908152600160205260409020805460ff19169055565b600254600090819060ff16156102d45760405162461bcd60e51b815260206004820152600f60248201526e21b7b73a3930b1ba10333937bd32b760891b60448201526064016101e7565b6040516323b872dd60e01b8152336004820152306024820152604481018790526001600160a01b038816906323b872dd90606401602060405180830381600087803b15801561032257600080fd5b505af1158015610336573d6000803e3d6000fd5b505050506040513d601f19601f8201168201806040525081019061035a919061074d565b50604051631cc6d2f960e31b8152600481018790526001600160a01b0385811660248301526000604483015288169063e63697c890606401602060405180830381600087803b1580156103ac57600080fd5b505af11580156103c0573d6000803e3d6000fd5b505050506040513d601f19601f820116820180604052508101906103e491906107d1565b50604080516bffffffffffffffffffffffff19606087811b821660208085019190915260348085018b9052855180860390910181526054850186528051908201206001600160f81b031960748601527f000000000000000000000000000000000000000000000000000000000000000090921b909216607584015260898301527f000000000000000000000000000000000000000000000000000000000000000060a9808401919091528351808403909101815260c990920190925280519101206000906040516370a0823160e01b81526001600160a01b0387811660048301529192506000918b16906370a082319060240160206040518083038186803b1580156104ef57600080fd5b505afa158015610503573d6000803e3d6000fd5b505050506040513d601f19601f8201168201806040525081019061052791906107d1565b6040516310be8b9160e31b815233600482015290915060009081906001600160a01b038516906385f45c88906024016040805180830381600087803b15801561056f57600080fd5b505af1158015610583573d6000803e3d6000fd5b505050506040513d601f19601f820116820180604052508101906105a791906107ea565b91509150828110156105f25760405162461bcd60e51b8152602060048201526014602482015273139bdd08195b9bdd59da081655081b5a5b9d195960621b60448201526064016101e7565b868210156106395760405162461bcd60e51b8152602060048201526014602482015273139bdd08195b9bdd59da081415081b5a5b9d195960621b60448201526064016101e7565b909b909a5098505050505050505050565b3360009081526001602052604090205460ff166106a15760405162461bcd60e51b815260206004820152601560248201527414d95b99195c881b9bdd08105d5d1a1bdc9a5e9959605a1b60448201526064016101e7565b6002805460ff1916911515919091179055565b6000546001600160a01b031633146106de5760405162461bcd60e51b81526004016101e79061080e565b610709816001600160a01b03166000908152600160208190526040909120805460ff19169091179055565b50565b60006020828403121561071e57600080fd5b813561072981610838565b9392505050565b60006020828403121561074257600080fd5b81356107298161084d565b60006020828403121561075f57600080fd5b81516107298161084d565b60008060008060008060c0878903121561078357600080fd5b863561078e81610838565b9550602087013561079e81610838565b9450604087013593506060870135925060808701356107bc81610838565b8092505060a087013590509295509295509295565b6000602082840312156107e357600080fd5b5051919050565b600080604083850312156107fd57600080fd5b505080516020909101519092909150565b60208082526010908201526f29b2b73232b9103737ba1037bbb732b960811b604082015260600190565b6001600160a01b038116811461070957600080fd5b801515811461070957600080fdfea2646970667358221220b10643e585c1c9b93afdf82e329ba764ee44309e046e2679828242a1c47400d964736f6c63430008070033",
  "immutableReferences": {
    "4795": [
      {
        "length": 32,
        "start": 1077
      }
    ],
    "4797": [
      {
        "length": 32,
        "start": 1126
      }
    ]
  },
  "source": "// SPDX-License-Identifier: Apache-2.0\r\npragma solidity ^0.8.0;\r\n\r\nimport \"../interfaces/IYearnVault.sol\";\r\nimport \"../libraries/Authorizable.sol\";\r\nimport \"../interfaces/IERC20.sol\";\r\nimport \"../interfaces/ITranche.sol\";\r\n\r\ncontract ZapYearnShares is Authorizable {\r\n    // Store the accessibility state of the contract\r\n    bool public isFrozen = false;\r\n    // Tranche factory address for Tranche contract address derivation\r\n    address internal immutable _trancheFactory;\r\n    // Tranche bytecode hash for Tranche contract address derivation.\r\n    // This is constant as long as Tranche does not implement non-constant constructor arguments.\r\n    bytes32 internal immutable _trancheBytecodeHash;\r\n\r\n    /// @param __trancheFactory Address of the TrancheFactory contract\r\n    /// @param __trancheBytecodeHash Hash of the Tranche bytecode.\r\n    constructor(address __trancheFactory, bytes32 __trancheBytecodeHash)\r\n        Authorizable()\r\n    {\r\n        _authorize(msg.sender);\r\n        _trancheFactory = __trancheFactory;\r\n        _trancheBytecodeHash = __trancheBytecodeHash;\r\n    }\r\n\r\n    /// @dev Requires that the contract is not frozen\r\n    modifier notFrozen() {\r\n        require(!isFrozen, \"Contract frozen\");\r\n        _;\r\n    }\r\n\r\n    /// @dev Allows an authorized address to freeze or unfreeze this contract\r\n    /// @param _newState True for frozen and false for unfrozen\r\n    function setIsFrozen(bool _newState) external onlyAuthorized() {\r\n        isFrozen = _newState;\r\n    }\r\n\r\n    /// @notice Mints a Principal/Interest token pair from yearn vault shares.\r\n    ///      then returns the tokens to the caller.\r\n    /// @param _underlying The underlying ERC20 token contract of the yearn vault.\r\n    /// @param _vault The address of the target yearn vault.\r\n    /// @param _amount The amount of yearn shares to turn into tokens\r\n    /// @param _expiration The expiration time of the Tranche contract.\r\n    /// @param _position The contract which manages pooled deposits.\r\n    /// @param _ptExpected The minimum amount of principal tokens to mint.\r\n    /// @return returns the minted amounts of principal and yield tokens (PT and YT)\r\n    function zapSharesIn(\r\n        IERC20 _underlying,\r\n        IYearnVault _vault,\r\n        uint256 _amount,\r\n        uint256 _expiration,\r\n        address _position,\r\n        uint256 _ptExpected\r\n    ) external notFrozen() returns (uint256, uint256) {\r\n        _vault.transferFrom(msg.sender, address(this), _amount);\r\n        _vault.withdraw(_amount, _position, 0);\r\n\r\n        ITranche tranche = _deriveTranche(address(_position), _expiration);\r\n        uint256 balance = _underlying.balanceOf(_position);\r\n\r\n        (uint256 ptMinted, uint256 ytMinted) = tranche.prefundedDeposit(\r\n            msg.sender\r\n        );\r\n        require(ytMinted >= balance, \"Not enough YT minted\");\r\n        require(ptMinted >= _ptExpected, \"Not enough PT minted\");\r\n        return (ptMinted, ytMinted);\r\n    }\r\n\r\n    /// @dev This internal function produces the deterministic create2\r\n    ///      address of the Tranche contract from a wrapped position contract and expiration\r\n    /// @param _position The wrapped position contract address\r\n    /// @param _expiration The expiration time of the tranche\r\n    /// @return The derived Tranche contract\r\n    function _deriveTranche(address _position, uint256 _expiration)\r\n        internal\r\n        virtual\r\n        view\r\n        returns (ITranche)\r\n    {\r\n        bytes32 salt = keccak256(abi.encodePacked(_position, _expiration));\r\n        bytes32 addressBytes = keccak256(\r\n            abi.encodePacked(\r\n                bytes1(0xff),\r\n                _trancheFactory,\r\n                salt,\r\n                _trancheBytecodeHash\r\n            )\r\n        );\r\n        return ITranche(address(uint160(uint256(addressBytes))));\r\n    }\r\n\r\n    /// @dev This contract can hold yearn vault share allowances for addresses so if it is deprecated\r\n    ///      it should be removed so that users do not have to remove allowances.\r\n    ///      Note - onlyOwner is a stronger check than onlyAuthorized, many addresses can be\r\n    ///      authorized to freeze or unfreeze the contract but only the owner address can kill\r\n    function deprecate() external onlyOwner() {\r\n        selfdestruct(payable(msg.sender));\r\n    }\r\n}\r\n",
  "sourcePath": "/f/BlockChain/conflux/contract/Liberation-fi/contracts/zaps/ZapYearnShares.sol",
  "compiler": {
    "name": "solc",
    "version": "0.8.7+commit.e28d00a7.Linux.g++"
  },
  "schemaVersion": "3.3.4",
  "updatedAt": "2021-08-18T09:57:16.290Z",
  "devdoc": {
    "kind": "dev",
    "methods": {
      "authorize(address)": {
        "details": "Privileged function authorize an address",
        "params": {
          "who": "the address to authorize"
        }
      },
      "constructor": {
        "params": {
          "__trancheBytecodeHash": "Hash of the Tranche bytecode.",
          "__trancheFactory": "Address of the TrancheFactory contract"
        }
      },
      "deauthorize(address)": {
        "details": "Privileged function to de authorize an address",
        "params": {
          "who": "The address to remove authorization from"
        }
      },
      "deprecate()": {
        "details": "This contract can hold yearn vault share allowances for addresses so if it is deprecated      it should be removed so that users do not have to remove allowances.      Note - onlyOwner is a stronger check than onlyAuthorized, many addresses can be      authorized to freeze or unfreeze the contract but only the owner address can kill"
      },
      "isAuthorized(address)": {
        "details": "Returns true if an address is authorized",
        "params": {
          "who": "the address to check"
        },
        "returns": {
          "_0": "true if authorized false if not"
        }
      },
      "setIsFrozen(bool)": {
        "details": "Allows an authorized address to freeze or unfreeze this contract",
        "params": {
          "_newState": "True for frozen and false for unfrozen"
        }
      },
      "setOwner(address)": {
        "details": "Function to change owner",
        "params": {
          "who": "The new owner address"
        }
      },
      "zapSharesIn(address,address,uint256,uint256,address,uint256)": {
        "params": {
          "_amount": "The amount of yearn shares to turn into tokens",
          "_expiration": "The expiration time of the Tranche contract.",
          "_position": "The contract which manages pooled deposits.",
          "_ptExpected": "The minimum amount of principal tokens to mint.",
          "_underlying": "The underlying ERC20 token contract of the yearn vault.",
          "_vault": "The address of the target yearn vault."
        },
        "returns": {
          "_0": "returns the minted amounts of principal and yield tokens (PT and YT)"
        }
      }
    },
    "version": 1
  },
  "userdoc": {
    "kind": "user",
    "methods": {
      "zapSharesIn(address,address,uint256,uint256,address,uint256)": {
        "notice": "Mints a Principal/Interest token pair from yearn vault shares.      then returns the tokens to the caller."
      }
    },
    "version": 1
  }
}